:100000000C946C000C94A4000C9489000C9489004E
:100010000C9489000C9489000C9489000C9489003C
:100020000C9489000C9489000C9489000C9489002C
:100030000C9489000C9489000C9489000C9489001C
:100040000C9489000C9489000C9489000C9489000C
:100050000C9489000600FF0901A101150026FF008C
:100060007508850195060900B2020185029583098C
:1000700000B20201C009022200010100803209041D
:1000800000000103000000092101010001222100FC
:10009000070581030800C81201100100000008CC08
:1000A000CC0134000101020001180348004900445A
:1000B0000042006F006F0074005F003300320041A7
:1000C0000012036F0062006400650076002E00617C
:1000D000007400040309040011241FBECFE5D8E01A
:1000E000DEBFCDBF10E0A0E6B0E0E6E3F7E002C07F
:1000F00005900D92AA36B107D9F720E0AAE6B0E044
:1001000001C01D92A939B207E1F70E943B020C948D
:1001100099030C940000A82FB92F80E090E041E0F3
:1001200050EA609530E009C02D9182279795879518
:1001300010F084279527305EC8F36F5FA8F3089509
:10014000EADF8D939D930895CF93CFB7CF93C39557
:10015000839BE9F7839B09C0839B07C0839B05C0F2
:10016000839B03C0839B01C0A3C0DF93C0917C002D
:10017000DD27CD57DF4F839B02C0DF91EBCF2F935D
:100180000F931F9300B32FEF03FB20F94F933F937F
:1001900010B34FEF012703FB21F93BE031C04E7F45
:1001A000012F10B3216028C0102F4D7F2260000066
:1001B00000B329C04B7F2460012F000010B32BC077
:1001C00010B3477F28602AC04F7E00B320612CC047
:1001D0004F7D10B320622FC04F7B00B3206432C02C
:1001E000422700B349934FEF0000102713FB20F97B
:1001F00010B31C70C9F1297F91F2012703FB21F98B
:1002000000B3237F89F2315058F1102713FB22F9F4
:1002100010B3277E79F2012703FB23F92F7C81F2AB
:1002200000B3102713FB24F92F7971F200C010B32B
:10023000012703FB25F92F7359F200C000B31027E3
:1002400013FB26F9223040F200C010B3012703FB54
:1002500027F9243028F64F77206810B30000F9CF33
:1002600010E41ABF002719C03B503195C31BD04082
:1002700010E41ABF0881033CF9F00B34E9F0209137
:1002800079001981110F1213EDCF4A81441F0936ED
:1002900041F10D3211F0013E29F7009381003F91A9
:1002A0004F911F910F912F91DF91CAB7C6FD4FCF8C
:1002B000CF91CFBFCF91189520918100222379F360
:1002C00010917F00112321F5343022F130937F000B
:1002D00020937B0010917C003BE0311B30937C002D
:1002E00019C000917F0001309CF40AE54F7081F441
:1002F0003091680034FD10C000936800CEE6D0E075
:100300000FC02795A8F45150A9F4220F0000F9CF8F
:100310004AE503C042ED01C0432FC4E1D0E032E022
:1003200011B31C60939A11BB02B320E41CE05F93ED
:10033000012756E002BB279520F4515021F4220FEB
:10034000F9CF012756E000003B5A02BBD0F22795B7
:1003500028F4515029F4220F0000F9CF012756E06C
:10036000279502BB20F4515021F4220FF9CF012729
:1003700056E02991332302BB21F6037F10918000C0
:10038000110FC651D04002BB11F01093790010E458
:100390001ABF086011B3137F402F437F5F9100C0E5
:1003A00000C002BB11BB42BB7ACFFC0191819930E6
:1003B00059F48281823021F410926B008FEF0895FE
:1003C00081E080936A000AC0913041F480E690E0B9
:1003D00090937E0080937D0087E0089580E00895EB
:1003E000CF93DF93DC0120916C0030916D009091F0
:1003F0006B00911108C011962C91119712963C91A7
:10040000129714966450960F90936B00907883E047
:1004100071E0C5E0422F4F7791F0F8944D915D91D6
:10042000F9010A0170935700E89511247894A90105
:100430004E5F5F4F9A01D42FDF7759F012C0F894C6
:10044000F90180935700E895789407B600FCFDCF3A
:10045000E4CFF894C0935700E895789407B600FC71
:10046000FDCF6250B9F650936D0040936C00892F18
:10047000DF91CF91089580E882BB88E28A95F1F7F9
:10048000879B0DC0F89481E180935700E8951BBECF
:1004900015BE81E08BBF1BBEE0E0F0E0099581E076
:1004A0008BBF82E08BBF0E9492038B9A80E0A8955D
:1004B000E7EBFBE03197F1F700C000008150B9F79E
:1004C0008B987894C0E0D0E0A8950E94700280914B
:1004D0006A008823C9F3D150B9F7C150A9F7D2CF28
:1004E000CF93DF9360917F00635067FDBEC0809122
:1004F0007C00CCE0D0E0C81BD109CD57DF4F809104
:100500007B008D3209F09FC0683009F0ACC083ECED
:1005100080936E008AE58093680010927A0088814B
:10052000807639F0CE010E94D5018F3F09F47AC060
:1005300080C08A81109277009981911106C0109233
:10054000780027E730E082E068C0953019F48093A6
:10055000800055C0963009F04CC09B81913031F439
:1005600089B78B7F89BF87E990E01AC0923041F448
:1005700085E790E090937E0080937D0082E235C015
:100580009330F1F4811108C083ED90E090937E00E8
:1005900080937D0084E029C0813041F481EC90E0BB
:1005A00090937E0080937D0082E11FC08230E1F451
:1005B00089EA90E090937E0080937D0088E115C0E9
:1005C000913241F487E890E090937E0080937D0023
:1005D00089E00BC0923241F484E590E090937E0074
:1005E00080937D0081E201C080E090E490937A00E6
:1005F00020C0983079F0993031F48093820027E759
:1006000030E080E00AC081E09A3009F080E027E71E
:1006100030E003C022E830E081E030937E00209398
:100620007D0007C0988197FD8E8190E890937A00B5
:1006300007C09F81911104C09E81981708F4892FEB
:100640008093670010C080917A0087FF0CC0CE01B4
:100650000E94F0018F3F21F48EE18093680003C077
:1006600081111092670010927F008091680084FFD2
:100670004CC0809167008F3F09F447C0C82F893074
:1006800008F0C8E08C1B8093670090916E0088E8AA
:10069000892780936E00CC2359F180917D00909141
:1006A0007E0020917A0026FF12C0AEE6B0E02C2F2B
:1006B000AC014E565040FA01EA0FFB1FE49111962F
:1006C000EC931197215011962111F5CF08C0EFE658
:1006D000F0E0DC012C2F3D9131932150E1F70196A0
:1006E0002FEF2C0F820F911D90937E0080937D0041
:1006F0006C2F8FE690E00E94A000CC5FCC3019F008
:100700008FEF80936700C093680084E190B39C7082
:1007100031F48150D9F71092800010927900DF9166
:10072000CF91089585B7836085BF8BB780648BBFF9
:060730000895F894FFCFCC
:0A07360001800000800000FF5A005F
:00000001FF
