:100000000C9468000C94A0000C9485000C9485005E
:100010000C9485000C9485000C9485000C9485004C
:100020000C9485000C9485000C9485000C9485003C
:100030000C9485000C9485000C9485000C9485002C
:100040000C9485000C9485000C9485000C9485001C
:100050000C9485000600FF0901A101150026FF0090
:100060007508850195060900B2020185029583098C
:1000700000B20201C009022200010100803209041D
:1000800000000103000000092101010001222100FC
:10009000070581030800C81201100100000008C014
:1000A00016DF050001010200011003480049004469
:1000B0000042006F006F00740012036F0062006462
:1000C00000650076002E006100740004030904003E
:1000D00011241FBECFE5D8E0DEBFCDBF10E0A0E603
:1000E000B0E0E0E0F7E002C005900D92AA36B1075B
:1000F000D9F720E0AAE6B0E001C01D92A939B20705
:10010000E1F70E941E020C947E030C940000A82FBD
:10011000B92F80E090E041E050EA609530E009C0FE
:100120002D9182279795879510F084279527305E2B
:10013000C8F36F5FA8F30895EADF8D939D93089548
:10014000CF93CFB7CF93DF93C395839BE9F7839B7F
:100150000BC0839B09C0839B07C0839B05C0839B07
:1001600003C0839B01C08BC06F93C0917C00DD27CF
:10017000CD57DF4F2F9365E5839B03C02F916F9180
:10018000E6CF0F931F934F9320E040E15F9300B3BE
:100190000C7003FB27F93F9350E03BE039C01C7023
:1001A00040642F77012F5F5F1EC0406810B31C7042
:1001B0002F7752501FC0406400B32F770C70D1F1DD
:1001C0005F5F00C023C0406210B32F771C7091F1B5
:1001D0005F5F00C025C00C701027515012F45D5FA6
:1001E0000000115027952C3F10B3C8F61C70012752
:1001F000015027952C3FC8F64227499300B30C7055
:1002000010274F73115027952C3FA8F64695469519
:1002100010B31C7079F00127015027952C3F98F6F8
:100220006B5A60F3315000B3B0F600C010E41ABF4F
:10023000002719C03B503195C31BD04010E41ABFB2
:100240000881033C09F10B34F9F020917A001981FF
:10025000110F1213EDCF4A81441F093651F10D32AF
:1002600011F0013E29F7009381003F915F914F917A
:100270001F910F912F916F91CAB7C6FD65CFDF9186
:10028000CF91CFBFCF91189520918100222369F3A0
:1002900010917F00112349F534304AF130937F00EB
:1002A00020937B0010917C003BE0311B30937C005D
:1002B0001EC000917F000130C4F40AE54F70A9F41C
:1002C0003091680034FD14C000936800CFE6D0E0A0
:1002D00013C0052710E000C0000002BB1AC00527AC
:1002E00010E0221F1DC010E021C04AE502C032ED1F
:1002F000432FC4E1D0E032E011B31C60939A02B303
:1003000011BB5CE020E865E320FF052702BB2795D1
:1003100017951C3FF0F66695B8F7B1F720FF052753
:1003200002BB279517951C3FD0F62795179517FF09
:10033000052700001C3F02BBB0F629913A9519F73A
:10034000037F10918000110FC651D04002BB11F005
:1003500010937A0010E41ABF086011B3137F402F86
:10036000437F54E05A95F1F702BB11BB42BB7DCFEE
:10037000FC019181993059F48281823021F41092EC
:100380006B008FEF089581E080936A000AC091307E
:1003900041F480E690E090937E0080937D0087E0BA
:1003A000089580E00895CF93DF93DC0120916C00E5
:1003B00030916D0090916B00911108C011962C91B5
:1003C000119712963C91129714966450960F909341
:1003D0006B00907883E071E0C5E0422F4F7791F099
:1003E000F8944D915D91F9010A0170935700E895D9
:1003F00011247894A9014E5F5F4F9A01D42FDF77C3
:1004000059F012C0F894F90180935700E895789458
:1004100007B600FCFDCFE4CFF894C0935700E895F1
:10042000789407B600FCFDCF6250B9F650936D008A
:1004300040936C00892FDF91CF910895D198D99A7C
:10044000BC9AC49885E38A95F1F70000C99B0DC05A
:10045000F89481E180935700E8951BBE15BE81E0BA
:100460008BBF1BBEE0E0F0E0099581E08BBF82E02E
:100470008BBF0E9477038B9A80E0A895EFE9FFE09D
:100480003197F1F700C000008150B9F78B9878944C
:10049000D0E0C0E0A8950E94580280916A008823AD
:1004A00021F0C15011F4D15099F2C99BF3CFD0CFB4
:1004B000CF93DF9360917F00635067FDBBC0809155
:1004C0007C00CCE0D0E0C81BD109CD57DF4F809134
:1004D0007B008D3209F09CC0683009F0A9C083EC24
:1004E00080936F008AE58093680010926E00888187
:1004F000807639F0CE010E94B8018F3F09F477C0B1
:100500007DC08A81109278009981911106C0109265
:10051000790028E730E082E065C0953019F48093D7
:10052000800052C0963009F049C09B81913019F487
:1005300087E990E01AC0923041F485E790E090930B
:100540007E0080937D0082E235C09330F1F481110A
:1005500008C08BEC90E090937E0080937D0084E057
:1005600029C0813041F489EB90E090937E00809324
:100570007D0082E11FC08230E1F489EA90E090932F
:100580007E0080937D0080E115C0913241F487E8C0
:1005900090E090937E0080937D0089E00BC09232C2
:1005A00041F484E590E090937E0080937D0081E2A9
:1005B00001C080E090E490936E0020C0983079F004
:1005C000993031F48093820028E730E080E00AC05F
:1005D00081E09A3009F080E028E730E003C022E8AB
:1005E00030E081E030937E0020937D0007C0988149
:1005F00097FD8E8190E890936E0007C09F819111C6
:1006000004C09E81981708F4892F8093670010C05A
:1006100080916E0087FF0CC0CE010E94D3018F3FF6
:1006200021F48EE18093680003C08111109267006D
:1006300010927F008091680084FF4CC08091670019
:100640008F3F09F447C0C82F893008F0C8E08C1BE1
:100650008093670090916F0088E8892780936F00EE
:10066000CC2359F180917D0090917E0020916E0005
:1006700026FF12C0AFE6B0E02C2FAC014F56504021
:10068000FA01EA0FFB1FE4911196EC9311972150A8
:1006900011962111F5CF08C0E0E7F0E0DC012C2F26
:1006A0003D9131932150E1F701962FEF2C0F820FEE
:1006B000911D90937E0080937D006C2F80E790E0E9
:1006C0000E949C00CC5FCC3019F08FEF80936700C4
:1006D000C093680084E190B39C7031F48150D9F7E5
:1006E0001092800010927A00DF91CF91089585B723
:1006F000836085BF8BB780648BBF0895F894FFCF6C
:0A07000001800000800000FF5A0095
:00000001FF
