:100000000C944D010C9485010C946A010C946A01C6
:100010000C946A010C946A010C946A010C946A01B4
:100020000C946A010C946A010C946A010C946A01A4
:100030000C946A010C946A010C946A010C946A0194
:100040000C946A010C946A010C946A010C946A0184
:100050000C946A018C04A0047804A8048204960419
:100060006E04AC0487049B047304A4047D0491040F
:100070006904640450045A0446045F044B045504A4
:1000800041043C04320437042D04280423041E04D4
:1000900019041504700584055C058C0566057A0550
:1000A000520590056B057F055705880561057505A7
:1000B0004D05480534053E052A0543052F0539053C
:1000C0002505200516051B0511050C05070502056C
:1000D000FD04F90439063606330630062D062A06D5
:1000E0002706240621061E061B06180615061206FC
:1000F0000F060C060906060603060006FD05FA05AE
:10010000F705F405F105EE05EB05E805E505E20563
:10011000DF053C0609025B00030100A0FA090400A8
:100120000001030101000921011100012240000723
:10013000058103080001090401000103010200090F
:100140002101110001228400070582030800010932
:100150000402000203000000092101110001222213
:1001600000070583030800010705040308000112C6
:1001700001011000000008CCCC1235010001020082
:10018000010631FF0974A1010975150026FF0095CC
:1001900008750881020976150026FF009508750884
:1001A0009102C005010902A10185010901A1000513
:1001B00009190129051500250175019505810275AB
:1001C00003950181030501093009311581257F75EA
:1001D000089502810609381581257F35004500758F
:1001E0000895018106050C0A38021581257F7508DE
:1001F00095018106C0C005010980A1018502150194
:1002000026B700190129B7751095018100C0050CAA
:100210000901A10185031501269C0219012A9C02EE
:10022000751095018100C005010906A101750195B0
:1002300008050719E029E7150025018102950175D8
:100240000881039505750105081901290591029595
:10025000017503910395067508150026FF00050733
:10026000190029FF8100C01201100100000008CC14
:10027000CC123501030102000112037600750073F0
:100280000062005F006B00650079000A037A006974
:100290000061006E00040309040011241FBECFE5B5
:1002A000D8E0DEBFCDBF11E0A0E6B0E0ECE0F6E1C3
:1002B00002C005900D92A031B107D9F721E0A0E16D
:1002C000B1E001C01D92A53EB207E1F70E94EF0721
:1002D0000C94040B0C940000A82FB92F80E090E040
:1002E00041E050EA609530E009C02D918227979552
:1002F000879510F084279527305EC8F36F5FA8F3C9
:100300000895EADF8D939D930895CF93CFB7CF9350
:10031000C395839BE9F7839B09C0839B07C0839B9D
:1003200005C0839B03C0839B01C0A3C0DF93C09122
:10033000BC01DD27CD53DE4F839B02C0DF91EBCFA5
:100340002F930F931F9300B32FEF03FB20F94F93CD
:100350003F9310B34FEF012703FB21F93BE031C07E
:100360004E7F012F10B3216028C0102F4D7F2260D7
:10037000000000B329C04B7F2460012F000010B3A0
:100380002BC010B3477F28602AC04F7E00B3206186
:100390002CC04F7D10B320622FC04F7B00B3206470
:1003A00032C0422700B349934FEF0000102713FBE0
:1003B00020F910B31C70C9F1297F91F2012703FBCA
:1003C00021F900B3237F89F2315058F1102713FB34
:1003D00022F910B3277E79F2012703FB23F92F7C42
:1003E00081F200B3102713FB24F92F7971F200C0BA
:1003F00010B3012703FB25F92F7359F200C000B396
:10040000102713FB26F9223040F200C010B3012759
:1004100003FB27F9243028F64F77206810B300003B
:10042000F9CF10E41ABF002719C03B503195C31B08
:10043000D04010E41ABF0881033CF9F00B34E9F016
:100440002091BA011981110F1213EDCF4A81441F77
:10045000093641F10D3211F0013E29F70093C10137
:100460003F914F911F910F912F91DF91CAB7C6FD18
:100470004FCFCF91CFBFCF9118952091C1012223AB
:1004800079F31091BF011123C1F53430C2F13093DB
:10049000BF012093BB011091BC013BE0311B3093A5
:1004A000BC012DC00091BF0101303CF50AE54F7041
:1004B00049F430910E0134FD24C000930E01C3EACB
:1004C000D1E023C0423049F03091AE0134FD19C073
:1004D0000093AE01CFEAD1E018C03091D90134FDCC
:1004E00010C00093D901CAEDD1E00FC02795A8F440
:1004F0005150A9F4220F0000F9CF4AE503C042EDA4
:1005000001C0432FC4E1D0E032E011B31C60939AE4
:1005100011BB02B320E41CE05F93012756E002BB4D
:10052000279520F4515021F4220FF9CF012756E0EE
:1005300000003B5A02BBD0F2279528F4515029F411
:10054000220F0000F9CF012756E0279502BB20F4C7
:10055000515021F4220FF9CF012756E0299133237E
:1005600002BB21F6037F1091C001110FC651D0408C
:1005700002BB11F01093BA0110E41ABF086011B366
:10058000137F402F437F5F9100C000C002BB11BBAF
:1005900042BB66CF8091920190918701981729F113
:1005A0008093870181E020919701309198014091DB
:1005B0008D0150918E0142175307C9F030938E017F
:1005C00020938D012091990130919A0180919001A1
:1005D0009091910182179307C9F030939101209374
:1005E000900183E080939B01089580E0DCCF20910F
:1005F000990130919A0140919001509191014217D7
:10060000530759F7882381F381E0ECCF82E0EACFEA
:1006100080917C0190916C019817D1F180936C01CD
:1006200081E090917D0120916E01291719F090933E
:100630006E0181E090917E0120916F01291719F0E0
:1006400090936F0181E090917F01209170012917B3
:1006500019F09093700181E09091800120917101D7
:10066000291719F09093710181E0909181012091F7
:100670007201291779F09093720190918201809113
:10068000730198139093730181E08093850108951D
:1006900080E0C7CF90918201209173012913F2CF9E
:1006A0008111F2CF0895CF9380919B018823B1F0FF
:1006B000CFEF02C0C15091F00E945C098091C2014D
:1006C0008823C1F38091D90184FFF4CFC0919B01AD
:1006D000C13041F0C1E08C2FCF910895C0E08C2F44
:1006E000CF91089566E086E891E00E943A09109261
:1006F0009B01F5CFCF93809185018823A9F0CFEF9F
:1007000002C0C15089F00E945C098091C201882317
:10071000C1F38091AE0184FFF4CF809185018111F6
:1007200006C081E0CF91089580E0CF91089568E000
:100730008CE691E00E9418091092850181E0CF912A
:1007400008950C945C0990917D01891711F1209115
:100750007E018217F1F030917F018317D1F0409133
:1007600080018417B1F050918101851791F060915B
:100770008201681771F0992371F02223A1F03323CD
:10078000A9F04423B1F05523B9F06623C1F080E00D
:10079000089581E0089520E030E0F901E458FE4F2B
:1007A000818381E0089521E030E0F7CF22E030E05E
:1007B000F4CF23E030E0F1CF24E030E0EECF25E0CD
:1007C00030E0EBCFECE7F1E09081892B8083089556
:1007D000E2E9F1E09081892B8083089590E0909385
:1007E000980180939701089590E090939A018093E7
:1007F00099010895E2E9F1E01082168215821086CF
:100800001782089586E0EDE7F1E0DF011D928A95F9
:10081000E9F710927C01089590E08032910540F450
:10082000FC01E65DFF4F0C94FE0A6111D7C08F9862
:100830000895662309F494C08E9A0895662309F4F6
:1008400091C08D9A0895662309F48EC08C9A0895FC
:10085000662309F48BC08B9A0895662309F48AC035
:100860008A9A0895662309F483C0889A08956623B6
:1008700009F482C0899A0895662309F47FC0A79A73
:100880000895662309F482C0A69A0895662309F4A0
:1008900079C0A29A0895662309F47CC0A49A0895A9
:1008A000662309F46DC0A09A0895662309F470C008
:1008B000A59A0895662309F467C0A19A089566234E
:1008C00009F46AC0A39A0895662309F467C0BF9A21
:1008D0000895662309F472C0BE9A0895662309F448
:1008E00065C0D69A0895662309F470C0BA9A08952F
:1008F000662309F457C0D29A0895662309F462C0AA
:10090000BC9A0895662309F455C0D49A08956623C5
:1009100009F460C0B89A0895662309F441C0D09ADA
:100920000895662309F44CC0BD9A0895662309F41E
:100930003FC0D59A0895662309F44AC0B99A08952C
:10094000662391F1D19A08956623F1F1BB9A089537
:10095000662391F1D39A08956623F1F1D79A089509
:100960008E9808958D9808958C9808958B98089581
:10097000889808958A98089589980895A798089561
:10098000A0980895A2980895A1980895A69808950A
:10099000A5980895A4980895A3980895BF980895D8
:1009A000D0980895D2980895D1980895D69808952A
:1009B000D5980895D4980895D3980895BE98089529
:1009C000BD980895BC980895BB980895BA98089565
:1009D000B9980895B8980895D79808958F9A08956A
:1009E00090E08032910540F4FC01E65BFF4F0C94EF
:1009F000FE0A6111D7C097980895662309F494C040
:100A0000969A0895662309F491C0959A08956623ED
:100A100009F48EC0949A0895662309F48BC0939AC2
:100A20000895662309F48AC0929A0895662309F40A
:100A300083C0909A0895662309F482C0919A08951C
:100A4000662309F47FC0AF9A0895662309F482C033
:100A5000AE9A0895662309F479C0AA9A0895662388
:100A600009F47CC0AC9A0895662309F46DC0A89A75
:100A70000895662309F470C0AD9A0895662309F4B9
:100A800067C0A99A0895662309F46AC0AB9A0895CD
:100A9000662309F467C0C79A0895662309F472C0F3
:100AA000C69A0895662309F465C0DE9A0895662300
:100AB00009F470C0C29A0895662309F457C0DA9AFF
:100AC0000895662309F462C0C49A0895662309F460
:100AD00055C0DC9A0895662309F460C0C09A089551
:100AE000662309F441C0D89A0895662309F44CC0DE
:100AF000C59A0895662309F43FC0DD9A08956623D8
:100B000009F44AC0C19A0895662391F1D99A0895CB
:100B10006623F1F1C39A0895662391F1DB9A089553
:100B20006623F1F1DF9A08959698089595980895AF
:100B30009498089593980895909808959298089598
:100B400091980895AF980895A8980895AA9808953F
:100B5000A9980895AE980895AD980895AC98089511
:100B6000AB980895C7980895D8980895DA9808958D
:100B7000D9980895DE980895DD980895DC98089531
:100B8000DB980895C6980895C5980895C498089567
:100B9000C3980895C2980895C1980895C09808957B
:100BA000DF980895979A089590E08032910510F0AB
:100BB00080E00895FC01E659FF4F0C94FE0A80B3D3
:100BC0008074089580B38072089580B38071089511
:100BD00080B38870089580B38470089580B3827064
:100BE000089580B38170089583B38078089583B3A6
:100BF0008074089583B38072089583B380710895DB
:100C000083B38870089583B38470089583B382702A
:100C1000089583B38170089586B38078089586B36C
:100C20008074089586B38072089586B380710895A4
:100C300086B38870089586B38470089586B38270F1
:100C4000089586B38170089589B38078089589B333
:100C50008074089589B38072089589B3807108956E
:100C600089B38870089589B38470089589B38270B8
:100C7000089589B38170089580B3807808951092A3
:100C80009D01E0E0F0E0ED5FFE4F60E080810E94BA
:100C90000C04E0919D01F0E0ED5FFE4F61E080818A
:100CA0000E94F004E0919D01EF5FE0939D01EA3026
:100CB00048F3089510929D01E0E0F0E0E050FF4F0E
:100CC00061E080810E940C04E0919D01F0E0E05021
:100CD000FF4F61E080810E94F004E0919D01EF5F91
:100CE000E0939D01E33048F30895FF920F931F9323
:100CF000CF93DF9380EF80939F0110929C0180E05F
:100D0000C1E0D0E012E00FE0FF24F3949E0102C0A6
:100D1000220F331F8A95E2F7C90127BB809588BB54
:100D200034E13A95F1F710929E01E0E01AC080910B
:100D30009C0190E0DC01AA0FBB1F880F991F880F50
:100D4000991F880F991FA80FB91FA05ABF4FAE0F48
:100D5000B11D8C9187778C93EF5FE0939E01EA3011
:100D600050F5F0E0ED5FFE4F80810E94D405E091E8
:100D70009E018111DCCF80919C0190E0DC01AA0FE3
:100D8000BB1F880F991F880F991F880F991FA80FE5
:100D9000B91FA05ABF4FAE0FB11D8C9188688C93BC
:100DA000109311018E3EC1F600939F01EF5FE09317
:100DB0009E01EA30B0F217BAF8BA80919C018F5FB9
:100DC00080939C01883008F4A1CF0E9402040E9405
:100DD000FA0310929C0140E010929E0130E01AC08C
:100DE000203B09F4B4C008F077C0203909F496C05C
:100DF000203A59F480559F4FE80FF91F80810E94D7
:100E0000E20340919C0130919E013F5F30939E012F
:100E10003A30B8F5842F90E0E32FF0E0BC01660F84
:100E2000771F880F991F880F991F880F991F860FAA
:100E3000971FDC01A05ABF4FAE0FBF1F5C912091DE
:100E40009F0125232D3009F475C050F62A3009F48E
:100E500097C008F453C02B3009F485C02C30A9F694
:100E6000AC014E5E5E4FE40FF51F80810E94EE03E1
:100E700040919C0130919E013F5F30939E013A303A
:100E800048F24F5F40939C01483008F4A5CF0E9480
:100E90000803882319F082E0809310010E94CA029F
:100EA000882319F082E08093100180911101823033
:100EB00009F47FC0813009F484C090911001811140
:100EC0007CC0992319F0915090931001DF91CF913C
:100ED0001F910F91FF900895203C09F45EC0203DC2
:100EE00009F093CF80559F4FE80FF91F80810E9432
:100EF000F40340919C0130919E0187CF293009F085
:100F000084CFAC014E5E5E4FE40FF51F80810E94DE
:100F1000A30340919C0130919E0177CF80559F4F54
:100F2000E80FF91F80810E94A30340919C0130913A
:100F30009E016BCF9C012E5E3E4FE20FF31F80811E
:100F40000E94F40340919C0130919E015ECF805538
:100F50009F4FE80FF91F80810E94E80340919C0198
:100F600030919E0152CFAC014E5E5E4FE40FF51FF3
:100F700080810E94E80340919C0130919E0145CF01
:100F8000AC014E5E5E4FE40FF51F80810E94E203CC
:100F900040919C0130919E0138CF80559F4FE80FC2
:100FA000F91F80810E94EE0340919C0130919E01C7
:100FB0002CCF90911001913059F081508093110104
:100FC00080CF0E947A030E9453038091110175CF54
:100FD0000E947A030E945303809111016BCF0E94FB
:100FE00032080E943F0617BA81E088BB0E945A0669
:100FF0000E9402040E94FA032FE78FE492E121503D
:1010000080409040E1F700C00000C1E0D0E00E94C5
:1010100075060E94A10310929D0180E00BC060E064
:1010200080810E94F00480919D018F5F80939D01DB
:10103000833068F7282F30E0AE0102C0440F551FFF
:101040008A95E2F78091830190E084239523F9014A
:10105000E050FF4F4817590711F761E080810E9467
:10106000F004E1CFCF93DF930E94EB0A8B9A2FE736
:101070008CEF9AE0215080409040E1F700C00000E2
:101080008B98789488E0ECE6F1E0DF01C82F1D92A0
:10109000CA95E9F7ECE7F1E02AE0DF01C22F1D92E3
:1010A000CA95E9F791E09087E6E8F1E03CE0DF01DE
:1010B0001D923A95E9F7A2E9B1E0ED0119922A955E
:1010C000E9F7908392E0968393E09187E4E7F1E07B
:1010D000DF01C82F1D92CA95E9F7E4E6F1E0DF01D0
:1010E0001D928A95E9F7DF91CF910895FC019093C5
:1010F000A2018093A10190819076903211F080E05E
:1011000008958181813069F0823099F08A3021F12F
:101110008930A9F7828193818115924091F08FEFF8
:1011200008958CE691E09093BE018093BD0188E024
:10113000089582E691E09093BE018093BD0181E025
:10114000089584819581892B51F78091830180686E
:10115000809383018FEF089583818093620180E003
:101160000895FC019091830197FD02C08FEF0895CF
:1011700080818093830181E00895FC019381923006
:1011800079F120F1913291F09232F1F484819581DC
:1011900081309105A9F1E0F10297B1F481E891E085
:1011A0009093BE018093BD0182E2089582818130D7
:1011B000F9F0B0F1823041F488E591E09093BE01FE
:1011C0008093BD0189E0089580E008959130E1F7B2
:1011D0008FE691E09093BE018093BD0182E1089576
:1011E00084E191E09093BE018093BD018BE5089569
:1011F0008FE391E09093BE018093BD0189E0089553
:1012000083EA91E09093BE018093BD0184E8089544
:1012100087E292E09093BE018093BD0180E408953F
:1012200086E291E09093BE018093BD0189E008952C
:10123000CF93C62F2091AE0124FF18C03091AF018B
:1012400028E823272093AF01FC01A0EBB1E08C2F0D
:1012500091919D938150E1F76C2F80EB91E00E947A
:101260008101CC5FC093AE01CF9108952AE5209310
:10127000AE01EACFCF93C62F2091D90124FF18C029
:101280003091DA0128E823272093DA01FC01ABED45
:10129000B1E08C2F91919D938150E1F76C2F8BEDF4
:1012A00091E00E948101CC5FC093D901CF91089554
:1012B0002AE52093D901EACFCF93DF936091BF0154
:1012C000635067FD14C02091BC018CE090E0821B4C
:1012D0009109EC01CD53DE4F8091BB018D3209F4B1
:1012E00079C08091630187FDEEC01092BF018091AB
:1012F0000E0184FF62C060910D016F3F09F45DC073
:10130000693008F48FC0685060930D019091A3017B
:1013100088E889278093A301CCE068E0A091BD0113
:10132000B091BE018091630186FF90C0FD01849160
:101330008093A40131968FEF860F09F42DC0E491BC
:10134000E093A501FD013296623031F1E491E09322
:10135000A601FD0133966330F9F0E491E093A70113
:10136000FD0134966430C1F0E491E093A801FD01E1
:101370003596653089F0E491E093A901FD01369638
:10138000663051F0E491E093AA01FD013796673091
:1013900019F0E491E093AB0190E00196A80FB91F1A
:1013A000B093BE01A093BD0184EA91E00E94810147
:1013B000CC3009F047C0C0930E0194E180B38C702B
:1013C00031F49150D9F71092C0011092BA01DF9117
:1013D000CF910895683009F088CF83EC8093A30102
:1013E0008AE580930E01109263018881807609F06E
:1013F00075C09A811092AC01898181117FC01092D1
:10140000AD012CEA31E082E03093BE012093BD01B2
:101410009F81911104C09E81981708F4892F8093B1
:101420000D0163CF10920D019091A30188E88927E7
:101430008093A30161115FC060E084EA91E00E94A3
:101440008101C4E08FEF80930D01B5CF8C91809323
:10145000A4018FEF860F09F49FCF11969C911197ED
:101460009093A501623009F497CF12969C91129740
:101470009093A601633009F48FCF13969C91139734
:101480009093A701643009F487CF14969C91149728
:101490009093A801653009F47FCF15969C9115971C
:1014A0009093A901663009F477CF16969C91169710
:1014B0009093AA01673009F46FCF17969C91179704
:1014C0009093AB0169CFCE010E94B1088F3F31F1FB
:1014D000882309F40ACF10920D0107CFCE010E9494
:1014E00076088F3F09F094CF988197FD1BC090E854
:1014F0009093630194CFC4E0C60F10CF8530A1F064
:10150000863011F18830E1F08930A1F08A30A9F1FC
:101510008B3051F12CEA31E080E076CF8EE1809380
:101520000E01E3CE8E81E3CF9093C0012CEA31E02F
:1015300080E06ACF9093C2012CEA31E080E064CF72
:1015400022EC31E081E060CF8B81813041F182304B
:1015500011F18330B1F08132F1F08232E1F080E0BC
:1015600090E490936301BDCF8BE48093AF018093AF
:10157000DA012CEA31E080E047CF2CEA31E081E06B
:1015800043CF911114C085E992E09093BE018093FE
:10159000BD0184E0E5CFCE010E94BD08E1CF87E622
:1015A00092E09093BE018093BD0182E1D9CF91304A
:1015B00051F09230A1F689E792E09093BE018093BA
:1015C000BD0182E1CDCF8BE892E09093BE01809384
:1015D000BD018AE0C5CF85B7826085BF8BB78064C7
:1015E0008BBFAEEAB1E08BE411968C931197E9EDD5
:1015F000F1E081838AE58C9380830895EE0FFF1FCD
:0C1600000590F491E02D0994F894FFCFC0
:10160C0011111111111111112121111101111111AE
:10161C0011112101111111111111111121110101BE
:10162C0001111101011121111111111111111101CE
:10163C00211101010111110101612111110101118E
:10164C00111101116111111111111111111101015E
:10165C00141A0815180C121301082B3900171C301A
:10166C00352F0200041607090D0E0F331031000040
:10167C00000A0B000034042C1D1B06191036370011
:10168C00202800000005110000003840290000222D
:10169C00232E002D002A1E1F202124252627000082
:1016AC0018191C01020304050607171615FF5A002A
:00000001FF
