:100000000C943A040C9472040C9457040C94570406
:100010000C9457040C9457040C9457040C945704F4
:100020000C9457040C9457040C9457040C945704E4
:100030000C9457040C9457040C9457040C945704D4
:100040000C9457040C9457040C9457040C945704C4
:100050000C945704620876084E087E0858086C080D
:10006000440882085D08710849087A08530867083F
:100070003F083A08260830081C08350821082B08D4
:100080001708120808080D080308FE07F907F40707
:10009000EF07EB0746095A09320962093C09500982
:1000A00028096609410955092D095E0937094B09D7
:1000B00023091E090A0914090009190905090F096C
:1000C000FB08F608EC08F108E708E208DD08D808A4
:1000D000D308CF080F0A0C0A090A060A030A000A05
:1000E000FD09FA09F709F409F109EE09EB09E80934
:1000F000E509E209DF09DC09D909D609D309D009E4
:10010000CD09CA09C709C409C109BE09BB09B80993
:10011000B509120A090254000301008032090400E3
:100120000001030101000921110100012240000723
:1001300005810308000A0904010001030102000906
:1001400021110100012284000705820308000A0929
:100150000402000103000000092111010001221521
:10016000000705030308000A12011001000000083F
:10017000A032600101000102000112037600750047
:10018000730062005F006B00650079000A037A006B
:10019000690061006E00040309040631FF0974A1BF
:1001A000010975150026FF00950875089102C00524
:1001B000010902A10185010901A10005091901290F
:1001C00005150025017501950581027503950181CD
:1001D000030501093009311581257F7508950281D4
:1001E0000609381581257F35004500750895018180
:1001F00006050C0A38021581257F750895018106D0
:10020000C0C005010980A1018502150126B70019AA
:100210000129B7751095018100C0050C0901A101E4
:1002200085031501269C0219012A9C02751095016F
:100230008100C005010906A101750195080507198E
:10024000E029E715002501810295017508810395D4
:10025000057501050819012905910295017503919C
:100260000395067508150026FF000507190029FFEC
:100270008100C00000000101010203040405070819
:10028000090A0C0D0F1112141617191B1D1F21221C
:10029000242628292B2D2E30313334353637383962
:1002A0003A3A3B3B3C3C3C3C3C3C3D3D3E3E3F4087
:1002B000414243444647494A4C4D4F515254565887
:1002C000595B5D5F6062646567696A6B6D6E6F70D4
:1002D00071727374747575767676767676767676D0
:1002E00076767676767676767676767777777777A9
:1002F000777777777777777777777777787878788A
:10030000787878787878787878787878787878786D
:100310007879797A7A7B7B7C7D7E7F7F808283840B
:10032000858687898A8B8C8E8F90919294959697EB
:1003300098999A9B9C9D9D9E9F9FA0A0A0A1A1A1E2
:10034000A1A1A1A2A2A3A3A4A5A6A7A9AAACADAF4F
:10035000B0B2B4B6B8BABCBEC0C2C4C6C8CACCCEAD
:10036000D0D2D4D6D8D9DBDCDEDFE0E1E2E3E3E4CF
:10037000E4E5E5E5E5E4E4E3E2E0DFDDDBD8D6D380
:10038000D0CDCAC6C2BFBBB7B3AFABA6A29E9A952B
:10039000918D8985817D7A7673706D6A67656361F9
:1003A0005F5E5C5B5B5A5A5A5A59595857565554B6
:1003B0005351504E4C4A484644423F3D3A383633FA
:1003C000302E2B292724221F1D1B1917151312103D
:1003D0000F0D0C0B0A090908080808080808080985
:1003E00009090A0A0A0B0B0C0D0D0E0E0F10101145
:1003F00012131314151516171818191A1A1B1B1C8B
:100400001D1D1E1E1E1F1F1F2020202020202020FB
:10041000202020201F1F1F1F1F1E1E1E1E1D1D1DF2
:100420001C1C1C1B1B1A1A1A191919181818171733
:10043000171616161615151515151414141414146C
:100440001414141414131313131212121111101084
:100450000F0F0E0E0D0D0C0B0B0A0A0908080707EB
:100460000606050404030303020201010101000062
:1004700000000039393939393838383737363635A8
:10048000343433323231302F2E2D2C2B2B2A292885
:10049000272625242323222120201F1E1E1D1D1C4C
:1004A0001C1C1B1B1B1B1B1B1B1B1B1A1A1A1919A1
:1004B00019181817161615141413121111100F0EFF
:1004C0000D0D0C0B0A0908080706060504040303B2
:1004D0000202010101000000000000000000000015
:1004E000000000000000000000000000000000000C
:1004F00000000000000000000000000000000000FC
:1005000000000000000000000000000000000000EB
:100510000101020304050607080A0B0D0F1113154C
:1005200017191B1D1F212426282A2C2E313335375D
:10053000383A3C3D3F404243444546464747484899
:10054000484849494A4B4C4E4F515356585B5D60A1
:1005500063666A6D7074787B7F83868A8E919598C6
:100560009C9FA2A5A8ABAEB0B3B5B7B9BBBCBDBE8E
:10057000BFC0C0C0C0C0C0C0C0C0BFBFBFBFBEBE84
:10058000BEBEBDBDBDBCBCBBBBBBBABAB9B9B8B8B9
:10059000B8B7B7B6B6B6B5B5B4B4B4B4B3B3B3B30D
:1005A000B3B2B2B2B2B2B2B2B2B2B2B2B2B2B2B329
:1005B000B3B3B3B3B3B4B4B4B4B4B5B5B5B5B6B6F8
:1005C000B6B6B7B7B7B7B7B8B8B8B8B9B9B9B9B9AF
:1005D000B9B9BABABABABABABABABABABABBBBBB7A
:1005E000BCBDBDBEBFC0C1C2C4C5C6C7C9CACCCDD3
:1005F000CFD0D2D4D5D7D8DADBDDDEE0E1E2E3E557
:10060000E6E7E8E9EAEAEBECECECEDEDEDEDEDED3B
:10061000ECECEBEAE9E8E7E5E4E2E1DFDDDBD9D7A2
:10062000D4D2D0CECBC9C6C4C2BFBDBBB8B6B4B29B
:10063000B0AEACAAA9A7A6A5A3A2A1A1A0A09F9F66
:100640009F9F9F9E9D9C9B9A99979593918F8D8A32
:10065000888582807D7A7773706D6A6764615E5B7E
:10066000585552504D4B48464442413F3E3C3B3B1F
:100670003A3939F3F3F3F3F3F3F3F3F3F2F2F2F27B
:10068000F2F2F2F1F1F1F1F1F0F0F0F0F0EFEFEF62
:10069000EFEFEEEEEEEEEEEDEDEDEDEDEDEDECEC83
:1006A000ECECECECECECECECECECECEBEBEBEBEA90
:1006B000EAE9E9E8E8E7E6E6E5E4E4E3E2E1E0E0E8
:1006C000DFDEDDDCDCDBDAD9D9D8D7D7D6D6D5D595
:1006D000D4D4D3D3D3D2D2D2D2D2D2D2D1D1D0CFFA
:1006E000CECCCBC9C7C5C3C0BEBBB9B6B3B0ADA92C
:1006F000A6A3A09C999693908C898683807E7B7913
:10070000767472706E6D6B6A696868676767676731
:1007100066666565646362615F5E5D5B5A585655E7
:1007200053514F4D4B4947454342403E3C3A383781
:10073000353332302F2E2D2C2B2A292828272727F6
:100740002727272726262625252423232221201F65
:100750001E1D1C1B1A1918171614131211100F0E38
:100760000D0B0A0908080706050404030302020228
:10077000010101010101010101020202020303035F
:10078000040404050506060707080809090A0A0BF8
:100790000B0C0C0D0D0E0E0F0F0F10101011111170
:1007A000111212121212121212121313141515161C
:1007B00017181A1B1C1E1F2122242628292B2D2F17
:1007C00031333536383A3C3E3F414244454748494B
:1007D0004A4B4C4D4D4E4E4F4F4F4F4F5051525331
:1007E0005557595B5D606366696D7174787C808470
:1007F000898D91969A9EA2A7ABAFB3B7BABEC2C578
:10080000C8CBCED0D2D4D6D8D9DADBDCDCDCDCDC89
:10081000DCDCDDDDDDDEDEDFDFE0E0E1E2E2E3E4E3
:10082000E4E5E6E7E8E9E9EAEBECEDEDEEEFF0F020
:10083000F1F2F2F3F4F4F5F5F5F6F6F6F7F7F7F76B
:10084000F7F7F7F7F7F7F7F7F7F7F7F7F6F6F6F63C
:10085000F6F6F6F6F6F6F5F5F5F5F5F5F5F5F4F444
:10086000F4F4F4F4F4F4F4F4F3F3F3F3F3F3F3F350
:10087000F3F3F30011241FBECFE5D8E0DEBFCDBFF8
:1008800011E0A0E6B0E0E4E1F2E202C005900D92D2
:10089000AC3FB107D9F723E0ACEFB1E001C01D9246
:1008A000A33DB207E1F70E94AD0A0C9408110C9425
:1008B0000000A82FB92F80E090E041E050EA609559
:1008C00030E009C02D9182279795879510F08427F5
:1008D0009527305EC8F36F5FA8F30895EADF8D9324
:1008E0009D930895CF93CFB7CF93DF93C395839B09
:1008F000E9F7839B0BC0839B09C0839B07C0839B45
:1009000005C0839B03C0839B01C08EC06F93C091C1
:10091000AA03DD27CF54DC4F2F9365E5839B03C0EB
:100920002F916F91E6CF0F931F934F9320E040E1FB
:100930005F9300B30C7003FB27F93F9350E03BE05B
:1009400039C01C7040642F77012F5F5F1EC0406864
:1009500010B31C702F7752501FC0406400B32F7724
:100960000C70D1F15F5F00C023C0406210B32F77DD
:100970001C7091F15F5F00C025C00C7010275150B2
:1009800012F45D5F0000115027952C3F10B3C8F69C
:100990001C700127015027952C3FC8F64227499328
:1009A00000B30C7010274F73115027952C3FA8F6F9
:1009B0004695469510B31C7079F001270150279594
:1009C0002C3F98F66B5A60F3315000B3B0F600C07C
:1009D00010E41ABF00271CC03B503195C31BD04008
:1009E00010E41ABF0881033C21F10B3411F120916E
:1009F000A8031981110F1213EDCF4A81441F093644
:100A000069F10D3211F0013E29F74F7009F0042F02
:100A10000093AF033F915F914F911F910F912F91E1
:100A20006F91CAB7C6FD62CFDF91CF91CFBFCF9193
:100A300018952091AF03222369F31091AD03112380
:100A4000E9F53430EAF13093AD032093A903109116
:100A5000AA033BE0311B3093AA0332C00091AD03DF
:100A6000013064F50AE54F7049F43091FB0134FD23
:100A700028C00093FB01C1E9D3E027C0423049F010
:100A800030919C0334FD1DC000939C03CDE9D3E05D
:100A90001CC03091C70334FD14C00093C703C8ECD9
:100AA000D3E013C0052710E000C0000002BB1AC04D
:100AB000052710E0221F1DC010E021C04AE502C03A
:100AC00032ED432FC4E1D0E032E011B31C60939AC1
:100AD00002B311BB5CE020E865E320FF052702BB01
:100AE000279517951C3FF0F66695B8F7B1F720FFEC
:100AF000052702BB279517951C3FD0F6279517951C
:100B000017FF052700001C3F02BBB0F629913A955C
:100B100019F7037F1091AE03110FC651D04002BBED
:100B200011F01093A80310E41ABF086011B3137FEB
:100B3000402F437F54E05A95F1F702BB11BB42BBF3
:100B400069CF80913003811102C080E00895109236
:100B50003003A091FE01B0E0CD0101968F7199277D
:100B60002091FD01281789F0AA0FBB1FAA0FBB1FF8
:100B7000AA0FBB1FA150BE4F98E0ECE0F3E001903C
:100B80000D929A95E1F78093FE010E94CF0E80911D
:100B9000B003882321F080919C0384FD02C081E092
:100BA00008958091FD019091FE019817C1F390E0A6
:100BB000880F991F880F991F880F991F68E081502F
:100BC0009E4F0E94830E8091FD0190E001968F71EF
:100BD00099278093FD0181E0089580913D039091D4
:100BE0003203981729F18093320381E02091420368
:100BF0003091430340913803509139034217530712
:100C0000C9F0309339032093380320914403309185
:100C1000450380913B0390913C0382179307C9F0F1
:100C200030933C0320933B0383E080934703089574
:100C300080E0DCCF209144033091450340913B0399
:100C400050913C034217530759F7882381F381E001
:100C5000ECCF82E0EACF8091240390910C039817A7
:100C6000D1F180930C0381E09091250320910E0334
:100C7000291719F090930E0381E09091260320919B
:100C80000F03291719F090930F0381E09091270328
:100C900020911003291719F09093100381E090918F
:100CA000280320911103291719F09093110381E073
:100CB0009091290320911203291779F09093120340
:100CC00090912A038091130398139093130381E06A
:100CD00080933003089580E0C7CF90912A0320913C
:100CE00013032913F2CF8111F2CF0895CF9380918E
:100CF0004703882381F081E08093FC010E94CF0E9E
:100D00008091C70384FD0BC08091FC018F5F8093AD
:100D1000FC01823398F3C0E08C2FCF910895C091ED
:100D20004703C13089F0C230B9F0C33021F0C1E0CF
:100D30008C2FCF91089563E08AE393E00E94A90E7F
:100D400010924703C1E0E8CF66E081E393E00E94A0
:100D5000A90E10924703E0CF63E087E393E00E947F
:100D6000A90E10924703C1E0D7CF0E94CF0E809109
:100D7000B003882319F080919C0384FF089580912B
:100D8000FD019091FE019817C9F390E0880F991F1B
:100D9000880F991F880F991F68E081509E4F0E940D
:100DA000830E8091FD0190E001968F7199278093C9
:100DB000FD01089590912503891711F120912603D3
:100DC0008217F1F0309127038317D1F04091280367
:100DD0008417B1F050912903851791F060912A038F
:100DE000681771F0992371F02223A1F03323A9F041
:100DF0004423B1F05523B9F06623C1F080E0089593
:100E000081E0089520E030E0F901EC5DFC4F818342
:100E100081E0089521E030E0F7CF22E030E0F4CF28
:100E200023E030E0F1CF24E030E0EECF25E030E009
:100E3000EBCFE4E2F3E09081892B80830895EDE32A
:100E4000F3E09081892B8083089590E09093430391
:100E5000809342030895982F907F9039D9F038F00D
:100E6000903C91F0903E81F0903B71F0089590326B
:100E700021F0903879F09111F9CF90E09260909341
:100E8000450380934403089590E090934503809335
:100E90004403089590E09160909345038093440348
:100EA0000895EDE3F3E01082168215821086178212
:100EB000089586E0E5E2F3E0DF011D928A95E9F707
:100EC000109224030895CF93DF93683019F0DF91D7
:100ED000CF910895EC0128812F3F09F45AC0209149
:100EE0002C032111F4CFFC0188E0A4E0B3E0ED0174
:100EF00019928A95E9F78081809304038181809318
:100F00000503828180930603838180930703848194
:100F100080930803858180930903868180930A0367
:100F2000878180930B03C0910403D09105030E9435
:100F30001F0BCE3FE1E0DE0780F0CE0102968E3F30
:100F4000F1E09F07E8F0CE0104968E3F21E0920782
:100F500070F0DF91CF910C94310BE199FECF60914D
:100F6000060370910703CE010E94F610E6CFE199C7
:100F7000FECF60910A0370910B030E94F610E9CF37
:100F8000E199FECF60910803709109030E94F61069
:100F9000DACF2981213F71F0223F09F0A0CF809163
:100FA0002C03811194CF82E080932C03DF91CF91A9
:100FB0000C94310B80912C03813009F088CF109272
:100FC0002C0385CF90E08032910540F4FC01E65D72
:100FD000FF4F0C94F0106111D7C08F9808956623CD
:100FE00009F494C08E9A0895662309F491C08D9AED
:100FF0000895662309F48EC08C9A0895662309F437
:101000008BC08B9A0895662309F48AC08A9A089542
:10101000662309F483C0889A0895662309F482C080
:10102000899A0895662309F47FC0A79A08956623D4
:1010300009F482C0A69A0895662309F479C0A29A99
:101040000895662309F47CC0A49A0895662309F4E0
:101050006DC0A09A0895662309F470C0A59A0895FA
:10106000662309F467C0A19A0895662309F46AC04B
:10107000A39A0895662309F467C0BF9A089566236A
:1010800009F472C0BE9A0895662309F465C0D69A21
:101090000895662309F470C0BA9A0895662309F486
:1010A00057C0D29A0895662309F462C0BC9A089585
:1010B000662309F455C0D49A0895662309F460C0E4
:1010C000B89A0895662309F441C0D09A089566231A
:1010D00009F44CC0BD9A0895662309F43FC0D59A1F
:1010E0000895662309F44AC0B99A0895662391F1D8
:1010F000D19A08956623F1F1BB9A0895662391F180
:10110000D39A08956623F1F1D79A08958E98089599
:101110008D9808958C9808958B98089588980895CF
:101120008A98089589980895A7980895A098089591
:10113000A2980895A1980895A6980895A59808954D
:10114000A4980895A3980895BF980895D0980895F5
:10115000D2980895D1980895D6980895D59808956D
:10116000D4980895D3980895BE980895BD98089589
:10117000BC980895BB980895BA980895B9980895B1
:10118000B8980895D79808958F9A089590E080327E
:10119000910540F4FC01E65BFF4F0C94F0106111E7
:1011A000D7C097980895662309F494C0969A089535
:1011B000662309F491C0959A0895662309F48EC0B8
:1011C000949A0895662309F48BC0939A0895662330
:1011D00009F48AC0929A0895662309F483C0909A0C
:1011E0000895662309F482C0919A0895662309F44C
:1011F0007FC0AF9A0895662309F482C0AE9A08951D
:10120000662309F479C0AA9A0895662309F47CC07C
:10121000AC9A0895662309F46DC0A89A08956623D0
:1012200009F470C0AD9A0895662309F467C0A99ABD
:101230000895662309F46AC0AB9A0895662309F4F9
:1012400067C0C79A0895662309F472C0C69A0895C4
:10125000662309F465C0DE9A0895662309F470C018
:10126000C29A0895662309F457C0DA9A089566234E
:1012700009F462C0C49A0895662309F455C0DC9A43
:101280000895662309F460C0C09A0895662309F49E
:1012900041C0D89A0895662309F44CC0C59A0895B0
:1012A000662309F43FC0DD9A0895662309F44AC015
:1012B000C19A0895662391F1D99A08956623F1F1B0
:1012C000C39A0895662391F1DB9A08956623F1F19C
:1012D000DF9A08959698089595980895949808959A
:1012E00093980895909808959298089591980895E4
:1012F000AF980895A8980895AA980895A998089570
:10130000AE980895AD980895AC980895AB98089557
:10131000C7980895D8980895DA980895D9980895A7
:10132000DE980895DD980895DC980895DB98089577
:10133000C6980895C5980895C4980895C3980895C7
:10134000C2980895C1980895C0980895DF980895A7
:10135000979A089590E08032910510F080E008950A
:10136000FC01E659FF4F0C94F01080B3807408958F
:1013700080B38072089580B38071089580B38870BF
:10138000089580B38470089580B38270089580B307
:101390008170089583B38078089583B3807408952D
:1013A00083B38072089583B38071089583B3887086
:1013B000089583B38470089583B38270089583B3CE
:1013C0008170089586B38078089586B380740895F7
:1013D00086B38072089586B38071089586B388704D
:1013E000089586B38470089586B38270089586B395
:1013F0008170089589B38078089589B380740895C1
:1014000089B38072089589B38071089589B3887013
:10141000089589B38470089589B38270089589B35B
:101420008170089580B380780895843031F0909170
:101430005403892B80935403089590910C039923AE
:1014400089F190912503953391F32091260325335B
:1014500071F330912703353351F34091280345331D
:1014600031F350912903553311F360912A03653309
:10147000F1F2992309F447C0222309F44AC0332327
:1014800009F450C0442309F453C0552309F453C050
:101490006111CDCF25E030E0F901EC5DFC4F95E323
:1014A0009183C5CF90912503993209F220912603AB
:1014B000293209F4BCCF30912703393209F4B7CF70
:1014C00040912803493209F4B2CF5091290359328F
:1014D00009F4ADCF60912A03693209F4A8CF9923AA
:1014E000A9F02223C9F03323D1F04423F1F055238E
:1014F00029F161119CCF25E030E0F901EC5DFC4F52
:1015000099E2918394CF20E030E0C6CF20E030E034
:10151000F4CF21E030E0C0CF21E030E0EECF22E098
:1015200030E0EBCF22E030E0B7CF23E030E0E5CF92
:1015300023E030E0B1CF24E030E0AECF24E030E073
:10154000DCCF8091540390915703981721F080933A
:10155000570381E0089580E008950C94C40C109224
:101560008A03E0E0F0E0ED57FF4F60E080810E94E9
:10157000E207E0918A03F0E0ED57FF4F61E08081E0
:101580000E94C608E0918A03EF5FE0938A03EF3080
:1015900048F30895CF93DF9347B321E030E0B901DA
:1015A00002C0660F771F8A95E2F7CB01462B47BB37
:1015B00098B38095892388BB10928A0380E0C1E0AC
:1015C000D0E00BC060E080810E94C60880918A0351
:1015D0008F5F80938A038330F0F4282F30E0AE01D0
:1015E00002C0440F551F8A95E2F780912B0390E0CB
:1015F00084239523F901E058FF4F4817590711F745
:1016000061E080810E94C60880918A038F5F809389
:101610008A03833010F38091010380FD04C0809120
:101620002B0380FF06C061E08CE1DF91CF910C9429
:10163000C60860E08CE1DF91CF910C94C60810924F
:101640008A03E0E0F0E0E058FF4F61E080810E9413
:10165000C608E0918A03EF5FE0938A03E33090F3DA
:10166000089510928A03E0E0F0E0E058FF4F60E058
:1016700080810E94C608E0918A03EF5FE0938A03AD
:10168000E33090F308950F931F93CF93DF9380EF90
:1016900080938C031092890380E0CFE01FE0D6E0B6
:1016A00001E00E94CA0A10928B03E0E008C08C910E
:1016B00087778C93EF5FE0938B03EF3008F5F0E0D2
:1016C000ED57FF4F80810E94AA09E0918B03A09102
:1016D0008903CA9FD0011124AE57BE4FAE0FB11D72
:1016E0008111E5CF8C9188688C93D09300038E3E56
:1016F00009F710938C03EF5FE0938B03EF30F8F260
:1017000017BA08BB809189038F5F80938903883063
:1017100040F20E9459070E94510710925403109200
:10172000890340E0CFE010928B0390E01DC0803B26
:1017300009F4CCC008F486C0803D09F4BBC0803FEA
:1017400009F4ACC0803C59F42E563F4FE20FF31F12
:1017500080810E9425074091890390918B039F5FB0
:1017600090938B039F3068F5E92FF0E0C49F9001C0
:101770001124D901AE57BE4FAE0FBF1F5C918091AF
:101780008C0385238F3009F4BAC088F68B3009F4B6
:101790006BC008F044C0893009F473C08A30F9F690
:1017A000A901465F5E4FE40FF51F80810E94190773
:1017B0004091890390918B039F5F90938B039F309F
:1017C00098F24F5F40938903483008F4ACCF0E94F1
:1017D000A10A882319F083E08093FF020E942B0660
:1017E000882319F083E08093FF020E94ED058111A8
:1017F0009FC080910003863009F4A2C0813009F4B3
:10180000A7C09091FF0281119FC0992319F09150B8
:101810009093FF02DF91CF911F910F9108958C302B
:1018200009F460C08D3009F09ACFA901465F5E4F80
:10183000E40FF51F80810E942B074091890390914E
:101840008B038DCF803909F467C0803A09F087CFC8
:101850002E563F4FE20FF31F80810E9419074091DF
:10186000890390918B037BCFA901465F5E4FE40F04
:10187000F51F80810E941F074091890390918B037F
:101880006ECFA901465F5E4FE40FF51F80810E9475
:10189000DA064091890390918B0361CF2E563F4F1A
:1018A000E20FF31F80810E94150A409189039091F5
:1018B0008B0355CF2E563F4FE20FF31F80810E94BE
:1018C0002B074091890390918B0349CF2E563F4FB0
:1018D000E20FF31F80810E941F07409189039091BE
:1018E0008B033DCFA901465F5E4FE40FF51F80815A
:1018F0000E9425074091890390918B0330CFC90145
:10190000865F9E4FE80FF91F80810E94150A409163
:10191000890390918B0323CF2E563F4FE20FF31F85
:1019200080810E94DA064091890390918B0317CF42
:1019300083E08093FF0280910003863009F05ECF40
:101940009091FF02913091F08150809300035DCF20
:1019500090910103809157038927809301030E948E
:10196000A1050E947606809100034BCF9091010360
:10197000809157038927809301030E94A1050E944B
:101980007606809100033ACF0E947F0D0E94AF0A35
:1019900017BA81E088BBC0E0D4E010928A03E0E08F
:1019A000F0E0E058FF4F61E080810E94E207E091A3
:1019B0008A03F0E0E058FF4F61E080810E94C60892
:1019C000E0918A03EF5FE0938A03E33048F361E03C
:1019D0008CE10E94E20761E08CE10E94C60810924F
:1019E00001030E94BD10D0938E03C0938D030E940B
:1019F000BF100E94D31081E080932C030E945907EE
:101A00000E9451072FEF89E698E1215080409040D5
:101A1000E1F700C000000E94A1050E94B506809178
:101A20002C03823009F4B9CF8130B9F70E94430BFF
:101A30008091B003882389F380919C0384FFEDCFCC
:101A40008091FF028111E9CF80918D0390918E03E7
:101A50008115E4E09E0708F445C08091010381FDF3
:101A600004C080912B0382FF2FC000E610E0E12C20
:101A7000F12C0CC0F80191838083FFEFEF1AFF0A6D
:101A80000E5F1F4F20E1E216F10401F1F801208101
:101A90003181F901ED58F94F6491F901ED58FB4F8F
:101AA0004491F901ED58FD4F2491C7010E94C710E0
:101AB000F8018081918101968115F2E09F07D0F2B3
:101AC000F80111821082D9CF0E94BF1080918D033E
:101AD00090918E03019790938E0380938D030E94C3
:101AE000D3109BCF009729F4D0938E03C0938D031E
:101AF00094CF019790938E0380938D038ECF89B7F7
:101B00008E7F89BF89B78B7F89BF89B78F7B89BF5C
:101B10008D98959A0E94AA108B9A8FEFA895AFE99D
:101B2000BFE01197F1F700C000008150B9F78B9822
:101B3000789488E0ECE1F3E0DF01382F1D923A95CC
:101B4000E9F7ECE0F3E0DF01382F1D923A95E9F771
:101B50009DE0E4E2F3E0DF011D929A95E9F791E060
:101B600090932C032CE0E8E4F3E0DF01322F1D9288
:101B70003A95E9F7E1E3F3E0DF011D922A95E9F7F1
:101B80002BE0EDE3F3E0DF011D922A95E9F7909356
:101B9000310392E09093370393E090933A03E4E1AA
:101BA000F3E0DF01382F1D923A95E9F7E4E0F3E026
:101BB000DF011D928A95E9F71092540310925703A2
:101BC0000895FC019093900380938F039081907609
:101BD000903211F080E008958181813069F0823087
:101BE00099F08A3021F18930A9F78281938181159A
:101BF000924091F08FEF08958CE093E09093AC03C6
:101C00008093AB0388E0089582E093E09093AC0367
:101C10008093AB0381E0089584819581892B51F7EE
:101C200080912B03806880932B038FEF089583812D
:101C30008093020380E00895FC0190912B0397FDAF
:101C400002C08FEF0895808180932B0381E0089577
:101C5000FC019381923079F120F1913291F092322E
:101C6000F1F48481958181309105A9F1E0F1029729
:101C7000B1F48AE991E09093AC038093AB0385E1E2
:101C8000089582818130F9F0B0F1823041F488E525
:101C900091E09093AC038093AB0389E0089580E0DA
:101CA00008959130E1F788E691E09093AC0380933A
:101CB000AB0382E1089584E191E09093AC038093BB
:101CC000AB0384E508958FE391E09093AC03809398
:101CD000AB0389E008958FEA91E09093AC03809381
:101CE000AB0384E8089583E392E09093AC03809380
:101CF000AB0380E4089586E291E09093AC03809377
:101D0000AB0389E00895CF9320919C032E31C1F05D
:101D100020919C0324FD16C02AE520939C03FC011E
:101D2000AEE9B3E0862F91919D938150E1F7C62FE4
:101D30008EE993E00E946E0464E06C0F60939C0354
:101D4000CF91089530919D0328E8232720939D0388
:101D5000E6CFCF9320919C032E31C1F02091C70391
:101D600024FD16C02AE52093C703FC01A9ECB3E0CB
:101D7000862F91919D938150E1F7C62F89EC93E0D6
:101D80000E946E0464E06C0F6093C703CF910895C6
:101D90003091C80328E823272093C803E6CFCF93C8
:101DA000DF936091AD03635067FD17C02091AA03D4
:101DB0008CE090E0821B9109EC01CF54DC4F8091C4
:101DC000A903803108F494C08D3209F495C0809144
:101DD000030387FDEDC01092AD038091FB0184FFEA
:101DE00061C06091FA016F3F09F45CC0693008F48A
:101DF0006BC068506093FA019091910388E889273D
:101E000080939103CCE068E0A091AB03B091AC0368
:101E10008091030386FF8FC0FD018491809392031C
:101E200031968FEF860F09F42DC0E491E093930370
:101E3000FD013296623031F1E491E0939403FD01AB
:101E400033966330F9F0E491E0939503FD01349605
:101E50006430C1F0E491E0939603FD01359665305E
:101E600089F0E491E0939703FD013696663051F0D6
:101E7000E491E0939803FD013796673019F0E491FF
:101E8000E093990390E00196A80FB91FB093AC03BB
:101E9000A093AB0382E993E00E946E04CC3021F55D
:101EA000C093FB0194E180B38C7059F49150D9F741
:101EB0001092AE031092A8038AE580939C0380934E
:101EC000C703DF91CF9108951092FA019091910389
:101ED00088E8892780939103611196C060E082E9C8
:101EE00093E00E946E04C4E08FEF8093FA01D8CF94
:101EF000CE010E9463076FCF683009F06CCF83EC8E
:101F0000809391038AE58093FB01109203039881EB
:101F1000892F807609F45BC0CE010E94E10D8F3FCE
:101F200009F069C0988197FD9CC090E890930303E5
:101F30008093FA0150CF8C91809392038FEF860F9C
:101F400009F4A0CF11969C9111979093930362305E
:101F500009F498CF12969C91129790939403633052
:101F600009F490CF13969C91139790939503643046
:101F700009F488CF14969C9114979093960365303A
:101F800009F480CF15969C9115979093970366302E
:101F900009F478CF16969C91169790939803673022
:101FA00009F470CF17969C911797909399036ACF75
:101FB000CE010E941C0E8F3F31F0882309F40BCF15
:101FC0001092FA0108CF8EE18093FB0104CF2A81A1
:101FD0003C8110929A038981811119C09F719230BE
:101FE00009F441C010929B032AE933E082E0309368
:101FF000AC032093AB039F8191119ACF9E819817D8
:1020000008F096CF892F94CFC4E0C60FFDCE982F4D
:102010009D7F913099F0853009F444C0863009F4F1
:1020200047C08830D9F1893071F18A3041F18B3065
:1020300009F450C02AE933E080E0D9CF2111FACF6A
:102040003138C1F7813009F443C08EE180939C039D
:102050008BE480939D038093C8032AE933E080E0FA
:10206000C6CF8E8162CF313809F0BCCF90919C03EE
:1020700081E09E3109F080E080939A03B3CF2AE992
:1020800033E081E0B4CF2093B0038AE580939C03D2
:102090008093C7032AE933E080E0A9CF20EB33E047
:1020A00081E0A5CF2093AE032AE933E080E09FCF03
:1020B0008B81813099F1823049F18330E9F08132AE
:1020C00099F0823269F080E090E49093030327CF87
:1020D0008AE5BCCF8BE480939D038093C803D5CF62
:1020E000CE010E94280EF0CF86E291E09093AC03DF
:1020F0008093AB0389E0E8CF211118C086E991E015
:102100009093AC038093AB0384E0DECF84E191E055
:102110009093AC038093AB0384E5D6CF88E691E03F
:102120009093AC038093AB0382E1CECF213051F08A
:10213000223049F68AE791E09093AC038093AB0399
:1021400082E1C2CF8CE891E09093AC038093AB0323
:102150008AE0BACF85B7826085BF8BB780648BBFBA
:10216000ACE9B3E08BE411968C931197E7ECF3E0C4
:1021700081838AE58C9380830895A19A089580E3F2
:10218000E9E5F3E0DF011D928A95E9F70895FC0186
:10219000EE0FFF1F8E0F9F1FFC01E75AFC4F40837D
:1021A000618322830895F89425B32D7F95B39260BF
:1021B000E9E5F3E0819138E095BB000000C087FFBE
:1021C00025BB880F000000C000C000C025BB00C0B8
:1021D0003A9591F783E0E938F80761F77894089524
:1021E000EE0FFF1F0590F491E02D09940E94FB1063
:1021F000272F0C94FC10262FE199FECF9FBB8EBB9E
:102200002DBB0FB6F894E29AE19A0FBE019608959D
:04221000F894FFCF70
:1022140000002200440066008800AA00CC00EE0002
:10222400EE00CC00AA0088006600440022000000F2
:1022340018191E00010203040506071716151413C6
:10224400121F0108040000000000000080001000BC
:1022540000021D1B061905000000003820000000C4
:1022640039041607090A0000000033340028002B43
:10227400141A08151700000000132F303100351E02
:102284001F20212200000000272D2E352A000000E7
:1022940000000000000000000000000000231C0BF0
:1022A400112C5051524F0024180D100026120F37D4
:1022B400400000000000250C0E3600000000000065
:1022C400000000000000000000000000000000000A
:1022D40000000000000000000000000000000000FA
:1022E40000000000000000000000000000000000EA
:1022F400000000000000293A3B3C3D3E0000000085
:10230400434445004C0000000000000000000000B1
:1023140000000000003F000000000000000000403A
:102324000000000042000000000000000000410026
:10233400000020202066000000000000206620002D
:102344000020101010101000000000102066000083
:1023540010101010101000000000101000100010D9
:1023640010101010100000000010101010001111B7
:1023740011111111000000001111111011000000C1
:102384000000000000000000000000000011101018
:102394001010101010100011101010001110101057
:0C23A40020000000000011101010FF5A73
:00000001FF
