:100000000C944D010C9485010C946A010C946A01C6
:100010000C946A010C946A010C946A010C946A01B4
:100020000C946A010C946A010C946A010C946A01A4
:100030000C946A010C946A010C946A010C946A0194
:100040000C946A010C946A010C946A010C946A0184
:100050000C946A01AA04BE049604C604A004B40465
:100060008C04CA04A504B9049104C2049B04AF041F
:10007000870482046E04780464047D0469047304B4
:100080005F045A04500455044B04460441043C04E4
:10009000370433048E05A2057A05AA058405980560
:1000A0007005AE0589059D057505A6057F059305B7
:1000B0006B05660552055C05480561054D0557054C
:1000C00043053E05340539052F052A05250520057C
:1000D0001B0517055706540651064E064B064806E3
:1000E000450642063F063C0639063606330630060C
:1000F0002D062A062706240621061E061B061806BC
:10010000150612060F060C0609060606030600066B
:10011000FD055A0609025B00030100A0FA0904006C
:100120000001030101000921011100012240000723
:10013000058103080001090401000103010200090F
:100140002101110001228400070582030800010932
:100150000402000203000000092101110001222213
:1001600000070583030800010705040308000112C6
:1001700001011000000008CCCC1235010001020082
:10018000010631FF0974A1010975150026FF0095CC
:1001900008750881020976150026FF009508750884
:1001A0009102C005010902A10185010901A1000513
:1001B00009190129051500250175019505810275AB
:1001C00003950181030501093009311581257F75EA
:1001D000089502810609381581257F35004500758F
:1001E0000895018106050C0A38021581257F7508DE
:1001F00095018106C0C005010980A1018502150194
:1002000026B700190129B7751095018100C0050CAA
:100210000901A10185031501269C0219012A9C02EE
:10022000751095018100C005010906A101750195B0
:1002300008050719E029E7150025018102950175D8
:100240000881039505750105081901290591029595
:10025000017503910395067508150026FF00050733
:10026000190029FF8100C01201100100000008CC14
:10027000CC123501030102000112037600750073F0
:100280000062005F006B00650079000A037A006974
:100290000061006E00040309040011241FBECFE5B5
:1002A000D8E0DEBFCDBF11E0A0E6B0E0E2E5F6E1C8
:1002B00002C005900D92A036B107D9F721E0A0E663
:1002C000B1E001C01D92A73EB207E1F70E940D0800
:1002D0000C94270B0C940000A82FB92F80E090E01D
:1002E00041E050EA609530E009C02D918227979552
:1002F000879510F084279527305EC8F36F5FA8F3C9
:100300000895EADF8D939D930895CF93CFB7CF9350
:10031000C395839BE9F7839B09C0839B07C0839B9D
:1003200005C0839B03C0839B01C0A3C0DF93C09122
:10033000BE01DD27CB53DE4F839B02C0DF91EBCFA5
:100340002F930F931F9300B32FEF03FB20F94F93CD
:100350003F9310B34FEF012703FB21F93BE031C07E
:100360004E7F012F10B3216028C0102F4D7F2260D7
:10037000000000B329C04B7F2460012F000010B3A0
:100380002BC010B3477F28602AC04F7E00B3206186
:100390002CC04F7D10B320622FC04F7B00B3206470
:1003A00032C0422700B349934FEF0000102713FBE0
:1003B00020F910B31C70C9F1297F91F2012703FBCA
:1003C00021F900B3237F89F2315058F1102713FB34
:1003D00022F910B3277E79F2012703FB23F92F7C42
:1003E00081F200B3102713FB24F92F7971F200C0BA
:1003F00010B3012703FB25F92F7359F200C000B396
:10040000102713FB26F9223040F200C010B3012759
:1004100003FB27F9243028F64F77206810B300003B
:10042000F9CF10E41ABF002719C03B503195C31B08
:10043000D04010E41ABF0881033CF9F00B34E9F016
:100440002091BC011981110F1213EDCF4A81441F75
:10045000093641F10D3211F0013E29F70093C30135
:100460003F914F911F910F912F91DF91CAB7C6FD18
:100470004FCFCF91CFBFCF9118952091C3012223A9
:1004800079F31091C1011123C1F53430C2F13093D9
:10049000C1012093BD011091BE013BE0311B30939F
:1004A000BE012DC00091C10101303CF50AE54F703D
:1004B00049F430915E0134FD24C000935E01C5EA29
:1004C000D1E023C0423049F03091B00134FD19C071
:1004D0000093B001C1EBD1E018C03091DB0134FDD5
:1004E00010C00093DB01CCEDD1E00FC02795A8F43C
:1004F0005150A9F4220F0000F9CF4AE503C042EDA4
:1005000001C0432FC4E1D0E032E011B31C60939AE4
:1005100011BB02B320E41CE05F93012756E002BB4D
:10052000279520F4515021F4220FF9CF012756E0EE
:1005300000003B5A02BBD0F2279528F4515029F411
:10054000220F0000F9CF012756E0279502BB20F4C7
:10055000515021F4220FF9CF012756E0299133237E
:1005600002BB21F6037F1091C201110FC651D0408A
:1005700002BB11F01093BC0110E41ABF086011B364
:10058000137F402F437F5F9100C000C002BB11BBAF
:1005900042BB66CF8091940190918901981729F10F
:1005A0008093890181E02091990130919A014091D5
:1005B0008F015091900142175307C9F03093900179
:1005C00020938F0120919B0130919C018091920199
:1005D0009091930182179307C9F030939301209370
:1005E000920183E080939D01089580E0DCCF20910B
:1005F0009B0130919C0140919201509193014217CF
:10060000530759F7882381F381E0ECCF82E0EACFEA
:1006100080917E0190916E019817D1F180936E01C7
:1006200081E090917F0120917001291719F090933A
:10063000700181E09091800120917101291719F0DA
:100640009093710181E090918101209172012917AD
:1006500019F09093720181E09091820120917301D1
:10066000291719F09093730181E0909183012091F3
:100670007401291779F0909374019091840180910D
:10068000750198139093750181E080938701089517
:1006900080E0C7CF90918401209175012913F2CF9A
:1006A0008111F2CF0895CF9380919D018823A1F00D
:1006B00081E0809361010E947F098091C4018823B9
:1006C00021F08091DB0184FD0BC0809161018F5F7F
:1006D00080936101823378F3C0E08C2FCF9108952D
:1006E000C0919D01C13089F0C230B9F0C33021F012
:1006F000C1E08C2FCF91089563E081E991E00E94E1
:100700005D0910929D01C1E0E8CF66E088E891E0C4
:100710000E945D0910929D01E0CF63E08EE891E0B8
:100720000E945D0910929D01C1E0D7CF80918701A1
:100730008823A1F081E0809360010E947F0980916D
:10074000C401882321F08091B00184FD09C080910B
:1007500060018F5F80936001823378F380E00895B9
:1007600080918701811102C081E0089568E08EE6E2
:1007700091E00E943B091092870181E008950C945A
:100780007F0990917F01891711F1209180018217D3
:10079000F1F0309181018317D1F0409182018417EB
:1007A000B1F050918301851791F060918401681731
:1007B00071F0992371F02223A1F03323A9F044238F
:1007C000B1F05523B9F06623C1F080E0089581E0CF
:1007D000089520E030E0F901E258FE4F818381E086
:1007E000089521E030E0F7CF22E030E0F4CF23E0BD
:1007F00030E0F1CF24E030E0EECF25E030E0EBCF89
:10080000EEE7F1E09081892B80830895E4E9F1E03F
:100810009081892B8083089590E090939A01809332
:100820009901089590E090939C0180939B01089515
:10083000E4E9F1E01082168215821086178208958D
:1008400086E0EFE7F1E0DF011D928A95E9F710926B
:100850007E01089590E08032910540F4FC01E65D50
:10086000FF4F0C94210B6111D7C08F980895662318
:1008700009F494C08E9A0895662309F491C08D9A64
:100880000895662309F48EC08C9A0895662309F4AE
:100890008BC08B9A0895662309F48AC08A9A0895BA
:1008A000662309F483C0889A0895662309F482C0F8
:1008B000899A0895662309F47FC0A79A089566234C
:1008C00009F482C0A69A0895662309F479C0A29A11
:1008D0000895662309F47CC0A49A0895662309F458
:1008E0006DC0A09A0895662309F470C0A59A089572
:1008F000662309F467C0A19A0895662309F46AC0C3
:10090000A39A0895662309F467C0BF9A08956623E1
:1009100009F472C0BE9A0895662309F465C0D69A98
:100920000895662309F470C0BA9A0895662309F4FD
:1009300057C0D29A0895662309F462C0BC9A0895FC
:10094000662309F455C0D49A0895662309F460C05B
:10095000B89A0895662309F441C0D09A0895662391
:1009600009F44CC0BD9A0895662309F43FC0D59A96
:100970000895662309F44AC0B99A0895662391F14F
:10098000D19A08956623F1F1BB9A0895662391F1F7
:10099000D39A08956623F1F1D79A08958E98089511
:1009A0008D9808958C9808958B9808958898089547
:1009B0008A98089589980895A7980895A098089509
:1009C000A2980895A1980895A6980895A5980895C5
:1009D000A4980895A3980895BF980895D09808956D
:1009E000D2980895D1980895D6980895D5980895E5
:1009F000D4980895D3980895BE980895BD98089501
:100A0000BC980895BB980895BA980895B998089528
:100A1000B8980895D79808958F9A089590E08032F5
:100A2000910540F4FC01E65BFF4F0C94210B611132
:100A3000D7C097980895662309F494C0969A0895AC
:100A4000662309F491C0959A0895662309F48EC02F
:100A5000949A0895662309F48BC0939A08956623A7
:100A600009F48AC0929A0895662309F483C0909A83
:100A70000895662309F482C0919A0895662309F4C3
:100A80007FC0AF9A0895662309F482C0AE9A089594
:100A9000662309F479C0AA9A0895662309F47CC0F4
:100AA000AC9A0895662309F46DC0A89A0895662348
:100AB00009F470C0AD9A0895662309F467C0A99A35
:100AC0000895662309F46AC0AB9A0895662309F471
:100AD00067C0C79A0895662309F472C0C69A08953C
:100AE000662309F465C0DE9A0895662309F470C090
:100AF000C29A0895662309F457C0DA9A08956623C6
:100B000009F462C0C49A0895662309F455C0DC9ABA
:100B10000895662309F460C0C09A0895662309F415
:100B200041C0D89A0895662309F44CC0C59A089527
:100B3000662309F43FC0DD9A0895662309F44AC08C
:100B4000C19A0895662391F1D99A08956623F1F127
:100B5000C39A0895662391F1DB9A08956623F1F113
:100B6000DF9A089596980895959808959498089511
:100B7000939808959098089592980895919808955B
:100B8000AF980895A8980895AA980895A9980895E7
:100B9000AE980895AD980895AC980895AB980895CF
:100BA000C7980895D8980895DA980895D99808951F
:100BB000DE980895DD980895DC980895DB980895EF
:100BC000C6980895C5980895C4980895C39808953F
:100BD000C2980895C1980895C0980895DF9808951F
:100BE000979A089590E08032910510F080E0089582
:100BF000FC01E659FF4F0C94210B80B380740895DB
:100C000080B38072089580B38071089580B3887036
:100C1000089580B38470089580B38270089580B37E
:100C20008170089583B38078089583B380740895A4
:100C300083B38072089583B38071089583B38870FD
:100C4000089583B38470089583B38270089583B345
:100C50008170089586B38078089586B3807408956E
:100C600086B38072089586B38071089586B38870C4
:100C7000089586B38470089586B38270089586B30C
:100C80008170089589B38078089589B38074089538
:100C900089B38072089589B38071089589B388708B
:100CA000089589B38470089589B38270089589B3D3
:100CB0008170089580B38078089510929F01E0E0DC
:100CC000F0E0ED5AFE4F60E080810E942A04E0913E
:100CD0009F01F0E0ED5AFE4F61E080810E940E0519
:100CE000E0919F01EF5FE0939F01EA3048F30895A0
:100CF00010929F01E0E0F0E0E05BFE4F61E0808158
:100D00000E942A04E0919F01F0E0E05BFE4F61E069
:100D100080810E940E05E0919F01EF5FE0939F01AB
:100D2000E33048F30895FF920F931F93CF93DF931F
:100D300080EF8093A10110929E0180E0C1E0D0E09D
:100D400012E00FE0FF24F3949E0102C0220F331F34
:100D50008A95E2F7C90127BB809588BB34E13A95B3
:100D6000F1F71092A001E0E01AC080919E0190E09E
:100D7000DC01AA0FBB1F880F991F880F991F880FCE
:100D8000991FA80FB91FA05ABF4FAE0FB11D8C916C
:100D900087778C93EF5FE093A001EA3050F5F0E0A5
:100DA000ED5AFE4F80810E94F205E091A001811171
:100DB000DCCF80919E0190E0DC01AA0FBB1F880F61
:100DC000991F880F991F880F991FA80FB91FA05A44
:100DD000BF4FAE0FB11D8C9188688C931093630147
:100DE0008E3EC1F60093A101EF5FE093A001EA30CF
:100DF000B0F217BAF8BA80919E018F5F80939E017E
:100E0000883008F4A1CF0E9420040E941804109298
:100E10009E0140E01092A00130E01AC0203B09F48E
:100E2000B4C008F077C0203909F496C0203A59F4CC
:100E300080509F4FE80FF91F80810E94000440916D
:100E40009E013091A0013F5F3093A0013A30B8F588
:100E5000842F90E0E32FF0E0BC01660F771F880F2E
:100E6000991F880F991F880F991F860F971FDC0104
:100E7000A05ABF4FAE0FBF1F5C912091A101252347
:100E80002D3009F475C050F62A3009F497C008F4E3
:100E900053C02B3009F485C02C30A9F6AC01405565
:100EA0005F4FE40FF51F80810E940C0440919E016A
:100EB0003091A0013F5F3093A0013A3048F24F5F7C
:100EC00040939E01483008F4A5CF0E940803882370
:100ED00019F082E0809362010E94CA02882319F00F
:100EE00082E08093620180916301823009F47FC0C7
:100EF000813009F484C09091620181117CC09923F2
:100F000019F0915090936201DF91CF911F910F9151
:100F1000FF900895203C09F45EC0203D09F093CF76
:100F200080509F4FE80FF91F80810E94120440916A
:100F30009E013091A00187CF293009F084CFAC0108
:100F400040555F4FE40FF51F80810E94C10340911F
:100F50009E013091A00177CF80509F4FE80FF91F7D
:100F600080810E94C10340919E013091A0016BCF0E
:100F70009C0120553F4FE20FF31F80810E94120415
:100F800040919E013091A0015ECF80509F4FE80FAD
:100F9000F91F80810E94060440919E013091A001BA
:100FA00052CFAC0140555F4FE40FF51F80810E9486
:100FB000060440919E013091A00145CFAC014055FF
:100FC0005F4FE40FF51F80810E94000440919E0155
:100FD0003091A00138CF80509F4FE80FF91F8081DA
:100FE0000E940C0440919E013091A0012CCF909161
:100FF0006201913059F081508093630180CF0E944B
:1010000096030E9453038091630175CF0E9496035B
:101010000E945303809163016BCF0E9455080E9488
:101020005D0617BA81E088BB0E9478060E94200402
:101030000E9418042FE78FE492E1215080409040F5
:10104000E1F700C00000C1E0D0E08091860181306E
:1010500009F0FFCF0E9493060E94BF0310929F01E8
:1010600080E00BC060E080810E940E0580919F01AE
:101070008F5F80939F01833040F7282F30E0AE01CF
:1010800002C0440F551F8A95E2F78091850190E0D8
:1010900084239523F901E05BFE4F4817590711F7A8
:1010A00061E080810E940E05E1CFCF93DF930E9423
:1010B0000E0B8B9A2FE78CEF9AE0215080409040E6
:1010C000E1F700C000008B98789488E0EEE6F1E04C
:1010D000DF01C82F1D92CA95E9F7EEE7F1E02AE09B
:1010E000DF01C22F1D92CA95E9F791E09087E8E8E9
:1010F000F1E03CE0DF011D923A95E9F7A4E9B1E0A7
:10110000ED0119922A95E9F7908392E0968393E096
:101110009187E6E7F1E0DF01C82F1D92CA95E9F754
:10112000E6E6F1E0DF011D928A95E9F7DF91CF91C4
:101130000895FC019093A4018093A301908190767F
:10114000903211F080E008958181813069F0823021
:1011500099F08A3021F18930A9F782819381811534
:10116000924091F08FEF08958EE691E09093C00148
:101170008093BF0188E0089584E691E09093C001D8
:101180008093BF0181E0089584819581892B51F777
:10119000809185018068809385018FEF0895838118
:1011A0008093640180E00895FC019091850197FD92
:1011B00002C08FEF089580818093850181E00895BA
:1011C000FC019381923079F120F1913291F09232C9
:1011D000F1F48481958181309105A9F1E0F10297C4
:1011E000B1F481E891E09093C0018093BF0182E265
:1011F000089582818130F9F0B0F1823041F488E5C0
:1012000091E09093C0018093BF0189E0089580E050
:1012100008959130E1F78FE691E09093C0018093BB
:10122000BF0182E1089584E191E09093C001809331
:10123000BF018BE508958FE391E09093C001809307
:10124000BF0189E0089583EA91E09093C001809303
:10125000BF0184E8089587E292E09093C0018093F3
:10126000BF0180E4089586E291E09093C0018093ED
:10127000BF0189E00895CF93C62F2091B00124FFCC
:1012800018C03091B10128E823272093B101FC0157
:10129000A2EBB1E08C2F91919D938150E1F76C2FDF
:1012A00082EB91E00E948101CC5FC093B001CF91AD
:1012B00008952AE52093B001EACFCF93C62F20915D
:1012C000DB0124FF18C03091DC0128E8232720939C
:1012D000DC01FC01ADEDB1E08C2F91919D9381502B
:1012E000E1F76C2F8DED91E00E948101CC5FC093FE
:1012F000DB01CF9108952AE52093DB01EACFCF935C
:10130000DF936091C101635067FD14C02091BE015D
:101310008CE090E0821B9109EC01CB53DE4F809171
:10132000BD018D3209F479C08091650187FDEEC061
:101330001092C10180915E0184FF62C060915D01E5
:101340006F3F09F45DC0693008F48FC06850609346
:101350005D019091A50188E889278093A501CCE0E3
:1013600068E0A091BF01B091C0018091650186FF46
:1013700090C0FD0184918093A60131968FEF860F76
:1013800009F42DC0E491E093A701FD01329662308B
:1013900031F1E491E093A801FD0133966330F9F057
:1013A000E491E093A901FD0134966430C1F0E49129
:1013B000E093AA01FD013596653089F0E491E09350
:1013C000AB01FD013696663051F0E491E093AC013B
:1013D000FD013796673019F0E491E093AD0190E09C
:1013E0000196A80FB91FB093C001A093BF0186EA70
:1013F00091E00E948101CC3009F047C0C0935E01AA
:1014000094E180B38C7031F49150D9F71092C201FD
:101410001092BC01DF91CF910895683009F088CF18
:1014200083EC8093A5018AE580935E0110926501AB
:101430008881807609F075C09A811092AE01898109
:1014400081117FC01092AF012EEA31E082E030932B
:10145000C0012093BF019F81911104C09E81981704
:1014600008F4892F80935D0163CF10925D01909104
:10147000A50188E889278093A50161115FC060E01C
:1014800086EA91E00E948101C4E08FEF80935D01C4
:10149000B5CF8C918093A6018FEF860F09F49FCF73
:1014A00011969C9111979093A701623009F497CF00
:1014B00012969C9112979093A801633009F48FCFF4
:1014C00013969C9113979093A901643009F487CFE8
:1014D00014969C9114979093AA01653009F47FCFDC
:1014E00015969C9115979093AB01663009F477CFD0
:1014F00016969C9116979093AC01673009F46FCFC4
:1015000017969C9117979093AD0169CFCE010E94D9
:10151000D4088F3F31F1882309F40ACF10925D017E
:1015200007CFCE010E9499088F3F09F094CF988190
:1015300097FD1BC090E89093650194CFC4E0C60F5F
:1015400010CF8530A1F0863011F18830E1F089307C
:10155000A1F08A30A9F18B3051F12EEA31E080E020
:1015600076CF8EE180935E01E3CE8E81E3CF9093C0
:10157000C2012EEA31E080E06ACF9093C4012EEAE6
:1015800031E080E064CF24EC31E081E060CF8B81FA
:10159000813041F1823011F18330B1F08132F1F0CC
:1015A0008232E1F080E090E490936501BDCF8BE45E
:1015B0008093B1018093DC012EEA31E080E047CFD7
:1015C0002EEA31E081E043CF911114C085E992E029
:1015D0009093C0018093BF0184E0E5CFCE010E94CB
:1015E000E008E1CF87E692E09093C0018093BF01CD
:1015F00082E1D9CF913051F09230A1F689E792E0A3
:101600009093C0018093BF0182E1CDCF8BE892E03F
:101610009093C0018093BF018AE0C5CF85B78260F7
:1016200085BF8BB780648BBFA0EBB1E08BE41196D4
:101630008C931197EBEDF1E081838AE58C938083A5
:101640000895EE0FFF1F0590F491E02D0994F89492
:02165000FFCFCA
:10165200101110101010101022661111001010102D
:101662001010220011111110101010102210000081
:101672000010100000102211111111111015150087
:1016820022110000001010006600226611000011F5
:101692001111001166111111111111111111000016
:1016A200005200000000000001002B390000000081
:1016B2000000020050514F00000000001000000026
:1016C200000000000000042C5347494600EAE900EC
:1016D2002028000000000000000040003500003E0D
:1016E2003F450044004C3A3B3C3D404142430000F0
:1016F200141A0815180C121301002B3900171C308C
:10170200352F0200041607090D0E0F3310310000A9
:10171200000A0B000034042C1D1B0619103637007A
:101722002028000000051100003840002900002296
:10173200232E002D002A1E1F2021242526270000EB
:1017420018191C01020304050607171615FF5A0093
:00000001FF
