:100000000C943A010C9457010C9472010C94570112
:100010000C9457010C9457010C9457010C94570100
:100020000C9457010C9457010C9457010C945701F0
:100030000C9457010C9457010C9457010C945701E0
:100040000C9457010C9457010C9457010C945701D0
:100050000C9457010D072107F90629070307170715
:10006000EF062D0708071C07F4062507FE061207F2
:10007000EA06E506D106DB06C706E006CC06D6068C
:10008000C206BD06B306B806AE06A906A4069F06BC
:100090009A069606F1070508DD070D08E707FB0736
:1000A000D3071108EC070008D8070908E207F6078C
:1000B000CE07C907B507BF07AB07C407B007BA0724
:1000C000A607A10797079C0792078D078807830754
:1000D0007E077A07BA08B708B408B108AE08AB08BB
:1000E000A808A508A2089F089C08990896089308E4
:1000F00090088D088A088708840881087E087B0894
:100100007808750872086F086C0869086608630843
:100110006008BD0809025400030100A03209040070
:100120000001030101000921110100012240000723
:1001300005810308000A0904010001030102000906
:1001400021110100012284000705820308000A0929
:100150000402000103000000092111010001221521
:10016000000705030308000A12011001000000083F
:10017000A032600101000102000112037600750047
:10018000730062005F006B00650079000A037A006B
:10019000690061006E00040309040631FF0974A1BF
:1001A000010975150026FF00950875089102C00524
:1001B000010902A10185010901A10005091901290F
:1001C00005150025017501950581027503950181CD
:1001D000030501093009311581257F7508950281D4
:1001E0000609381581257F35004500750895018180
:1001F00006050C0A38021581257F750895018106D0
:10020000C0C005010980A1018502150126B70019AA
:100210000129B7751095018100C0050C0901A101E4
:1002200085031501269C0219012A9C02751095016F
:100230008100C005010906A101750195080507198E
:10024000E029E715002501810295017508810395D4
:10025000057501050819012905910295017503919C
:100260000395067508150026FF000507190029FFEC
:100270008100C00011241FBECFE5D8E0DEBFCDBF96
:1002800011E0A0E6B0E0EAE9FEE102C005900D92BF
:10029000A836B107D9F723E0A8E6B1E001C01D9266
:1002A000AE30B207E1F70E9458090C944B0F0C9442
:1002B0000000A82FB92F80E090E041E050EA60955F
:1002C00030E009C02D9182279795879510F08427FB
:1002D0009527305EC8F36F5FA8F30895EADF8D932A
:1002E0009D930895CF93CFB7CF93C395839BE9F7A1
:1002F000839B0EC0839B0CC0839B0AC0839B08C05A
:10030000839B06C0C091E502C395C093E502A6C0D9
:10031000DF93C091E402DD27C451DD4F839B02C00F
:10032000DF91E6CF2F930F931F9300B32FEF03FBC3
:1003300020F94F933F9310B34FEF012703FB21F9AF
:100340003BE031C04E7F012F10B3216028C0102F39
:100350004D7F2260000000B329C04B7F2460012F35
:10036000000010B32BC010B3477F28602AC04F7E17
:1003700000B320612CC04F7D10B320622FC04F7B93
:1003800000B3206432C0422700B349934FEF00000E
:10039000102713FB20F910B31C70C9F1297F91F2CB
:1003A000012703FB21F900B3237F89F2315058F173
:1003B000102713FB22F910B3277E79F2012703FBE4
:1003C00023F92F7C81F200B3102713FB24F92F7936
:1003D00071F200C010B3012703FB25F92F7359F206
:1003E00000C000B3102713FB26F9223040F200C0F2
:1003F00010B3012703FB27F9243028F64F77206834
:1004000010B30000F9CF10E81ABF00271CC03B5002
:100410003195C31BD04010E81ABF0881033C11F18D
:100420000B3401F12091E2021981110F1213EDCF6B
:100430004A81441F093659F10D3211F0013E29F766
:100440004F7009F0042F0093EA023F914F911F91E2
:100450000F912F91DF91CAB7C7FD47CFCF91CFBF83
:10046000CF9118952091EA02222379F31091E802A6
:100470001123C1F53430C2F13093E8022093E30236
:100480001091E4023BE0311B3093E4022DC0009157
:10049000E80201303CF50AE54F7049F430916601FD
:1004A00034FD24C000936601CBECD2E023C042307F
:1004B00049F03091D60234FD19C00093D602C7ED41
:1004C000D2E018C03091020334FD10C00093020343
:1004D000C3E0D3E00FC02795A8F45150A9F4220F30
:1004E0000000F9CF4AE503C042ED01C0432FC4E14B
:1004F000D0E032E011B31C60939A11BB02B320E448
:100500001CE05F93012756E002BB279520F4515071
:1005100021F4220FF9CF012756E000003B5A02BB1D
:10052000D0F2279528F4515029F4220F0000F9CF7A
:10053000012756E0279502BB20F4515021F4220FE9
:10054000F9CF012756E02991332302BB21F6037F1F
:100550001091E902110FC651D04002BB11F0109367
:10056000E20210E81ABF086011B3137F402F437FE7
:100570005F9100C000C002BB11BB42BB66CF80913F
:10058000EB028823F1F08091D60284FF1AC080919B
:10059000690190916A019817A1F090E0880F991F66
:1005A000880F991F880F991F68E085599E4F0E94F8
:1005B000DB0C8091690190E001968F7199278093FF
:1005C0006901089580919B02811102C080E0089525
:1005D00010929B02A0916A01B0E0CD0101968F714B
:1005E000992720916901281789F0AA0FBB1FAA0F2C
:1005F000BB1FAA0FBB1FA559BE4F98E0E7E7F2E06B
:1006000001900D929A95E1F780936A010E94270D5F
:100610008091EB02882321F08091D60284FD02C0F4
:1006200081E008958091690190916A019817C1F362
:1006300090E0880F991F880F991F880F991F68E015
:1006400085599E4F0E94DB0C8091690190E00196D4
:100650008F7199278093690181E008958091A802A4
:1006600090919D02981729F180939D0281E020913D
:10067000AD023091AE024091A3025091A402421704
:100680005307C9F03093A4022093A3022091AF0234
:100690003091B0028091A6029091A7028217930731
:1006A000C9F03093A7022093A60283E08093B202A0
:1006B000089580E0DCCF2091AF023091B0024091EC
:1006C000A6025091A7024217530759F7882381F3D6
:1006D00081E0ECCF82E0EACF80918F0290917702A7
:1006E0009817D1F18093770281E090919002209148
:1006F0007902291719F09093790281E09091910283
:1007000020917A02291719F090937A0281E0909152
:10071000920220917B02291719F090937B0281E0CD
:100720009091930220917C02291719F090937C02FA
:1007300081E09091940220917D02291779F09093A5
:100740007D029091950280917E02981390937E0293
:1007500081E080939B02089580E0C7CF909195023D
:1007600020917E022913F2CF8111F2CF0895CF9309
:100770008091B202882381F081E0809368010E9419
:10078000270D8091020384FD0BC0809168018F5F6B
:1007900080936801823398F3C0E08C2FCF91089545
:1007A000C091B202C13089F0C230B9F0C33021F03B
:1007B000C1E08C2FCF91089563E085EA92E00E941A
:1007C000010D1092B202C1E0E8CF66E08CE992E040
:1007D0000E94010D1092B202E0CF63E082EA92E043
:1007E0000E94010D1092B202C1E0D7CF9091900209
:1007F000891711F1209191028217F1F03091920244
:100800008317D1F0409193028417B1F05091940274
:10081000851791F060919502681771F0992371F036
:100820002223A1F03323A9F04423B1F05523B9F0DA
:100830006623C1F080E0089581E0089520E030E073
:10084000F901E157FD4F818381E0089521E030E017
:10085000F7CF22E030E0F4CF23E030E0F1CF24E026
:1008600030E0EECF25E030E0EBCFEFE8F2E0908132
:10087000892B80830895E8EAF2E09081892B8083B8
:10088000089590E09093AE028093AD020895982F62
:10089000907F9039D9F038F0903C91F0903E81F003
:1008A000903B71F00895903221F0903879F09111D9
:1008B000F9CF90E092609093B0028093AF020895D8
:1008C00090E09093B0028093AF02089590E0916021
:1008D0009093B0028093AF020895E8EAF2E01082AC
:1008E0001682158210861782089586E0E0E9F2E00C
:1008F000DF011D928A95E9F710928F020895CF9239
:10090000DF92EF92FF920F931F93CF93DF9380E0DC
:1009100090E00E94230FEC0182E090E00E94230F00
:100920008C0184E090E00E94230F7C0186E090E03F
:100930000E94230F6C0188E090E00E94230F2A9709
:1009400049F0DF91CF911F910F91FF90EF90DF90D1
:10095000CF90089502311105A1F72CE1E216F104C0
:1009600081F7ECE6CE16D10461F78C3B910549F78F
:100970008AE090E00E941B0F80936D008BE090E076
:100980000E941B0F80936E008CE090E00E941B0F72
:1009900080936F008DE090E00E941B0F80937000A9
:1009A0008EE090E00E941B0F809371008FE090E03A
:1009B0000E941B0F8093720080E190E00E941B0F49
:1009C0008093730081E190E00E941B0F809374007C
:1009D00082E190E00E941B0F8093630083E190E02E
:1009E0000E941B0F8093640084E190E00E941B0F23
:1009F0008093650085E190E00E941B0F8093660064
:100A000086E190E00E941B0F8093670087E190E0F1
:100A10000E941B0F8093680088E190E00E941B0FEA
:100A20008093690089E190E00E941B0F80936A0027
:100A30008AE190E00E941B0F80936B008BE190E0B5
:100A40000E941B0F80936C0005E710E0C0E0D0E02F
:100A5000CE014C960E941B0FF8018083CE014D966B
:100A60000E941B0FF8018183CE014E960E941B0F3E
:100A7000F8018283CE014F960E941B0FF8018383F9
:100A8000CE0180960E941B0FF8018483CE018196CF
:100A90000E941B0FF8018583CE0182960E941B0FD6
:100AA000F8018683CE0183960E941B0FF80187838D
:100AB000CE0184960E941B0FF8018087CE01859697
:100AC0000E941B0FF80181872A96065F1F4FC035D1
:100AD000D10509F0BDCF05EC10E0C0E0D0E0CE01BB
:100AE00084599F4F0E941B0FF8018083CE018359C8
:100AF0009F4F0E941B0FF8018183CE0182599F4FA7
:100B00000E941B0FF8018283CE0181599F4F0E94E2
:100B10001B0FF8018383CE0180599F4F0E941B0F4A
:100B2000F8018483CE018F589F4F0E941B0FF8015C
:100B30008583CE018E589F4F0E941B0FF80186833C
:100B4000CE018D589F4F0E941B0FF8018783CE0165
:100B50008C589F4F0E941B0FF8018087CE018B5845
:100B60009F4F0E941B0FF80181872A96065F1F4F37
:100B7000C035D10509F0B3CF05E111E0C0E0D0E008
:100B8000CE0184549F4F0E941B0FF8018083CE0139
:100B900083549F4F0E941B0FF8018183CE01825422
:100BA0009F4F0E941B0FF8018283CE0181549F4FFB
:100BB0000E941B0FF8018383CE0180549F4F0E9437
:100BC0001B0FF8018483CE018F539F4F0E941B0F90
:100BD000F8018583CE018E539F4F0E941B0FF801B1
:100BE0008683CE018D539F4F0E941B0FF801878390
:100BF000CE018C539F4F0E941B0FF8018087CE01BE
:100C00008B539F4F0E941B0FF80181872A96065F26
:100C10001F4FC035D10509F0B3CF93CECF93DF93EB
:100C2000683019F0DF91CF910895EC0128812F3FB2
:100C300009F45AC0209197022111F4CFFC0188E0F9
:100C4000AFE6B2E0ED0119928A95E9F780818093D1
:100C50006F0281818093700282818093710283810F
:100C600080937202848180937302858180937402E1
:100C7000868180937502878180937602C0916F028E
:100C8000D09170020E947509CE3FE1E0DE0780F04E
:100C9000CE0102968E3FF1E09F07E8F0CE01049668
:100CA0008E3F21E0920770F0DF91CF910C9487097D
:100CB000E199FECF6091710270917202CE010E94A3
:100CC000290FE6CFE199FECF60917502709176020F
:100CD0000E94290FE9CFE199FECF609173027091D4
:100CE00074020E94290FDACF2981213F71F0223F3F
:100CF00009F0A0CF80919702811194CF82E0809378
:100D00009702DF91CF910C948709809197028130EF
:100D100009F088CF1092970285CF90E0803291053C
:100D200040F4FC01E65DFF4F0C94150F6111D7C034
:100D30008F980895662309F494C08E9A08956623C7
:100D400009F491C08D9A0895662309F48EC08C9A97
:100D50000895662309F48BC08B9A0895662309F4DD
:100D60008AC08A9A0895662309F483C0889A0895F0
:100D7000662309F482C0899A0895662309F47FC026
:100D8000A79A0895662309F482C0A69A0895662357
:100D900009F479C0A29A0895662309F47CC0A49A44
:100DA0000895662309F46DC0A09A0895662309F496
:100DB00070C0A59A0895662309F467C0A19A0895A2
:100DC000662309F46AC0A39A0895662309F467C0EC
:100DD000BF9A0895662309F472C0BE9A08956623E7
:100DE00009F465C0D69A0895662309F470C0BA9ACA
:100DF0000895662309F457C0D29A0895662309F42A
:100E000062C0BC9A0895662309F455C0D49A089527
:100E1000662309F460C0B89A0895662309F441C0B6
:100E2000D09A0895662309F44CC0BD9A08956623AC
:100E300009F43FC0D59A0895662309F44AC0B99AC7
:100E40000895662391F1D19A08956623F1F1BB9A32
:100E50000895662391F1D39A08956623F1F1D79A04
:100E600008958E9808958D9808958C9808958B987C
:100E70000895889808958A98089589980895A7985C
:100E80000895A0980895A2980895A1980895A69805
:100E90000895A5980895A4980895A3980895BF98D3
:100EA0000895D0980895D2980895D1980895D69825
:100EB0000895D5980895D4980895D3980895BE9824
:100EC0000895BD980895BC980895BB980895BA9860
:100ED0000895B9980895B8980895D79808958F9A65
:100EE000089590E08032910540F4FC01E65BFF4FED
:100EF0000C94150F6111D7C097980895662309F4D3
:100F000094C0969A0895662309F491C0959A08951D
:100F1000662309F48EC0949A0895662309F48BC061
:100F2000939A0895662309F48AC0929A08956623D5
:100F300009F483C0909A0895662309F482C0919AB7
:100F40000895662309F47FC0AF9A0895662309F4D3
:100F500082C0AE9A0895662309F479C0AA9A0895CA
:100F6000662309F47CC0AC9A0895662309F46DC029
:100F7000A89A0895662309F470C0AD9A089566236F
:100F800009F467C0A99A0895662309F46AC0AB9A68
:100F90000895662309F467C0C79A0895662309F483
:100FA00072C0C69A0895662309F465C0DE9A089552
:100FB000662309F470C0C29A0895662309F457C0E5
:100FC000DA9A0895662309F462C0C49A08956623E4
:100FD00009F455C0DC9A0895662309F460C0C09AEC
:100FE0000895662309F441C0D89A0895662309F448
:100FF0004CC0C59A0895662309F43FC0DD9A089550
:10100000662309F44AC0C19A0895662391F1D99ADA
:1010100008956623F1F1C39A0895662391F1DB9A4E
:1010200008956623F1F1DF9A0895969808959598AA
:101030000895949808959398089590980895929893
:10104000089591980895AF980895A8980895AA983A
:101050000895A9980895AE980895AD980895AC980C
:101060000895AB980895C7980895D8980895DA9888
:101070000895D9980895DE980895DD980895DC982C
:101080000895DB980895C6980895C5980895C49862
:101090000895C3980895C2980895C1980895C09876
:1010A0000895DF980895979A089590E08032910509
:1010B00010F080E00895FC01E659FF4F0C94150FE5
:1010C00080B38074089580B38072089580B3807176
:1010D000089580B38870089580B38470089580B3B4
:1010E0008270089580B38170089583B380780895E5
:1010F00083B38074089583B38072089583B380713D
:10110000089583B38870089583B38470089583B37A
:101110008270089583B38170089586B380780895AE
:1011200086B38074089586B38072089586B3807103
:10113000089586B38870089586B38470089586B341
:101140008270089586B38170089589B38078089578
:1011500089B38074089589B38072089589B38071CA
:10116000089589B38870089589B38470089589B308
:101170008270089589B38170089580B3807808954E
:10118000843031F09091BF02892B8093BF02089583
:1011900090917702992389F190919002953391F380
:1011A00020919102253371F330919202353351F33E
:1011B00040919302453331F350919402553311F32A
:1011C000609195026533F1F2992309F447C0222317
:1011D00009F44AC0332309F450C0442309F453C02E
:1011E000552309F453C06111CDCF25E030E0F9015A
:1011F000E157FD4F95E39183C5CF909190029932CD
:1012000009F220919102293209F4BCCF3091920267
:10121000393209F4B7CF40919302493209F4B2CF81
:1012200050919402593209F4ADCF60919502693220
:1012300009F4A8CF9923A9F02223C9F03323D1F0D0
:101240004423F1F0552329F161119CCF25E030E0D2
:10125000F901E157FD4F99E2918394CF20E030E00E
:10126000C6CF20E030E0F4CF21E030E0C0CF21E075
:1012700030E0EECF22E030E0EBCF22E030E0B7CF3D
:1012800023E030E0E5CF23E030E0B1CF24E030E0F0
:10129000AECF24E030E0DCCF8091BF029091C2025B
:1012A000981721F08093C20281E0089580E00895AC
:1012B0000C94330B1092C502E0E0F0E0ED59FF4FC3
:1012C00060E080810E948D06E091C502F0E0ED595A
:1012D000FF4F61E080810E947107E091C502EF5FDE
:1012E000E093C502EA3048F308951092C502E0E0A9
:1012F000F0E0E05AFF4F61E080810E947107E091C9
:10130000C502EF5FE093C502E33090F308951092B9
:10131000C502E0E0F0E0E05AFF4F60E080810E940B
:101320007107E091C502EF5FE093C502E33090F3EF
:101330000895FF920F931F93CF93DF9380EF8093D5
:10134000C7021092C40280E0C1E0D0E016E00FE0D6
:10135000FF24F3949E0102C0220F331F8A95E2F707
:10136000C90127BB809588BB1092C602E0E01AC075
:101370008091C40290E0DC01AA0FBB1F880F991F67
:10138000880F991F880F991FA80FB91FAB5EBE4F1A
:10139000AE0FB11D8C9187778C93EF5FE093C602FF
:1013A000EA3050F5F0E0ED59FF4F80810E9455087A
:1013B000E091C6028111DCCF8091C40290E0DC0193
:1013C000AA0FBB1F880F991F880F991F880F991F9D
:1013D000A80FB91FAB5EBE4FAE0FB11D8C918868D0
:1013E0008C9310936C028E3EC1F60093C702EF5FA0
:1013F000E093C602EA30B0F217BAF8BA8091C4029C
:101400008F5F8093C402883008F4A4CF0E947504D3
:101410000E946D041092BF021092C40240E010922C
:10142000C60230E01DC0203B09F4D6C008F491C0CC
:10143000203D09F4C5C0203F09F4B6C0203C59F452
:101440008B589F4FE80FF91F80810E944104409103
:10145000C4023091C6023F5F3093C6023A30B8F5FD
:10146000842F90E0E32FF0E0BC01660F771F880F18
:10147000991F880F991F880F991F860F971FDC01EE
:10148000AB5EBE4FAE0FBF1F5C912091C7022523FC
:101490002F3009F4BAC038F62B3009F46CC008F0CC
:1014A00045C0293009F474C02A30A9F6AC014B5369
:1014B0005F4FE40FF51F80810E9435044091C40204
:1014C0003091C6023F5F3093C6023A3048F24F5F18
:1014D0004093C402483008F4A2CF0E944C098823EC
:1014E00019F083E080936B020E946C03882319F04B
:1014F00083E080936B020E942E03811196C080913D
:101500006C02863009F499C0813009F49EC0909134
:101510006B02811196C0992319F0915090936B0240
:10152000DF91CF911F910F91FF9008952C3009F416
:101530005FC02D3009F08FCFAC014B535F4FE40FEC
:10154000F51F80810E9447044091C4023091C60279
:1015500082CF203909F466C0203A09F07CCF8B583D
:101560009F4FE80FF91F80810E9435044091C4020B
:101570003091C60270CFAC014B535F4FE40FF51FA3
:1015800080810E943B044091C4023091C60263CF27
:101590008B539F4FE80FF91F80810E94F603409103
:1015A000C4023091C60257CF8B589F4FE80FF91FE6
:1015B00080810E94C0084091C4023091C6024BCF86
:1015C0008B589F4FE80FF91F80810E94470440917C
:1015D000C4023091C6023FCF8B589F4FE80FF91FCE
:1015E00080810E943B044091C4023091C60233CFF7
:1015F000AC014B535F4FE40FF51F80810E94410403
:101600004091C4023091C60226CF9C012B533F4F1C
:10161000E20FF31F80810E94C0084091C402309104
:10162000C60219CF8B589F4FB5CF83E080936B02D2
:1016300080916C02863009F067CF90916B029130F7
:1016400059F0815080936C0266CF0E94E2020E94A2
:10165000B70380916C025BCF0E94E2020E94B70345
:1016600080916C0251CF0E94B10B0E945A0917BAA7
:1016700081E088BBC1E0D0E00E945A0C1092C50204
:10168000E0E0F0E0E05AFF4F61E080810E948D06CB
:10169000E091C502F0E0E05AFF4F61E080810E94D6
:1016A0007107E091C502EF5FE093C502E33048F3B4
:1016B00081E0809397020E9475040E946D040E944D
:1016C0007F042FE78FE492E1215080409040E1F7C2
:1016D00000C000000E94E2020E94270D0E94610CDF
:1016E00080919702823041F28130B1F78091C3023C
:1016F000882391F18091EB02882371F38091D602C7
:1017000084FFEACF80916B028111E6CF1092C5026F
:101710000BC060E080810E9471078091C5028F5FDD
:101720008093C5028330C0F6282F30E0AE0102C09E
:10173000440F551F8A95E2F78091960290E084232A
:101740009523F901E05AFF4F4817590711F761E057
:1017500080810E947107E1CF0E9499090E94BF0217
:10176000C9CF89B78E7F89BF89B78B7F89BF89B77A
:101770008F7B89BF8D98959A0E94020F8B9A8FEF6D
:10178000A895A7EBBBE01197F1F700C000008150CE
:10179000B9F78B98789488E0E7E8F2E0DF01382F1A
:1017A0001D923A95E9F7E7E7F2E0DF01382F1D9245
:1017B0003A95E9F79DE0EFE8F2E0DF011D929A9596
:1017C000E9F791E0909397022CE0E3EBF2E0DF0180
:1017D000322F1D923A95E9F7ECE9F2E0DF011D9214
:1017E0002A95E9F72BE0E8EAF2E0DF011D922A955D
:1017F000E9F790939C0292E09093A20293E0909379
:10180000A502EFE7F2E0DF01382F1D923A95E9F7E4
:10181000EFE6F2E0DF011D928A95E9F71092BF0230
:101820001092C2020895FC019093CA028093C902EB
:1018300090819076903211F080E00895818181301E
:1018400069F0823099F08A3021F18930A9F78281DC
:1018500093818115924091F08FEF089587E792E090
:101860009093E7028093E60288E008958DE692E087
:101870009093E7028093E60281E008958481958148
:10188000892B51F7809196028068809396028FEFA2
:101890000895838180936D0280E00895FC0190910A
:1018A000960297FD02C08FEF089580818093960283
:1018B00081E008951092C1021092C0021092C302FA
:1018C00008958091E502811112C08091C00290912B
:1018D000C102893E23E0920730F401969093C10241
:1018E0008093C002089581E08093C302089510920E
:1018F000C3021092E5021092C1021092C002089534
:10190000FC019381923079F120F1913291F0923281
:10191000F1F48481958181309105A9F1E0F102977C
:10192000B1F48AE991E09093E7028093E60285E1C1
:10193000089582818130F9F0B0F1823041F488E578
:1019400091E09093E7028093E60289E0089580E0B9
:1019500008959130E1F788E691E09093E702809353
:10196000E60282E1089584E191E09093E70280939A
:10197000E60284E508958FE391E09093E702809377
:10198000E60289E008958FEA91E09093E702809360
:10199000E60284E8089583E392E09093E70280935F
:1019A000E60280E4089586E291E09093E702809356
:1019B000E60289E00895CF932091D6022E31C1F03E
:1019C0002091D60224FD16C02AE52093D602FC0100
:1019D000A8EDB2E0862F91919D938150E1F7C62F3B
:1019E00088ED92E00E946E0164E06C0F6093D60275
:1019F000CF9108953091D70228E823272093D7026A
:101A0000E6CFCF932091D6022E31C1F02091020370
:101A100024FD16C02AE520930203FC01A4E0B3E0F4
:101A2000862F91919D938150E1F7C62F84E093E03A
:101A30000E946E0164E06C0F60930203CF910895E1
:101A40003091030328E8232720930303E6CFCF93A5
:101A5000DF936091E802635067FD17C02091E402B4
:101A60008CE090E0821B9109EC01C451DD4F809124
:101A7000E302803108F494C08D3209F495C080915E
:101A80006E0287FDEDC01092E8028091660184FF2E
:101A900061C0609165016F3F09F45CC0693008F472
:101AA0006BC06850609365019091CB0288E88927EC
:101AB0008093CB02CCE068E0A091E602B091E7020F
:101AC00080916E0286FF8FC0FD0184918093CC02CD
:101AD00031968FEF860F09F42DC0E491E093CD028B
:101AE000FD013296623031F1E491E093CE02FD01C6
:101AF00033966330F9F0E491E093CF02FD01349620
:101B00006430C1F0E491E093D002FD013596653078
:101B100089F0E491E093D102FD013696663051F0F0
:101B2000E491E093D202FD013796673019F0E49119
:101B3000E093D30290E00196A80FB91FB093E7029B
:101B4000A093E6028CEC92E00E946E01CC3021F56D
:101B5000C093660194E180B38C7059F49150D9F729
:101B60001092E9021092E2028AE58093D6028093F5
:101B70000203DF91CF910895109265019091CB02FD
:101B800088E889278093CB02611196C060E08CECD5
:101B900092E00E946E01C4E08FEF80936501D8CF80
:101BA000CE010E940E066FCF683009F06CCF83EC37
:101BB0008093CB028AE58093660110926E02988131
:101BC000892F807609F45BC0CE010E94130C8F3FF1
:101BD00009F069C0988197FD9CC090E890936E02CF
:101BE0008093650150CF8C918093CC028FEF860F4C
:101BF00009F4A0CF11969C9111979093CD02623079
:101C000009F498CF12969C9112979093CE0263306C
:101C100009F490CF13969C9113979093CF02643060
:101C200009F488CF14969C9114979093D002653054
:101C300009F480CF15969C9115979093D102663048
:101C400009F478CF16969C9116979093D20267303C
:101C500009F470CF17969C9117979093D3026ACF8F
:101C6000CE010E944E0C8F3F31F0882309F40BCF38
:101C70001092650108CF8EE18093660104CF2A811E
:101C80003C811092D4028981811119C09F719230D8
:101C900009F441C01092D50224ED32E082E0309385
:101CA000E7022093E6029F8191119ACF9E819817B7
:101CB00008F096CF892F94CFC4E0C60FFDCE982FA1
:101CC0009D7F913099F0853009F444C0863009F445
:101CD00047C08830D9F1893071F18A3041F18B30B9
:101CE00009F450C024ED32E080E0D9CF2111FACFC1
:101CF0003138C1F7813009F443C08EE18093D602B8
:101D00008BE48093D7028093030324ED32E080E0DC
:101D1000C6CF8E8162CF313809F0BCCF9091D60208
:101D200081E09E3109F080E08093D402B3CF24EDAE
:101D300032E081E0B4CF2093EB028AE58093D602B3
:101D40008093020324ED32E080E0A9CF2BEE32E055
:101D500081E0A5CF2093E90224ED32E080E09FCF1F
:101D60008B81813099F1823049F18330E9F0813201
:101D700099F0823269F080E090E490936E0227CF70
:101D80008AE5BCCF8BE48093D70280930303D5CF41
:101D9000CE010E94800CF0CF86E291E09093E702A2
:101DA0008093E60289E0E8CF211118C086E991E02E
:101DB0009093E7028093E60284E0DECF84E191E035
:101DC0009093E7028093E60284E5D6CF88E691E01F
:101DD0009093E7028093E60282E1CECF213051F06A
:101DE000223049F68AE791E09093E7028093E60279
:101DF00082E1C2CF8CE891E09093E7028093E60203
:101E00008AE0BACF85B7886085BF8BB780688BBF03
:101E1000A6EDB2E08BE411968C931197E2E0F3E02B
:101E200081838AE58C9380830895EE0FFF1F0590D0
:101E3000F491E02D0994E199FECF9FBB8EBBE09A0F
:101E400099278DB30895A8E1B0E042E050E00C94EA
:101E5000300F0E943E0F272F0C943F0FDC01CB0167
:101E6000FC01E199FECF06C0FFBBEEBBE09A3196C4
:101E70000DB20D9241505040B8F70895262FE199C8
:101E8000FECF9FBB8EBB2DBB0FB6F894E29AE19AB2
:0A1E90000FBE01960895F894FFCFED
:101E9A0018191C0102030405060717161508090A72
:101EAA000B0C0D0E0F141A0815180C121301002B27
:101EBA003900171C30352F0200041607090D0E0FC2
:101ECA003310310000000A0B000034042C1D1B06DD
:101EDA00191036370020280000000511000038408C
:101EEA000029000022232E002D002A1E1F20212453
:101EFA002526270000005200000000000001002BE8
:101F0A0039000000000000020050514F000000009C
:101F1A000010000000000000000000042C53474994
:101F2A004600EAE900202800000000000000004006
:101F3A00003500003E3F450044004C3A3B3C3D40E2
:101F4A0041424300001011101010101010226611A7
:101F5A001100101010101022001111111010101081
:101F6A00102210000000101000001022111111118F
:101F7A001110151500221100000010100066102221
:101F8A000011000011111100116611111111111126
:081F9A001111110000FF5A00B3
:00000001FF
