:100000000C9444040C947C040C9461040C946104DE
:100010000C9461040C9461040C9461040C946104CC
:100020000C9461040C9461040C9461040C946104BC
:100030000C9461040C9461040C9461040C946104AC
:100040000C9461040C9461040C9461040C9461049C
:100050000C946104410847084D08530859085F088B
:1000600065086B08710877087D08830889088F0880
:1000700095089B08A108A708AD08B308B908BF08F0
:10008000C508CB08D108D708DD08E308E908EF0860
:10009000F508FB080B09110917091D09230929098E
:1000A0002F0935093B09410947094D0953095909E8
:1000B0005F0965096B09710977097D098309890958
:1000C0008F0995099B09A109A709AD09B309B909C8
:1000D000BF09C509D509D709D909DB09DD09DF0938
:1000E000E109E309E509E809EB09EE09F109F3097A
:1000F000F509F709F909FB09FD09FF09010A030AD6
:10010000050A070A090A0B0A0D0A0F0A110A140A3E
:10011000170A1A0A09025B00030100A03209040051
:100120000001030101000921110100012240000723
:10013000058103080001090401000103010200090F
:100140002111010001228400070582030800010932
:100150000402000203000000092111010001222213
:1001600000070583030800010705040308000112C6
:1001700001100100000008A032600101000102002E
:1001800001120376007500730062005F006B00656A
:100190000079000A037A00690061006E0004030917
:1001A000040631FF0974A1010975150026FF0095A9
:1001B00008750881020976150026FF009508750864
:1001C0009102C005010902A10185010901A10005F3
:1001D000091901290515002501750195058102758B
:1001E00003950181030501093009311581257F75CA
:1001F000089502810609381581257F35004500756F
:100200000895018106050C0A38021581257F7508BD
:1002100095018106C0C005010980A1018502150173
:1002200026B700190129B7751095018100C0050C8A
:100230000901A10185031501269C0219012A9C02CE
:10024000751095018100C005010906A10175019590
:1002500008050719E029E7150025018102950175B8
:100260000881039505750105081901290591029575
:10027000017503910395067508150026FF00050713
:10028000190029FF8100C0000000010101020304E0
:1002900004050708090A0C0D0F1112141617191B73
:1002A0001D1F2122242628292B2D2E3031333435B1
:1002B000363738393A3A3B3B3C3C3C3C3C3C3D3D94
:1002C0003E3E3F40414243444647494A4C4D4F51D0
:1002D00052545658595B5D5F6062646567696A6B2A
:1002E0006D6E6F70717273747475757676767676DE
:1002F000767676767676767676767676767676779D
:10030000777777777777777777777777777777777D
:10031000787878787878787878787878787878785D
:10032000787878787879797A7A7B7B7C7D7E7F7F24
:1003300080828384858687898A8B8C8E8F90919228
:100340009495969798999A9B9C9D9D9E9F9FA0A0FF
:10035000A0A1A1A1A1A1A1A2A2A3A3A4A5A6A7A96E
:10036000AAACADAFB0B2B4B6B8BABCBEC0C2C4C617
:10037000C8CACCCED0D2D4D6D8D9DBDCDEDFE0E11F
:10038000E2E3E3E4E4E5E5E5E5E4E4E3E2E0DFDD40
:10039000DBD8D6D3D0CDCAC6C2BFBBB7B3AFABA62E
:1003A000A29E9A95918D8985817D7A7673706D6A0A
:1003B000676563615F5E5C5B5B5A5A5A5A5959586C
:1003C000575655545351504E4C4A484644423F3D6F
:1003D0003A383633302E2B292724221F1D1B19179C
:1003E000151312100F0D0C0B0A090908080808084C
:1003F0000808080909090A0A0A0B0B0C0D0D0E0E54
:100400000F10101112131314151516171818191AA6
:100410001A1B1B1C1D1D1E1E1E1F1F1F20202020FF
:1004200020202020202020201F1F1F1F1F1E1E1ED7
:100430001E1D1D1D1C1C1C1B1B1A1A1A191919180C
:10044000181817171716161616151515151514144E
:100450001414141414141414141313131312121266
:10046000111110100F0F0E0E0D0D0C0B0B0A0A09B7
:100470000808070706060504040303030202010136
:10048000010100000000003939393939383838376E
:1004900037363635343433323231302F2E2D2C2B43
:1004A0002B2A2928272625242323222120201F1E0A
:1004B0001E1D1D1C1C1C1B1B1B1B1B1B1B1B1B1A83
:1004C0001A1A1919191818171616151414131211C7
:1004D00011100F0E0D0D0C0B0A0908080706060572
:1004E00004040303020201010100000000000000F7
:1004F00000000000000000000000000000000000FC
:1005000000000000000000000000000000000000EB
:1005100000000000000000000000000000000000DB
:10052000000000000101020304050607080A0B0D84
:100530000F11131517191B1D1F212426282A2C2ED5
:1005400031333537383A3C3D3F40424344454646D7
:1005500047474848484849494A4B4C4E4F515356E3
:10056000585B5D6063666A6D7074787B7F83868A92
:100570008E9195989C9FA2A5A8ABAEB0B3B5B7B924
:10058000BBBCBDBEBFC0C0C0C0C0C0C0C0C0BFBF7C
:10059000BFBFBEBEBEBEBDBDBDBCBCBBBBBBBABA91
:1005A000B9B9B8B8B8B7B7B6B6B6B5B5B4B4B4B4E7
:1005B000B3B3B3B3B3B2B2B2B2B2B2B2B2B2B2B216
:1005C000B2B2B2B3B3B3B3B3B3B4B4B4B4B4B5B5F5
:1005D000B5B5B6B6B6B6B7B7B7B7B7B8B8B8B8B9AD
:1005E000B9B9B9B9B9B9BABABABABABABABABABA71
:1005F000BABBBBBBBCBDBDBEBFC0C1C2C4C5C6C704
:10060000C9CACCCDCFD0D2D4D5D7D8DADBDDDEE0A5
:10061000E1E2E3E5E6E7E8E9EAEAEBECECECEDED54
:10062000EDEDEDEDECECEBEAE9E8E7E5E4E2E1DF46
:10063000DDDBD9D7D4D2D0CECBC9C6C4C2BFBDBBF7
:10064000B8B6B4B2B0AEACAAA9A7A6A5A3A2A1A100
:10065000A0A09F9F9F9F9F9E9D9C9B9A99979593DB
:10066000918F8D8A888582807D7A7773706D6A67B5
:1006700064615E5B585552504D4B48464442413F81
:100680003E3C3B3B3A3939F3F3F3F3F3F3F3F3F343
:10069000F2F2F2F2F2F2F2F1F1F1F1F1F0F0F0F047
:1006A000F0EFEFEFEFEFEEEEEEEEEEEDEDEDEDED68
:1006B000EDEDECECECECECECECECECECECECECEB79
:1006C000EBEBEBEAEAE9E9E8E8E7E6E6E5E4E4E3B0
:1006D000E2E1E0E0DFDEDDDCDCDBDAD9D9D8D7D758
:1006E000D6D6D5D5D4D4D3D3D3D2D2D2D2D2D2D2D5
:1006F000D1D1D0CFCECCCBC9C7C5C3C0BEBBB9B694
:10070000B3B0ADA9A6A3A09C999693908C8986833B
:10071000807E7B79767472706E6D6B6A69686867CB
:100720006767676766666565646362615F5E5D5B98
:100730005A58565553514F4D4B4947454342403EF9
:100740003C3A3837353332302F2E2D2C2B2A29289E
:10075000282727272727272726262625252423233A
:100760002221201F1E1D1C1B1A19181716141312E4
:1007700011100F0E0D0B0A090808070605040403E3
:100780000302020201010101010101010102020251
:100790000203030304040405050606070708080905
:1007A000090A0A0B0B0C0C0D0D0E0E0F0F0F10107B
:1007B000101111111112121212121212121213131D
:1007C0001415151617181A1B1C1E1F212224262863
:1007D000292B2D2F31333536383A3C3E3F414244A8
:1007E000454748494A4B4C4D4D4E4E4F4F4F4F4F4A
:1007F000505152535557595B5D606366696D717412
:10080000787C8084898D91969A9EA2A7ABAFB3B76E
:10081000BABEC2C5C8CBCED0D2D4D6D8D9DADBDCEA
:10082000DCDCDCDCDCDCDDDDDDDEDEDFDFE0E0E1EE
:10083000E2E2E3E4E4E5E6E7E8E9E9EAEBECEDED42
:10084000EEEFF0F0F1F2F2F3F4F4F5F5F5F6F6F67A
:10085000F7F7F7F7F7F7F7F7F7F7F7F7F7F7F7F728
:10086000F6F6F6F6F6F6F6F6F6F6F5F5F5F5F5F52E
:10087000F5F5F4F4F4F4F4F4F4F4F4F4F3F3F3F33A
:10088000F3F3F3F3F3F3F30011241FBECFE5D8E045
:10089000DEBFCDBF11E0A0E6B0E0E4E2FFE102C0C0
:1008A00005900D92A237B107D9F723E0A2E7B1E096
:1008B00001C01D92AA33B207E1F70E943F0A0C94CF
:1008C000900F0C940000A82FB92F80E090E041E039
:1008D00050EA609530E009C02D9182279795879561
:1008E00010F084279527305EC8F36F5FA8F3089552
:1008F000EADF8D939D930895CF93CFB7CF93C395A0
:10090000839BE9F7839B09C0839B07C0839B05C03A
:10091000839B03C0839B01C0A6C0DF93C0911103DA
:10092000DD27C85EDC4F839B02C0DF91EBCF2F93A6
:100930000F931F9300B32FEF03FB20F94F933F93C7
:1009400010B34FEF012703FB21F93BE031C04E7F8D
:10095000012F10B3216028C0102F4D7F22600000AE
:1009600000B329C04B7F2460012F000010B32BC0BF
:1009700010B3477F28602AC04F7E00B320612CC08F
:100980004F7D10B320622FC04F7B00B3206432C074
:10099000422700B349934FEF0000102713FB20F9C3
:1009A00010B31C70C9F1297F91F2012703FB21F9D3
:1009B00000B3237F89F2315058F1102713FB22F93D
:1009C00010B3277E79F2012703FB23F92F7C81F2F4
:1009D00000B3102713FB24F92F7971F200C010B374
:1009E000012703FB25F92F7359F200C000B310272C
:1009F00013FB26F9223040F200C010B3012703FB9D
:100A000027F9243028F64F77206810B30000F9CF7B
:100A100010E41ABF00271CC03B503195C31BD040C7
:100A200010E41ABF0881033C11F10B3401F120914D
:100A30000F031981110F1213EDCF4A81441F09369C
:100A400059F10D3211F0013E29F74F7009F0042FD2
:100A5000009316033F914F911F910F912F91DF91BA
:100A6000CAB7C6FD4CCFCF91CFBFCF91189520917B
:100A70001603222379F3109114031123C1F53430A6
:100A8000C2F13093140320931003109111033BE043
:100A9000311B309311032DC00091140301303CF53C
:100AA0000AE54F7049F43091710134FD24C0009380
:100AB0007101C8EFD2E023C0423049F03091030306
:100AC00034FD19C000930303C4E0D3E018C0309193
:100AD0002E0334FD10C000932E03CFE2D3E00FC0ED
:100AE0002795A8F45150A9F4220F0000F9CF4AE548
:100AF00003C042ED01C0432FC4E1D0E032E011B3A6
:100B00001C60939A11BB02B320E41CE05F930127A1
:100B100056E002BB279520F4515021F4220FF9CF63
:100B2000012756E000003B5A02BBD0F2279528F47B
:100B3000515029F4220F0000F9CF012756E02795E4
:100B400002BB20F4515021F4220FF9CF012756E0C7
:100B50002991332302BB21F6037F10911503110F56
:100B6000C651D04002BB11F010930F0310E41ABF1E
:100B7000086011B3137F402F437F5F9100C000C016
:100B800002BB11BB42BB66CF809117038823D9F00B
:100B90008091030384FF17C08091730190917401C9
:100BA000981789F028E0829FC001112468E08B58D3
:100BB0009E4F0E94EE0D8091730190E001968F711F
:100BC00099278093730108958091A602882319F1D3
:100BD0001092A602A0917401B0E0CD0101968F7130
:100BE000992720917301281781F093E0AA0FBB1F6A
:100BF0009A95E1F7AB58BE4F98E0E2E8F2E0019039
:100C00000D929A95E1F7809374010E94F60D0E946F
:100C1000C40581E0089580E008958091B302909129
:100C2000A802981721F08093A80281E001C080E01B
:100C30002091B8023091B9024091AE025091AF02BA
:100C40004217530729F03093AF022093AE0282E09F
:100C50002091BA023091BB024091B1025091B20290
:100C60004217530731F03093B2022093B10283E070
:100C700001C081118093BD02089580919A029091E4
:100C80008202981721F08093820281E001C080E007
:100C900090919B0220918402291719F0909384026D
:100CA00081E090919C0220918502291719F0909380
:100CB000850281E090919D0220918602291719F00A
:100CC0009093860281E090919E02209187022917DD
:100CD00019F09093870281E090919F022091880201
:100CE000291719F09093880281E09091A002209139
:100CF0008902291719F09093890202C0882319F0FC
:100D000081E08093A6020895CF938091BD02811166
:100D100002C0C0E02BC010927201809172018F5FFF
:100D2000809372018233A8F70E94F60D80912E0302
:100D300084FFF3CFC091BD02C13041F466E087EA81
:100D400092E00E94F20D1092BD0210C0C23021F458
:100D500063E08DEA92E005C0C33039F463E080EBD4
:100D600092E00E94F20D1092BD02C1E08C2FCF9153
:100D700008950E94F60D0C94C405ABE9B2E0FD01A4
:100D800091919817A9F092E0E13AF907C9F720E0AC
:100D900030E09D91911105C0F901E656FD4F818328
:100DA00007C02F5F3F4F2630310599F780E0089547
:100DB00081E00895EAE9F2E09081892B808308952B
:100DC000E3EBF2E09081892B8083089590E090938B
:100DD000B9028093B8020895982F907F903981F0DE
:100DE00038F4903281F0903859F0911112C00BC054
:100DF000903C21F0903E11F0903B59F490E005C0FA
:100E000090E0916002C090E092609093BB0280936A
:100E1000BA020895E3EBF2E0108216821582108682
:100E200017820895EAE9F2E0118212821382148295
:100E30001582168210820895CF92DF92EF92FF9270
:100E40000F931F93CF93DF93F82E6B0100E010E018
:100E5000E02EC0E0D0E08C2F8E0D21E0F216E9F0FC
:100E6000F21678F032E0F31224C09601280F311DFB
:100E7000C9010E94600FFE01E00FF11FEB5DFE4F04
:100E800017C09601280F311DC9010E94600FFE0195
:100E9000E00FF11FE157FF4F0BC09601280F311DE6
:100EA000C9010E94600FFE01E00FF11FE652FF4FE3
:100EB00080832196CF30D10571F6015F1F4F0B342F
:100EC000110531F6DF91CF911F910F91FF90EF90B7
:100ED000DF90CF900895CF92DF92EF92FF920F9321
:100EE0001F93CF93DF9380E090E00E94680F6C0126
:100EF00082E090E00E94680F7C0184E090E00E9414
:100F0000680F8C0186E090E00E94680FEC0188E099
:100F100090E00E94680F2AE0C216D104F1F5EFE0DC
:100F2000EE16F104D1F50E311105B9F5C936D1052A
:100F3000A1F5843B910589F50AE810E0CAE0D0E00C
:100F4000CE010E94600FF80181938F012196CF306E
:100F5000D105B1F70BE710E0CE010E94600FF80158
:100F600081938F012196CE31D105B1F76EE170E00A
:100F700080E00E941C0769E670E081E00E941C0787
:100F800064EB70E082E0DF91CF911F910F91FF90B1
:100F9000EF90DF90CF900C941C07DF91CF911F91C1
:100FA0000F91FF90EF90DF90CF900895CF93DF9354
:100FB000683009F059C0EAE7F2E0DF011D926A9556
:100FC000E9F7FC01AAE7B2E081918D9322E0A23813
:100FD000B207D1F7C0917A02D0917B028091A20230
:100FE000CF3F91EFD90729F4813069F41092A20222
:100FF0003BC0CF3FA2EFDA0731F4811104C082E099
:101000008093A2022DC081112FC00E946E0ACE3F94
:10101000B1E0DB0748F4E199FECF60917C0270916A
:101020007D02CE010E946E0FCE0102968E3F21E01E
:10103000920740F4E199FECF60917E0270917F02A9
:101040000E946E0FCE0104968E3FA1E09A0740F4F5
:10105000E199FECF60918002709181020E946E0F33
:10106000DF91CF910C94820ADF91CF91089590E0A7
:101070008032910508F0C4C0FC01E65DFF4F0C947E
:101080005A0F662311F0D09A0895D09808956623D8
:1010900011F0D19A0895D1980895662311F0D29A4B
:1010A0000895D2980895662311F0D39A0895D3989D
:1010B0000895662311F0D49A0895D498089566236C
:1010C00011F0D59A0895D5980895662311F0D69A0F
:1010D0000895D6980895662311F0D79A0895D79861
:1010E0000895662311F0B89A0895B8980895662374
:1010F00011F0B99A0895B9980895662311F0BA9A33
:101100000895BA980895662311F0BB9A0895BB9884
:101110000895662311F0BC9A0895BC98089566233B
:1011200011F0BD9A0895BD980895662311F0BE9AF6
:101130000895BE980895662311F0BF9A0895BF9848
:101140000895662311F0A09A0895A0980895662343
:1011500011F0A19A0895A1980895662311F0A29A1A
:101160000895A2980895662311F0A39A0895A3986C
:101170000895662311F0A49A0895A498089566230B
:1011800011F0A59A0895A5980895662311F0A69ADE
:101190000895A6980895662311F0A79A0895A79830
:1011A0000895662311F0889A089588980895662313
:1011B00011F0899A089589980895662311F08A9A02
:1011C00008958A980895662311F08B9A08958B9854
:1011D0000895662311F08C9A08958C9808956623DB
:1011E00011F08D9A08958D980895662311F08E9AC6
:1011F00008958E980895662311F08F9A08958F9818
:10120000089590E08032910508F0C4C0FC01E65BCF
:10121000FF4F0C945A0F662311F0D89A0895D8986E
:101220000895662311F0D99A0895D99808956623F0
:1012300011F0DA9A0895DA980895662311F0DB9A8E
:101240000895DB980895662311F0DC9A0895DC98E0
:101250000895662311F0DD9A0895DD9808956623B8
:1012600011F0DE9A0895DE980895662311F0DF9A52
:101270000895DF980895662311F0C09A0895C098E4
:101280000895662311F0C19A0895C19808956623C0
:1012900011F0C29A0895C2980895662311F0C39A76
:1012A0000895C3980895662311F0C49A0895C498C8
:1012B0000895662311F0C59A0895C5980895662388
:1012C00011F0C69A0895C6980895662311F0C79A3A
:1012D0000895C7980895662311F0A89A0895A898CC
:1012E0000895662311F0A99A0895A9980895662390
:1012F00011F0AA9A0895AA980895662311F0AB9A5E
:101300000895AB980895662311F0AC9A0895AC98AF
:101310000895662311F0AD9A0895AD980895662357
:1013200011F0AE9A0895AE980895662311F0AF9A21
:101330000895AF980895662311F0909A08959098B3
:101340000895662311F0919A08959198089566235F
:1013500011F0929A089592980895662311F0939A45
:10136000089593980895662311F0949A0895949897
:101370000895662311F0959A089595980895662327
:1013800011F0969A089596980895662311F0979A09
:1013900008959798089590E08032910508F04DC027
:1013A000FC01E659FF4F0C945A0F89B30FC089B363
:1013B00010C089B311C089B312C089B333C089B3D7
:1013C00034C089B335C089B336C086B381700895FF
:1013D00086B38270089586B38470089586B388704A
:1013E000089586B31FC086B320C086B321C086B3DC
:1013F00022C083B3EBCF83B3ECCF83B3EDCF83B302
:10140000EECF83B30FC083B310C083B311C083B3D7
:1014100012C080B3DBCF80B3DCCF80B3DDCF80B32D
:10142000DECF80B38071089580B38072089580B359
:101430008074089580B38078089580E00895CF93F4
:10144000C82F843049F480918202882311F085E30B
:1014500001C089E20E94BD068091CA02C82BC093D8
:10146000CA02CF9108958091CA029091CB02981739
:1014700021F08093CB0281E0089580E008950C94E0
:101480008B0C1092CD02E091CD02EF30B0F4F0E081
:10149000E558FF4F60E080810E943708E091CD025F
:1014A000F0E0E558FF4F61E080810E9401098091E2
:1014B000CD028F5F8093CD02E6CF089517BA81E009
:1014C00088BB089523E0280F81E090E001C0880FD9
:1014D0002A95EAF787BB809588BB08951092CD02C4
:1014E000E091CD02E33068F4F0E0E858FF4F61E0AE
:1014F00080810E9401098091CD028F5F8093CD028F
:10150000EFCF08951092CD02E091CD02E33068F460
:10151000F0E0E858FF4F60E080810E94010980916F
:10152000CD028F5F8093CD02EFCF08951092CD0250
:10153000E091CD02E330B0F4F0E0E858FF4F61E015
:1015400080810E943708E091CD02F0E0E858FF4F1B
:1015500061E080810E9401098091CD028F5F8093BC
:10156000CD02E6CF61E08CE10E94370861E08CE1BA
:101570000E940109109277020E942A0F80E092E0F7
:101580009093F5028093F4020E942C0F0C94400F6C
:10159000909177028091CB0289278093770280E037
:1015A00008950F931F93CF93DF931092CD02C1E064
:1015B000D0E08091CD028330F0F4E82FF0E09E017E
:1015C00002C0220F331F8A95E2F78091A10290E0BA
:1015D00082239323E858FF4F2817390711F461E05D
:1015E00001C060E080810E9401098091CD028F5F7F
:1015F0008093CD02DECF8091770280FF02C061E050
:1016000001C060E08CE10E9401098091F402909198
:10161000F502811522E0920708F43DC0809177021F
:1016200081FF28C0C0E6D0E000E010E028813981C9
:10163000F901E957F94F6491F901E957FB4F4491DA
:10164000F901E957FD4F2491C8010E94340F8881A8
:1016500099810196811522E0920718F49983888375
:1016600002C0198218820F5F1F4F22960C3011059D
:10167000E9F602C00E942C0F8091F4029091F502CD
:1016800001979093F5028093F402DF91CF911F911F
:101690000F910C94400F009711F0019702C080E069
:1016A00092E09093F5028093F402DF91CF911F9125
:1016B0000F9108951F93CF93DF9380EF8093CF0214
:1016C0001092CC02CFE0DFE016E08091CC028530B2
:1016D000E0F50E94620A1092CE02E091CE02EF3055
:1016E00060F5F0E0E558FF4F80810E94CB09E09162
:1016F000CC029091CE02CE9FD0011124AB5DBE4FA3
:10170000A90FB11D882321F08C9187778C9305C098
:101710008C9188688C9310937602CE9FF0011124EF
:10172000EB5DFE4FE90FF11D80818E3E11F4D093E9
:10173000CF029F5F9093CE02D0CF0E945E0A80912D
:10174000CC028F5F8093CC02C0CF0E9412070E9410
:101750000A071092CA021092CC02CFE08091CC020C
:10176000853008F099C01092CE02E091CE028091AF
:10177000CC02EF3008F08CC0F0E0C89FC00111240B
:10178000DC01AB5DBE4FAE0FBF1F3C912091CF027D
:1017900023232F3009F46EC0E0F42B3009F454C039
:1017A00060F4293009F443C02A3009F06BC0AC0161
:1017B00046525F4FE40FF51F43C02C3009F44DC073
:1017C0002D3009F05FC0AC0146525F4FE40FF51FAA
:1017D0004DC0203BE1F050F42039A1F0203A09F04F
:1017E00051C081579F4FE80FF91F2AC0203DA1F03B
:1017F000203FB9F0203C09F045C081579F4FE80FCA
:10180000F91F30C081579F4FE80FF91F15C081574E
:101810009F4FE80FF91F1DC081579F4FE80FF91F19
:1018200025C0AC0141575F4FE40FF51F28C0AC0144
:1018300046525F4FE40FF51F80810E94BD0622C013
:1018400080810E94DA061EC0AC0146525F4FE40F51
:10185000F51F80810E94E00615C0AC0146525F4F23
:10186000E40FF51F80810E94E6060CC080810E9473
:10187000EC0608C09C0126523F4FE20FF31F808107
:101880000E941F0A8091CE028F5F8093CE026DCF9F
:101890008F5F8093CC0262CF0E94330A882319F0B5
:1018A00083E0809375020E943D06882319F083E04F
:1018B000809375020E940D06882319F083E08093BF
:1018C000750280917602863051F4809175028130E4
:1018D00031F40E94C80A0E94E4050E9484068091A7
:1018E0007602813031F40E94C80A0E94E4050E9409
:1018F000840680917602882319F0815080937602C5
:1019000080917502882319F0815080937502DF91D0
:10191000CF911F9108950E94140D0E94410A0E94C8
:101920005E0AC1E00E94960AC093A2020E941207BA
:101930000E940A070E946B072FE78FE492E1215073
:1019400080409040E1F700C000000E94E4050E9442
:10195000B9068091A202823029F38130C1F70E943A
:101960005A0B80911703882391F38091030384FF1E
:10197000EECF809175028111EACF0E94D10AE7CFA4
:1019800089B78E7F89BF89B78B7F89BF89B78F7BE6
:1019900089BF08958D98959A0895CF93DF938CE031
:1019A000EEEBF2E0DF01C82F1D92CA95E9F7E7EAF6
:1019B000F2E0DF011D928A95E9F78BE0A3EBB2E03C
:1019C000ED0119928A95E9F781E0808382E08683B0
:1019D00083E08187DF91CF91089588E0E2E9F2E02A
:1019E000DF01982F1D929A95E9F7E2E8F2E0DF0116
:1019F0001D928A95E9F7EAE9F2E08DE0DF011D9298
:101A00008A95E9F781E08087089588E0EAE8F2E0C6
:101A1000DF01982F1D929A95E9F7EAE7F2E0DF01DE
:101A20001D928A95E9F708950E94C00C0E94CA0C85
:101A30000E94170F8B9A80E0815041F0A895E7EB48
:101A4000FBE03197F1F700C00000F6CF8B98789457
:101A50000E94ED0C0E94CD0C0E94050D1092CA024E
:101A60001092CB020895FC019093F7028093F60246
:101A700080818076803261F58181813041F482E815
:101A800092E0909313038093120388E008958230CC
:101A900041F488E792E0909313038093120381E06E
:101AA00008958A3021F483818093780211C08930AF
:101AB00079F4828193818115924061F484819581CA
:101AC000892B41F48091A10280688093A10202C019
:101AD00080E008958FEF08952091A10227FF06C0AE
:101AE000FC0180818093A10281E008958FEF089529
:101AF0001F93CF93DF93162FEA01288124FF05C09F
:101B0000398128E82327298302C02AE52883FC019C
:101B10009E012E5F3F4FD901912F81918D9391505E
:101B2000E1F7612FC9010E9478041C5F1883DF91DF
:101B3000CF911F910895FC019381923089F058F460
:101B4000913009F049C08FE691E0909313038093A0
:101B5000120382E10895913259F09232E9F03CC0CB
:101B600084E191E090931303809312038BE5089531
:101B70008281813049F028F0823071F588E591E06A
:101B800005C086E291E002C08FE391E090931303D9
:101B90008093120389E008958481958181309105B5
:101BA00099F050F00297C1F481EA91E09093130309
:101BB0008093120382E2089587E492E090931303E6
:101BC0008093120380E4089583EC91E090931303D3
:101BD0008093120384E8089580E0089543E053E081
:101BE0000C94780D4EE253E00C94780DCF93DF9374
:101BF00060911403635067FDC3C080911103CCE072
:101C0000D0E0C81BD109C85EDC4F80911003803141
:101C100020F4CE010E94D607B1C08D3209F09EC0DB
:101C2000683009F0ABC083EC8093F8028AE58093BA
:101C30007101109279028881807621F0CE010E9494
:101C4000330D79C09A81109201038981811106C0F8
:101C50001092020321E033E082E068C0853019F47D
:101C60009093150360C0863009F045C08B818130A8
:101C700019F48FE691E024C0823041F484E191E0D0
:101C800090931303809312038BE531C08330F1F4FA
:101C9000911108C08DE991E0909313038093120392
:101CA00084E025C0913041F483E991E090931303DF
:101CB000809312038AE01BC09230C1F481E891E066
:101CC000909313038093120382E111C0813241F497
:101CD00086E291E0909313038093120389E007C09A
:101CE000823221F4CE010E949B0D01C080E090E47D
:101CF0009093790220C0883079F0893019F490935C
:101D0000170311C08A3059F08B3069F48BE480934B
:101D1000040380932F0307C027E133E002C021E0D2
:101D200033E081E003C021E033E080E0309313032F
:101D30002093120309C08F3F39F4988197FD8E815B
:101D400090E89093790207C09F81911104C09E8111
:101D5000981708F4892F8093700110C08091790240
:101D600087FF0CC0CE010E946C0D8F3F21F48EE1E5
:101D70008093710103C081111092700110921403BD
:101D80008091710184FF46C0809170018F3F09F4FA
:101D900041C0C82F893008F0C8E08C1B80937001C7
:101DA0009091F80288E889278093F802CC2329F1E2
:101DB00080911203909113032091790226FF0AC0AB
:101DC000A9EFB2E0FC012C2F34913D9331962150C4
:101DD000D9F708C0DC01E9EFF2E02C2F3D913193F7
:101DE0002150E1F72FEF2C0F30E02F5F3F4F820F94
:101DF000931F90931303809312036C2F89EF92E04B
:101E00000E947804CC5FCC3019F08FEF8093700182
:101E1000C093710184E190B39C7031F48150D9F783
:101E20001092150310920F03DF91CF91089585B79B
:101E3000826085BF8BB780648BBFA3E0B3E08BE487
:101E400011968C931197EEE2F3E081838AE58C93EF
:101E500080830895A19A0895E0EDF2E0119282E066
:101E6000E43FF807D9F70895FC01EE0FFF1F8E0F2E
:101E70009F1FFC01E053FD4F40836183228308953F
:101E8000F89495B39D7F85B38260E0EDF2E02191F7
:101E900038E085BB00C027FF95BB220F000000C0C3
:101EA00000C095BB3A95A9F722E0E43FF20779F725
:101EB00078940895EE0FFF1F0590F491E02D09949A
:101EC000E199FECF9FBB8EBBE09A99278DB3089511
:101ED000A8E1B0E042E050E00C94750F0E94830F3F
:101EE000272F0C94840FDC01CB01FC01E199FECF7C
:101EF00006C0FFBBEEBBE09A31960DB20D92415089
:101F00005040B8F70895262FE199FECF9FBB8EBBB6
:101F10002DBB0FB6F894E29AE19A0FBE0196089590
:041F2000F894FFCF63
:101F240000002200440066008800AA00AA0088007D
:101F3400660044002200000018191E000102030478
:101F44000506071716151413121F0B0C0D0E0F049C
:101F54001E1F20212223242526272D2E352A2B142B
:101F64001A0815171C180C12132F303100390416D7
:101F740007090A0B0D0E0F333400280002001D1B45
:101F8400061905111036373820524C0100040000A0
:101F940000002C00004050514F00353A3B3C3D3E80
:101FA4003F404142434445004C2B595A5B5C5D5EC3
:101FB4005F6061625657310039010402000000007D
:101FC40000000000002800020053474946010200B7
:101FD400EAE9E2205200010004000000002C0000A5
:101FE4004050514F007111111111111111111111A2
:101FF40011111011111111111111111111111111CE
:1020040011110011131313101010101010101000E0
:102014001100220011111111171710151515221195
:102024001022662200000000110066221111110026
:02203400FF5A51
:00000001FF
