:100000000C943A040C9457040C9472040C94570406
:100010000C9457040C9457040C9457040C945704F4
:100020000C9457040C9457040C9457040C945704E4
:100030000C9457040C9457040C9457040C945704D4
:100040000C9457040C9457040C9457040C945704C4
:100050000C9457047B0A8F0A670A970A710A850A6B
:100060005D0A9B0A760A8A0A620A930A6C0A800A67
:10007000580A530A3F0A490A350A4E0A3A0A440AFC
:10008000300A2B0A210A260A1C0A170A120A0D0A2C
:10009000080A040A5F0B730B4B0B7B0B550B690BA8
:1000A000410B7F0B5A0B6E0B460B770B500B640BFF
:1000B0003C0B370B230B2D0B190B320B1E0B280B94
:1000C000140B0F0B050B0A0B000BFB0AF60AF10AC7
:1000D000EC0AE80A280C250C220C1F0C1C0C190C2D
:1000E000160C130C100C0D0C0A0C070C040C010C54
:1000F000FE0BFB0BF80BF50BF20BEF0BEC0BE90B0C
:10010000E60BE30BE00BDD0BDA0BD70BD40BD10BBB
:10011000CE0B2B0C09025400030100A0FA090400C5
:100120000001030101000921110100012240000723
:10013000058103080001090401000103010200090F
:100140002111010001228400070582030800010932
:100150000402000103000000092111010001221521
:100160000007050303080001120110010000000848
:10017000A032600101000102000112037600750047
:10018000730062005F006B00650079000A037A006B
:10019000690061006E00040309040631FF0974A1BF
:1001A000010975150026FF00950875089102C00524
:1001B000010902A10185010901A10005091901290F
:1001C00005150025017501950581027503950181CD
:1001D000030501093009311581257F7508950281D4
:1001E0000609381581257F35004500750895018180
:1001F00006050C0A38021581257F750895018106D0
:10020000C0C005010980A1018502150126B70019AA
:100210000129B7751095018100C0050C0901A101E4
:1002200085031501269C0219012A9C02751095016F
:100230008100C005010906A101750195080507198E
:10024000E029E715002501810295017508810395D4
:10025000057501050819012905910295017503919C
:100260000395067508150026FF000507190029FFEC
:100270008100C00000000101010203040405070819
:10028000090A0C0D0F1112141617191B1D1F21221C
:10029000242628292B2D2E30313334353637383962
:1002A0003A3A3B3B3C3C3C3C3C3C3D3D3E3E3F4087
:1002B000414243444647494A4C4D4F515254565887
:1002C000595B5D5F6062646567696A6B6D6E6F70D4
:1002D00071727374747575767676767676767676D0
:1002E00076767676767676767676767777777777A9
:1002F000777777777777777777777777787878788A
:10030000787878787878787878787878787878786D
:100310007879797A7A7B7B7C7D7E7F7F808283840B
:10032000858687898A8B8C8E8F90919294959697EB
:1003300098999A9B9C9D9D9E9F9FA0A0A0A1A1A1E2
:10034000A1A1A1A2A2A3A3A4A5A6A7A9AAACADAF4F
:10035000B0B2B4B6B8BABCBEC0C2C4C6C8CACCCEAD
:10036000D0D2D4D6D8D9DBDCDEDFE0E1E2E3E3E4CF
:10037000E4E5E5E5E5E4E4E3E2E0DFDDDBD8D6D380
:10038000D0CDCAC6C2BFBBB7B3AFABA6A29E9A952B
:10039000918D8985817D7A7673706D6A67656361F9
:1003A0005F5E5C5B5B5A5A5A5A59595857565554B6
:1003B0005351504E4C4A484644423F3D3A383633FA
:1003C000302E2B292724221F1D1B1917151312103D
:1003D0000F0D0C0B0A090908080808080808080985
:1003E00009090A0A0A0B0B0C0D0D0E0E0F10101145
:1003F00012131314151516171818191A1A1B1B1C8B
:100400001D1D1E1E1E1F1F1F2020202020202020FB
:10041000202020201F1F1F1F1F1E1E1E1E1D1D1DF2
:100420001C1C1C1B1B1A1A1A191919181818171733
:10043000171616161615151515151414141414146C
:100440001414141414131313131212121111101084
:100450000F0F0E0E0D0D0C0B0B0A0A0908080707EB
:100460000606050404030303020201010101000062
:1004700000000039393939393838383737363635A8
:10048000343433323231302F2E2D2C2B2B2A292885
:10049000272625242323222120201F1E1E1D1D1C4C
:1004A0001C1C1B1B1B1B1B1B1B1B1B1A1A1A1919A1
:1004B00019181817161615141413121111100F0EFF
:1004C0000D0D0C0B0A0908080706060504040303B2
:1004D0000202010101000000000000000000000015
:1004E000000000000000000000000000000000000C
:1004F00000000000000000000000000000000000FC
:1005000000000000000000000000000000000000EB
:100510000101020304050607080A0B0D0F1113154C
:1005200017191B1D1F212426282A2C2E313335375D
:10053000383A3C3D3F404243444546464747484899
:10054000484849494A4B4C4E4F515356585B5D60A1
:1005500063666A6D7074787B7F83868A8E919598C6
:100560009C9FA2A5A8ABAEB0B3B5B7B9BBBCBDBE8E
:10057000BFC0C0C0C0C0C0C0C0C0BFBFBFBFBEBE84
:10058000BEBEBDBDBDBCBCBBBBBBBABAB9B9B8B8B9
:10059000B8B7B7B6B6B6B5B5B4B4B4B4B3B3B3B30D
:1005A000B3B2B2B2B2B2B2B2B2B2B2B2B2B2B2B329
:1005B000B3B3B3B3B3B4B4B4B4B4B5B5B5B5B6B6F8
:1005C000B6B6B7B7B7B7B7B8B8B8B8B9B9B9B9B9AF
:1005D000B9B9BABABABABABABABABABABABBBBBB7A
:1005E000BCBDBDBEBFC0C1C2C4C5C6C7C9CACCCDD3
:1005F000CFD0D2D4D5D7D8DADBDDDEE0E1E2E3E557
:10060000E6E7E8E9EAEAEBECECECEDEDEDEDEDED3B
:10061000ECECEBEAE9E8E7E5E4E2E1DFDDDBD9D7A2
:10062000D4D2D0CECBC9C6C4C2BFBDBBB8B6B4B29B
:10063000B0AEACAAA9A7A6A5A3A2A1A1A0A09F9F66
:100640009F9F9F9E9D9C9B9A99979593918F8D8A32
:10065000888582807D7A7773706D6A6764615E5B7E
:10066000585552504D4B48464442413F3E3C3B3B1F
:100670003A3939F3F3F3F3F3F3F3F3F3F2F2F2F27B
:10068000F2F2F2F1F1F1F1F1F0F0F0F0F0EFEFEF62
:10069000EFEFEEEEEEEEEEEDEDEDEDEDEDEDECEC83
:1006A000ECECECECECECECECECECECEBEBEBEBEA90
:1006B000EAE9E9E8E8E7E6E6E5E4E4E3E2E1E0E0E8
:1006C000DFDEDDDCDCDBDAD9D9D8D7D7D6D6D5D595
:1006D000D4D4D3D3D3D2D2D2D2D2D2D2D1D1D0CFFA
:1006E000CECCCBC9C7C5C3C0BEBBB9B6B3B0ADA92C
:1006F000A6A3A09C999693908C898683807E7B7913
:10070000767472706E6D6B6A696868676767676731
:1007100066666565646362615F5E5D5B5A585655E7
:1007200053514F4D4B4947454342403E3C3A383781
:10073000353332302F2E2D2C2B2A292828272727F6
:100740002727272726262625252423232221201F65
:100750001E1D1C1B1A1918171614131211100F0E38
:100760000D0B0A0908080706050404030302020228
:10077000010101010101010101020202020303035F
:10078000040404050506060707080809090A0A0BF8
:100790000B0C0C0D0D0E0E0F0F0F10101011111170
:1007A000111212121212121212121313141515161C
:1007B00017181A1B1C1E1F2122242628292B2D2F17
:1007C00031333536383A3C3E3F414244454748494B
:1007D0004A4B4C4D4D4E4E4F4F4F4F4F5051525331
:1007E0005557595B5D606366696D7174787C808470
:1007F000898D91969A9EA2A7ABAFB3B7BABEC2C578
:10080000C8CBCED0D2D4D6D8D9DADBDCDCDCDCDC89
:10081000DCDCDDDDDDDEDEDFDFE0E0E1E2E2E3E4E3
:10082000E4E5E6E7E8E9E9EAEBECEDEDEEEFF0F020
:10083000F1F2F2F3F4F4F5F5F5F6F6F6F7F7F7F76B
:10084000F7F7F7F7F7F7F7F7F7F7F7F7F6F6F6F63C
:10085000F6F6F6F6F6F6F5F5F5F5F5F5F5F5F4F444
:10086000F4F4F4F4F4F4F4F4F3F3F3F3F3F3F3F350
:10087000F3F3F30011241FBECFE5D8E0DEBFCDBFF8
:1008800011E0A0E6B0E0EAE7F6E202C005900D92C2
:10089000A237B107D9F723E0A2E7B1E001C01D926A
:1008A000AE33B207E1F70E94C60C0C943B130C94D4
:1008B0000000A82FB92F80E090E041E050EA609559
:1008C00030E009C02D9182279795879510F08427F5
:1008D0009527305EC8F36F5FA8F30895EADF8D9324
:1008E0009D930895CF93CFB7CF93C395839BE9F79B
:1008F000839B0EC0839B0CC0839B0AC0839B08C054
:10090000839B06C0C0911503C395C0931503A6C071
:10091000DF93C0911403DD27C45EDC4F839B02C0CC
:10092000DF91E6CF2F930F931F9300B32FEF03FBBD
:1009300020F94F933F9310B34FEF012703FB21F9A9
:100940003BE031C04E7F012F10B3216028C0102F33
:100950004D7F2260000000B329C04B7F2460012F2F
:10096000000010B32BC010B3477F28602AC04F7E11
:1009700000B320612CC04F7D10B320622FC04F7B8D
:1009800000B3206432C0422700B349934FEF000008
:10099000102713FB20F910B31C70C9F1297F91F2C5
:1009A000012703FB21F900B3237F89F2315058F16D
:1009B000102713FB22F910B3277E79F2012703FBDE
:1009C00023F92F7C81F200B3102713FB24F92F7930
:1009D00071F200C010B3012703FB25F92F7359F200
:1009E00000C000B3102713FB26F9223040F200C0EC
:1009F00010B3012703FB27F9243028F64F7720682E
:100A000010B30000F9CF10E81ABF00271CC03B50FC
:100A10003195C31BD04010E81ABF0881033C11F187
:100A20000B3401F1209112031981110F1213EDCF34
:100A30004A81441F093659F10D3211F0013E29F760
:100A40004F7009F0042F00931A033F914F911F91AB
:100A50000F912F91DF91CAB7C7FD47CFCF91CFBF7D
:100A6000CF91189520911A03222379F3109118033E
:100A70001123C1F53430C2F13093180320931303CE
:100A8000109114033BE0311B309314032DC00091EF
:100A9000180301303CF50AE54F7049F430917101BB
:100AA00034FD24C000937101CBEFD2E023C042306B
:100AB00049F03091060334FD19C000930603C7E0E6
:100AC000D3E018C03091320334FD10C000933203DC
:100AD000C3E3D3E00FC02795A8F45150A9F4220F27
:100AE0000000F9CF4AE503C042ED01C0432FC4E145
:100AF000D0E032E011B31C60939A11BB02B320E442
:100B00001CE05F93012756E002BB279520F451506B
:100B100021F4220FF9CF012756E000003B5A02BB17
:100B2000D0F2279528F4515029F4220F0000F9CF74
:100B3000012756E0279502BB20F4515021F4220FE3
:100B4000F9CF012756E02991332302BB21F6037F19
:100B500010911903110FC651D04002BB11F0109330
:100B6000120310E81ABF086011B3137F402F437FB0
:100B70005F9100C000C002BB11BB42BB66CF809139
:100B80001B038823F1F08091060384FF1AC0809133
:100B90007301909174019817A1F090E0880F991F4C
:100BA000880F991F880F991F68E08B589E4F0E94ED
:100BB000D7108091730190E001968F7199278093EF
:100BC000730108958091A602811102C080E008950A
:100BD0001092A602A0917401B0E0CD0101968F7130
:100BE000992720917301281789F0AA0FBB1FAA0F1C
:100BF000BB1FAA0FBB1FAB58BE4F98E0E2E8F2E064
:100C000001900D929A95E1F7809374010E941B1157
:100C100080911B03882321F08091060384FD02C08C
:100C200081E0089580917301909174019817C1F348
:100C300090E0880F991F880F991F880F991F68E00F
:100C40008B589E4F0E94D7108091730190E00196BF
:100C50008F7199278093730181E008958091B30289
:100C60009091A802981729F18093A80281E0209121
:100C7000B8023091B9024091AE025091AF024217D2
:100C80005307C9F03093AF022093AE022091BA020D
:100C90003091BB028091B1029091B202821793070A
:100CA000C9F03093B2022093B10283E08093BD0279
:100CB000089580E0DCCF2091BA023091BB024091D0
:100CC000B1025091B2024217530759F7882381F3BA
:100CD00081E0ECCF82E0EACF80919A02909182028B
:100CE0009817D1F18093820281E090919B0220912C
:100CF0008402291719F09093840281E090919C025C
:100D000020918502291719F09093850281E0909136
:100D10009D0220918602291719F09093860281E0A6
:100D200090919E0220918702291719F090938702D3
:100D300081E090919F0220918802291779F0909389
:100D400088029091A0028091890298139093890261
:100D500081E08093A602089580E0C7CF9091A00221
:100D6000209189022913F2CF8111F2CF0895CF93F8
:100D70008091BD02882381F081E0809372010E94FE
:100D80001B118091320384FD0BC0809172018F5F33
:100D900080937201823398F3C0E08C2FCF91089535
:100DA000C091BD02C13089F0C230B9F0C33021F02A
:100DB000C1E08C2FCF91089563E080EB92E00E9418
:100DC000F9101092BD02C1E0E8CF66E087EA92E038
:100DD0000E94F9101092BD02E0CF63E08DEA92E02C
:100DE0000E94F9101092BD02C1E0D7CF90919B02F2
:100DF000891711F120919C028217F1F030919D0228
:100E00008317D1F040919E028417B1F050919F0258
:100E1000851791F06091A002681771F0992371F025
:100E20002223A1F03323A9F04423B1F05523B9F0D4
:100E30006623C1F080E0089581E0089520E030E06D
:100E4000F901E656FD4F818381E0089521E030E00D
:100E5000F7CF22E030E0F4CF23E030E0F1CF24E020
:100E600030E0EECF25E030E0EBCFEAE9F2E0908130
:100E7000892B80830895E3EBF2E09081892B8083B6
:100E8000089590E09093B9028093B8020895982F46
:100E9000907F9039D9F038F0903C91F0903E81F0FD
:100EA000903B71F00895903221F0903879F09111D3
:100EB000F9CF90E092609093BB028093BA020895BC
:100EC00090E09093BB028093BA02089590E0916005
:100ED0009093BB028093BA020895E3EBF2E0108294
:100EE0001682158210861782089586E0EBE9F2E0FB
:100EF000DF011D928A95E9F710929A020895CF9228
:100F0000DF92EF92FF920F931F93CF93DF9380E0D6
:100F100090E00E941313EC0182E090E00E94131312
:100F20008C0184E090E00E9413137C0186E090E045
:100F30000E9413136C0188E090E00E9413132A971B
:100F400049F0DF91CF911F910F91FF90EF90DF90CB
:100F5000CF9008950F301105A1F72EE1E216F104AC
:100F600081F7E9E6CE16D10461F7843B910549F794
:100F70008AE090E00E940B1380938A008BE090E05F
:100F80000E940B1380938B008CE090E00E940B1367
:100F900080938C008DE090E00E940B1380938D0075
:100FA0008EE090E00E940B1380938E008FE090E023
:100FB0000E940B1380937B0080E190E00E940B1352
:100FC00080937C0081E190E00E940B1380937D0070
:100FD00082E190E00E940B1380937E0083E190E019
:100FE0000E940B1380937F0084E190E00E940B131A
:100FF0008093800085E190E00E940B138093810034
:1010000086E190E00E940B138093820087E190E0DC
:101010000E940B138093830088E190E00E940B13E1
:101020008093840089E190E00E940B1380938500F7
:101030008AE190E00E940B13809386008BE190E0A0
:101040000E940B13809387008CE190E00E940B13A9
:10105000809388008DE190E00E940B1380938900BB
:101060000FE810E0C0E0D0E0CE014E960E940B13D6
:10107000F8018083CE014F960E940B13F801818303
:10108000CE0180960E940B13F8018283CE018196D7
:101090000E940B13F8018383CE0182960E940B13EA
:1010A000F8018483CE0183960E940B13F801858397
:1010B000CE0184960E940B13F8018683CE0185969B
:1010C0000E940B13F8018783CE0186960E940B13B2
:1010D000F8018087CE0187960E940B13F801818763
:1010E000CE0188960E940B13F8018287CE01899663
:1010F0000E940B13F8018387CE018A960E940B137E
:10110000F8018487CE018B960E940B13F801858726
:10111000CE018C960E940B13F80186872F96015FF3
:101120001F4FCB34D10509F09FCF0AED10E0C0E08E
:10113000D0E0CE0187599F4F0E940B13F8018083A6
:10114000CE0186599F4F0E940B13F8018183CE0177
:1011500085599F4F0E940B13F8018283CE01845959
:101160009F4F0E940B13F8018383CE0183599F4F39
:101170000E940B13F8018483CE0182599F4F0E9475
:101180000B13F8018583CE0181599F4F0E940B13E9
:10119000F8018683CE0180599F4F0E940B13F801FE
:1011A0008783CE018F589F4F0E940B13F8018087D1
:1011B000CE018E589F4F0E940B13F8018187CE01FC
:1011C0008D589F4F0E940B13F8018287CE018C58D7
:1011D0009F4F0E940B13F8018387CE018B589F4FBE
:1011E0000E940B13F8018487CE018A589F4F0E94FA
:1011F0000B13F8018587CE0189589F4F0E940B136E
:10120000F80186872F96015F1F4FCB34D10509F077
:1012100090CF05E211E0C0E0D0E0CE018C549F4FAA
:101220000E940B13F8018083CE018B549F4F0E94C4
:101230000B13F8018183CE018A549F4F0E940B1338
:10124000F8018283CE0189549F4F0E940B13F8014D
:101250008383CE0188549F4F0E940B13F80184832F
:10126000CE0187549F4F0E940B13F8018583CE0156
:1012700086549F4F0E940B13F8018683CE0185543C
:101280009F4F0E940B13F8018783CE0184549F4F18
:101290000E940B13F8018087CE0183549F4F0E9458
:1012A0000B13F8018187CE0182549F4F0E940B13CC
:1012B000F8018287CE0181549F4F0E940B13F801E1
:1012C0008387CE0180549F4F0E940B13F8018487BF
:1012D000CE018F539F4F0E940B13F8018587CE01DB
:1012E0008E539F4F0E940B13F80186872F96015F44
:1012F0001F4FCB34D10509F090CF23CECF93DF938E
:10130000683019F0DF91CF910895FC01AAE7B2E0AF
:10131000ED0119926A95E9F7808180937A028181C3
:1013200080937B02828180937C02838180937D0203
:10133000848180937E02858180937F028681809361
:101340008002878180938102C0917A02D0917B02D2
:10135000CF3F21EFD20731F1CF3F82EFD807A1F184
:101360008091A2028111CECF0E94E30CCE3F21E0FA
:10137000D20748F4E199FECF60917C0270917D0222
:10138000CE010E941913CE0102968E3F21E09207F2
:1013900088F4E199FECF60917E0270917F020E94F5
:1013A000191308C08091A202813011F18111AACFD6
:1013B0000E94E30CCE0104968E3FC1E09C0778F0BA
:1013C000DF91CF910C94F50C8091A20281119ACFFC
:1013D00082E08093A202DF91CF910C94F50CE19909
:1013E000FECF60918002709181020E941913E8CFB4
:1013F0001092A20287CF90E08032910540F4FC0168
:10140000E65DFF4F0C9405136111D7C08F980895C6
:10141000662309F494C08E9A0895662309F491C056
:101420008D9A0895662309F48EC08C9A08956623D8
:1014300009F48BC08B9A0895662309F48AC08A9AAE
:101440000895662309F483C0889A0895662309F4F1
:1014500082C0899A0895662309F47FC0A79A0895E7
:10146000662309F482C0A69A0895662309F479C018
:10147000A29A0895662309F47CC0A49A089566236D
:1014800009F46DC0A09A0895662309F470C0A59A66
:101490000895662309F467C0A19A0895662309F4A4
:1014A0006AC0A39A0895662309F467C0BF9A089595
:1014B000662309F472C0BE9A0895662309F465C0D4
:1014C000D69A0895662309F470C0BA9A08956623DF
:1014D00009F457C0D29A0895662309F462C0BC9AF1
:1014E0000895662309F455C0D49A0895662309F433
:1014F00060C0B89A0895662309F441C0D09A08954F
:10150000662309F44CC0BD9A0895662309F43FC0D0
:10151000D59A0895662309F44AC0B99A08956623B6
:1015200091F1D19A08956623F1F1BB9A089566234B
:1015300091F1D39A08956623F1F1D79A08958E9880
:1015400008958D9808958C9808958B98089588989B
:1015500008958A98089589980895A7980895A0985D
:101560000895A2980895A1980895A6980895A59819
:101570000895A4980895A3980895BF980895D098C1
:101580000895D2980895D1980895D6980895D59839
:101590000895D4980895D3980895BE980895BD9855
:1015A0000895BC980895BB980895BA980895B9987D
:1015B0000895B8980895D79808958F9A089590E05F
:1015C0008032910540F4FC01E65BFF4F0C9405135B
:1015D0006111D7C097980895662309F494C0969A2C
:1015E0000895662309F491C0959A0895662309F435
:1015F0008EC0949A0895662309F48BC0939A089537
:10160000662309F48AC0929A0895662309F483C078
:10161000909A0895662309F482C0919A08956623EA
:1016200009F47FC0AF9A0895662309F482C0AE9A88
:101630000895662309F479C0AA9A0895662309F4E7
:101640007CC0AC9A0895662309F46DC0A89A0895E9
:10165000662309F470C0AD9A0895662309F467C043
:10166000A99A0895662309F46AC0AB9A089566237F
:1016700009F467C0C79A0895662309F472C0C69A30
:101680000895662309F465C0DE9A0895662309F477
:1016900070C0C29A0895662309F457C0DA9A089573
:1016A000662309F462C0C49A0895662309F455C0FC
:1016B000DC9A0895662309F460C0C09A08956623F1
:1016C00009F441C0D89A0895662309F44CC0C59A1C
:1016D0000895662309F43FC0DD9A0895662309F44E
:1016E0004AC0C19A0895662391F1D99A0895662354
:1016F000F1F1C39A0895662391F1DB9A0895662368
:10170000F1F1DF9A08959698089595980895949820
:1017100008959398089590980895929808959198AF
:101720000895AF980895A8980895AA980895A9983B
:101730000895AE980895AD980895AC980895AB9823
:101740000895C7980895D8980895DA980895D99873
:101750000895DE980895DD980895DC980895DB9843
:101760000895C6980895C5980895C4980895C39893
:101770000895C2980895C1980895C0980895DF9873
:101780000895979A089590E08032910510F080E0D6
:101790000895FC01E659FF4F0C94051380B3807443
:1017A000089580B38072089580B38071089580B3E6
:1017B0008870089580B38470089580B3827008950E
:1017C00080B38170089583B38078089583B3807463
:1017D000089583B38072089583B38071089583B3AD
:1017E0008870089583B38470089583B382700895D8
:1017F00083B38170089586B38078089586B380742A
:10180000089586B38072089586B38071089586B373
:101810008870089586B38470089586B382700895A1
:1018200086B38170089589B38078089589B38074F0
:10183000089589B38072089589B38071089589B33A
:101840008870089589B38470089589B3827008956B
:1018500089B38170089580B380780895843031F021
:101860009091CA02892B8093CA02089590918202B6
:10187000992389F190919B02953391F320919C02D9
:10188000253371F330919D02353351F340919E021F
:10189000453331F350919F02553311F36091A0020B
:1018A0006533F1F2992309F447C0222309F44AC0B1
:1018B000332309F450C0442309F453C0552309F4D9
:1018C00053C06111CDCF25E030E0F901E656FD4F60
:1018D00095E39183C5CF90919B02993209F22091B3
:1018E0009C02293209F4BCCF30919D02393209F4AF
:1018F000B7CF40919E02493209F4B2CF50919F0276
:10190000593209F4ADCF6091A002693209F4A8CF31
:101910009923A9F02223C9F03323D1F04423F1F015
:10192000552329F161119CCF25E030E0F901E656FD
:10193000FD4F99E2918394CF20E030E0C6CF20E0C4
:1019400030E0F4CF21E030E0C0CF21E030E0EECF56
:1019500022E030E0EBCF22E030E0B7CF23E030E010
:10196000E5CF23E030E0B1CF24E030E0AECF24E09B
:1019700030E0DCCF8091CA029091CD02981721F01F
:101980008093CD0281E0089580E008950C943D0F8E
:101990001092D002E0E0F0E0E558FF4F60E0808177
:1019A0000E94FB09E091D002F0E0E558FF4F61E0B2
:1019B00080810E94DF0AE091D002EF5FE093D002C5
:1019C000EF3048F308951092D002E0E0F0E0E858DC
:1019D000FF4F61E080810E94DF0AE091D002EF5F5B
:1019E000E093D002E33090F308951092D002E0E04B
:1019F000F0E0E858FF4F60E080810E94DF0AE0914C
:101A0000D002EF5FE093D002E33090F308950F939C
:101A10001F93CF93DF931092D00280E0C1E0D0E01B
:101A20000BC060E080810E94DF0A8091D0028F5F4E
:101A30008093D0028330F0F4282F30E0AE0102C052
:101A4000440F551F8A95E2F78091A10290E084230C
:101A50009523F901E858FF4F4817590711F761E03E
:101A600080810E94DF0A8091D0028F5F8093D00234
:101A7000833010F38091770280FF4DC061E08CE1EC
:101A80000E94DF0A8091F7029091F802811522E00E
:101A9000920708F445C08091770281FF58C0C0E6E4
:101AA000D0E000E010E008C0998388830F5F1F4FEB
:101AB00022960C30110501F128813981F901ED5888
:101AC000F94F6491F901ED58FB4F4491F901ED583C
:101AD000FD4F2491C8010E94DF12888199810196EF
:101AE000811522E0920700F3198218820F5F1F4FC1
:101AF00022960C30110501F78091F7029091F802BF
:101B000001979093F8028093F702DF91CF911F9194
:101B10000F910C94EB1260E08CE10E94DF0AB2CFCF
:101B2000009759F480E092E09093F8028093F702D6
:101B3000DF91CF911F910F91089501979093F80233
:101B40008093F702DF91CF911F910F9108950E942A
:101B5000D712D2CFEF92FF920F931F93CF93DF93C1
:101B600080EF8093D2021092CF0280E0C1E0D0E0FB
:101B70001FE09FE0F92E06E0EE24E3948D5F9E01C6
:101B800002C0220F331F8A95E2F7C90127BB809557
:101B900088BB1092D102E0E008C08C9187778C93CB
:101BA000EF5FE093D102EF3008F5F0E0E558FF4F2A
:101BB00080810E94C30BE091D102A091CF021A9FB5
:101BC000D0011124AB5DBE4FAE0FB11D8111E5CF29
:101BD0008C9188688C93009376028E3E09F7F09280
:101BE000D202EF5FE093D102EF30F8F217BAE8BA11
:101BF0008091CF028F5F8093CF02853008F4BECFF3
:101C00000E9475070E946D071092CA021092CF02BF
:101C100040E0CFE01092D10290E01DC0803B09F47B
:101C2000CEC008F488C0803D09F4BDC0803F09F4EF
:101C3000AEC0803C59F421573F4FE20FF31F808123
:101C40000E9441074091CF029091D1029F5F9093F3
:101C5000D1029F3068F5E92FF0E0C49F9001112474
:101C6000D901AB5DBE4FAE0FBF1F5C918091D20218
:101C700085238F3009F4BCC088F68B3009F46DC021
:101C800008F046C0893009F475C08A30F9F6A90118
:101C900046525F4FE40FF51F80810E943507409147
:101CA000CF029091D1029F5F9093D1029F3098F222
:101CB0004F5F4093CF02453008F4ACCF0E94BA0C7E
:101CC000882319F083E0809375020E946C068823B4
:101CD00019F083E0809375020E942E068111A1C045
:101CE00080917602863009F4A4C0813009F4A9C03D
:101CF000909175028111A1C0992319F09150909390
:101D00007502DF91CF911F910F91FF90EF90089591
:101D10008C3009F460C08D3009F098CFA90146528B
:101D20005F4FE40FF51F80810E9447074091CF026B
:101D30009091D1028BCF803909F467C0803A09F0C5
:101D400085CF21573F4FE20FF31F80810E94350757
:101D50004091CF029091D10279CFA90146525F4FB5
:101D6000E40FF51F80810E943B074091CF029091C4
:101D7000D1026CCFA90146525F4FE40FF51F80815D
:101D80000E94F6064091CF029091D1025FCF215779
:101D90003F4FE20FF31F80810E942E0C4091CF0233
:101DA0009091D10253CF21573F4FE20FF31F808113
:101DB0000E9447074091CF029091D10247CF21570F
:101DC0003F4FE20FF31F80810E943B074091CF02FB
:101DD0009091D1023BCFA90146525F4FE40FF51F0E
:101DE00080810E9441074091CF029091D1022ECF75
:101DF000C90186529F4FE80FF91F80810E942E0C67
:101E00004091CF029091D10221CF21573F4FE20F55
:101E1000F31F80810E94F6064091CF029091D1027B
:101E200015CF83E08093750280917602863009F0A9
:101E30005CCF90917502913091F081508093760241
:101E40005BCF909177028091CD02892780937702B2
:101E50000E94E2050E94B7068091760249CF9091D8
:101E600077028091CD028927809377020E94E20554
:101E70000E94B7068091760238CF0E94AD0F0E9473
:101E8000C80C17BA81E088BBC0E0D2E00E945610AF
:101E90001092D002E0E0F0E0E858FF4F61E080816E
:101EA0000E94FB09E091D002F0E0E858FF4F61E0AA
:101EB00080810E94DF0AE091D002EF5FE093D002C0
:101EC000E33048F361E08CE10E94FB0961E08CE1C2
:101ED0000E94DF0A109277020E94D512D093F80276
:101EE000C093F7020E94D7120E94EB1281E0809308
:101EF000A2020E9475070E946D070E947F072FE7CC
:101F00008FE492E1215080409040E1F700C0000052
:101F10000E94E2050E945D100E941B118091A202A6
:101F2000823009F4B3CF8130A9F78091CE028823A3
:101F300079F080911B03882369F38091060384FF65
:101F4000E9CF809175028111E5CF0E94070DE2CFA4
:101F50000E94AA0D0E94BF05ECCF89B78E7F89BF72
:101F600089B78B7F89BF89B78F7B89BF8D98959AF9
:101F70000E94C2128B9A8FEFA895A7EBBBE0119736
:101F8000F1F700C000008150B9F78B98789488E091
:101F9000E2E9F2E0DF01382F1D923A95E9F7E2E835
:101FA000F2E0DF01382F1D923A95E9F79DE0EAE96A
:101FB000F2E0DF011D929A95E9F791E09093A20279
:101FC0002CE0EEEBF2E0DF01322F1D923A95E9F7BB
:101FD000E7EAF2E0DF011D922A95E9F72BE0E3EB57
:101FE000F2E0DF011D922A95E9F79093A70292E0B3
:101FF0009093AD0293E09093B002EAE8F2E0DF0143
:10200000382F1D923A95E9F7EAE7F2E0DF011D92D9
:102010008A95E9F71092CA021092CD020895FC0148
:102020009093FA028093F90290819076903211F0A9
:1020300080E008958181813069F0823099F08A30A2
:1020400021F18930A9F7828193818115924091F025
:102050008FEF089582E892E0909317038093160320
:1020600088E0089588E792E0909317038093160321
:1020700081E0089584819581892B51F78091A10297
:1020800080688093A1028FEF089583818093780206
:1020900080E00895FC019091A10297FD02C08FEFAE
:1020A000089580818093A10281E008951092CC026E
:1020B0001092CB021092CE020895809115038111E7
:1020C00012C08091CB029091CC02893E23E092070E
:1020D00030F401969093CC028093CB02089581E076
:1020E0008093CE0208951092CE02109215031092A2
:1020F000CC021092CB020895FC019381923079F1C9
:1021000020F1913291F09232F1F484819581813005
:102110009105A9F1E0F10297B1F48AE991E0909379
:1021200017038093160385E1089582818130F9F0C9
:10213000B0F1823041F488E591E0909317038093E9
:10214000160389E0089580E008959130E1F788E66C
:1021500091E0909317038093160382E1089584E140
:1021600091E0909317038093160384E508958FE31D
:1021700091E0909317038093160389E008958FEA06
:1021800091E0909317038093160384E8089583E306
:1021900092E0909317038093160380E4089586E2FB
:1021A00091E0909317038093160389E00895CF93ED
:1021B000C62F2091060324FF18C03091070328E89A
:1021C000232720930703FC01A8E0B3E08C2F919113
:1021D0009D938150E1F76C2F88E093E00E946E049C
:1021E000CC5FC0930603CF9108952AE520930603A0
:1021F000EACFCF93C62F2091320324FF18C030912D
:10220000330328E8232720933303FC01A4E3B3E03E
:102210008C2F91919D938150E1F76C2F84E393E093
:102220000E946E04CC5FC0933203CF9108952AE5DB
:1022300020933203EACFCF93DF936091180363506A
:1022400067FD17C0209114038CE090E0821B910978
:10225000EC01C45EDC4F80911303803108F48FC021
:102260008D3209F490C08091790287FDE7C0109209
:1022700018038091710184FF61C0609170016F3F0C
:1022800009F45CC0693008F466C06850609370015E
:102290009091FB0288E889278093FB02CCE068E0FC
:1022A000A0911603B09117038091790286FF89C02F
:1022B000FD0184918093FC0231968FEF860F09F423
:1022C0002DC0E491E093FD02FD013296623031F1C0
:1022D000E491E093FE02FD0133966330F9F0E4915E
:1022E000E093FF02FD0134966430C1F0E491E09385
:1022F0000003FD013596653089F0E491E093010318
:10230000FD013696663051F0E491E0930203FD0141
:102310003796673019F0E491E093030390E001965B
:10232000A80FB91FB0931703A09316038CEF92E088
:102330000E946E04CC30F9F4C093710194E180B333
:102340008C7031F49150D9F7109219031092120346
:10235000DF91CF910895109270019091FB0288E86F
:1023600089278093FB02611190C060E08CEF92E0BE
:102370000E946E04C4E08FEF80937001DDCFCE0128
:102380000E947E0974CF683009F071CF83EC80938E
:10239000FB028AE580937101109279028881807630
:1023A00009F45BC0CE010E940F108F3F09F064C09A
:1023B000988197FD7DC090E8909379028093700199
:1023C00056CF8C918093FC028FEF860F09F4A6CF35
:1023D00011969C9111979093FD02623009F49ECF63
:1023E00012969C9112979093FE02633009F496CF57
:1023F00013969C9113979093FF02643009F48ECF4B
:1024000014969C91149790930003653009F486CF3D
:1024100015969C91159790930103663009F47ECF31
:1024200016969C91169790930203673009F476CF25
:1024300017969C9117979093030370CFCE010E943B
:102440004A108F3F31F0882309F411CF10927001A8
:102450000ECF8EE1809371010ACF9A81109204030E
:102460008981811115C01092050324E033E082E0D8
:1024700030931703209316039F8191119FCF9E8164
:10248000981708F09BCF892F99CFC4E0C60F08CFCB
:10249000853081F08630C1F0883091F0893021F1AB
:1024A0008A3089F18B3031F124E033E080E0E0CFF5
:1024B0008E8181CF9093190324E033E080E0D8CF60
:1024C0002BE133E081E0D4CF8B818130F1F1823098
:1024D000A1F1833041F18132F1F08232C1F080E02C
:1024E00090E49093790261CF90931B0324E033E052
:1024F00080E0BECF8BE4809307038093330324E016
:1025000033E080E0B5CF24E033E081E0B1CFCE010D
:102510000E947C10E5CF86E291E0909317038093B0
:10252000160389E0DDCF911118C086E991E0909300
:1025300017038093160384E0D3CF84E191E0909356
:1025400017038093160384E5CBCF88E691E0909340
:1025500017038093160382E1C3CF913059F0923074
:1025600009F0BDCF8AE791E090931703809316039B
:1025700082E1B6CF8CE891E0909317038093160325
:102580008AE0AECF85B7886085BF8BB780688BBF88
:10259000A6E0B3E08BE411968C931197E2E3F3E0AD
:1025A00081838AE58C9380830895A19A089584E2BB
:1025B000E3EDF2E0DF011D928A95E9F70895FC0151
:1025C000EE0FFF1F8E0F9F1FFC01ED52FD4F40834A
:1025D000618322830895F89425B32D7F95B392608B
:1025E000E3EDF2E0819138E095BB00C087FF25BBA9
:1025F000880F000000C000C025BB3A95A9F782E013
:10260000E73FF80779F778940895EE0FFF1F0590DC
:10261000F491E02D0994E199FECF9FBB8EBBE09A27
:1026200099278DB30895A8E1B0E042E050E00C9402
:1026300020130E942E13272F0C942F13DC01CB01A3
:10264000FC01E199FECF06C0FFBBEEBBE09A3196DC
:102650000DB20D9241505040B8F70895262FE199E0
:10266000FECF9FBB8EBB2DBB0FB6F894E29AE19ACA
:0A2670000FBE01960895F894FFCF05
:10267A0000002200440066008800AA00AA00880020
:10268A00660044002200000018191E00010203041B
:10269A000506071716151413121F0B0C0D0E0F043F
:1026AA001E1F20212223242526272D2E352A2B14CE
:1026BA001A0815171C180C12132F3031003904167A
:1026CA0007090A0B0D0E0F333400280002001D1BE8
:1026DA00061905111036373820524C010004000043
:1026EA0000002C00004050514F00353A3B3C3D3E23
:1026FA003F404142434445004C2B595A5B5C5D5E66
:10270A005F6061625657310039010402000000001F
:10271A000000000000280002005347494601020059
:10272A00EAE9E2205200010004000000002C000047
:10273A004050514F00711111111111111111111144
:10274A001111101111111111111111111111111170
:10275A001111001113131310101010101010100083
:10276A001100220011111111171710151515221138
:10277A0010226622000000001100662211111100C9
:02278A00FF5AF4
:00000001FF
