:100000000C9444010C947C010C9461010C946101EA
:100010000C9461010C9461010C9461010C946101D8
:100020000C9461010C9461010C9461010C946101C8
:100030000C9461010C9461010C9461010C946101B8
:100040000C9461010C9461010C9461010C946101A8
:100050000C946101A806BC069406C4069E06B2066E
:100060008A06C806A306B7068F06C0069906AD061F
:10007000850680066C06760662067B0667067106B4
:100080005D0658064E065306490644063F063A06E4
:10009000350631068C07A0077807A8078207960760
:1000A0006E07AC0787079B077307A4077D079107B7
:1000B0006907640750075A0746075F074B0755074C
:1000C00041073C07320737072D07280723071E077C
:1000D00019071507550852084F084C0849084608E3
:1000E000430840083D083A083708340831082E080C
:1000F0002B082808250822081F081C0819081608BC
:10010000130810080D080A08070804080108FE076C
:10011000FB07580809025B00030100A0FA0904006C
:100120000001030101000921010100012240000733
:1001300005810308000A0904010001030102000906
:1001400021110100012284000705820308000A0929
:100150000402000203000000092111010001222213
:1001600000070583030800010705040308000112C6
:1001700001100100000008CCCC123501030102007F
:1001800001120376007500730062005F006B00656A
:100190000079000A037A00690061006E0004030917
:1001A000040631FF0974A1010975150026FF0095A9
:1001B00008750881020976150026FF009508750864
:1001C0009102C005010902A10185010901A10005F3
:1001D000091901290515002501750195058102758B
:1001E00003950181030501093009311581257F75CA
:1001F000089502810609381581257F35004500756F
:100200000895018106050C0A38021581257F7508BD
:1002100095018106C0C005010980A1018502150173
:1002200026B700190129B7751095018100C0050C8A
:100230000901A10185031501269C0219012A9C02CE
:10024000751095018100C005010906A10175019590
:1002500008050719E029E7150025018102950175B8
:100260000881039505750105081901290591029575
:10027000017503910395067508150026FF00050713
:10028000190029FF8100C00011241FBECFE5D8E06E
:10029000DEBFCDBF11E0A0E6B0E0E0E4FBE102C0CC
:1002A00005900D92A836B107D9F721E0A8E6B1E094
:1002B00001C01D92A33FB207E1F70E94140A0C94FB
:1002C0009E0D0C940000A82FB92F80E090E041E033
:1002D00050EA609530E009C02D9182279795879567
:1002E00010F084279527305EC8F36F5FA8F3089558
:1002F000EADF8D939D930895CF93CFB7CF93C395A6
:10030000839BE9F7839B09C0839B07C0839B05C040
:10031000839B03C0839B01C0A6C0DF93C091CA0129
:10032000DD27CF52DE4F839B02C0DF91EBCF2F93AF
:100330000F931F9300B32FEF03FB20F94F933F93CD
:1003400010B34FEF012703FB21F93BE031C04E7F93
:10035000012F10B3216028C0102F4D7F22600000B4
:1003600000B329C04B7F2460012F000010B32BC0C5
:1003700010B3477F28602AC04F7E00B320612CC095
:100380004F7D10B320622FC04F7B00B3206432C07A
:10039000422700B349934FEF0000102713FB20F9C9
:1003A00010B31C70C9F1297F91F2012703FB21F9D9
:1003B00000B3237F89F2315058F1102713FB22F943
:1003C00010B3277E79F2012703FB23F92F7C81F2FA
:1003D00000B3102713FB24F92F7971F200C010B37A
:1003E000012703FB25F92F7359F200C000B3102732
:1003F00013FB26F9223040F200C010B3012703FBA3
:1004000027F9243028F64F77206810B30000F9CF81
:1004100010E41ABF00271CC03B503195C31BD040CD
:1004200010E41ABF0881033C11F10B3401F1209153
:10043000C8011981110F1213EDCF4A81441F0936EB
:1004400059F10D3211F0013E29F74F7009F0042FD8
:100450000093CF013F914F911F910F912F91DF9109
:10046000CAB7C6FD4CCFCF91CFBFCF911895209181
:10047000CF01222379F31091CD011123C1F534303E
:10048000C2F13093CD012093C9011091CA013BE024
:10049000311B3093CA012DC00091CD0101303CF5D4
:1004A0000AE54F7049F43091660134FD24C0009391
:1004B0006601C1EBD1E023C0423049F03091BC016C
:1004C00034FD19C00093BC01CDEBD1E018C03091D0
:1004D000E70134FD10C00093E701C8EED1E00FC082
:1004E0002795A8F45150A9F4220F0000F9CF4AE54E
:1004F00003C042ED01C0432FC4E1D0E032E011B3AC
:100500001C60939A11BB02B320E41CE05F930127A7
:1005100056E002BB279520F4515021F4220FF9CF69
:10052000012756E000003B5A02BBD0F2279528F481
:10053000515029F4220F0000F9CF012756E02795EA
:1005400002BB20F4515021F4220FF9CF012756E0CD
:100550002991332302BB21F6037F1091CE01110FA5
:10056000C651D04002BB11F01093C80110E41ABF6D
:10057000086011B3137F402F437F5F9100C000C01C
:1005800002BB11BB42BB66CF80919F019091940149
:10059000981729F18093940181E02091A401309172
:1005A000A50140919A0150919B0142175307C9F050
:1005B00030939B0120939A012091A6013091A701CD
:1005C00080919D0190919E0182179307C9F030930D
:1005D0009E0120939D0183E08093A901089580E00E
:1005E000DCCF2091A6013091A70140919D0150914F
:1005F0009E014217530759F7882381F381E0ECCF1E
:1006000082E0EACF80918601909176019817D1F12E
:100610008093760181E090918701209178012917DC
:1006200019F09093780181E09091880120917901EF
:10063000291719F09093790181E090918901209117
:100640007A01291719F090937A0181E090918A013B
:1006500020917B01291719F090937B0181E0909103
:100660008B0120917C01291779F090937C01909166
:100670008C0180917D01981390937D0181E080939E
:100680009201089580E0C7CF90918C0120917D0167
:100690002913F2CF8111F2CF0895CF938091A90150
:1006A000882381F081E0809369010E94AE0B8091E4
:1006B000E70184FD0BC0809169018F5F8093690120
:1006C000823398F3C0E08C2FCF910895C091A90197
:1006D000C13089F0C230B9F0C33021F0C1E08C2FB5
:1006E000CF91089563E08CE991E00E948C0B109209
:1006F000A901C1E0E8CF66E083E991E00E948C0B9C
:100700001092A901E0CF63E089E991E00E948C0B8F
:100710001092A901C1E0D7CF80919201882381F086
:1007200081E0809368010E94AE0B8091BC0184FD42
:1007300009C0809168018F5F80936801823398F3CC
:1007400080E0089580919201811102C081E00895B6
:1007500068E086E791E00E946A0B1092920181E0C6
:1007600008950C94AE0B90918701891711F1209197
:1007700088018217F1F0309189018317D1F04091FF
:100780008A018417B1F050918B01851791F0609127
:100790008C01681771F0992371F02223A1F03323A3
:1007A000A9F04423B1F05523B9F06623C1F080E0ED
:1007B000089581E0089520E030E0F901EA57FE4F06
:1007C000818381E0089521E030E0F7CF22E030E03E
:1007D000F4CF23E030E0F1CF24E030E0EECF25E0AD
:1007E00030E0EBCFE6E8F1E09081892B808308953B
:1007F000EFE9F1E09081892B8083089590E0909358
:10080000A5018093A401089590E09093A70180939F
:10081000A6010895EFE9F1E0108216821582108694
:100820001782089586E0E7E8F1E0DF011D928A95DE
:10083000E9F7109286010895CF92DF92EF92FF922E
:100840000F931F93CF93DF9380E090E00E94760D8B
:10085000EC0182E090E00E94760D8C0184E090E053
:100860000E94760D7C0186E090E00E94760D6C017E
:1008700088E090E00E94760D2A9749F0DF91CF91B1
:100880001F910F91FF90EF90DF90CF90089502316C
:100890001105A1F72CE1E216F10481F7ECE6CE1682
:1008A000D10461F78C3B910549F78AE090E00E9402
:1008B0006E0D80936D008BE090E00E946E0D809332
:1008C0006E008CE090E00E946E0D80936F008DE0D2
:1008D00090E00E946E0D809370008EE090E00E9488
:1008E0006E0D809371008FE090E00E946E0D8093FA
:1008F000720080E190E00E946E0D8093730081E1B0
:1009000090E00E946E0D8093740082E190E00E945E
:100910006E0D8093630083E190E00E946E0D8093E2
:10092000640084E190E00E946E0D8093650085E193
:1009300090E00E946E0D8093660086E190E00E9438
:100940006E0D8093670087E190E00E946E0D8093AA
:10095000680088E190E00E946E0D8093690089E153
:1009600090E00E946E0D80936A008AE190E00E9400
:100970006E0D80936B008BE190E00E946E0D809372
:100980006C0005E710E0C0E0D0E0CE014C960E947C
:100990006E0DF8018083CE014D960E946E0DF80118
:1009A0008183CE014E960E946E0DF8018283CE01A6
:1009B0004F960E946E0DF8018383CE0180960E94AF
:1009C0006E0DF8018483CE0181960E946E0DF801B0
:1009D0008583CE0182960E946E0DF8018683CE013A
:1009E00083960E946E0DF8018783CE0184960E9443
:1009F0006E0DF8018087CE0185960E946E0DF8017C
:100A000081872A96065F1F4FC035D10509F0BDCFFB
:100A100005EC10E0C0E0D0E0CE0184599F4F0E9469
:100A20006E0DF8018083CE0183599F4F0E946E0D99
:100A3000F8018183CE0182599F4F0E946E0DF8010B
:100A40008283CE0181599F4F0E946E0DF8018383EE
:100A5000CE0180599F4F0E946E0DF8018483CE0114
:100A60008F589F4F0E946E0DF8018583CE018E58DE
:100A70009F4F0E946E0DF8018683CE018D589F4FC7
:100A80000E946E0DF8018783CE018C589F4F0E9403
:100A90006E0DF8018087CE018B589F4F0E946E0D1E
:100AA000F80181872A96065F1F4FC035D10509F0EE
:100AB000B3CF05E111E0C0E0D0E0CE0184549F4FF8
:100AC0000E946E0DF8018083CE0183549F4F0E94D7
:100AD0006E0DF8018183CE0182549F4F0E946E0DEE
:100AE000F8018283CE0181549F4F0E946E0DF80160
:100AF0008383CE0180549F4F0E946E0DF801848342
:100B0000CE018F539F4F0E946E0DF8018583CE0159
:100B10008E539F4F0E946E0DF8018683CE018D5338
:100B20009F4F0E946E0DF8018783CE018C539F4F1B
:100B30000E946E0DF8018087CE018B539F4F0E945B
:100B40006E0DF80181872A96065F1F4FC035D105CB
:100B500009F0B3CF93CECF93DF93683019F0DF91D4
:100B6000CF910895EC0188818F3F09F459C080919D
:100B70008E018111F4CF0E947608888180936E01E6
:100B8000898180936F018A81809370018B8180932A
:100B900071018C81809372018D81809373018E81AC
:100BA000809374018F8180937501C0916E01D09103
:100BB0006F01CF3F21E0D207B8F0CE0102968F3F00
:100BC000A1E09A0720F1CE0104968F3FB1E09B0788
:100BD000A8F088E0EEE6F1E0DF011D928A95E9F7E2
:100BE000DF91CF910C948808E199FECF609170015C
:100BF00070917101CE010E947C0DDFCFE199FECF93
:100C000060917401709175010E947C0DE2CFE199B1
:100C1000FECF60917201709173010E947C0DD3CF61
:100C20008981813F69F0823F09F0A1CF80918E01D7
:100C3000811195CF0E94880882E080938E018FCF2A
:100C400080918E01813009F094CF10928E0187CF70
:100C500090E08032910540F4FC01E65DFF4F0C947A
:100C6000680D6111D7C08F980895662309F494C068
:100C70008E9A0895662309F491C08D9A089566238B
:100C800009F48EC08C9A0895662309F48BC08B9A60
:100C90000895662309F48AC08A9A0895662309F4A0
:100CA00083C0889A0895662309F482C0899A0895BA
:100CB000662309F47FC0A79A0895662309F482C0C9
:100CC000A69A0895662309F479C0A29A0895662326
:100CD00009F47CC0A49A0895662309F46DC0A09A13
:100CE0000895662309F470C0A59A0895662309F44F
:100CF00067C0A19A0895662309F46AC0A39A08956B
:100D0000662309F467C0BF9A0895662309F472C088
:100D1000BE9A0895662309F465C0D69A089566239D
:100D200009F470C0BA9A0895662309F457C0D29A9C
:100D30000895662309F462C0BC9A0895662309F4F5
:100D400055C0D49A0895662309F460C0B89A0895EE
:100D5000662309F441C0D09A0895662309F44CC073
:100D6000BD9A0895662309F43FC0D59A0895662375
:100D700009F44AC0B99A0895662391F1D19A089569
:100D80006623F1F1BB9A0895662391F1D39A0895F1
:100D90006623F1F1D79A08958E9808958D98089555
:100DA0008C9808958B980895889808958A98089546
:100DB00089980895A7980895A0980895A2980895ED
:100DC000A1980895A6980895A5980895A4980895BF
:100DD000A3980895BF980895D0980895D29808953B
:100DE000D1980895D6980895D5980895D4980895DF
:100DF000D3980895BE980895BD980895BC98089515
:100E0000BB980895BA980895B9980895B898089528
:100E1000D79808958F9A089590E08032910540F414
:100E2000FC01E65BFF4F0C94680D6111D7C09798E9
:100E30000895662309F494C0969A0895662309F4E8
:100E400091C0959A0895662309F48EC0949A0895E6
:100E5000662309F48BC0939A0895662309F48AC027
:100E6000929A0895662309F483C0909A08956623A0
:100E700009F482C0919A0895662309F47FC0AF9A5D
:100E80000895662309F482C0AE9A0895662309F492
:100E900079C0AA9A0895662309F47CC0AC9A089593
:100EA000662309F46DC0A89A0895662309F470C0FA
:100EB000AD9A0895662309F467C0A99A0895662338
:100EC00009F46AC0AB9A0895662309F467C0C79A0B
:100ED0000895662309F472C0C69A0895662309F43A
:100EE00065C0DE9A0895662309F470C0C29A089519
:100EF000662309F457C0DA9A0895662309F462C09C
:100F0000C49A0895662309F455C0DC9A08956623AF
:100F100009F460C0C09A0895662309F441C0D89AC4
:100F20000895662309F44CC0C59A0895662309F410
:100F30003FC0DD9A0895662309F44AC0C19A089516
:100F4000662391F1D99A08956623F1F1C39A089521
:100F5000662391F1DB9A08956623F1F1DF9A0895F3
:100F6000969808959598089594980895939808955B
:100F7000909808959298089591980895AF9808953B
:100F8000A8980895AA980895A9980895AE980895E4
:100F9000AD980895AC980895AB980895C7980895B2
:100FA000D8980895DA980895D9980895DE98089504
:100FB000DD980895DC980895DB980895C698089503
:100FC000C5980895C4980895C3980895C29808953F
:100FD000C1980895C0980895DF980895979A089544
:100FE00090E08032910510F080E00895FC01E65910
:100FF000FF4F0C94680D80B38074089580B38072A5
:10100000089580B38071089580B38870089580B387
:101010008470089580B38270089580B381700895BC
:1010200083B38078089583B38074089583B3807206
:10103000089583B38071089583B38870089583B34E
:101040008470089583B38270089583B38170089586
:1010500086B38078089586B38074089586B38072CD
:10106000089586B38071089586B38870089586B315
:101070008470089586B38270089586B38170089550
:1010800089B38078089589B38074089589B3807294
:10109000089589B38071089589B38870089589B3DC
:1010A0008470089589B38270089589B3817008951A
:1010B00080B3807808951092AB01E0E0F0E0ED5944
:1010C000FF4F60E080810E942806E091AB01F0E0D4
:1010D000ED59FF4F61E080810E940C07E091AB0168
:1010E000EF5FE093AB01EA3048F308951092AB0153
:1010F000E0E0F0E0E05AFF4F61E080810E940C07E1
:10110000E091AB01EF5FE093AB01E33090F3089522
:101110001092AB01E0E0F0E0E05AFF4F60E0808128
:101120000E940C07E091AB01EF5FE093AB01E3306D
:1011300090F30895FF920F931F93CF93DF9380EF67
:101140008093AD011092AA0180E0C1E0D0E012E0EE
:101150000FE0FF24F3949E0102C0220F331F8A95F3
:10116000E2F7C90127BB809588BB34E13A95F1F7D6
:101170001092AC01E0E01AC08091AA0190E0DC017D
:10118000AA0FBB1F880F991F880F991F880F991FDF
:10119000A80FB91FAB5EBE4FAE0FB11D8C91877704
:1011A0008C93EF5FE093AC01EA3050F5F0E0ED593D
:1011B000FF4F80810E94F007E091AC018111DCCFEC
:1011C0008091AA0190E0DC01AA0FBB1F880F991F34
:1011D000880F991F880F991FA80FB91FAB5EBE4FCC
:1011E000AE0FB11D8C9188688C9310936B018E3E6D
:1011F000C1F60093AD01EF5FE093AC01EA30B0F2CD
:1012000017BAF8BA8091AA018F5F8093AA0188303B
:1012100008F4A1CF0E9412040E940A041092AA01AD
:1012200040E01092AC0130E01AC0203B09F4B4C099
:1012300008F077C0203909F496C0203A59F48B5849
:101240009F4FE80FF91F80810E94F2034091AA018D
:101250003091AC013F5F3093AC013A30B8F5842F48
:1012600090E0E32FF0E0BC01660F771F880F991F15
:10127000880F991F880F991F860F971FDC01AB5E9F
:10128000BE4FAE0FBF1F5C912091AD0125232D30C5
:1012900009F475C050F62A3009F497C008F453C019
:1012A0002B3009F485C02C30A9F6AC014B535F4FAD
:1012B000E40FF51F80810E94FE034091AA01309146
:1012C000AC013F5F3093AC013A3048F24F5F40933E
:1012D000AA01483008F4A5CF0E940203882319F020
:1012E00082E080936A010E94C402882319F082E0A0
:1012F00080936A0180916B01823009F47FC0813054
:1013000009F484C090916A0181117CC0992319F07D
:10131000915090936A01DF91CF911F910F91FF90AF
:101320000895203C09F45EC0203D09F093CF8B580E
:101330009F4FE80FF91F80810E9404044091AA0189
:101340003091AC0187CF293009F084CFAC014B53E9
:101350005F4FE40FF51F80810E94B3034091AA0103
:101360003091AC0177CF8B589F4FE80FF91F8081E8
:101370000E94B3034091AA013091AC016BCF9C0154
:101380002B533F4FE20FF31F80810E9404044091D2
:10139000AA013091AC015ECF8B589F4FE80FF91F27
:1013A00080810E94F8034091AA013091AC0152CF94
:1013B000AC014B535F4FE40FF51F80810E94F8038F
:1013C0004091AA013091AC0145CFAC014B535F4F26
:1013D000E40FF51F80810E94F2034091AA01309131
:1013E000AC0138CF8B589F4FE80FF91F80810E94C6
:1013F000FE034091AA013091AC012CCF90916A017B
:10140000913059F0815080936B0180CF0E948C0302
:101410000E944D0380916B0175CF0E948C030E9446
:101420004D0380916B016BCF0E94830A0E945B0881
:1014300017BA81E088BBC1E0D0E01092AB01E0E0D8
:10144000F0E0E05AFF4F61E080810E942806E091C1
:10145000AB01F0E0E05AFF4F61E080810E940C0791
:10146000E091AB01EF5FE093AB01E33048F30E9402
:1014700012040E940A040E941C042FE78FE492E1E8
:10148000215080409040E1F700C000000E948C0392
:1014900080918E01823089F2813009F0FFCF8091F6
:1014A000D001882321F08091BC0184FD29C00E94D5
:1014B000B1031092AB0180E00BC060E080810E941C
:1014C0000C078091AB018F5F8093AB01833000F7F5
:1014D000282F30E0AE0102C0440F551F8A95E2F775
:1014E00080918D0190E084239523F901E05AFF4F0C
:1014F0004817590711F761E080810E940C07E1CF7E
:101500000E949A08D4CF0E94550D8B9A8FEFA89510
:10151000A7EBBBE01197F1F700C000008150B9F7CD
:101520008B98789488E0E6E7F1E0DF01982F1D9230
:101530009A95E9F79DE0E6E8F1E0DF011D929A95C2
:10154000E9F791E090938E012CE0E3E9F1E0DF010F
:101550001D922A95E9F72BE0EFE9F1E0DF011D92FA
:101560002A95E9F79093930192E09093990193E083
:1015700090939C01EEE7F1E0DF01982F1D929A9580
:10158000E9F7EEE6F1E0DF011D928A95E9F70895AB
:10159000FC019093B0018093AF01908190769032DE
:1015A00011F080E008958181813069F0823099F0F6
:1015B0008A3021F18930A9F7828193818115924087
:1015C00091F08FEF089586E791E09093CC0180939E
:1015D000CB0188E008958CE691E09093CC01809354
:1015E000CB0181E0089584819581892B51F7809109
:1015F0008D01806880938D018FEF089583818093A2
:101600006C0180E00895FC0190918D0197FD02C06E
:101610008FEF0895808180938D0181E00895FC0112
:101620009381923079F120F1913291F09232F1F47C
:101630008481958181309105A9F1E0F10297B1F49F
:1016400081EA91E09093CC018093CB0182E20895EE
:1016500082818130F9F0B0F1823041F488E591E087
:101660009093CC018093CB0189E0089580E00895A8
:101670009130E1F78FE691E09093CC018093CB011C
:1016800082E1089584E191E09093CC018093CB01B5
:101690008BE508958FE391E09093CC018093CB018B
:1016A00089E0089583EC91E09093CC018093CB0185
:1016B00084E8089587E492E09093CC018093CB0175
:1016C00080E4089586E291E09093CC018093CB0171
:1016D00089E00895CF93C62F2091BC0124FF18C044
:1016E0003091BD0128E823272093BD01FC01AEEB1A
:1016F000B1E08C2F91919D938150E1F76C2F8EEB8F
:1017000091E00E947801CC5FC093BC01CF91089515
:101710002AE52093BC01EACFCF93C62F2091E701A1
:1017200024FF18C03091E80128E823272093E8011E
:10173000FC01A9EEB1E08C2F91919D938150E1F7CE
:101740006C2F89EE91E00E947801CC5FC093E70195
:10175000CF9108952AE52093E701EACFCF93DF9355
:101760006091CD01635067FD17C02091CA018CE0E4
:1017700090E0821B9109EC01CF52DE4F8091C901AC
:10178000803108F48FC08D3209F490C080916D01D2
:1017900087FDE7C01092CD018091660184FF61C092
:1017A000609165016F3F09F45CC0693008F466C060
:1017B0006850609365019091B10188E88927809312
:1017C000B101CCE068E0A091CB01B091CC01809157
:1017D0006D0186FF89C0FD0184918093B20131962D
:1017E0008FEF860F09F42DC0E491E093B301FD0162
:1017F0003296623031F1E491E093B401FD01339609
:101800006330F9F0E491E093B501FD013496643062
:10181000C1F0E491E093B601FD013596653089F0A1
:10182000E491E093B701FD013696663051F0E49102
:10183000E093B801FD013796673019F0E491E09329
:10184000B90190E00196A80FB91FB093CC01A09305
:10185000CB0182EB91E00E947801CC30F9F4C09387
:10186000660194E180B38C7031F49150D9F71092F5
:10187000CE011092C801DF91CF91089510926501B9
:101880009091B10188E889278093B101611190C0DE
:1018900060E082EB91E00E947801C4E08FEF8093DA
:1018A0006501DDCFCE010E94AB0574CF683009F031
:1018B00071CF83EC8093B1018AE580936601109229
:1018C0006D018881807609F45BC0CE010E94C80A50
:1018D0008F3F09F064C0988197FD7DC090E8909398
:1018E0006D018093650156CF8C918093B2018FEF8B
:1018F000860F09F4A6CF11969C9111979093B3018E
:10190000623009F49ECF12969C9112979093B40185
:10191000633009F496CF13969C9113979093B50179
:10192000643009F48ECF14969C9114979093B6016D
:10193000653009F486CF15969C9115979093B70161
:10194000663009F47ECF16969C9116979093B80155
:10195000673009F476CF17969C9117979093B90149
:1019600070CFCE010E94030B8F3F31F0882309F422
:1019700011CF109265010ECF8EE1809366010ACFE0
:101980009A811092BA018981811115C01092BB0110
:101990002AEB31E082E03093CC012093CB019F8190
:1019A00091119FCF9E81981708F09BCF892F99CFD7
:1019B000C4E0C60F08CF853081F08630C1F0883092
:1019C00091F0893021F18A3089F18B3031F12AEBA5
:1019D00031E080E0E0CF8E8181CF9093CE012AEB81
:1019E00031E080E0D8CF20ED31E081E0D4CF8B81B1
:1019F0008130F1F18230A1F1833041F18132F1F097
:101A00008232C1F080E090E490936D0161CF9093B9
:101A1000D0012AEB31E080E0BECF8BE48093BD01A2
:101A20008093E8012AEB31E080E0B5CF2AEB31E08A
:101A300081E0B1CFCE010E940F0BE5CF86E291E0AD
:101A40009093CC018093CB0189E0DDCF911118C038
:101A50008DE991E09093CC018093CB0184E0D3CFCA
:101A600084E191E09093CC018093CB018BE5CBCFC7
:101A70008FE691E09093CC018093CB0182E1C3CFBC
:101A8000913059F0923009F0BDCF81E891E0909308
:101A9000CC018093CB0182E1B6CF83E991E09093B2
:101AA000CC018093CB018AE0AECF85B7826085BF41
:101AB0008BB780648BBFACEBB1E08BE411968C9359
:101AC0001197E7EEF1E081838AE58C938083089596
:101AD000EE0FFF1F0590F491E02D0994E199FECFE0
:101AE0009FBB8EBBE09A99278DB30895A8E1B0E023
:101AF00042E050E00C94830D0E94910D272F0C942E
:101B0000920DDC01CB01FC01E199FECF06C0FFBBC9
:101B1000EEBBE09A31960DB20D9241505040B8F7AD
:101B20000895262FE199FECF9FBB8EBB2DBB0FB62C
:101B3000F894E29AE19A0FBE01960895F894FFCFC7
:101B400018191C0102030405060717161508090ACF
:101B50000B0C0D0E0F141A0815180C121301002B84
:101B60003900171C30352F0200041607090D0E0F1F
:101B70003310310000000A0B000034042C1D1B063A
:101B800019103637002028000000051100003840E9
:101B90000029000022232E002D002A1E1F202124B0
:101BA0002526270000005200000000000001002B45
:101BB00039000000000000020050514F00000000FA
:101BC0000010000000000000000000042C534749F2
:101BD0004600EAE900202800000000000000004064
:101BE000003500003E3F450044004C3A3B3C3D4040
:101BF0004142430000101110101010101022661105
:101C000011001010101010220011111110101010DE
:101C100010221000000010100000102211111111EC
:101C2000111015150022110000001010006610227E
:101C3000661100001111110011661111111111111D
:081C40001111110000FF5A0010
:00000001FF
