:100000000C944D010C9485010C946A010C946A01C6
:100010000C946A010C946A010C946A010C946A01B4
:100020000C946A010C946A010C946A010C946A01A4
:100030000C946A010C946A010C946A010C946A0194
:100040000C946A010C946A010C946A010C946A0184
:100050000C946A010B051F05F7042705010515051A
:10006000ED042B0506051A05F2042305FC04100512
:10007000E804E304CF04D904C504DE04CA04D404AC
:10008000C004BB04B104B604AC04A704A2049D04DC
:1000900098049404EF050306DB050B06E505F90556
:1000A000D1050F06EA05FE05D6050706E005F405AD
:1000B000CC05C705B305BD05A905C205AE05B80544
:1000C000A4059F0595059A0590058B058605810574
:1000D0007C057805B806B506B206AF06AC06A906DB
:1000E000A606A306A0069D069A0697069406910604
:1000F0008E068B068806850682067F067C067906B4
:100100007606730670066D066A0667066406610663
:100110005E06BB0609025B00030100A0FA090400A9
:100120000001030101000921011100012240000723
:10013000058103080001090401000103010200090F
:100140002101110001228400070582030800010932
:100150000402000203000000092101110001222213
:1001600000070583030800010705040308000112C6
:1001700001011000000008CCCC1235010001020082
:10018000010631FF0974A1010975150026FF0095CC
:1001900008750881020976150026FF009508750884
:1001A0009102C005010902A10185010901A1000513
:1001B00009190129051500250175019505810275AB
:1001C00003950181030501093009311581257F75EA
:1001D000089502810609381581257F35004500758F
:1001E0000895018106050C0A38021581257F7508DE
:1001F00095018106C0C005010980A1018502150194
:1002000026B700190129B7751095018100C0050CAA
:100210000901A10185031501269C0219012A9C02EE
:10022000751095018100C005010906A101750195B0
:1002300008050719E029E7150025018102950175D8
:100240000881039505750105081901290591029595
:10025000017503910395067508150026FF00050733
:10026000190029FF8100C01201100100000008CC14
:10027000CC123501030102000112037600750073F0
:100280000062005F006B00650079000A037A006974
:100290000061006E00040309040011241FBECFE5B5
:1002A000D8E0DEBFCDBF11E0A0E6B0E0E4E1F8E1C8
:1002B00002C005900D92AA34B107D9F722E0AAE452
:1002C000B1E001C01D92AC37B207E1F70E94780897
:1002D0000C94080C0C940000A82FB92F80E090E03B
:1002E00041E050EA609530E009C02D918227979552
:1002F000879510F084279527305EC8F36F5FA8F3C9
:100300000895EADF8D939D930895CF93CFB7CF9350
:10031000C395839BE9F7839B09C0839B07C0839B9D
:1003200005C0839B03C0839B01C0A6C0DF93C0911F
:100330005302DD27C65ADD4F839B02C0DF91EBCF0E
:100340002F930F931F9300B32FEF03FB20F94F93CD
:100350003F9310B34FEF012703FB21F93BE031C07E
:100360004E7F012F10B3216028C0102F4D7F2260D7
:10037000000000B329C04B7F2460012F000010B3A0
:100380002BC010B3477F28602AC04F7E00B3206186
:100390002CC04F7D10B320622FC04F7B00B3206470
:1003A00032C0422700B349934FEF0000102713FBE0
:1003B00020F910B31C70C9F1297F91F2012703FBCA
:1003C00021F900B3237F89F2315058F1102713FB34
:1003D00022F910B3277E79F2012703FB23F92F7C42
:1003E00081F200B3102713FB24F92F7971F200C0BA
:1003F00010B3012703FB25F92F7359F200C000B396
:10040000102713FB26F9223040F200C010B3012759
:1004100003FB27F9243028F64F77206810B300003B
:10042000F9CF10E41ABF00271CC03B503195C31B05
:10043000D04010E41ABF0881033C11F10B3401F1E4
:10044000209150021981110F1213EDCF4A81441FE0
:10045000093659F10D3211F0013E29F74F7009F0BC
:10046000042F009358023F914F911F910F912F91AC
:10047000DF91CAB7C6FD4CCFCF91CFBFCF911895B2
:1004800020915802222379F3109156021123C1F5CD
:100490003430C2F13093560220935202109153022D
:1004A0003BE0311B309353022DC0009156020130C6
:1004B0003CF50AE54F7049F43091480134FD24C001
:1004C00000934801C9E3D2E023C0423049F03091A3
:1004D000440234FD19C000934402C5E4D2E018C0C0
:1004E0003091700234FD10C000937002C1E7D2E079
:1004F0000FC02795A8F45150A9F4220F0000F9CF9E
:100500004AE503C042ED01C0432FC4E1D0E032E030
:1005100011B31C60939A11BB02B320E41CE05F93FB
:10052000012756E002BB279520F4515021F4220FF9
:10053000F9CF012756E000003B5A02BBD0F22795C5
:1005400028F4515029F4220F0000F9CF012756E07A
:10055000279502BB20F4515021F4220FF9CF012737
:1005600056E02991332302BB21F6037F10915702F5
:10057000110FC651D04002BB11F01093500210E48D
:100580001ABF086011B3137F402F437F5F9100C0F3
:1005900000C002BB11BB42BB66CF80912802909184
:1005A0001C02981729F180931C0281E020912D02F2
:1005B00030912E024091220250912302421753079C
:1005C000C9F0309323022093220220912F02309110
:1005D0003002809125029091260282179307C9F07C
:1005E000309326022093250283E080933102089500
:1005F00080E0DCCF20912F02309130024091250223
:10060000509126024217530759F7882381F381E05E
:10061000ECCF82E0EACFCF93DF9300D000D000D0C0
:10062000CDB7DEB70E94440A80915902882371F049
:100630008091700284FF0AC08091310281112BC029
:100640000E94440A8091700284FD0AC081E02696CF
:100650000FB6F894DEBF0FBECDBFDF91CF910895E6
:10066000E0914A0180914B018E1781F38E2F90E02B
:100670002DE0E29FF0011124E45BFE4F2485213040
:1006800051F12230C1F12330F1F1019687709927A1
:1006900080934A01DBCF8093270210923102209190
:1006A0004B0130E0C90101968770992740914A01BA
:1006B000481731F29DE0929FD001939FB00D112415
:1006C000A45BBE4FEBE1F2E001900D929A95E1F749
:1006D00080934B01B5CF86E0DE01119601900D921B
:1006E0008A95E1F766E0CE0101960E94220A809188
:1006F0004A0190E0CACF86819781A08589839A8339
:10070000AB8363E0F0CF81859285A385F7CF80919D
:100710001102909101029817D1F18093010281E0BA
:100720009091120220910302291719F0909303026D
:1007300081E09091130220910402291719F09093FF
:10074000040281E09091140220910502291719F00A
:100750009093050281E090911502209106022917DD
:1007600019F09093060281E0909116022091070201
:10077000291779F09093070290911702809108024F
:1007800098139093080281E080931A02089580E004
:10079000C7CF90911702209108022913F2CF81113F
:1007A000F2CF08950E94440A80915902882371F083
:1007B0008091440284FF0AC080911A02811123C0F3
:1007C0000E94440A8091440284FD02C081E00895A1
:1007D0008091B4019091B5019817C1F390E0880F12
:1007E000991F880F991F880F991F68E08A549E4FA0
:1007F0000E94000A8091B40190E0019687709927C9
:100800008093B401E3CF10921A02A091B501B0E039
:10081000CD010196877099272091B401281781F2A4
:10082000AA0FBB1FAA0FBB1FAA0FBB1FAA54BE4F04
:1008300098E0E1E0F2E001900D929A95E1F7809363
:10084000B501BECF90911202891711F120911302C8
:100850008217F1F0309114028317D1F04091150204
:100860008417B1F050911602851791F0609117022C
:10087000681771F0992371F02223A1F03323A9F0B6
:100880004423B1F05523B9F06623C1F080E0089508
:1008900081E0089520E030E0F901EF5EFD4F8183B3
:1008A00081E0089521E030E0F7CF22E030E0F4CF9E
:1008B00023E030E0F1CF24E030E0EECF25E030E07F
:1008C000EBCFE1E1F2E09081892B80830895E8E2AB
:1008D000F2E09081892B8083089590E090932E021E
:1008E00080932D02089590E09093300280932F0220
:1008F0000895E8E2F2E010821682158210861782CF
:10090000089586E0E2E1F2E0DF011D928A95E9F7C1
:1009100010921102089590E08032910540F4FC019C
:10092000E65DFF4F0C94F00B6111D7C08F980895CE
:10093000662309F494C08E9A0895662309F491C041
:100940008D9A0895662309F48EC08C9A08956623C3
:1009500009F48BC08B9A0895662309F48AC08A9A99
:100960000895662309F483C0889A0895662309F4DC
:1009700082C0899A0895662309F47FC0A79A0895D2
:10098000662309F482C0A69A0895662309F479C003
:10099000A29A0895662309F47CC0A49A0895662358
:1009A00009F46DC0A09A0895662309F470C0A59A51
:1009B0000895662309F467C0A19A0895662309F48F
:1009C0006AC0A39A0895662309F467C0BF9A089580
:1009D000662309F472C0BE9A0895662309F465C0BF
:1009E000D69A0895662309F470C0BA9A08956623CA
:1009F00009F457C0D29A0895662309F462C0BC9ADC
:100A00000895662309F455C0D49A0895662309F41D
:100A100060C0B89A0895662309F441C0D09A089539
:100A2000662309F44CC0BD9A0895662309F43FC0BB
:100A3000D59A0895662309F44AC0B99A08956623A1
:100A400091F1D19A08956623F1F1BB9A0895662336
:100A500091F1D39A08956623F1F1D79A08958E986B
:100A600008958D9808958C9808958B980895889886
:100A700008958A98089589980895A7980895A09848
:100A80000895A2980895A1980895A6980895A59804
:100A90000895A4980895A3980895BF980895D098AC
:100AA0000895D2980895D1980895D6980895D59824
:100AB0000895D4980895D3980895BE980895BD9840
:100AC0000895BC980895BB980895BA980895B99868
:100AD0000895B8980895D79808958F9A089590E04A
:100AE0008032910540F4FC01E65BFF4F0C94F00B63
:100AF0006111D7C097980895662309F494C0969A17
:100B00000895662309F491C0959A0895662309F41F
:100B10008EC0949A0895662309F48BC0939A089521
:100B2000662309F48AC0929A0895662309F483C063
:100B3000909A0895662309F482C0919A08956623D5
:100B400009F47FC0AF9A0895662309F482C0AE9A73
:100B50000895662309F479C0AA9A0895662309F4D2
:100B60007CC0AC9A0895662309F46DC0A89A0895D4
:100B7000662309F470C0AD9A0895662309F467C02E
:100B8000A99A0895662309F46AC0AB9A089566236A
:100B900009F467C0C79A0895662309F472C0C69A1B
:100BA0000895662309F465C0DE9A0895662309F462
:100BB00070C0C29A0895662309F457C0DA9A08955E
:100BC000662309F462C0C49A0895662309F455C0E7
:100BD000DC9A0895662309F460C0C09A08956623DC
:100BE00009F441C0D89A0895662309F44CC0C59A07
:100BF0000895662309F43FC0DD9A0895662309F439
:100C00004AC0C19A0895662391F1D99A089566233E
:100C1000F1F1C39A0895662391F1DB9A0895662352
:100C2000F1F1DF9A0895969808959598089594980B
:100C3000089593980895909808959298089591989A
:100C40000895AF980895A8980895AA980895A99826
:100C50000895AE980895AD980895AC980895AB980E
:100C60000895C7980895D8980895DA980895D9985E
:100C70000895DE980895DD980895DC980895DB982E
:100C80000895C6980895C5980895C4980895C3987E
:100C90000895C2980895C1980895C0980895DF985E
:100CA0000895979A089590E08032910510F080E0C1
:100CB0000895FC01E659FF4F0C94F00B80B380744B
:100CC000089580B38072089580B38071089580B3D1
:100CD0008870089580B38470089580B382700895F9
:100CE00080B38170089583B38078089583B380744E
:100CF000089583B38072089583B38071089583B398
:100D00008870089583B38470089583B382700895C2
:100D100083B38170089586B38078089586B3807414
:100D2000089586B38072089586B38071089586B35E
:100D30008870089586B38470089586B3827008958C
:100D400086B38170089589B38078089589B38074DB
:100D5000089589B38072089589B38071089589B325
:100D60008870089589B38470089589B38270089556
:100D700089B38170089580B380780895109233020A
:100D8000E0E0F0E0EC5CFE4F60E080810E948B04CC
:100D9000E0913302F0E0EC5CFE4F61E080810E9464
:100DA0006F05E0913302EF5FE0933302EE3048F3DA
:100DB000089510923302E0E0F0E0EE5BFE4F60E059
:100DC00080810E948B04E0913302F0E0EE5BFE4FE5
:100DD00061E080810E946F05E0913302EF5FE09354
:100DE0003302E53048F3089510923302E0E0F0E07A
:100DF000E05AFF4F61E080810E948B04E091330252
:100E0000F0E0E05AFF4F60E080810E946F05E091C2
:100E10003302EF5FE0933302E23048F30895CF935B
:100E2000DF9380EF8093350210923202E0E0C9E058
:100E3000DFE0F0E0EE5BFE4F61E080810E948B041A
:100E4000E0913202F0E0EE5BFE4F60E080810E94B4
:100E50006F0510923402E0E010C08EE0A89FD00130
:100E60001124AE59BF4FAE0FB11D8C9187778C9373
:100E7000EF5FE0933402EE3010F5F0E0EC5CFE4FF3
:100E800080810E945306E0913402A09132028111C8
:100E9000E4CF8EE0A89FD0011124AE59BF4FAE0F12
:100EA000B11D8C9188688C93C093F7018E3E01F739
:100EB000D0933502EF5FE0933402EE30F0F21092FF
:100EC0003302E0E0F0E0EE5BFE4F60E080810E94E4
:100ED0008B04E0913302F0E0EE5BFE4F61E0808135
:100EE0000E946F05E0913302EF5FE0933302E5303B
:100EF00048F3E0913202EF5FE0933202E53008F40C
:100F000098CF0E9481040E9479041092320240E03E
:100F10001092340290E01AC0803B09F4A9C008F096
:100F20006BC0803909F48BC0803A59F422513F4F8D
:100F3000E20FF31F80810E94610440913202909180
:100F400034029F5F909334029E3070F5E92FF0E0F9
:100F50008EE0489F90011124D901AE59BF4FAE0FCA
:100F6000BF1F5C918091350285238D3009F473C0D9
:100F700098F68A3009F495C008F451C08B3009F412
:100F800083C08C30F1F6A90148555F4FE40FF51F7F
:100F900080810E946D0440913202909134029F5FE3
:100FA000909334029E3090F24F5F4093320245306E
:100FB00008F4AECF0E948703882319F083E0809362
:100FC000F6010E94CD02882319F083E08093F60198
:100FD0008091F701893009F475C0813009F47AC035
:100FE0009091F601811172C0992319F0915090935C
:100FF000F601DF91CF910895803C09F45FC0803DF8
:1010000009F09FCFA90142515F4FE40FF51F808186
:101010000E947304409132029091340292CF893041
:1010200009F08FCFA90148555F4FE40FF51F80816C
:101030000E942204409132029091340282CF2251C8
:101040003F4FE20FF31F80810E9422044091320241
:101050009091340276CFC90188559F4FE80FF91F50
:1010600080810E947304409132029091340269CFD2
:1010700022513F4FE20FF31F80810E94670440918D
:101080003202909134025DCFA90148555F4FE40FC1
:10109000F51F80810E9467044091320290913402D2
:1010A00050CFA90148555F4FE40FF51F80810E9482
:1010B0006104409132029091340243CFA901425120
:1010C0005F4F64CF9091F601913059F08150809339
:1010D000F7018ACF0E94D2030E940B038091F7018F
:1010E0007FCF0E94D2030E940B038091F70175CF3E
:1010F0000E94B4080E94BE060E94D9060E94F4060F
:101100000E9481040E947904C1E0D0E0809119021C
:10111000813009F0FFCF0E940F071092330280E068
:101120000BC061E080810E946F05809133028F5F68
:1011300080933302823050F7282F30E0AE0102C096
:10114000440F551F8A95E2F78091180290E084239E
:101150009523F901E05AFF4F4817590711F760E04E
:1011600080810E946F05E1CFCF93DF930E94DD0B5A
:101170008B9A2FE78CEF9AE0215080409040E1F766
:1011800000C000008B98789488E0E1E0F2E0DF0195
:10119000C82F1D92CA95E9F7E1E1F2E02AE0DF01EC
:1011A000C22F1D92CA95E9F791E09087EBE1F2E03A
:1011B0003DE0DF011D923A95E9F7A8E2B2E0ED01CA
:1011C00019922A95E9F7908392E0968393E09187AC
:1011D000E9E0F2E0DF01C82F1D92CA95E9F7E9EFD7
:1011E000F1E0DF011D928A95E9F7DF91CF91089533
:1011F000FC01909338028093370290819076903270
:1012000011F080E008958181813069F0823099F099
:101210008A3021F18930A9F782819381811592402A
:1012200091F08FEF089581E092E0909355028093C2
:10123000540288E0089588EF91E0909355028093DE
:10124000540281E0089584819581892B51F7809122
:1012500018028068809318028FEF0895838180932D
:10126000F80180E00895FC019091180297FD02C0FA
:101270008FEF089580818093180281E0089568308F
:1012800009F00895FC0120812F3F09F451C0FC01B1
:10129000C19A80818093F90181818093FA018281D2
:1012A0008093FB0183818093FC0184818093FD0105
:1012B00085818093FE0186818093FF0187818093E1
:1012C00000028091F9019091FA018E3FF1E09F07B1
:1012D00060F4E199FECF6091FB017091FC010E94E6
:1012E000F60B8091F9019091FA019C012E5F3F4F1E
:1012F0002E3F41E0340768F4E199FECF6091FD0193
:101300007091FE01C9010E94F60B8091F901909144
:10131000FA0104968E3FE1E09E0740F4E199FECF8A
:101320006091FF01709100020E94F60BC198089530
:101330002181213F39F0223F09F0A9CF81E080933C
:1013400019020895109219020895FC0193819230B8
:1013500079F120F1913291F09232F1F4848195810A
:1013600081309105A9F1E0F10297B1F481E891E0B3
:10137000909355028093540282E2089582818130D5
:10138000F9F0B0F1823041F488E591E09093550294
:101390008093540289E0089580E008959130E1F748
:1013A0008FE691E0909355028093540282E1089574
:1013B00084E191E090935502809354028BE5089567
:1013C0008FE391E0909355028093540289E0089551
:1013D00083EA91E0909355028093540284E8089543
:1013E00087E292E0909355028093540280E408953E
:1013F00086E291E0909355028093540289E008952B
:10140000CF93C62F2091440224FF18C0309145028B
:1014100028E8232720934502FC01A6E4B2E08C2FA4
:1014200091919D938150E1F76C2F86E492E00E94A8
:101430008101CC5FC0934402CF9108952AE52093A7
:101440004402EACFCF93C62F2091700224FF18C028
:101450003091710228E8232720937102FC01A2E752
:10146000B2E08C2F91919D938150E1F76C2F82E730
:1014700092E00E948101CC5FC0937002CF910895E9
:101480002AE520937002EACFCF93DF936091560252
:10149000635067FD17C0209153028CE090E0821BDF
:1014A0009109EC01C65ADD4F80915202803108F457
:1014B0008FC08D3209F490C08091510287FDE7C042
:1014C000109256028091480184FF61C060914701EB
:1014D0006F3F09F45CC0693008F466C068506093DF
:1014E00047019091390288E8892780933902CCE03E
:1014F00068E0A0915402B09155028091510286FF9C
:1015000089C0FD01849180933A0231968FEF860F56
:1015100009F42DC0E491E0933B02FD013296623064
:1015200031F1E491E0933C02FD0133966330F9F030
:10153000E491E0933D02FD0134966430C1F0E49102
:10154000E0933E02FD013596653089F0E491E09329
:101550003F02FD013696663051F0E491E09340027F
:10156000FD013796673019F0E491E093410290E075
:101570000196A80FB91FB0935502A09354028AE3B5
:1015800092E00E948101CC30F9F4C093480194E1CB
:1015900080B38C7031F49150D9F7109257021092A9
:1015A0005002DF91CF910895109247019091390236
:1015B00088E8892780933902611190C060E08AE34E
:1015C00092E00E948101C4E08FEF80934701DDCF5C
:1015D000CE010E943F0974CF683009F071CF83ECCF
:1015E000809339028AE580934801109251028881E4
:1015F000807609F45BC0CE010E94F8088F3F09F0A5
:1016000064C0988197FD7DC090E8909351028093CB
:10161000470156CF8C9180933A028FEF860F09F4E1
:10162000A6CF11969C91119790933B02623009F4DA
:101630009ECF12969C91129790933C02633009F4CE
:1016400096CF13969C91139790933D02643009F4C2
:101650008ECF14969C91149790933E02653009F4B6
:1016600086CF15969C91159790933F02663009F4AA
:101670007ECF16969C91169790934002673009F49E
:1016800076CF17969C9117979093410270CFCE0119
:101690000E9433098F3F31F0882309F411CF109253
:1016A00047010ECF8EE1809348010ACF9A811092B4
:1016B00042028981811115C01092430222E432E076
:1016C00082E030935502209354029F8191119FCF65
:1016D0009E81981708F09BCF892F99CFC4E0C60F41
:1016E00008CF853081F08630C1F0883091F08930A4
:1016F00021F18A3089F18B3031F122E432E080E04F
:10170000E0CF8E8181CF9093570222E432E080E0D7
:10171000D8CF29E532E081E0D4CF8B81813071F1DF
:10172000823041F18330E1F0813221F1823211F1D6
:1017300080E090E49093510261CF9093590222E4AB
:1017400032E080E0BECF8BE480934502809371024B
:1017500022E432E080E0B5CF22E432E081E0B1CF94
:10176000911117C085E992E090935502809354023D
:1017700084E0DFCFCE010E94A509DBCF89B78B7F44
:1017800089BF87E692E0909355028093540282E1EC
:10179000D0CF913051F0923059F689E792E0909392
:1017A00055028093540282E1C4CF8BE892E090937B
:1017B0005502809354028AE0BCCF85B7826085BF12
:1017C0008BB780648BBFA4E4B2E08BE411968C935A
:1017D0001197E0E7F2E081838AE58C938083089596
:1017E000EE0FFF1F0590F491E02D09940E94FB0B72
:1017F000272F0C94FC0B262FE199FECF9FBB8EBBAD
:101800002DBB0FB6F894E29AE19A0FBE01960895A7
:04181000F894FFCF7A
:1018140012021111111111111111111111111111C2
:1018240011111111111111111111111111111113A2
:1018340013131010101010101010001122001111A9
:10184400111110101015150010112266220000113C
:101854000010110066221111353A3B3C3D3E3F40D9
:1018640041424344454C2B595A5B5C5D5E5F606169
:1018740062565731390104020000000000000000E4
:101884000028020053474946000000EAE9000052DC
:1018940001000400002C000050000010514F291ECC
:1018A4001F20212223242526272D2E2A2B141A0813
:1018B40015171C180C12132F303139041607090A96
:1018C4000B0D0E0F3334002802001D1B06190511E1
:1018D40010363700385201000400002C0038500044
:1018E4000010514F1514180A090F1601040E0D0C9F
:0A18F4000B030506070817FF5A0052
:00000001FF
