:100000000C94ED000C9425010C940A010C940A0147
:100010000C940A010C940A010C940A010C940A0134
:100020000C940A010C940A010C940A010C940A0124
:100030000C940A010C940A010C940A010C940A0114
:100040000C940A010C940A010C940A010C940A0104
:100050000C940A0109025B00030100A0FA090400E4
:1000600000010301010009210111000122400007E4
:1000700005810308000109040100010301020009D0
:1000800021011100012284000705820308000109F3
:1000900004020002030000000921011100012222D4
:1000A0000007058303080001070504030800011287
:1000B00001011000000008CCCC1235010001020043
:1000C000010631FF0974A1010975150026FF00958D
:1000D00008750881020976150026FF009508750845
:1000E0009102C005010902A10185010901A10005D4
:1000F000091901290515002501750195058102756C
:1001000003950181030501093009311581257F75AA
:10011000089502810609381581257F35004500754F
:100120000895018106050C0A38021581257F75089E
:1001300095018106C0C005010980A1018502150154
:1001400026B700190129B7751095018100C0050C6B
:100150000901A10185031501269C0219012A9C02AF
:10016000751095018100C005010906A10175019571
:1001700008050719E029E715002501810295017599
:100180000881039505750105081901290591029556
:10019000017503910395067508150026FF000507F4
:1001A000190029FF8100C01201100100000008CCD5
:1001B000CC123501030102000112037600750073B1
:1001C0000062005F006B00650079000A037A006935
:1001D0000061006E00040309040011241FBECFE576
:1001E000D8E0DEBFCDBF10E0A0E6B0E0E6E8FEE07C
:1001F00002C005900D92A236B107D9F721E0A2E620
:10020000B0E001C01D92AB38B207E1F70E946D0269
:100210000C9441070C940000A82FB92F80E090E0C7
:1002200041E050EA609530E009C02D918227979512
:10023000879510F084279527305EC8F36F5FA8F389
:100240000895EADF8D939D930895CF93CFB7CF9311
:10025000C395839BE9F7839B09C0839B07C0839B5E
:1002600005C0839B03C0839B01C0A6C0DF93C091E0
:100270006201DD27C759DE4F839B02C0DF91EBCFC0
:100280002F930F931F9300B32FEF03FB20F94F938E
:100290003F9310B34FEF012703FB21F93BE031C03F
:1002A0004E7F012F10B3216028C0102F4D7F226098
:1002B000000000B329C04B7F2460012F000010B361
:1002C0002BC010B3477F28602AC04F7E00B3206147
:1002D0002CC04F7D10B320622FC04F7B00B3206431
:1002E00032C0422700B349934FEF0000102713FBA1
:1002F00020F910B31C70C9F1297F91F2012703FB8B
:1003000021F900B3237F89F2315058F1102713FBF4
:1003100022F910B3277E79F2012703FB23F92F7C02
:1003200081F200B3102713FB24F92F7971F200C07A
:1003300010B3012703FB25F92F7359F200C000B356
:10034000102713FB26F9223040F200C010B301271A
:1003500003FB27F9243028F64F77206810B30000FC
:10036000F9CF10E41ABF00271CC03B503195C31BC6
:10037000D04010E41ABF0881033C11F10B3401F1A5
:1003800020915F011981110F1213EDCF4A81441F93
:10039000093659F10D3211F0013E29F74F7009F07D
:1003A000042F009367013F914F911F910F912F915F
:1003B000DF91CAB7C6FD4CCFCF91CFBFCF91189573
:1003C00020916701222379F3109165011123C1F572
:1003D0003430C2F1309365012093610110916201C4
:1003E0003BE0311B309362012DC00091650101306B
:1003F0003CF50AE54F7049F43091610034FD24C0AA
:1004000000936100C8E4D1E023C0423049F030914C
:10041000530134FD19C000935301C4E5D1E018C065
:1004200030917F0134FD10C000937F01C0E8D1E01E
:100430000FC02795A8F45150A9F4220F0000F9CF5E
:100440004AE503C042ED01C0432FC4E1D0E032E0F1
:1004500011B31C60939A11BB02B320E41CE05F93BC
:10046000012756E002BB279520F4515021F4220FBA
:10047000F9CF012756E000003B5A02BBD0F2279586
:1004800028F4515029F4220F0000F9CF012756E03B
:10049000279502BB20F4515021F4220FF9CF0127F8
:1004A00056E02991332302BB21F6037F10916601A8
:1004B000110FC651D04002BB11F010935F0110E440
:1004C0001ABF086011B3137F402F437F5F9100C0B4
:1004D00000C002BB11BB42BB66CF0E9474020E94E7
:1004E000B0050E946406FBCFCF93DF930E949D0569
:1004F0008B9A2FE78CEF9AE0215080409040E1F7F3
:1005000000C000008B98789488E0E7E1F1E0DF011B
:10051000C82F1D92CA95E9F7E7E2F1E029E0DF0173
:10052000C22F1D92CA95E9F791E09087E0E3F1E0D0
:100530003DE0DF011D923A95E9F7ADE3B1E0ED0151
:1005400019922A95E9F7918392E0978393E0928735
:10055000EFE1F1E0DF01C82F1D92CA95E9F7EFE066
:10056000F1E0DF011D928A95E9F7DF91CF910895BF
:10057000FC019093470180934601908190769032E0
:1005800011F080E008958181813069F0823099F026
:100590008A3021F18930A9F78281938181159240B7
:1005A00091F08FEF089587E191E09093640180933B
:1005B000630188E0089582E690E09093640180935F
:1005C000630181E0089584819581892B51F78091A1
:1005D0002E01806880932E018FEF08958381809390
:1005E000620080E00895FC0190912E0197FD02C009
:1005F0008FEF0895808180932E0181E00895683007
:1006000009F00895FC0120812F3F09F451C0FC013D
:10061000C19A808180930F01818180931001828132
:10062000809311018381809312018481809313014F
:100630008581809314018681809315018781809341
:10064000160180910F01909110018E3FF1E09F07FC
:1006500060F4E199FECF60911101709112010E9446
:100660002F0780910F01909110019C012E5F3F4F49
:100670002E3F41E0340768F4E199FECF6091130109
:1006800070911401C9010E942F0780910F01909170
:10069000100104968E3FE1E09E0740F4E199FECF01
:1006A00060911501709116010E942F07C19808955D
:1006B0002181213F39F0223F09F0A9CF81E08093C9
:1006C0002F01089510922F010895FC01938192301B
:1006D00079F120F1913291F09232F1F48481958197
:1006E00081309105A9F1E0F10297B1F481EC90E03D
:1006F000909364018093630182E208958281813046
:10070000F9F0B0F1823041F488E990E0909364010F
:100710008093630189E0089580E008959130E1F7C6
:100720008FEA90E0909364018093630182E10895E1
:1007300084E590E090936401809363018BE50895D4
:100740008FE790E0909364018093630189E00895BE
:1007500083EE90E0909364018093630184E80895B0
:1007600087E691E0909364018093630180E40895AB
:1007700086E690E0909364018093630189E0089598
:10078000CF93C62F2091530124FF18C030915401FC
:1007900028E8232720935401FC01A5E5B1E08C2F24
:1007A00091919D938150E1F76C2F85E591E00E9436
:1007B0002101CC5FC0935301CF9108952AE5209386
:1007C0005301EACFCF93C62F20917F0124FF18C099
:1007D0003091800128E8232720938001FC01A1E8C3
:1007E000B1E08C2F91919D938150E1F76C2F81E8BE
:1007F00091E00E942101CC5FC0937F01CF910895C9
:100800002AE520937F01EACFCF93DF9360916501C2
:10081000635067FD17C0209162018CE090E0821B5D
:100820009109EC01C759DE4F80916101803108F4D4
:100830008FC08D3209F490C08091600187FDE7C0C0
:10084000109265018091610084FF61C06091600039
:100850006F3F09F45CC0693008F466C0685060936B
:1008600060009091480188E8892780934801CCE096
:1008700068E0A0916301B09164018091600186FFFE
:1008800089C0FD0184918093490131968FEF860FD5
:1008900009F42DC0E491E0934A01FD0132966230E3
:1008A00031F1E491E0934B01FD0133966330F9F0AF
:1008B000E491E0934C01FD0134966430C1F0E49181
:1008C000E0934D01FD013596653089F0E491E093A8
:1008D0004E01FD013696663051F0E491E0934F01F0
:1008E000FD013796673019F0E491E093500190E0F4
:1008F0000196A80FB91FB0936401A093630189E426
:1009000091E00E942101CC30F9F4C093610094E1A0
:1009100080B38C7031F49150D9F710926601109227
:100920005F01DF91CF91089510926000909148018E
:1009300088E8892780934801611190C060E089E4CC
:1009400091E00E942101C4E08FEF80936000DDCF31
:10095000CE010E94FF0274CF683009F071CF83ECA2
:10096000809348018AE5809361001092600188813C
:10097000807609F45BC0CE010E94B8028F3F09F077
:1009800064C0988197FD7DC090E89093600180934A
:10099000600056CF8C91809349018FEF860F09F448
:1009A000A6CF11969C91119790934A01623009F459
:1009B0009ECF12969C91129790934B01633009F44D
:1009C00096CF13969C91139790934C01643009F441
:1009D0008ECF14969C91149790934D01653009F435
:1009E00086CF15969C91159790934E01663009F429
:1009F0007ECF16969C91169790934F01673009F41D
:100A000076CF17969C9117979093500170CFCE0197
:100A10000E94F3028F3F31F0882309F411CF109226
:100A200060000ECF8EE1809361000ACF9A81109210
:100A300051018981811115C01092520121E531E0E7
:100A400082E030936401209363019F8191119FCFD5
:100A50009E81981708F09BCF892F99CFC4E0C60FCD
:100A600008CF853081F08630C1F0883091F0893030
:100A700021F18A3089F18B3031F121E531E080E0DC
:100A8000E0CF8E8181CF9093660121E531E080E057
:100A9000D8CF28E631E081E0D4CF8B81813071F16D
:100AA000823041F18330E1F0813221F1823211F163
:100AB00080E090E49093600161CF9093680121E51C
:100AC00031E080E0BECF8BE48093540180938001BD
:100AD00021E531E080E0B5CF21E531E081E0B1CF23
:100AE000911117C085ED91E09093640180936301AB
:100AF00084E0DFCFCE010E946503DBCF89B78B7F17
:100B000089BF87EA91E0909364018093630182E159
:100B1000D0CF913051F0923059F689EB91E090931B
:100B200064018093630182E1C4CF8BEC91E09093E8
:100B30006401809363018AE0BCCF85B7826085BF82
:100B40008BB780648BBFA3E5B1E08BE411968C93E7
:100B50001197EFE7F1E081838AE58C938083089514
:100B60000E94040480916801882309F48DC080915B
:100B7000530184FF89C08091270190911701981734
:100B800009F484C08093170181E09091280120919D
:100B90001901291719F09093190181E09091290109
:100BA00020911A01291719F090931A0181E0909170
:100BB0002A0120911B01291719F090931B0181E054
:100BC00090912B0120911C01291719F090931C0181
:100BD00081E090912C0120911D01291769F19093DA
:100BE0001D0190912D0180911E01891390931E018A
:100BF000A0916400B0E0CD01019687709927209103
:100C00006300281789F0AA0FBB1FAA0FBB1FAA0FEA
:100C1000BB1FAB59BF4F98E0E7E1F1E001900D92A7
:100C20009A95E1F7809364000E9404048091530137
:100C300084FD2EC081E0089590912D0120911E0128
:100C40002913D4CF8130A1F20E9404048091530172
:100C500084FF1AC080916300909164009817A1F0FE
:100C600090E0880F991F880F991F880F991F68E0DF
:100C70008B599F4F0E94C0038091630090E00196C2
:100C8000877099278093630080E0089580E07DCF8E
:100C90008091630090916400981761F290E0880F52
:100CA000991F880F991F880F991F68E08B599F4FD4
:100CB0000E94C0038091630090E00196877099279D
:100CC0008093630081E008951F93CF93DF9300D05A
:100CD00000D000D0CDB7DEB70E9404048091680137
:100CE000882309F48AC080917F0184FF86C08091A7
:100CF0003D0190913201981709F48DC08093320123
:100D000011E080914201909143012091380130918E
:100D100039012817390709F456C090933901809397
:100D20003801809144019091450120913B0130911F
:100D30003C012817390709F46CC090933C0180935B
:100D40003B0113E0109330012091A60030E0C9016F
:100D50000196877099274091A500481781F09DE082
:100D6000929FD001939FB00D1124A955BF4FE0E38E
:100D7000F1E001900D929A95E1F78093A6000E9410
:100D8000040480917F0184FF39C0E091A500809127
:100D9000A6008E1799F18E2F90E02DE0E29FF001D2
:100DA0001124DF01A955BF4F2C912130B1F1223020
:100DB00009F445C0233009F44BC001968770992788
:100DC0008093A5001BC08091440190914501209122
:100DD0003B0130913C012817390709F0AECF1111C2
:100DE0003CC00E94040480917F0184FF06C0E09112
:100DF000A5008091A6008E13CECF10E0812F2696FD
:100E00000FB6F894DEBF0FBECDBFDF91CF911F911B
:100E1000089512E097CF10E074CFE855FF4F86E0B9
:100E2000DE01119601900D928A95E1F766E0CE0100
:100E300001960E94E2038091A50090E0BECF179634
:100E40008D919D91AC9189839A83AB8363E0EFCFC1
:100E50001A968D919D91AC91F6CF11E073CF0E94BF
:100E60003407272F0C943507262FE199FECF9FBB1F
:100E70008EBB2DBB0FB6F894E29AE19A0FBE019695
:060E80000895F894FFCF75
:020E8600FF5A11
:00000001FF
