:100000000C943A040C9472040C9457040C94570406
:100010000C9457040C9457040C9457040C945704F4
:100020000C9457040C9457040C9457040C945704E4
:100030000C9457040C9457040C9457040C945704D4
:100040000C9457040C9457040C9457040C945704C4
:100050000C945704730A870A5F0A8F0A690A7D0A9B
:10006000550A930A6E0A820A5A0A8B0A640A780AA7
:10007000500A4B0A370A410A2D0A460A320A3C0A3C
:10008000280A230A190A1E0A140A0F0A0A0A050A6C
:10009000000AFC09570B6B0B430B730B4D0B610BE9
:1000A000390B770B520B660B3E0B6F0B480B5C0B3F
:1000B000340B2F0B1B0B250B110B2A0B160B200BD4
:1000C0000C0B070BFD0A020BF80AF30AEE0AE90A09
:1000D000E40AE00A200C1D0C1A0C170C140C110C6D
:1000E0000E0C0B0C080C050C020CFF0BFC0BF90B97
:1000F000F60BF30BF00BED0BEA0BE70BE40BE10B4C
:10010000DE0BDB0BD80BD50BD20BCF0BCC0BC90BFB
:10011000C60B230C090254000301008032090400BD
:100120000001030101000921110100012240000723
:1001300005810308000A0904010001030102000906
:1001400021110100012284000705820308000A0929
:100150000402000103000000092111010001221521
:10016000000705030308000A12011001000000083F
:10017000A032600101000102000112037600750047
:10018000730062005F006B00650079000A037A006B
:10019000690061006E00040309040631FF0974A1BF
:1001A000010975150026FF00950875089102C00524
:1001B000010902A10185010901A10005091901290F
:1001C00005150025017501950581027503950181CD
:1001D000030501093009311581257F7508950281D4
:1001E0000609381581257F35004500750895018180
:1001F00006050C0A38021581257F750895018106D0
:10020000C0C005010980A1018502150126B70019AA
:100210000129B7751095018100C0050C0901A101E4
:1002200085031501269C0219012A9C02751095016F
:100230008100C005010906A101750195080507198E
:10024000E029E715002501810295017508810395D4
:10025000057501050819012905910295017503919C
:100260000395067508150026FF000507190029FFEC
:100270008100C00000000101010203040405070819
:10028000090A0C0D0F1112141617191B1D1F21221C
:10029000242628292B2D2E30313334353637383962
:1002A0003A3A3B3B3C3C3C3C3C3C3D3D3E3E3F4087
:1002B000414243444647494A4C4D4F515254565887
:1002C000595B5D5F6062646567696A6B6D6E6F70D4
:1002D00071727374747575767676767676767676D0
:1002E00076767676767676767676767777777777A9
:1002F000777777777777777777777777787878788A
:10030000787878787878787878787878787878786D
:100310007879797A7A7B7B7C7D7E7F7F808283840B
:10032000858687898A8B8C8E8F90919294959697EB
:1003300098999A9B9C9D9D9E9F9FA0A0A0A1A1A1E2
:10034000A1A1A1A2A2A3A3A4A5A6A7A9AAACADAF4F
:10035000B0B2B4B6B8BABCBEC0C2C4C6C8CACCCEAD
:10036000D0D2D4D6D8D9DBDCDEDFE0E1E2E3E3E4CF
:10037000E4E5E5E5E5E4E4E3E2E0DFDDDBD8D6D380
:10038000D0CDCAC6C2BFBBB7B3AFABA6A29E9A952B
:10039000918D8985817D7A7673706D6A67656361F9
:1003A0005F5E5C5B5B5A5A5A5A59595857565554B6
:1003B0005351504E4C4A484644423F3D3A383633FA
:1003C000302E2B292724221F1D1B1917151312103D
:1003D0000F0D0C0B0A090908080808080808080985
:1003E00009090A0A0A0B0B0C0D0D0E0E0F10101145
:1003F00012131314151516171818191A1A1B1B1C8B
:100400001D1D1E1E1E1F1F1F2020202020202020FB
:10041000202020201F1F1F1F1F1E1E1E1E1D1D1DF2
:100420001C1C1C1B1B1A1A1A191919181818171733
:10043000171616161615151515151414141414146C
:100440001414141414131313131212121111101084
:100450000F0F0E0E0D0D0C0B0B0A0A0908080707EB
:100460000606050404030303020201010101000062
:1004700000000039393939393838383737363635A8
:10048000343433323231302F2E2D2C2B2B2A292885
:10049000272625242323222120201F1E1E1D1D1C4C
:1004A0001C1C1B1B1B1B1B1B1B1B1B1A1A1A1919A1
:1004B00019181817161615141413121111100F0EFF
:1004C0000D0D0C0B0A0908080706060504040303B2
:1004D0000202010101000000000000000000000015
:1004E000000000000000000000000000000000000C
:1004F00000000000000000000000000000000000FC
:1005000000000000000000000000000000000000EB
:100510000101020304050607080A0B0D0F1113154C
:1005200017191B1D1F212426282A2C2E313335375D
:10053000383A3C3D3F404243444546464747484899
:10054000484849494A4B4C4E4F515356585B5D60A1
:1005500063666A6D7074787B7F83868A8E919598C6
:100560009C9FA2A5A8ABAEB0B3B5B7B9BBBCBDBE8E
:10057000BFC0C0C0C0C0C0C0C0C0BFBFBFBFBEBE84
:10058000BEBEBDBDBDBCBCBBBBBBBABAB9B9B8B8B9
:10059000B8B7B7B6B6B6B5B5B4B4B4B4B3B3B3B30D
:1005A000B3B2B2B2B2B2B2B2B2B2B2B2B2B2B2B329
:1005B000B3B3B3B3B3B4B4B4B4B4B5B5B5B5B6B6F8
:1005C000B6B6B7B7B7B7B7B8B8B8B8B9B9B9B9B9AF
:1005D000B9B9BABABABABABABABABABABABBBBBB7A
:1005E000BCBDBDBEBFC0C1C2C4C5C6C7C9CACCCDD3
:1005F000CFD0D2D4D5D7D8DADBDDDEE0E1E2E3E557
:10060000E6E7E8E9EAEAEBECECECEDEDEDEDEDED3B
:10061000ECECEBEAE9E8E7E5E4E2E1DFDDDBD9D7A2
:10062000D4D2D0CECBC9C6C4C2BFBDBBB8B6B4B29B
:10063000B0AEACAAA9A7A6A5A3A2A1A1A0A09F9F66
:100640009F9F9F9E9D9C9B9A99979593918F8D8A32
:10065000888582807D7A7773706D6A6764615E5B7E
:10066000585552504D4B48464442413F3E3C3B3B1F
:100670003A3939F3F3F3F3F3F3F3F3F3F2F2F2F27B
:10068000F2F2F2F1F1F1F1F1F0F0F0F0F0EFEFEF62
:10069000EFEFEEEEEEEEEEEDEDEDEDEDEDEDECEC83
:1006A000ECECECECECECECECECECECEBEBEBEBEA90
:1006B000EAE9E9E8E8E7E6E6E5E4E4E3E2E1E0E0E8
:1006C000DFDEDDDCDCDBDAD9D9D8D7D7D6D6D5D595
:1006D000D4D4D3D3D3D2D2D2D2D2D2D2D1D1D0CFFA
:1006E000CECCCBC9C7C5C3C0BEBBB9B6B3B0ADA92C
:1006F000A6A3A09C999693908C898683807E7B7913
:10070000767472706E6D6B6A696868676767676731
:1007100066666565646362615F5E5D5B5A585655E7
:1007200053514F4D4B4947454342403E3C3A383781
:10073000353332302F2E2D2C2B2A292828272727F6
:100740002727272726262625252423232221201F65
:100750001E1D1C1B1A1918171614131211100F0E38
:100760000D0B0A0908080706050404030302020228
:10077000010101010101010101020202020303035F
:10078000040404050506060707080809090A0A0BF8
:100790000B0C0C0D0D0E0E0F0F0F10101011111170
:1007A000111212121212121212121313141515161C
:1007B00017181A1B1C1E1F2122242628292B2D2F17
:1007C00031333536383A3C3E3F414244454748494B
:1007D0004A4B4C4D4D4E4E4F4F4F4F4F5051525331
:1007E0005557595B5D606366696D7174787C808470
:1007F000898D91969A9EA2A7ABAFB3B7BABEC2C578
:10080000C8CBCED0D2D4D6D8D9DADBDCDCDCDCDC89
:10081000DCDCDDDDDDDEDEDFDFE0E0E1E2E2E3E4E3
:10082000E4E5E6E7E8E9E9EAEBECEDEDEEEFF0F020
:10083000F1F2F2F3F4F4F5F5F5F6F6F6F7F7F7F76B
:10084000F7F7F7F7F7F7F7F7F7F7F7F7F6F6F6F63C
:10085000F6F6F6F6F6F6F5F5F5F5F5F5F5F5F4F444
:10086000F4F4F4F4F4F4F4F4F3F3F3F3F3F3F3F350
:10087000F3F3F30011241FBECFE5D8E0DEBFCDBFF8
:1008800012E0A0E6B0E0E6EFF5E202C005900D92BE
:10089000A230B107D9F723E0A2E0B2E001C01D9277
:1008A000A93DB207E1F70E94BE0C0C94F9120C941A
:1008B0000000A82FB92F80E090E041E050EA609559
:1008C00030E009C02D9182279795879510F08427F5
:1008D0009527305EC8F36F5FA8F30895EADF8D9324
:1008E0009D930895CF93CFB7CF93DF93C395839B09
:1008F000E9F7839B0BC0839B09C0839B07C0839B45
:1009000005C0839B03C0839B01C08EC06F93C091C1
:10091000B003DD27C954DC4F2F9365E5839B03C0EB
:100920002F916F91E6CF0F931F934F9320E040E1FB
:100930005F9300B30C7003FB27F93F9350E03BE05B
:1009400039C01C7040642F77012F5F5F1EC0406864
:1009500010B31C702F7752501FC0406400B32F7724
:100960000C70D1F15F5F00C023C0406210B32F77DD
:100970001C7091F15F5F00C025C00C7010275150B2
:1009800012F45D5F0000115027952C3F10B3C8F69C
:100990001C700127015027952C3FC8F64227499328
:1009A00000B30C7010274F73115027952C3FA8F6F9
:1009B0004695469510B31C7079F001270150279594
:1009C0002C3F98F66B5A60F3315000B3B0F600C07C
:1009D00010E41ABF00271CC03B503195C31BD04008
:1009E00010E41ABF0881033C21F10B3411F120916E
:1009F000AE031981110F1213EDCF4A81441F09363E
:100A000069F10D3211F0013E29F74F7009F0042F02
:100A10000093B5033F915F914F911F910F912F91DB
:100A20006F91CAB7C6FD62CFDF91CF91CFBFCF9193
:100A300018952091B503222369F31091B303112374
:100A4000E9F53430EAF13093B3032093AF0310910A
:100A5000B0033BE0311B3093B00332C00091B303CD
:100A6000013064F50AE54F7049F43091000234FD1D
:100A700028C000930002C7E9D3E027C0423049F004
:100A80003091A20334FD1DC00093A203C3EAD3E05A
:100A90001CC03091CD0334FD14C00093CD03CEECC7
:100AA000D3E013C0052710E000C0000002BB1AC04D
:100AB000052710E0221F1DC010E021C04AE502C03A
:100AC00032ED432FC4E1D0E032E011B31C60939AC1
:100AD00002B311BB5CE020E865E320FF052702BB01
:100AE000279517951C3FF0F66695B8F7B1F720FFEC
:100AF000052702BB279517951C3FD0F6279517951C
:100B000017FF052700001C3F02BBB0F629913A955C
:100B100019F7037F1091B403110FC651D04002BBE7
:100B200011F01093AE0310E41ABF086011B3137FE5
:100B3000402F437F54E05A95F1F702BB11BB42BBF3
:100B400069CF80913603811102C080E00895109230
:100B50003603A0910402B0E0CD0101968F71992770
:100B600020910302281789F0AA0FBB1FAA0FBB1FF1
:100B7000AA0FBB1FAB5FBD4F98E0E2E1F3E001902D
:100B80000D929A95E1F7809304020E94A210809141
:100B9000B603882321F08091A20384FD02C081E086
:100BA000089580910302909104029817C1F390E098
:100BB000880F991F880F991F880F991F68E08B5F16
:100BC0009D4F0E9456108091030290E001968F7114
:100BD00099278093030281E00895809143039091C7
:100BE0003803981729F18093380381E02091480356
:100BF0003091490340913E0350913F034217530700
:100C0000C9F030933F0320933E0320914A03309173
:100C10004B03809141039091420382179307C9F0DF
:100C2000309342032093410383E080934D03089562
:100C300080E0DCCF20914A0330914B034091410387
:100C4000509142034217530759F7882381F381E0FB
:100C5000ECCF82E0EACF80912A039091120398179B
:100C6000D1F18093120381E090912B032091140322
:100C7000291719F09093140381E090912C0320918F
:100C80001503291719F09093150381E090912D0316
:100C900020911603291719F09093160381E0909183
:100CA0002E0320911703291719F09093170381E061
:100CB00090912F0320911803291779F0909318032E
:100CC000909130038091190398139093190381E058
:100CD00080933603089580E0C7CF90913003209130
:100CE00019032913F2CF8111F2CF0895CF93809188
:100CF0004D03882381F081E0809302020E94A210BC
:100D00008091CD0384FD0BC0809102028F5F8093A0
:100D10000202823398F3C0E08C2FCF910895C091E6
:100D20004D03C13089F0C230B9F0C33021F0C1E0C9
:100D30008C2FCF91089563E080E493E00E947C10B3
:100D400010924D03C1E0E8CF66E087E393E00E9494
:100D50007C1010924D03E0CF63E08DE393E00E949E
:100D60007C1010924D03C1E0D7CF0E94A210809159
:100D7000B603882319F08091A20384FF089580911F
:100D80000302909104029817C9F390E0880F991F0D
:100D9000880F991F880F991F68E08B5F9D4F0E94F5
:100DA00056108091030290E001968F7199278093ED
:100DB0000302089590912B03891711F120912C03C0
:100DC0008217F1F030912D038317D1F040912E035B
:100DD0008417B1F050912F03851791F06091300383
:100DE000681771F0992371F02223A1F03323A9F041
:100DF0004423B1F05523B9F06623C1F080E0089593
:100E000081E0089520E030E0F901E65DFC4F818348
:100E100081E0089521E030E0F7CF22E030E0F4CF28
:100E200023E030E0F1CF24E030E0EECF25E030E009
:100E3000EBCFEAE2F3E09081892B80830895E3E42D
:100E4000F3E09081892B8083089590E0909349038B
:100E5000809348030895982F907F9039D9F038F007
:100E6000903C91F0903E81F0903B71F0089590326B
:100E700021F0903879F09111F9CF90E09260909341
:100E80004B0380934A03089590E090934B03809323
:100E90004A03089590E0916090934B0380934A0336
:100EA0000895E3E4F3E0108216821582108617821B
:100EB000089586E0EBE2F3E0DF011D928A95E9F701
:100EC00010922A030895CF92DF92EF92FF920F9330
:100ED0001F93CF93DF9380E090E00E94D112EC014A
:100EE00082E090E00E94D1128C0184E090E00E94A8
:100EF000D1127C0186E090E00E94D1126C0188E062
:100F000090E00E94D1122A9749F0DF91CF911F9172
:100F10000F91FF90EF90DF90CF900895023111056F
:100F2000A1F721E2E216F10481F7E9E9CE16D10436
:100F300061F78131914049F78AE090E00E94C9123F
:100F400080938F008BE090E00E94C9128093900004
:100F50008CE090E00E94C912809391008DE090E0B7
:100F60000E94C912809392008EE090E00E94C91204
:100F7000809393008FE090E00E94C91280939400C8
:100F800080E190E00E94C9128093950081E190E099
:100F90000E94C9128093960082E190E00E94C912DB
:100FA0008093800083E190E00E94C91280938100C9
:100FB00084E190E00E94C9128093820085E190E074
:100FC0000E94C9128093830086E190E00E94C912BA
:100FD0008093840087E190E00E94C912809385008D
:100FE00088E190E00E94C9128093860089E190E038
:100FF0000E94C912809387008AE190E00E94C91282
:10100000809388008BE190E00E94C9128093890050
:101010008CE190E00E94C91280938A008DE190E0FB
:101020000E94C91280938B008EE190E00E94C91249
:1010300080938C008FE190E00E94C91280938D0014
:1010400080E290E00E94C91280938E0007E910E0D0
:10105000C0E0D0E0CE0181960E94C912F8018083E1
:10106000CE0182960E94C912F8018183CE01839637
:101070000E94C912F8018283CE0184960E94C9128F
:10108000F8018383CE0185960E94C912F8018483FA
:10109000CE0186960E94C912F8018583CE018796FB
:1010A0000E94C912F8018683CE0188960E94C91257
:1010B000F8018783CE0189960E94C912F8018087C2
:1010C000CE018A960E94C912F8018187CE018B96C3
:1010D0000E94C912F8018287CE018C960E94C91223
:1010E000F8018387CE018D960E94C912F80184878A
:1010F000CE018E960E94C912F8018587CE018F9687
:101100000E94C912F80186872F96015F1F4FC837CA
:10111000D10509F09FCF0FE011E0C0E0D0E0CE0193
:1011200087569F4F0E94C912F8018083CE018656D0
:101130009F4F0E94C912F8018183CE0185569F4FAF
:101140000E94C912F8018283CE0184569F4F0E94EB
:10115000C912F8018383CE0183569F4F0E94C912A2
:10116000F8018483CE0182569F4F0E94C912F80174
:101170008583CE0181569F4F0E94C912F801868354
:10118000CE0180569F4F0E94C912F8018783CE017D
:101190008F559F4F0E94C912F8018087CE018E554E
:1011A0009F4F0E94C912F8018187CE018D559F4F34
:1011B0000E94C912F8018287CE018C559F4F0E9470
:1011C000C912F8018387CE018B559F4F0E94C91227
:1011D000F8018487CE018A559F4F0E94C912F801F9
:1011E0008587CE0189559F4F0E94C912F8018687D5
:1011F0002F96015F1F4FC837D10509F090CF07E840
:1012000011E0C0E0D0E0CE018F5E9E4F0E94C91277
:10121000F8018083CE018E5E9E4F0E94C912F801B4
:101220008183CE018D5E9E4F0E94C912F801828398
:10123000CE018C5E9E4F0E94C912F8018383CE01BD
:101240008B5E9E4F0E94C912F8018483CE018A5E94
:101250009E4F0E94C912F8018583CE01895E9E4F80
:101260000E94C912F8018683CE01885E9E4F0E94BB
:10127000C912F8018783CE01875E9E4F0E94C91272
:10128000F8018087CE01865E9E4F0E94C912F80148
:101290008187CE01855E9E4F0E94C912F801828728
:1012A000CE01845E9E4F0E94C912F8018387CE0151
:1012B000835E9E4F0E94C912F8018487CE01825E30
:1012C0009E4F0E94C912F8018587CE01815E9E4F14
:1012D0000E94C912F80186872F96015F1F4FC837F9
:1012E000D10509F090CF11CECF93DF93683019F07C
:1012F000DF91CF910895EC0128812F3F09F45AC066
:10130000209132032111F4CFFC0188E0AAE0B3E080
:10131000ED0119928A95E9F7808180930A03818112
:1013200080930B03828180930C03838180930D0350
:10133000848180930E03858180930F03868180933F
:101340001003878180931103C0910A03D0910B038E
:101350000E94DB0CCE3FE1E0DE0780F0CE0102967A
:101360008E3FF1E09F07E8F0CE0104968E3F21E02A
:10137000920770F0DF91CF910C94DF0CE199FECFD2
:1013800060910C0370910D03CE010E94D712E6CF3D
:10139000E199FECF60911003709111030E94D71262
:1013A000E9CFE199FECF60910E0370910F030E9487
:1013B000D712DACF2981213F71F0223F09F0A0CF67
:1013C00080913203811194CF82E080933203DF91C8
:1013D000CF910C94DF0C80913203813009F088CFDB
:1013E0001092320385CF90E08032910540F4FC01E9
:1013F000E65DFF4F0C94C3126111D7C08F9808951A
:10140000662309F494C08E9A0895662309F491C066
:101410008D9A0895662309F48EC08C9A08956623E8
:1014200009F48BC08B9A0895662309F48AC08A9ABE
:101430000895662309F483C0889A0895662309F401
:1014400082C0899A0895662309F47FC0A79A0895F7
:10145000662309F482C0A69A0895662309F479C028
:10146000A29A0895662309F47CC0A49A089566237D
:1014700009F46DC0A09A0895662309F470C0A59A76
:101480000895662309F467C0A19A0895662309F4B4
:101490006AC0A39A0895662309F467C0BF9A0895A5
:1014A000662309F472C0BE9A0895662309F465C0E4
:1014B000D69A0895662309F470C0BA9A08956623EF
:1014C00009F457C0D29A0895662309F462C0BC9A01
:1014D0000895662309F455C0D49A0895662309F443
:1014E00060C0B89A0895662309F441C0D09A08955F
:1014F000662309F44CC0BD9A0895662309F43FC0E1
:10150000D59A0895662309F44AC0B99A08956623C6
:1015100091F1D19A08956623F1F1BB9A089566235B
:1015200091F1D39A08956623F1F1D79A08958E9890
:1015300008958D9808958C9808958B9808958898AB
:1015400008958A98089589980895A7980895A0986D
:101550000895A2980895A1980895A6980895A59829
:101560000895A4980895A3980895BF980895D098D1
:101570000895D2980895D1980895D6980895D59849
:101580000895D4980895D3980895BE980895BD9865
:101590000895BC980895BB980895BA980895B9988D
:1015A0000895B8980895D79808958F9A089590E06F
:1015B0008032910540F4FC01E65BFF4F0C94C312AE
:1015C0006111D7C097980895662309F494C0969A3C
:1015D0000895662309F491C0959A0895662309F445
:1015E0008EC0949A0895662309F48BC0939A089547
:1015F000662309F48AC0929A0895662309F483C089
:10160000909A0895662309F482C0919A08956623FA
:1016100009F47FC0AF9A0895662309F482C0AE9A98
:101620000895662309F479C0AA9A0895662309F4F7
:101630007CC0AC9A0895662309F46DC0A89A0895F9
:10164000662309F470C0AD9A0895662309F467C053
:10165000A99A0895662309F46AC0AB9A089566238F
:1016600009F467C0C79A0895662309F472C0C69A40
:101670000895662309F465C0DE9A0895662309F487
:1016800070C0C29A0895662309F457C0DA9A089583
:10169000662309F462C0C49A0895662309F455C00C
:1016A000DC9A0895662309F460C0C09A0895662301
:1016B00009F441C0D89A0895662309F44CC0C59A2C
:1016C0000895662309F43FC0DD9A0895662309F45E
:1016D0004AC0C19A0895662391F1D99A0895662364
:1016E000F1F1C39A0895662391F1DB9A0895662378
:1016F000F1F1DF9A08959698089595980895949831
:1017000008959398089590980895929808959198BF
:101710000895AF980895A8980895AA980895A9984B
:101720000895AE980895AD980895AC980895AB9833
:101730000895C7980895D8980895DA980895D99883
:101740000895DE980895DD980895DC980895DB9853
:101750000895C6980895C5980895C4980895C398A3
:101760000895C2980895C1980895C0980895DF9883
:101770000895979A089590E08032910510F080E0E6
:101780000895FC01E659FF4F0C94C31280B3807496
:10179000089580B38072089580B38071089580B3F6
:1017A0008870089580B38470089580B3827008951E
:1017B00080B38170089583B38078089583B3807473
:1017C000089583B38072089583B38071089583B3BD
:1017D0008870089583B38470089583B382700895E8
:1017E00083B38170089586B38078089586B380743A
:1017F000089586B38072089586B38071089586B384
:101800008870089586B38470089586B382700895B1
:1018100086B38170089589B38078089589B3807400
:10182000089589B38072089589B38071089589B34A
:101830008870089589B38470089589B3827008957B
:1018400089B38170089580B380780895843031F031
:1018500090915A03892B80935A0308959091120313
:10186000992389F190912B03953391F320912C03C7
:10187000253371F330912D03353351F340912E030D
:10188000453331F350912F03553311F360913003F9
:101890006533F1F2992309F447C0222309F44AC0C1
:1018A000332309F450C0442309F453C0552309F4E9
:1018B00053C06111CDCF25E030E0F901E65DFC4F6A
:1018C00095E39183C5CF90912B03993209F2209132
:1018D0002C03293209F4BCCF30912D03393209F49D
:1018E000B7CF40912E03493209F4B2CF50912F0364
:1018F000593209F4ADCF60913003693209F4A8CFB1
:101900009923A9F02223C9F03323D1F04423F1F025
:10191000552329F161119CCF25E030E0F901E65D06
:10192000FC4F99E2918394CF20E030E0C6CF20E0D5
:1019300030E0F4CF21E030E0C0CF21E030E0EECF66
:1019400022E030E0EBCF22E030E0B7CF23E030E020
:10195000E5CF23E030E0B1CF24E030E0AECF24E0AB
:1019600030E0DCCF80915A0390915D03981721F00D
:1019700080935D0381E0089580E008950C94000F4A
:1019800010929003E0E0F0E0E058FF4F60E08081CB
:101990000E94F309E0919003F0E0E058FF4F61E00E
:1019A00080810E94D70AE0919003EF5FE09390035B
:1019B000EF3048F3089561E089E10C94D70A60E0C4
:1019C00089E10C94D70A0F931F93CF93DF938091F3
:1019D000310381FF4DC061E089E10E94D70A809107
:1019E000930390919403811524E0920708F445C075
:1019F0008091070381FF4EC0C0E6D0E000E010E018
:101A000008C0998388830F5F1F4F2296003111050C
:101A100001F128813981F901ED58F94F6491F901FB
:101A2000ED58FB4F4491F901ED58FD4F2491C80149
:101A30000E949A12888199810196811522E092076D
:101A400000F3198218820F5F1F4F22960031110593
:101A500001F78091930390919403019790939403DD
:101A600080939303DF91CF911F910F910C94A61255
:101A700060E089E10E94D70AB2CF009791F480E03C
:101A800094E09093940380939303DF91CF911F91FF
:101A90000F9108958091310382FDAECF0E94921282
:101AA000D8CF01979093940380939303DF91CF91C4
:101AB0001F910F910895FF920F931F93CF93DF9380
:101AC00080EF8093920310928F0380E0C1E0D0E01A
:101AD0001FE09FE0F92E06E027B3AE0102C0440FDD
:101AE000551F8A95E2F7CA01922F982B97BB98B39E
:101AF0008095892388BB8091070380FD04C0809175
:101B0000310380FF4CC161E08CE10E94D70A109242
:101B10009103E0E008C08C9187778C93EF5FE093AE
:101B20009103EF3008F5F0E0E058FF4F80810E940C
:101B3000BB0BE0919103A0918F031A9FD001112458
:101B4000A957BE4FAE0FB11D8111E5CF8C918868AA
:101B50008C93009306038E3E09F7F0929203EF5F99
:101B6000E0939103EF30F8F217BA81E088BB8091DF
:101B70008F038F5F80938F03883008F4ADCF0E946E
:101B800059070E94510710925A0310928F0340E0A8
:101B9000CFE01092910390E01DC0803B09F4E7C0B4
:101BA00008F487C0803D09F4BCC0803F09F4A0C0A0
:101BB000803C59F429563F4FE20FF31F80810E9469
:101BC000250740918F03909191039F5F909391031C
:101BD0009F3068F5E92FF0E0C49F90011124D901EE
:101BE000A957BE4FAE0FBF1F5C9180919203852312
:101BF0008F3009F4AFC088F68B3009F46CC008F060
:101C000045C0893009F480C08A30F9F6A901415FE6
:101C10005E4FE40FF51F80810E94190740918F03EA
:101C2000909191039F5F909391039F3098F24F5F43
:101C300040938F03483008F4ACCF0E94B20C882345
:101C400019F083E0809305030E942B06882319F086
:101C500083E0809305030E94ED058111A5C080916A
:101C60000603863009F4A8C0813009F4ADC0909114
:101C700005038111A5C0992319F091509093050394
:101C8000DF91CF911F910F91FF9008958C3009F44F
:101C900054C08D3009F099CFA901415F5E4FE40F28
:101CA000F51F80810E942B0740918F039091910333
:101CB0008CCF803909F467C0803A09F086CF295665
:101CC0003F4FE20FF31F80810E94190740918F035D
:101CD000909191037ACFA901415F5E4FE40FF51F08
:101CE00080810E941F0740918F03909191036DCFD7
:101CF00029563F4FE20FF31F80810E94260C40912E
:101D00008F039091910361CFA901415F5E4FE40F72
:101D1000F51F80810E94DA0640918F039091910314
:101D200054CF29563F4FE20FF31F80810E942B07AB
:101D300040918F039091910348CFA901415F5E4F7D
:101D4000E40FF51F80810E94250740918F03909139
:101D500091033BCFC901815F9E4FE80FF91F80813E
:101D60000E94260C40918F03909191032ECF29560B
:101D70003F4FE20FF31F80810E941F0740918F03A6
:101D80009091910322CF29563F4FE20FF31F80819C
:101D90000E94DA0640918F039091910316CF60E084
:101DA0008CE10E94D70AB3CE83E080930503809133
:101DB0000603863009F058CF90910503913091F0D9
:101DC00081508093060357CF9091070380915D0364
:101DD0008927809307030E94A1050E9476068091BF
:101DE000060345CF9091070380915D038927809377
:101DF00007030E94A1050E9476068091060334CF56
:101E00000E94520F0E94C00C17BA81E088BBC0E04C
:101E1000D4E061E089E10E94F30960E089E10E9479
:101E2000D70A61E08CE10E94F30961E08CE10E9435
:101E3000D70A109207030E949012D0939403C09384
:101E400093030E9492120E94A61281E080933203B3
:101E50000E9459070E9451070E9463072FEF89E6ED
:101E600098E1215080409040E1F700C000000E94BE
:101E7000A1050E94B50680913203823051F2813073
:101E8000C1F70E945B0D8091B603882391F3809186
:101E9000A20384FFEECF809105038111EACF0E9457
:101EA000E30CE7CF89B78E7F89BF89B78B7F89BF66
:101EB00089B78F7B89BF8D98959A0E947D128B9AE6
:101EC0008FEFA895AFE9BFE01197F1F700C00000D0
:101ED0008150B9F78B98789488E0E2E2F3E0DF0173
:101EE000382F1D923A95E9F7E2E1F3E0DF01382F50
:101EF0001D923A95E9F79DE0EAE2F3E0DF011D92D9
:101F00009A95E9F791E0909332032CE0EEE4F3E048
:101F1000DF01322F1D923A95E9F7E7E3F3E0DF01A5
:101F20001D922A95E9F72BE0E3E4F3E0DF011D922F
:101F30002A95E9F79093370392E090933D0393E05D
:101F400090934003EAE1F3E0DF01382F1D923A95C8
:101F5000E9F7EAE0F3E0DF011D928A95E9F71092D4
:101F60005A0310925D030895FC01909396038093A9
:101F7000950390819076903211F080E008958181F0
:101F8000813069F0823099F08A3021F18930A9F7E7
:101F9000828193818115924091F08FEF089582E1C3
:101FA00093E09093B2038093B10388E0089588E0B2
:101FB00093E09093B2038093B10381E0089584810C
:101FC0009581892B51F7809131038068809331038B
:101FD0008FEF089583818093080380E00895FC01CA
:101FE0009091310397FD02C08FEF08958081809317
:101FF000310381E00895FC019381923079F120F161
:10200000913291F09232F1F4848195818130910581
:10201000A9F1E0F10297B1F48AE991E09093B2035B
:102020008093B10385E1089582818130F9F0B0F1A8
:10203000823041F488E591E09093B2038093B1033C
:1020400089E0089580E008959130E1F788E691E015
:102050009093B2038093B10382E1089584E191E00B
:102060009093B2038093B10384E508958FE391E0E8
:102070009093B2038093B10389E008958FEA91E0D1
:102080009093B2038093B10384E8089583E392E0D0
:102090009093B2038093B10380E4089586E291E0C7
:1020A0009093B2038093B10389E00895CF93209178
:1020B000A2032E31C1F02091A20324FD16C02AE50F
:1020C0002093A203FC01A4EAB3E0862F91919D9393
:1020D0008150E1F7C62F84EA93E00E946E0464E029
:1020E0006C0F6093A203CF9108953091A30328E869
:1020F00023272093A303E6CFCF932091A2032E3171
:10210000C1F02091CD0324FD16C02AE52093CD0314
:10211000FC01AFECB3E0862F91919D938150E1F7E4
:10212000C62F8FEC93E00E946E0464E06C0F609306
:10213000CD03CF9108953091CE0328E82327209333
:10214000CE03E6CFCF93DF936091B303635067FD77
:1021500017C02091B0038CE090E0821B9109EC0144
:10216000C954DC4F8091AF03803108F494C08D32A4
:1021700009F495C08091090387FDEDC01092B30367
:102180008091000284FF61C06091FF016F3F09F4FC
:102190005CC0693008F46BC068506093FF01909197
:1021A000970388E8892780939703CCE068E0A091A3
:1021B000B103B091B2038091090386FF8FC0FD0186
:1021C00084918093980331968FEF860F09F42DC088
:1021D000E491E0939903FD013296623031F1E4918C
:1021E000E0939A03FD0133966330F9F0E491E093B4
:1021F0009B03FD0134966430C1F0E491E0939C03AD
:10220000FD013596653089F0E491E0939D03FD0171
:102210003696663051F0E491E0939E03FD013796C7
:10222000673019F0E491E0939F0390E00196A80FC6
:10223000B91FB093B203A093B10388E993E00E9461
:102240006E04CC3021F5C093000294E180B38C7011
:1022500059F49150D9F71092B4031092AE038AE565
:102260008093A2038093CD03DF91CF9108951092C4
:10227000FF019091970388E8892780939703611164
:1022800096C060E088E993E00E946E04C4E08FEF9E
:102290008093FF01D8CFCE010E9474096FCF6830C0
:1022A00009F06CCF83EC809397038AE5809300025A
:1022B000109209039881892F807609F45BC0CE01C2
:1022C0000E94B40F8F3F09F069C0988197FD9CC0B0
:1022D00090E8909309038093FF0150CF8C918093F5
:1022E00098038FEF860F09F4A0CF11969C91119758
:1022F00090939903623009F498CF12969C911297AB
:1023000090939A03633009F490CF13969C9113979E
:1023100090939B03643009F488CF14969C91149792
:1023200090939C03653009F480CF15969C91159786
:1023300090939D03663009F478CF16969C9116977A
:1023400090939E03673009F470CF17969C9117976E
:1023500090939F036ACFCE010E94EF0F8F3F31F021
:10236000882309F40BCF1092FF0108CF8EE18093F0
:10237000000204CF2A813C811092A003898181113F
:1023800019C09F71923009F441C01092A10320EA54
:1023900033E082E03093B2032093B1039F81911127
:1023A0009ACF9E81981708F096CF892F94CFC4E0DA
:1023B000C60FFDCE982F9D7F913099F0853009F49E
:1023C00044C0863009F447C08830D9F1893071F1B2
:1023D0008A3041F18B3009F450C020EA33E080E0CC
:1023E000D9CF2111FACF3138C1F7813009F443C078
:1023F0008EE18093A2038BE48093A3038093CE03AA
:1024000020EA33E080E0C6CF8E8162CF313809F018
:10241000BCCF9091A20381E09E3109F080E08093CF
:10242000A003B3CF20EA33E081E0B4CF2093B6031A
:102430008AE58093A2038093CD0320EA33E080E015
:10244000A9CF26EB33E081E0A5CF2093B40320EAA7
:1024500033E080E09FCF8B81813099F1823049F168
:102460008330E9F0813299F0823269F080E090E4C3
:102470009093090327CF8AE5BCCF8BE48093A30315
:102480008093CE03D5CFCE010E94FB0FF0CF86E222
:1024900091E09093B2038093B10389E0E8CF2111DA
:1024A00018C086E991E09093B2038093B10384E071
:1024B000DECF84E191E09093B2038093B10384E591
:1024C000D6CF88E691E09093B2038093B10382E186
:1024D000CECF213051F0223049F68AE791E0909337
:1024E000B2038093B10382E1C2CF8CE891E0909374
:1024F000B2038093B1038AE0BACF85B7826085BF0B
:102500008BB780648BBFA2EAB3E08BE411968C9307
:102510001197EDECF3E081838AE58C938083089535
:10252000A19A089580E3EFE5F3E0DF011D928A951B
:10253000E9F70895FC01EE0FFF1F8E0F9F1FFC01AE
:10254000E15AFC4F4083618322830895F89425B3B8
:102550002D7F95B39260EFE5F3E0819138E095BB74
:10256000000000C087FF25BB880F000000C000C02E
:1025700000C025BB00C03A9591F783E0EF38F8071B
:1025800061F778940895EE0FFF1F0590F491E02D08
:102590000994E199FECF9FBB8EBBE09A99278DB33A
:1025A0000895A8E1B0E042E050E00C94DE120E94F1
:1025B000EC12272F0C94ED12DC01CB01FC01E19908
:1025C000FECF06C0FFBBEEBBE09A31960DB20D9276
:1025D00041505040B8F70895262FE199FECF9FBB98
:1025E0008EBB2DBB0FB6F894E29AE19A0FBE01960E
:0625F0000895F894FFCFEE
:1025F60000002200440066008800AA00CC00EE001D
:10260600EE00CC00AA00880066004400220000000C
:1026160000010203040506071716151413121F08F6
:10262600090A0B0C0D0E0F01080400000000000043
:10263600008000100000021D1B06190500000000A6
:10264600382000000039041607090A00000000338C
:10265600340028002B141A08151700000000132F49
:10266600303100351E1F20212200000000272D2EAC
:10267600352A0000000000000000000000000000F5
:102686000000231C0B112C5051524F0024180D1022
:102696000026120F37400000000000250C0E360001
:1026A6000000000000000000000000000000000024
:1026B6000000000000000000000000000000000014
:1026C6000000000000000000000000000000000004
:1026D6000000000000000000000000293A3B3C3DDD
:1026E6003E00000000434445004C0000000000008E
:1026F600000000000000000000003F000000000095
:102706000000000040000000004200000000000041
:1027160000000041000000202020660000000000AC
:10272600002066200000201010101010000000008D
:10273600102066000010101010101000000000108D
:1027460010001000101010101010000000001010E3
:1027560010100011111111111100000000111111BA
:102766001011000000000000000000000000000042
:102776000000111010101010101010001110101081
:10278600001110101020000000000011101010FFA2
:022796005A00E7
:00000001FF
