:100000000C943A040C9472040C9457040C94570406
:100010000C9457040C9457040C9457040C945704F4
:100020000C9457040C9457040C9457040C945704E4
:100030000C9457040C9457040C9457040C945704D4
:100040000C9457040C9457040C9457040C945704C4
:100050000C945704AC0AC00A980AC80AA20AB60A45
:100060008E0ACC0AA70ABB0A930AC40A9D0AB10ADF
:10007000890A840A700A7A0A660A7F0A6B0A750A74
:10008000610A5C0A520A570A4D0A480A430A3E0AA4
:10009000390A350A900BA40B7C0BAC0B860B9A0B20
:1000A000720BB00B8B0B9F0B770BA80B810B950B77
:1000B0006D0B680B540B5E0B4A0B630B4F0B590B0C
:1000C000450B400B360B3B0B310B2C0B270B220B3C
:1000D0001D0B190B590C560C530C500C4D0C4A0CA3
:1000E000470C440C410C3E0C3B0C380C350C320CCC
:1000F0002F0C2C0C290C260C230C200C1D0C1A0C7C
:10010000170C140C110C0E0C0B0C080C050C020C2B
:10011000FF0B5C0C0902540003010080320904004B
:100120000001030101000921110100012240000723
:1001300005810308000A0904010001030102000906
:1001400021110100012284000705820308000A0929
:100150000402000103000000092111010001221521
:10016000000705030308000A12011001000000083F
:10017000A032600101000102000112037600750047
:10018000730062005F006B00650079000A037A006B
:10019000690061006E00040309040631FF0974A1BF
:1001A000010975150026FF00950875089102C00524
:1001B000010902A10185010901A10005091901290F
:1001C00005150025017501950581027503950181CD
:1001D000030501093009311581257F7508950281D4
:1001E0000609381581257F35004500750895018180
:1001F00006050C0A38021581257F750895018106D0
:10020000C0C005010980A1018502150126B70019AA
:100210000129B7751095018100C0050C0901A101E4
:1002200085031501269C0219012A9C02751095016F
:100230008100C005010906A101750195080507198E
:10024000E029E715002501810295017508810395D4
:10025000057501050819012905910295017503919C
:100260000395067508150026FF000507190029FFEC
:100270008100C00000000101010203040405070819
:10028000090A0C0D0F1112141617191B1D1F21221C
:10029000242628292B2D2E30313334353637383962
:1002A0003A3A3B3B3C3C3C3C3C3C3D3D3E3E3F4087
:1002B000414243444647494A4C4D4F515254565887
:1002C000595B5D5F6062646567696A6B6D6E6F70D4
:1002D00071727374747575767676767676767676D0
:1002E00076767676767676767676767777777777A9
:1002F000777777777777777777777777787878788A
:10030000787878787878787878787878787878786D
:100310007879797A7A7B7B7C7D7E7F7F808283840B
:10032000858687898A8B8C8E8F90919294959697EB
:1003300098999A9B9C9D9D9E9F9FA0A0A0A1A1A1E2
:10034000A1A1A1A2A2A3A3A4A5A6A7A9AAACADAF4F
:10035000B0B2B4B6B8BABCBEC0C2C4C6C8CACCCEAD
:10036000D0D2D4D6D8D9DBDCDEDFE0E1E2E3E3E4CF
:10037000E4E5E5E5E5E4E4E3E2E0DFDDDBD8D6D380
:10038000D0CDCAC6C2BFBBB7B3AFABA6A29E9A952B
:10039000918D8985817D7A7673706D6A67656361F9
:1003A0005F5E5C5B5B5A5A5A5A59595857565554B6
:1003B0005351504E4C4A484644423F3D3A383633FA
:1003C000302E2B292724221F1D1B1917151312103D
:1003D0000F0D0C0B0A090908080808080808080985
:1003E00009090A0A0A0B0B0C0D0D0E0E0F10101145
:1003F00012131314151516171818191A1A1B1B1C8B
:100400001D1D1E1E1E1F1F1F2020202020202020FB
:10041000202020201F1F1F1F1F1E1E1E1E1D1D1DF2
:100420001C1C1C1B1B1A1A1A191919181818171733
:10043000171616161615151515151414141414146C
:100440001414141414131313131212121111101084
:100450000F0F0E0E0D0D0C0B0B0A0A0908080707EB
:100460000606050404030303020201010101000062
:1004700000000039393939393838383737363635A8
:10048000343433323231302F2E2D2C2B2B2A292885
:10049000272625242323222120201F1E1E1D1D1C4C
:1004A0001C1C1B1B1B1B1B1B1B1B1B1A1A1A1919A1
:1004B00019181817161615141413121111100F0EFF
:1004C0000D0D0C0B0A0908080706060504040303B2
:1004D0000202010101000000000000000000000015
:1004E000000000000000000000000000000000000C
:1004F00000000000000000000000000000000000FC
:1005000000000000000000000000000000000000EB
:100510000101020304050607080A0B0D0F1113154C
:1005200017191B1D1F212426282A2C2E313335375D
:10053000383A3C3D3F404243444546464747484899
:10054000484849494A4B4C4E4F515356585B5D60A1
:1005500063666A6D7074787B7F83868A8E919598C6
:100560009C9FA2A5A8ABAEB0B3B5B7B9BBBCBDBE8E
:10057000BFC0C0C0C0C0C0C0C0C0BFBFBFBFBEBE84
:10058000BEBEBDBDBDBCBCBBBBBBBABAB9B9B8B8B9
:10059000B8B7B7B6B6B6B5B5B4B4B4B4B3B3B3B30D
:1005A000B3B2B2B2B2B2B2B2B2B2B2B2B2B2B2B329
:1005B000B3B3B3B3B3B4B4B4B4B4B5B5B5B5B6B6F8
:1005C000B6B6B7B7B7B7B7B8B8B8B8B9B9B9B9B9AF
:1005D000B9B9BABABABABABABABABABABABBBBBB7A
:1005E000BCBDBDBEBFC0C1C2C4C5C6C7C9CACCCDD3
:1005F000CFD0D2D4D5D7D8DADBDDDEE0E1E2E3E557
:10060000E6E7E8E9EAEAEBECECECEDEDEDEDEDED3B
:10061000ECECEBEAE9E8E7E5E4E2E1DFDDDBD9D7A2
:10062000D4D2D0CECBC9C6C4C2BFBDBBB8B6B4B29B
:10063000B0AEACAAA9A7A6A5A3A2A1A1A0A09F9F66
:100640009F9F9F9E9D9C9B9A99979593918F8D8A32
:10065000888582807D7A7773706D6A6764615E5B7E
:10066000585552504D4B48464442413F3E3C3B3B1F
:100670003A3939F3F3F3F3F3F3F3F3F3F2F2F2F27B
:10068000F2F2F2F1F1F1F1F1F0F0F0F0F0EFEFEF62
:10069000EFEFEEEEEEEEEEEDEDEDEDEDEDEDECEC83
:1006A000ECECECECECECECECECECECEBEBEBEBEA90
:1006B000EAE9E9E8E8E7E6E6E5E4E4E3E2E1E0E0E8
:1006C000DFDEDDDCDCDBDAD9D9D8D7D7D6D6D5D595
:1006D000D4D4D3D3D3D2D2D2D2D2D2D2D1D1D0CFFA
:1006E000CECCCBC9C7C5C3C0BEBBB9B6B3B0ADA92C
:1006F000A6A3A09C999693908C898683807E7B7913
:10070000767472706E6D6B6A696868676767676731
:1007100066666565646362615F5E5D5B5A585655E7
:1007200053514F4D4B4947454342403E3C3A383781
:10073000353332302F2E2D2C2B2A292828272727F6
:100740002727272726262625252423232221201F65
:100750001E1D1C1B1A1918171614131211100F0E38
:100760000D0B0A0908080706050404030302020228
:10077000010101010101010101020202020303035F
:10078000040404050506060707080809090A0A0BF8
:100790000B0C0C0D0D0E0E0F0F0F10101011111170
:1007A000111212121212121212121313141515161C
:1007B00017181A1B1C1E1F2122242628292B2D2F17
:1007C00031333536383A3C3E3F414244454748494B
:1007D0004A4B4C4D4D4E4E4F4F4F4F4F5051525331
:1007E0005557595B5D606366696D7174787C808470
:1007F000898D91969A9EA2A7ABAFB3B7BABEC2C578
:10080000C8CBCED0D2D4D6D8D9DADBDCDCDCDCDC89
:10081000DCDCDDDDDDDEDEDFDFE0E0E1E2E2E3E4E3
:10082000E4E5E6E7E8E9E9EAEBECEDEDEEEFF0F020
:10083000F1F2F2F3F4F4F5F5F5F6F6F6F7F7F7F76B
:10084000F7F7F7F7F7F7F7F7F7F7F7F7F6F6F6F63C
:10085000F6F6F6F6F6F6F5F5F5F5F5F5F5F5F4F444
:10086000F4F4F4F4F4F4F4F4F3F3F3F3F3F3F3F350
:10087000F3F3F30011241FBECFE5D8E0DEBFCDBFF8
:1008800011E0A0E6B0E0E8EDFAE202C005900D92BA
:10089000A237B107D9F723E0A2E7B1E001C01D926A
:1008A000A236B207E1F70E94970E0C946A150C94D9
:1008B0000000A82FB92F80E090E041E050EA609559
:1008C00030E009C02D9182279795879510F08427F5
:1008D0009527305EC8F36F5FA8F30895EADF8D9324
:1008E0009D930895CF93CFB7CF93DF93C395839B09
:1008F000E9F7839B0BC0839B09C0839B07C0839B45
:1009000005C0839B03C0839B01C08EC06F93C091C1
:100910003903DD27C05CDC4F2F9365E5839B03C063
:100920002F916F91E6CF0F931F934F9320E040E1FB
:100930005F9300B30C7003FB27F93F9350E03BE05B
:1009400039C01C7040642F77012F5F5F1EC0406864
:1009500010B31C702F7752501FC0406400B32F7724
:100960000C70D1F15F5F00C023C0406210B32F77DD
:100970001C7091F15F5F00C025C00C7010275150B2
:1009800012F45D5F0000115027952C3F10B3C8F69C
:100990001C700127015027952C3FC8F64227499328
:1009A00000B30C7010274F73115027952C3FA8F6F9
:1009B0004695469510B31C7079F001270150279594
:1009C0002C3F98F66B5A60F3315000B3B0F600C07C
:1009D00010E41ABF00271CC03B503195C31BD04008
:1009E00010E41ABF0881033C21F10B3411F120916E
:1009F00037031981110F1213EDCF4A81441F0936B5
:100A000069F10D3211F0013E29F74F7009F0042F02
:100A100000933E033F915F914F911F910F912F9152
:100A20006F91CAB7C6FD62CFDF91CF91CFBFCF9193
:100A3000189520913E03222369F310913C03112362
:100A4000E9F53430EAF130933C03209338031091F8
:100A500039033BE0311B3093390332C000913C0332
:100A6000013064F50AE54F7049F43091710134FDAD
:100A700028C000937101C0E2D3E027C0423049F0A2
:100A800030912B0334FD1DC000932B03CCE2D3E047
:100A90001CC03091560334FD14C000935603C7E5C3
:100AA000D3E013C0052710E000C0000002BB1AC04D
:100AB000052710E0221F1DC010E021C04AE502C03A
:100AC00032ED432FC4E1D0E032E011B31C60939AC1
:100AD00002B311BB5CE020E865E320FF052702BB01
:100AE000279517951C3FF0F66695B8F7B1F720FFEC
:100AF000052702BB279517951C3FD0F6279517951C
:100B000017FF052700001C3F02BBB0F629913A955C
:100B100019F7037F10913D03110FC651D04002BB5E
:100B200011F01093370310E41ABF086011B3137F5C
:100B3000402F437F54E05A95F1F702BB11BB42BBF3
:100B400069CF8091A602811102C080E008951092C1
:100B5000A602A0917401B0E0CD0101968F71992792
:100B600020917301281789F0AA0FBB1FAA0FBB1F82
:100B7000AA0FBB1FAB58BE4F98E0E2E8F2E001902D
:100B80000D929A95E1F7809374010E94041380916D
:100B90003F03882321F080912B0384FD02C081E074
:100BA000089580917301909174019817C1F390E0BA
:100BB000880F991F880F991F880F991F68E08B581D
:100BC0009E4F0E94B8128091730190E001968F7140
:100BD00099278093730181E008958091D7029091C5
:100BE000CC02981729F18093CC0281E02091DC029D
:100BF0003091DD024091D2025091D3024217530747
:100C0000C9F03093D3022093D2022091DE023091BA
:100C1000DF028091D5029091D60282179307C9F026
:100C20003093D6022093D50283E08093E1020895A9
:100C300080E0DCCF2091DE023091DF024091D502CE
:100C40005091D6024217530759F7882381F381E068
:100C5000ECCF82E0EACF80919A02909182029817BD
:100C6000D1F18093820281E090919B0220918402D5
:100C7000291719F09093840281E090919C022091B1
:100C80008502291719F09093850281E090919D02C9
:100C900020918602291719F09093860281E09091A5
:100CA0009E0220918702291719F09093870281E014
:100CB00090919F0220918802291779F090938802E1
:100CC0009091A0028091890298139093890281E00B
:100CD0008093A602089580E0C7CF9091A002209152
:100CE00089022913F2CF8111F2CF0895CF93809119
:100CF000E102882381F081E0809372010E94041355
:100D00008091560384FD0BC0809172018F5F8093A8
:100D10007201823398F3C0E08C2FCF910895C09177
:100D2000E102C13089F0C230B9F0C33021F0C1E036
:100D30008C2FCF91089563E084ED92E00E94DE1243
:100D40001092E102C1E0E8CF66E08BEC92E00E94F5
:100D5000DE121092E102E0CF63E081ED92E00E94AA
:100D6000DE121092E102C1E0D7CF0E9404138091FD
:100D70003F03882319F080912B0384FF089580910D
:100D80007301909174019817C9F390E0880F991F2F
:100D9000880F991F880F991F68E08B589E4F0E94FB
:100DA000B8128091730190E001968F71992780931A
:100DB0007301089590919B02891711F120919C0273
:100DC0008217F1F030919D028317D1F040919E027D
:100DD0008417B1F050919F02851791F06091A002A5
:100DE000681771F0992371F02223A1F03323A9F041
:100DF0004423B1F05523B9F06623C1F080E0089593
:100E000081E0089520E030E0F901E656FD4F81834E
:100E100081E0089521E030E0F7CF22E030E0F4CF28
:100E200023E030E0F1CF24E030E0EECF25E030E009
:100E3000EBCFEAE9F2E09081892B80830895E7ED1A
:100E4000F2E09081892B8083089590E09093DD02F9
:100E50008093DC020895982F907F9039D9F038F074
:100E6000903C91F0903E81F0903B71F0089590326B
:100E700021F0903879F09111F9CF90E09260909341
:100E8000DF028093DE02089590E09093DF0280936A
:100E9000DE02089590E091609093DF028093DE027D
:100EA0000895E7EDF2E0108216821582108617820F
:100EB000089586E0EBE9F2E0DF011D928A95E9F7FB
:100EC00010929A0208958091D70281112FC08091CB
:100ED000DC029091DD02892B49F58091DE02909130
:100EE000DF02892B19F580919B0281111FC080912F
:100EF0009C0281111BC080919D02811117C08091BD
:100F00009E02811113C080919F0281110FC08091B8
:100F1000A00281110BC080919A02811107C081E06B
:100F20009091EE02911103C080E0089581E0089550
:100F3000CF92DF92EF92FF920F931F93CF93DF93A5
:100F400080E090E00E944215EC0182E090E00E9477
:100F500042158C0184E090E00E9442157C0186E0FD
:100F600090E00E9442156C0188E090E00E944215DA
:100F70002A9749F0DF91CF911F910F91FF90EF9049
:100F8000DF90CF9008950F301105A1F72EE1E21602
:100F9000F10481F7E9E6CE16D10461F7843B9105AF
:100FA00049F78AE090E00E943A1580938A008BE02E
:100FB00090E00E943A1580938B008CE090E00E94B4
:100FC0003A1580938C008DE090E00E943A15809352
:100FD0008D008EE090E00E943A1580938E008FE0A5
:100FE00090E00E943A1580937B0080E190E00E949F
:100FF0003A1580937C0081E190E00E943A1580933D
:101000007D0082E190E00E943A1580937E0083E1AA
:1010100090E00E943A1580937F0084E190E00E9466
:101020003A158093800085E190E00E943A15809304
:10103000810086E190E00E943A158093820087E16A
:1010400090E00E943A158093830088E190E00E942E
:101050003A158093840089E190E00E943A158093CC
:1010600085008AE190E00E943A15809386008BE12A
:1010700090E00E943A15809387008CE190E00E94F6
:101080003A15809388008DE190E00E943A15809394
:1010900089000FE810E0C0E0D0E0CE014E960E943B
:1010A0003A15F8018083CE014F960E943A15F80157
:1010B0008183CE0180960E943A15F8018283CE0189
:1010C00081960E943A15F8018383CE0182960E9490
:1010D0003A15F8018483CE0183960E943A15F801EF
:1010E0008583CE0184960E943A15F8018683CE014D
:1010F00085960E943A15F8018783CE0186960E9454
:101100003A15F8018087CE0187960E943A15F801BA
:101110008187CE0188960E943A15F8018287CE0118
:1011200089960E943A15F8018387CE018A960E941B
:101130003A15F8018487CE018B960E943A15F80182
:101140008587CE018C960E943A15F80186872F96E6
:10115000015F1F4FCB34D10509F09FCF0AED10E09E
:10116000C0E0D0E0CE0187599F4F0E943A15F801A8
:101170008083CE0186599F4F0E943A15F8018183E2
:10118000CE0185599F4F0E943A15F8018283CE0106
:1011900084599F4F0E943A15F8018383CE018359E9
:1011A0009F4F0E943A15F8018483CE0182599F4FC8
:1011B0000E943A15F8018583CE0181599F4F0E9404
:1011C0003A15F8018683CE0180599F4F0E943A1547
:1011D000F8018783CE018F589F4F0E943A15F8017E
:1011E0008087CE018E589F4F0E943A15F801818763
:1011F000CE018D589F4F0E943A15F8018287CE018B
:101200008C589F4F0E943A15F8018387CE018B5866
:101210009F4F0E943A15F8018487CE018A589F4F4C
:101220000E943A15F8018587CE0189589F4F0E9488
:101230003A15F80186872F96015F1F4FCB34D105F1
:1012400009F090CF05E211E0C0E0D0E0CE018C546F
:101250009F4F0E943A15F8018083CE018B549F4F17
:101260000E943A15F8018183CE018A549F4F0E9453
:101270003A15F8018283CE0189549F4F0E943A1596
:10128000F8018383CE0188549F4F0E943A15F801DC
:101290008483CE0187549F4F0E943A15F8018583BD
:1012A000CE0186549F4F0E943A15F8018683CE01E5
:1012B00085549F4F0E943A15F8018783CE018454CC
:1012C0009F4F0E943A15F8018087CE0183549F4FAB
:1012D0000E943A15F8018187CE0182549F4F0E94E7
:1012E0003A15F8018287CE0181549F4F0E943A152A
:1012F000F8018387CE0180549F4F0E943A15F80170
:101300008487CE018F539F4F0E943A15F80185873D
:10131000CE018E539F4F0E943A15F80186872F9673
:10132000015F1F4FCB34D10509F090CFC7EAD2E05F
:101330000FEF10E0075A1240C8018C0F9D1F0E944A
:101340003A158993F2E0CB3CDF07B1F783E291E0F5
:101350000E943A158093F1020DCECF93DF9368304F
:1013600019F0DF91CF910895EC0128812F3F09F406
:101370005AC02091A2022111F4CFFC0188E0AAE713
:10138000B2E0ED0119928A95E9F7808180937A02A3
:10139000818180937B02828180937C028381809310
:1013A0007D02848180937E02858180937F02868185
:1013B00080938002878180938102C0917A02D091CC
:1013C0007B020E94B40ECF3FE3E0DE0780F0CE0147
:1013D00002968F3FF3E09F07E8F0CE0104968F3F1F
:1013E00023E0920770F0DF91CF910C94C60EE19943
:1013F000FECF60917C0270917D02CE010E94481563
:10140000E6CFE199FECF60918002709181020E9447
:101410004815E9CFE199FECF60917E0270917F027D
:101420000E944815DACF2981213F71F0223F09F04F
:10143000A0CF8091A202811194CF82E08093A2027A
:10144000DF91CF910C94C60E8091A202813009F0F9
:1014500088CF1092A20285CF90E08032910540F4AF
:10146000FC01E65DFF4F0C9425156111D7C08F98E4
:101470000895662309F494C08E9A0895662309F4AA
:1014800091C08D9A0895662309F48EC08C9A0895B0
:10149000662309F48BC08B9A0895662309F48AC0E9
:1014A0008A9A0895662309F483C0889A089566236A
:1014B00009F482C0899A0895662309F47FC0A79A27
:1014C0000895662309F482C0A69A0895662309F454
:1014D00079C0A29A0895662309F47CC0A49A08955D
:1014E000662309F46DC0A09A0895662309F470C0BC
:1014F000A59A0895662309F467C0A19A0895662302
:1015000009F46AC0A39A0895662309F467C0BF9AD4
:101510000895662309F472C0BE9A0895662309F4FB
:1015200065C0D69A0895662309F470C0BA9A0895E2
:10153000662309F457C0D29A0895662309F462C05D
:10154000BC9A0895662309F455C0D49A0895662379
:1015500009F460C0B89A0895662309F441C0D09A8E
:101560000895662309F44CC0BD9A0895662309F4D2
:101570003FC0D59A0895662309F44AC0B99A0895E0
:10158000662391F1D19A08956623F1F1BB9A0895EB
:10159000662391F1D39A08956623F1F1D79A0895BD
:1015A0008E9808958D9808958C9808958B98089535
:1015B000889808958A98089589980895A798089515
:1015C000A0980895A2980895A1980895A6980895BE
:1015D000A5980895A4980895A3980895BF9808958C
:1015E000D0980895D2980895D1980895D6980895DE
:1015F000D5980895D4980895D3980895BE980895DD
:10160000BD980895BC980895BB980895BA98089518
:10161000B9980895B8980895D79808958F9A08951D
:1016200090E08032910540F4FC01E65BFF4F0C94A2
:1016300025156111D7C097980895662309F494C0C1
:10164000969A0895662309F491C0959A08956623A1
:1016500009F48EC0949A0895662309F48BC0939A76
:101660000895662309F48AC0929A0895662309F4BE
:1016700083C0909A0895662309F482C0919A0895D0
:10168000662309F47FC0AF9A0895662309F482C0E7
:10169000AE9A0895662309F479C0AA9A089566233C
:1016A00009F47CC0AC9A0895662309F46DC0A89A29
:1016B0000895662309F470C0AD9A0895662309F46D
:1016C00067C0A99A0895662309F46AC0AB9A089581
:1016D000662309F467C0C79A0895662309F472C0A7
:1016E000C69A0895662309F465C0DE9A08956623B4
:1016F00009F470C0C29A0895662309F457C0DA9AB3
:101700000895662309F462C0C49A0895662309F413
:1017100055C0DC9A0895662309F460C0C09A089504
:10172000662309F441C0D89A0895662309F44CC091
:10173000C59A0895662309F43FC0DD9A089566238B
:1017400009F44AC0C19A0895662391F1D99A08957F
:101750006623F1F1C39A0895662391F1DB9A089507
:101760006623F1F1DF9A0895969808959598089563
:10177000949808959398089590980895929808954C
:1017800091980895AF980895A8980895AA980895F3
:10179000A9980895AE980895AD980895AC980895C5
:1017A000AB980895C7980895D8980895DA98089541
:1017B000D9980895DE980895DD980895DC980895E5
:1017C000DB980895C6980895C5980895C49808951B
:1017D000C3980895C2980895C1980895C09808952F
:1017E000DF980895979A089590E08032910510F05F
:1017F00080E00895FC01E659FF4F0C94251580B355
:101800008074089580B38072089580B380710895C4
:1018100080B38870089580B38470089580B3827017
:10182000089580B38170089583B38078089583B359
:101830008074089583B38072089583B3807108958E
:1018400083B38870089583B38470089583B38270DE
:10185000089583B38170089586B38078089586B320
:101860008074089586B38072089586B38071089558
:1018700086B38870089586B38470089586B38270A5
:10188000089586B38170089589B38078089589B3E7
:101890008074089589B38072089589B38071089522
:1018A00089B38870089589B38470089589B382706C
:1018B000089589B38170089580B380780895843045
:1018C00031F09091EE02892B8093EE020895909171
:1018D0008202992389F190919B02953391F3209193
:1018E0009C02253371F330919D02353351F34091C1
:1018F0009E02453331F350919F02553311F36091AD
:10190000A0026533F1F2992309F447C0222309F4B8
:101910004AC0332309F450C0442309F453C055236B
:1019200009F453C06111CDCF25E030E0F901E6564E
:10193000FD4F95E39183C5CF90919B02993209F2B7
:1019400020919C02293209F4BCCF30919D0239329A
:1019500009F4B7CF40919E02493209F4B2CF5091B9
:101960009F02593209F4ADCF6091A002693209F4A7
:10197000A8CF9923A9F02223C9F03323D1F044231F
:10198000F1F0552329F161119CCF25E030E0F901F8
:10199000E656FD4F99E2918394CF20E030E0C6CF28
:1019A00020E030E0F4CF21E030E0C0CF21E030E0B3
:1019B000EECF22E030E0EBCF22E030E0B7CF23E003
:1019C00030E0E5CF23E030E0B1CF24E030E0AECF2F
:1019D00024E030E0DCCF8091EE029091F202981783
:1019E00021F08093F20281E0089580E00895FF9253
:1019F0000F931F93CF93DF938C01E2E9F2E088E02D
:101A0000DF011D928A95E9F70E94041380913F033C
:101A10008823D1F380912B0384FFF6CF80E4809359
:101A200092021092940268E082E992E00E94B81259
:101A30000E940413E8010B5F1F4F82E6F82E0E94FC
:101A4000041380913F038823D1F380912B0384FFFB
:101A5000F6CFF09294028991882319F0885A8093E6
:101A6000940268E082E992E00E94B8120E94041396
:101A70000E94041380913F038823D1F380912B03AC
:101A800084FFF6CF1092940268E082E992E00E940F
:101A9000B8120E9404130C171D0789F60E94041344
:101AA00080913F038823D1F380912B0384FFF6CFED
:101AB000109292021092940268E082E992E00E94F1
:101AC000B812DF91CF911F910F91FF900C940413E6
:101AD0005F926F927F928F929F92AF92BF92CF92BE
:101AE000DF92EF92FF920F931F93CF93DF9300D07B
:101AF00000D01F92CDB7DEB78C010E9442156C0159
:101B0000892B09F4C8C00E5F1F4F013024E0120773
:101B100008F0C1C0E12CF12CA2E9AA2EA2E0BA2E55
:101B2000B8E07B2E11C0582E8111CAC0FFEFEF1A0A
:101B3000FF0ACE14DF0409F4AEC00E5F1F4F013060
:101B400034E0130708F0A7C0C8010E9442154C01F9
:101B5000692C992041F39C01ADECBCEC0E942B1543
:101B6000AC015695479556954795569547959A01D8
:101B7000220F331FCA01880F991F880F991F880FE2
:101B8000991F820F931FF401E81BF90BED839A0153
:101B90000E942B159695879596958795969587958E
:101BA0009C01220F331F880F991F880F991F880FE0
:101BB000991F820F931F481B590B4C839401369534
:101BC000279536952795ABE7B4E10E942B15AC011C
:101BD000569547959A01ADECBCEC0E942B15969555
:101BE000879596958795969587959C01220F331F2B
:101BF000880F991F880F991F880F991F820F931FB5
:101C0000481B590B4B83940136952795369527959C
:101C100036952795A5ECB0E20E942B15AC015295A4
:101C200042954F7045275F7045279A01ADECBCEC9B
:101C30000E942B15969587959695879596958795ED
:101C40009C01220F331F880F991F880F991F880F3F
:101C5000991F820F931F481B590B4A839401329599
:101C600022952F7023273F702327A7E4B3E00E941B
:101C70002B15969587959695879596958795898343
:101C8000CE0101960E94F70CFFEFEF1AFF0ACE1467
:101C9000DF0409F052CF0F900F900F900F900F902C
:101CA000DF91CF911F910F91FF90EF90DF90CF9038
:101CB000BF90AF909F908F907F906F905F900895AE
:101CC000F501272D11922A95E9F70E9404139091AE
:101CD0003F039923D1F380912B0384FFF6CF57FC68
:101CE00023C060929202282D2F772093940268E0FF
:101CF00082E992E00E94B8120E9404130E94041329
:101D000090913F039923D1F380912B0384FFF6CF69
:101D1000109292021092940268E082E992E00E948E
:101D2000B8120E94041302CFF0E26F2EDACF0C94A7
:101D300043111092F502E0E0F0E0E558FF4F60E05B
:101D400080810E942C0AE091F502F0E0E558FF4FF7
:101D500061E080810E94100BE091F502EF5FE0935B
:101D6000F502EF3048F308951092F502E0E0F0E05C
:101D7000E858FF4F61E080810E94100BE091F5026E
:101D8000EF5FE093F502E33090F308951092F502CF
:101D9000E0E0F0E0E858FF4F60E080810E94100B27
:101DA000E091F502EF5FE093F502E33090F30895E0
:101DB000EF92FF920F931F93CF93DF931092F50250
:101DC00080E0C1E0D0E00BC060E080810E94100B99
:101DD0008091F5028F5F8093F5028330F0F4282F15
:101DE00030E0AE0102C0440F551F8A95E2F78091A2
:101DF000A10290E084239523F901E858FF4F48178A
:101E0000590711F761E080810E94100B8091F50263
:101E10008F5F8093F502833010F38091770280FF0B
:101E20004AC061E08CE10E94100B80911C039091EC
:101E30001D03811520E1920708F442C080917702CA
:101E400081FF5FC000E610E087EAE82E82E0F82E0E
:101E5000C0E0D0E00DC0882309F441C021960E5F98
:101E60001F4FF3E0EF0EF11CCC30D10509F44BC04D
:101E70008091F1028F70813071F7F80120813181FA
:101E80002115F2E03F0798F5F901ED58F94FA90146
:101E90004D585B4F2D583D4F6491FA014491F90123
:101EA0002491CE010E94FC14F80180819181019659
:101EB00091838083D3CF60E08CE10E94100BB5CF7B
:101EC000009791F580E090E190931D0380931C03AF
:101ED000DF91CF911F910F91FF90EF900895F7013F
:101EE000228141816081CE010E94FC14B7CFF801AC
:101EF0001182108223E732E043E754E0E3E7F6E0A3
:101F0000CBCF0E94F41480911C0390911D03019784
:101F100090931D0380931C03DF91CF911F910F912C
:101F2000FF90EF900C940815019790931D038093F8
:101F30001C03DF91CF911F910F91FF90EF900895B7
:101F4000EF92FF920F931F93CF93DF931092F402BF
:101F500080E0C1E0D0E01FE09FE0F92E06E0EE2433
:101F6000E3948D5F9E0102C0220F331F8A95E2F732
:101F7000C90127BB809588BB1092F602E0E008C03B
:101F80008C9187778C93EF5FE093F602EF3008F542
:101F9000F0E0E558FF4F80810E94F40BE091F602DB
:101FA000A091F4021A9FD0011124AB5DBE4FAE0F79
:101FB000B11D8111E5CF8C9188688C9300937602D6
:101FC0008E3E09F7F092F702EF5FE093F602EF30F2
:101FD000F8F217BAE8BA8091F4028F5F8093F402A6
:101FE000853008F4BECF0E9459070E945107109215
:101FF000EE021092F40240E0CFE01092F60290E080
:102000001DC0803B09F4D5C008F48FC0803D09F4A1
:10201000C4C0803F09F4B5C0803C59F421573F4FFC
:10202000E20FF31F80810E9425074091F4029091F6
:10203000F6029F5F9093F6029F3068F5E92FF0E07B
:10204000C49F90011124D901AB5DBE4FAE0FBF1FDD
:102050005C918091F70285238F3009F4C3C088F624
:102060008B3009F474C008F04DC0893009F47CC08D
:102070008A30F9F6A90146525F4FE40FF51F8081BF
:102080000E9419074091F4029091F6029F5F90938D
:10209000F6029F3098F24F5F4093F402453008F407
:1020A000ACCF0E946307811103C080EF8093F702D9
:1020B0000E94EB0C882319F083E0809375020E9444
:1020C0002B06882319F083E0809375020E94ED05AA
:1020D0008111A1C080917602863009F4A4C08130BC
:1020E00009F4A9C0909175028111A1C0992319F03A
:1020F000915090937502DF91CF911F910F91FF90B6
:10210000EF9008958C3009F460C08D3009F091CFC4
:10211000A90146525F4FE40FF51F80810E942B07F3
:102120004091F4029091F60284CF803909F467C09F
:10213000803A09F07ECF21573F4FE20FF31F808195
:102140000E9419074091F4029091F60272CFA90102
:1021500046525F4FE40FF51F80810E941F07409198
:10216000F4029091F60265CFA90146525F4FE40F49
:10217000F51F80810E94DA064091F4029091F602E8
:1021800058CF21573F4FE20FF31F80810E945F0C11
:102190004091F4029091F6024CCF21573F4FE20F4D
:1021A000F31F80810E942B074091F4029091F60268
:1021B00040CF21573F4FE20FF31F80810E941F073E
:1021C0004091F4029091F60234CFA90146525F4F3C
:1021D000E40FF51F80810E9425074091F402909141
:1021E000F60227CFC90186529F4FE80FF91F808161
:1021F0000E945F0C4091F4029091F6021ACF215791
:102200003F4FE20FF31F80810E94DA064091F402F3
:102210009091F6020ECF83E0809375028091760252
:10222000863009F05CCF909175029130C1F08150F9
:10223000809376025BCF9091F2028091770289279A
:102240008093770293FF04C089E291E00E94680DB9
:102250000E94A1050E9476068091760243CF90915C
:10226000F2028091770289278093770293FF04C05E
:1022700089E291E00E94680D0E94A1050E94760605
:10228000809176022CCF0E94B4110E94990E17BA49
:1022900081E088BB01E010EF82E0F82EC0E0D0E1E1
:1022A0000093A2020E9459070E9451070E949807BA
:1022B0001093F7021092F502E0E0F0E0E858FF4FCB
:1022C00061E080810E942C0AE091F502F0E0E8587C
:1022D000FF4F60E080810E94100BE091F502EF5FFC
:1022E000E093F502E33048F361E08CE10E942C0AB0
:1022F00060E08CE10E94100B109277028091F10255
:10230000807F803111F4F09277020E94F214D09312
:102310001D03C0931C030E94F4140E9408152FEFA4
:1023200089E698E1215080409040E1F700C000002C
:102330000E94A1050E94B5068091A202823009F494
:10234000AFCF8130B9F70E94A00F80913F0388235F
:1023500089F380912B0384FFEDCF80917502811169
:10236000E9CF0E94D80EE6CF89B78E7F89BF89B7A3
:102370008B7F89BF89B78F7B89BF8D98959A0E9483
:10238000DF148B9A8FEFA895AFE9BFE01197F1F7B3
:1023900000C000008150B9F78B98789488E0E2E99A
:1023A000F2E0DF01382F1D923A95E9F7E2E8F2E01A
:1023B000DF01382F1D923A95E9F79DE0EAE9F2E056
:1023C000DF011D929A95E9F791E09093A2022CE02B
:1023D000E2EEF2E0DF01322F1D923A95E9F7EBECE5
:1023E000F2E0DF011D922A95E9F72BE0E7EDF2E03C
:1023F000DF011D922A95E9F79093CB0292E090932A
:10240000D10293E09093D402EAE8F2E0DF01382FA2
:102410001D923A95E9F7EAE7F2E0DF011D928A950D
:10242000E9F71092EE021092F2020895FC019093E7
:102430001F0380931E0390819076903211F080E00C
:1024400008958181813069F0823099F08A3021F1DC
:102450008930A9F7828193818115924091F08FEFA5
:10246000089582E892E090933B0380933A0388E0DA
:10247000089588E792E090933B0380933A0381E0CC
:10248000089584819581892B51F78091A1028068FC
:102490008093A1028FEF089583818093780280E07A
:1024A0000895FC019091A10297FD02C08FEF08955D
:1024B00080818093A10281E00895FC019381923094
:1024C00079F120F1913291F09232F1F48481958189
:1024D00081309105A9F1E0F10297B1F48AE991E028
:1024E00090933B0380933A0385E108958281813084
:1024F000F9F0B0F1823041F488E591E090933B032C
:1025000080933A0389E0089580E008959130E1F7DF
:1025100088E691E090933B0380933A0382E108952B
:1025200084E191E090933B0380933A0384E508951E
:102530008FE391E090933B0380933A0389E0089501
:102540008FEA91E090933B0380933A0384E80895E7
:1025500083E392E090933B0380933A0380E40895F1
:1025600086E291E090933B0380933A0389E00895DB
:10257000CF9320912B032E31C1F020912B0324FD0A
:1025800016C02AE520932B03FC01ADE2B3E0862FB1
:1025900091919D938150E1F7C62F8DE293E00E94C7
:1025A0006E0464E06C0F60932B03CF91089530911B
:1025B0002C0328E8232720932C03E6CFCF932091E8
:1025C0002B032E31C1F02091560324FD16C02AE5BD
:1025D00020935603FC01A8E5B3E0862F91919D93CB
:1025E0008150E1F7C62F88E593E00E946E0464E015
:1025F0006C0F60935603CF9108953091570328E8EC
:10260000232720935703E6CFCF93DF9360913C03BA
:10261000635067FD17C0209139038CE090E0821B66
:102620009109EC01C05CDC4F80913803803108F4E3
:1026300094C08D3209F495C08091790287FDEDC078
:1026400010923C038091710184FF61C06091700120
:102650006F3F09F45CC0693008F46BC06850609348
:1026600070019091200388E8892780932003CCE0B3
:1026700068E0A0913A03B0913B038091790286FF14
:102680008FC0FD0184918093210331968FEF860FD7
:1026900009F42DC0E491E0932203FD0132966230EB
:1026A00031F1E491E0932303FD0133966330F9F0B7
:1026B000E491E0932403FD0134966430C1F0E49189
:1026C000E0932503FD013596653089F0E491E093B0
:1026D0002603FD013696663051F0E491E09327031E
:1026E000FD013796673019F0E491E093280390E0FC
:1026F0000196A80FB91FB0933B03A0933A0381E260
:1027000093E00E946E04CC3021F5C093710194E1F6
:1027100080B38C7059F49150D9F710923D03109208
:1027200037038AE580932B0380935603DF91CF9183
:102730000895109270019091200388E88927809372
:102740002003611196C060E081E293E00E946E0474
:10275000C4E08FEF80937001D8CFCE010E94AD0905
:102760006FCF683009F06CCF83EC809320038AE54B
:1027700080937101109279029881892F807609F4F3
:102780005BC0CE010E9416128F3F09F069C098818C
:1027900097FD9CC090E8909379028093700150CF90
:1027A0008C91809321038FEF860F09F4A0CF1196AF
:1027B0009C91119790932203623009F498CF12965E
:1027C0009C91129790932303633009F490CF139652
:1027D0009C91139790932403643009F488CF149646
:1027E0009C91149790932503653009F480CF15963A
:1027F0009C91159790932603663009F478CF16962E
:102800009C91169790932703673009F470CF179621
:102810009C911797909328036ACFCE010E94511282
:102820008F3F31F0882309F40BCF1092700108CF4D
:102830008EE18093710104CF2A813C81109229039B
:102840008981811119C09F71923009F441C01092A1
:102850002A0329E233E082E030933B0320933A03DA
:102860009F8191119ACF9E81981708F096CF892F5A
:1028700094CFC4E0C60FFDCE982F9D7F913099F084
:10288000853009F444C0863009F447C08830D9F156
:10289000893071F18A3041F18B3009F450C029E25E
:1028A00033E080E0D9CF2111FACF3138C1F7813040
:1028B00009F443C08EE180932B038BE480932C03B7
:1028C0008093570329E233E080E0C6CF8E8162CF48
:1028D000313809F0BCCF90912B0381E09E3109F093
:1028E00080E080932903B3CF29E233E081E0B4CFC5
:1028F00020933F038AE580932B038093560329E2BC
:1029000033E080E0A9CF2FE333E081E0A5CF20932F
:102910003D0329E233E080E09FCF8B81813099F144
:10292000823049F18330E9F0813299F0823269F0E6
:1029300080E090E49093790227CF8AE5BCCF8BE4C6
:1029400080932C0380935703D5CFCE010E945D1254
:10295000F0CF86E291E090933B0380933A0389E0C5
:10296000E8CF211118C086E991E090933B03809352
:102970003A0384E0DECF84E191E090933B038093BF
:102980003A0384E5D6CF88E691E090933B038093A9
:102990003A0382E1CECF213051F0223049F68AE766
:1029A00091E090933B0380933A0382E1C2CF8CE89D
:1029B00091E090933B0380933A038AE0BACF85B7C6
:1029C000826085BF8BB780648BBFABE2B3E08BE4E2
:1029D00011968C931197E6E5F3E081838AE58C9359
:1029E00080830895A19A089584E2E8EFF2E0DF0180
:1029F0001D928A95E9F70895FC01EE0FFF1F8E0FD7
:102A00009F1FFC01E850FD4F40836183228308959E
:102A1000F89425B32D7F95B39260E8EFF2E08191B1
:102A200038E095BB000000C087FF25BB880F000081
:102A300000C000C000C025BB00C03A9591F783E0FC
:102A4000EC31F80761F778940895EE0FFF1F0590B9
:102A5000F491E02D0994A29FB001B39FC001A39F00
:102A6000700D811D1124911DB29F700D811D1124C7
:102A7000911D0895E199FECF9FBB8EBBE09A9927E7
:102A80008DB30895A8E1B0E042E050E00C944F15FA
:102A90000E945D15272F0C945E15DC01CB01FC0113
:102AA000E199FECF06C0FFBBEEBBE09A31960DB2B6
:102AB0000D9241505040B8F70895262FE199FECF6E
:102AC0009FBB8EBB2DBB0FB6F894E29AE19A0FBE66
:082AD00001960895F894FFCF70
:102AD80000002200440066008800AA00AA008800BE
:102AE800660044002200000018191E0001020304B9
:102AF8000506071716151413121F0B0C0D0E0F04DD
:102B08001E1F20212223242526272D2E352A2B146B
:102B18001A0815171C180C12132F30310039041617
:102B280007090A0B0D0E0F333400280002001D1B85
:102B3800061905111036373820521001000400001C
:102B480000002C00400050514F00353A3B3C3D3EC0
:102B58003F404142434445004C2B595A5B5C5D5E03
:102B68005F606162565731003901040200000000BD
:102B780000000000002800020053474946010200F7
:102B8800EAE9E2205210010004000000002C004095
:102B98000050514F00711111111111111111111122
:102BA800111110111111111111111111111111110E
:102BB8001111001113131310101010101010100021
:102BC80011002200111111111717101515152211D6
:102BD8002222662200000000110022661111110055
:022BE800FF5A92
:00000001FF
