:100000000C944D010C9485010C946A010C946A01C6
:100010000C946A010C946A010C946A010C946A01B4
:100020000C946A010C946A010C946A010C946A01A4
:100030000C946A010C946A010C946A010C946A0194
:100040000C946A010C946A010C946A010C946A0184
:100050000C946A01EC050006D8050806E205F605D1
:10006000CE050C06E705FB05D3050406DD05F10505
:10007000C905C405B005BA05A605BF05AB05B5059C
:10008000A1059C05920597058D05880583057E05CC
:1000900079057505D006E406BC06EC06C606DA0648
:1000A000B206F006CB06DF06B706E806C106D5069F
:1000B000AD06A80694069E068A06A3068F06990634
:1000C0008506800676067B0671066C066706620664
:1000D0005D06590699079607930790078D078A07CB
:1000E0008707840781077E077B07780775077207F4
:1000F0006F076C0769076607630760075D075A07A4
:100100005707540751074E074B0748074507420753
:100110003F079C0709025B00030100A0FA090400E5
:100120000001030101000921011100012240000723
:10013000058103080001090401000103010200090F
:100140002101110001228400070582030800010932
:100150000402000203000000092101110001222213
:1001600000070583030800010705040308000112C6
:1001700001011000000008CCCC1235010001020082
:10018000010631FF0974A1010975150026FF0095CC
:1001900008750881020976150026FF009508750884
:1001A0009102C005010902A10185010901A1000513
:1001B00009190129051500250175019505810275AB
:1001C00003950181030501093009311581257F75EA
:1001D000089502810609381581257F35004500758F
:1001E0000895018106050C0A38021581257F7508DE
:1001F00095018106C0C005010980A1018502150194
:1002000026B700190129B7751095018100C0050CAA
:100210000901A10185031501269C0219012A9C02EE
:10022000751095018100C005010906A101750195B0
:1002300008050719E029E7150025018102950175D8
:100240000881039505750105081901290591029595
:10025000017503910395067508150026FF00050733
:10026000190029FF8100C01201100100000008CC14
:10027000CC123501030102000112037600750073F0
:100280000062005F006B00650079000A037A006974
:100290000061006E00040309040011241FBECFE5B5
:1002A000D8E0DEBFCDBF11E0A0E6B0E0E6EEF9E1B8
:1002B00002C005900D92A43EB107D9F723E0A4EE49
:1002C000B1E001C01D92A631B207E1F70E946109B9
:1002D0000C94F10C0C940000A82FB92F80E090E052
:1002E00041E050EA609530E009C02D918227979552
:1002F000879510F084279527305EC8F36F5FA8F3C9
:100300000895EADF8D939D930895CF93CFB7CF9350
:10031000C395839BE9F7839B09C0839B07C0839B9D
:1003200005C0839B03C0839B01C0A6C0DF93C0911F
:10033000ED02DD27CC50DD4F839B02C0DF91EBCF78
:100340002F930F931F9300B32FEF03FB20F94F93CD
:100350003F9310B34FEF012703FB21F93BE031C07E
:100360004E7F012F10B3216028C0102F4D7F2260D7
:10037000000000B329C04B7F2460012F000010B3A0
:100380002BC010B3477F28602AC04F7E00B3206186
:100390002CC04F7D10B320622FC04F7B00B3206470
:1003A00032C0422700B349934FEF0000102713FBE0
:1003B00020F910B31C70C9F1297F91F2012703FBCA
:1003C00021F900B3237F89F2315058F1102713FB34
:1003D00022F910B3277E79F2012703FB23F92F7C42
:1003E00081F200B3102713FB24F92F7971F200C0BA
:1003F00010B3012703FB25F92F7359F200C000B396
:10040000102713FB26F9223040F200C010B3012759
:1004100003FB27F9243028F64F77206810B300003B
:10042000F9CF10E41ABF00271CC03B503195C31B05
:10043000D04010E41ABF0881033C11F10B3401F1E4
:100440002091EA021981110F1213EDCF4A81441F46
:10045000093659F10D3211F0013E29F74F7009F0BC
:10046000042F0093F2023F914F911F910F912F9112
:10047000DF91CAB7C6FD4CCFCF91CFBFCF911895B2
:100480002091F202222379F31091F0021123C1F599
:100490003430C2F13093F0022093EC021091ED025F
:1004A0003BE0311B3093ED022DC00091F002013092
:1004B0003CF50AE54F7049F43091E30134FD24C066
:1004C0000093E301C3EDD2E023C0423049F0309104
:1004D000DE0234FD19C00093DE02CFEDD2E018C079
:1004E00030910A0334FD10C000930A03CBE0D3E03F
:1004F0000FC02795A8F45150A9F4220F0000F9CF9E
:100500004AE503C042ED01C0432FC4E1D0E032E030
:1005100011B31C60939A11BB02B320E41CE05F93FB
:10052000012756E002BB279520F4515021F4220FF9
:10053000F9CF012756E000003B5A02BBD0F22795C5
:1005400028F4515029F4220F0000F9CF012756E07A
:10055000279502BB20F4515021F4220FF9CF012737
:1005600056E02991332302BB21F6037F1091F1025B
:10057000110FC651D04002BB11F01093EA0210E4F3
:100580001ABF086011B3137F402F437F5F9100C0F3
:1005900000C002BB11BB42BB66CF8091C2029091EA
:1005A000B602981729F18093B60281E02091C70224
:1005B0003091C8024091BC025091BD0242175307CE
:1005C000C9F03093BD022093BC022091C902309142
:1005D000CA028091BF029091C00282179307C9F0AE
:1005E0003093C0022093BF0283E08093CB02089532
:1005F00080E0DCCF2091C9023091CA024091BF0255
:100600005091C0024217530759F7882381F381E0C4
:10061000ECCF82E0EACF8091AB0290919B029817D9
:10062000D1F180939B0281E09091AC0220919D02D8
:10063000291719F090939D0281E09091AD022091CD
:100640009E02291719F090939E0281E09091AE02CC
:1006500020919F02291719F090939F0281E09091B9
:10066000AF022091A002291719F09093A00281E017
:100670009091B0022091A102291779F09093A102E4
:100680009091B1028091A20298139093A20281E00E
:100690008093B402089580E0C7CF9091B102209179
:1006A000A2022913F2CF8111F2CF08950F931F9365
:1006B000CF93DF9300D000D000D0CDB7DEB70E943B
:1006C0002D0B12E30DE002C0115071F18091F30285
:1006D000882341F080910A0384FF04C08091CB02FB
:1006E00081114AC00E942D0B80910A0384FFECCF38
:1006F0008091E4019091E501981731F390E0089F13
:10070000F001099FF00D1124EA51FE4F248521309C
:10071000B9F0223029F1233059F1019687709927D9
:100720008093E401115091F680E026960FB6F8947C
:10073000DEBF0FBECDBFDF91CF911F910F91089506
:1007400086E0DE01119601900D928A95E1F766E050
:10075000CE0101960E940B0B8091E40190E0DDCF69
:1007600086819781A08589839A83AB8363E0F0CFEC
:1007700081859285A385F7CF8093C1021092CB0229
:100780002091E50130E0C9010196877099274091D9
:10079000E401481781F09DE0929FD001939FB00D36
:1007A0001124AA51BE4FE5EBF2E001900D929A950B
:1007B000E1F78093E5010E942D0B80910A0384FDEF
:1007C00002C081E0B2CFE091E4018091E5018E1793
:1007D000C1F38E2F90E02DE0E29FF0011124EA5149
:1007E000FE4F2485213059F02230C9F02330F9F032
:1007F0000196877099278093E40181E096CF86E087
:10080000DE01119601900D928A95E1F766E0CE0126
:1008100001960E940B0B8091E40190E0E9CF868164
:100820009781A08589839A83AB8363E0F0CF81852C
:100830009285A385F7CFCF930E942D0BC2E302C010
:10084000C15071F18091F302882341F08091DE0262
:1008500084FF04C08091B402811125C00E942D0B39
:100860008091DE0284FFECCF80914E0290914F0286
:10087000981731F390E0880F991F880F991F880F00
:10088000991F68E0805B9D4F0E94E90A80914E02AB
:1008900090E001968770992780934E02C15091F69F
:1008A00080E0CF9108951092B402A0914F02B0E081
:1008B000CD0101968770992720914E02281789F063
:1008C000AA0FBB1FAA0FBB1FAA0FBB1FA05BBD4F68
:1008D00098E0EBE9F2E001900D929A95E1F78093B0
:1008E0004F020E942D0B8091DE0284FD03C081E047
:1008F000CF91089580914E0290914F029817B9F3CD
:1009000090E0880F991F880F991F880F991F68E042
:10091000805B9D4F0E94E90A80914E0290E0019613
:100920008770992780934E0281E0CF910895CF93ED
:10093000DF9300D000D000D0CDB7DEB70E942D0BE2
:100940008091DE0284FD28C080910A0384FD09C0E5
:1009500026960FB6F894DEBF0FBECDBFDF91CF91C4
:100960000895E091E4018091E5018E1789F38E2FBF
:1009700090E02DE0E29FF0011124EA51FE4F248522
:10098000213029F1223099F12330C9F10196877085
:1009900099278093E401DCCF80914E0290914F0221
:1009A000981791F290E0880F991F880F991F880F70
:1009B000991F68E0805B9D4F0E94E90A80914E027A
:1009C00090E001968770992780934E02BDCF86E014
:1009D000DE01119601900D928A95E1F766E0CE0155
:1009E00001960E940B0B8091E40190E0CFCF8681AD
:1009F0009781A08589839A83AB8363E0F0CF81855B
:100A00009285A385F7CF9091AC02891711F12091BF
:100A1000AD028217F1F03091AE028317D1F0409110
:100A2000AF028417B1F05091B002851791F0609138
:100A3000B102681771F0992371F02223A1F03323DA
:100A4000A9F04423B1F05523B9F06623C1F080E04A
:100A5000089581E0089520E030E0F901E555FD4F6B
:100A6000818381E0089521E030E0F7CF22E030E09B
:100A7000F4CF23E030E0F1CF24E030E0EECF25E00A
:100A800030E0EBCFEBEAF2E09081892B8083089590
:100A9000E2ECF2E09081892B8083089590E09093BE
:100AA000C8028093C702089590E09093CA02809391
:100AB000C9020895E2ECF2E01082168215821086D7
:100AC0001782089586E0ECEAF2E0DF011D928A9534
:100AD000E9F71092AB02089590E08032910540F45E
:100AE000FC01E65DFF4F0C94D90C6111D7C08F98C3
:100AF0000895662309F494C08E9A0895662309F434
:100B000091C08D9A0895662309F48EC08C9A089539
:100B1000662309F48BC08B9A0895662309F48AC072
:100B20008A9A0895662309F483C0889A08956623F3
:100B300009F482C0899A0895662309F47FC0A79AB0
:100B40000895662309F482C0A69A0895662309F4DD
:100B500079C0A29A0895662309F47CC0A49A0895E6
:100B6000662309F46DC0A09A0895662309F470C045
:100B7000A59A0895662309F467C0A19A089566238B
:100B800009F46AC0A39A0895662309F467C0BF9A5E
:100B90000895662309F472C0BE9A0895662309F485
:100BA00065C0D69A0895662309F470C0BA9A08956C
:100BB000662309F457C0D29A0895662309F462C0E7
:100BC000BC9A0895662309F455C0D49A0895662303
:100BD00009F460C0B89A0895662309F441C0D09A18
:100BE0000895662309F44CC0BD9A0895662309F45C
:100BF0003FC0D59A0895662309F44AC0B99A08956A
:100C0000662391F1D19A08956623F1F1BB9A089574
:100C1000662391F1D39A08956623F1F1D79A089546
:100C20008E9808958D9808958C9808958B980895BE
:100C3000889808958A98089589980895A79808959E
:100C4000A0980895A2980895A1980895A698089547
:100C5000A5980895A4980895A3980895BF98089515
:100C6000D0980895D2980895D1980895D698089567
:100C7000D5980895D4980895D3980895BE98089566
:100C8000BD980895BC980895BB980895BA980895A2
:100C9000B9980895B8980895D79808958F9A0895A7
:100CA00090E08032910540F4FC01E65BFF4F0C942C
:100CB000D90C6111D7C097980895662309F494C0A0
:100CC000969A0895662309F491C0959A089566232B
:100CD00009F48EC0949A0895662309F48BC0939A00
:100CE0000895662309F48AC0929A0895662309F448
:100CF00083C0909A0895662309F482C0919A08955A
:100D0000662309F47FC0AF9A0895662309F482C070
:100D1000AE9A0895662309F479C0AA9A08956623C5
:100D200009F47CC0AC9A0895662309F46DC0A89AB2
:100D30000895662309F470C0AD9A0895662309F4F6
:100D400067C0A99A0895662309F46AC0AB9A08950A
:100D5000662309F467C0C79A0895662309F472C030
:100D6000C69A0895662309F465C0DE9A089566233D
:100D700009F470C0C29A0895662309F457C0DA9A3C
:100D80000895662309F462C0C49A0895662309F49D
:100D900055C0DC9A0895662309F460C0C09A08958E
:100DA000662309F441C0D89A0895662309F44CC01B
:100DB000C59A0895662309F43FC0DD9A0895662315
:100DC00009F44AC0C19A0895662391F1D99A089509
:100DD0006623F1F1C39A0895662391F1DB9A089591
:100DE0006623F1F1DF9A08959698089595980895ED
:100DF00094980895939808959098089592980895D6
:100E000091980895AF980895A8980895AA9808957C
:100E1000A9980895AE980895AD980895AC9808954E
:100E2000AB980895C7980895D8980895DA980895CA
:100E3000D9980895DE980895DD980895DC9808956E
:100E4000DB980895C6980895C5980895C4980895A4
:100E5000C3980895C2980895C1980895C0980895B8
:100E6000DF980895979A089590E08032910510F0E8
:100E700080E00895FC01E659FF4F0C94D90C80B333
:100E80008074089580B38072089580B3807108954E
:100E900080B38870089580B38470089580B38270A1
:100EA000089580B38170089583B38078089583B3E3
:100EB0008074089583B38072089583B38071089518
:100EC00083B38870089583B38470089583B3827068
:100ED000089583B38170089586B38078089586B3AA
:100EE0008074089586B38072089586B380710895E2
:100EF00086B38870089586B38470089586B382702F
:100F0000089586B38170089589B38078089589B370
:100F10008074089589B38072089589B380710895AB
:100F200089B38870089589B38470089589B38270F5
:100F3000089589B38170089580B3807808951092E0
:100F4000CD02E0E0F0E0E553FE4F60E080810E94DA
:100F50006C05E091CD02F0E0E553FE4F61E0808149
:100F60000E945006E091CD02EF5FE093CD02E830A1
:100F700048F308951092CD02E0E0F0E0ED52FE4F0C
:100F800060E080810E946C05E091CD02F0E0ED52BE
:100F9000FE4F61E080810E945006E091CD02EF5F3C
:100FA000E093CD02EF3048F308951092CD02E0E0D7
:100FB000F0E0E853FE4F61E080810E946C05E09113
:100FC000CD02F0E0E853FE4F60E080810E945006C1
:100FD000E091CD02EF5FE093CD02E33048F3089556
:100FE000CF93DF9380EF8093CF021092CC02E0E0AA
:100FF000C9E0DFE0F0E0ED52FE4F61E080810E9449
:101000006C05E091CC02F0E0ED52FE4F60E0808193
:101010000E9450061092CE02E0E008C08C918777C3
:101020008C93EF5FE093CE02E83028F5F0E0E553D3
:10103000FE4F80810E943407E091CE02A091CC0245
:10104000B0E0AA0FBB1FAA0FBB1FAA0FBB1FA05A5D
:10105000BF4FAE0FB11D8111E1CF8C9188688C9389
:10106000C09391028E3EE9F6D093CF02EF5FE093FA
:10107000CE02E830D8F21092CD02E0E0F0E0ED527E
:10108000FE4F60E080810E946C05E091CD02F0E0AF
:10109000ED52FE4F61E080810E945006E091CD024A
:1010A000EF5FE093CD02EF3048F3E091CC02EF5FC9
:1010B000E093CC02EF3008F49DCF0E9462050E94BD
:1010C0005A051092CC0240E01092CE0230E01AC0D5
:1010D000203B09F4AEC008F070C0203909F490C07C
:1010E000203A59F4805B9E4FE80FF91F80810E94DF
:1010F00042054091CC023091CE023F5F3093CE0248
:10110000383090F5842F90E0E32FF0E0880F991F9E
:10111000880F991F880F991FDC01A05ABF4FAE0F8F
:10112000BF1F5C912091CF0225232D3009F474C09C
:1011300078F62A3009F496C008F452C02B3009F42E
:1011400084C02C30D1F6AC0148525F4FE40FF51F3C
:1011500080810E944E054091CC023091CE023F5FCB
:101160003093CE02383070F24F5F4093CC024F3054
:1011700008F4AACF0E940B03882319F083E0809320
:1011800090020E94CD02882319F083E080939002A0
:1011900080919102893009F47EC0813009F483C0C6
:1011A0009091900281117BC0992319F091509093F6
:1011B0009002DF91CF910C949704203C09F45FC01A
:1011C000203D09F09ACFAC01405B5E4FE40FF51F64
:1011D00080810E9454054091CC023091CE028DCF87
:1011E000293009F08ACFAC0148525F4FE40FF51F58
:1011F00080810E9403054091CC023091CE027DCFC8
:10120000805B9E4FE80FF91F80810E94030540918B
:10121000CC023091CE0271CF9C0128523F4FE20F99
:10122000F31F80810E9454054091CC023091CE0280
:1012300064CF805B9E4FE80FF91F80810E944805B4
:101240004091CC023091CE0258CFAC0148525F4F52
:10125000E40FF51F80810E9448054091CC02309137
:10126000CE024BCFAC0148525F4FE40FF51F808197
:101270000E9442054091CC023091CE023ECF805B6D
:101280009E4FE80FF91F80810E944E054091CC02CD
:101290003091CE0232CF90919002913059F081502E
:1012A0008093910281CF0E941B040E94560380917B
:1012B000910276CF0E941B040E94560380919102F6
:1012C0006CCF0E949D090E949F070E94BA070E944E
:1012D000D5070E9462050E945A05C1E0D0E08091C6
:1012E000B302813009F0FFCF0E94F0071092CD02C7
:1012F00080E00BC061E080810E9450068091CD02A9
:101300008F5F8093CD02833050F7282F30E0AE01FD
:1013100002C0440F551F8A95E2F78091B20290E017
:1013200084239523F901E853FE4F4817590711F715
:1013300060E080810E945006E1CFCF93DF930E944E
:10134000C60C8B9A2FE78CEF9AE02150804090409A
:10135000E1F700C000008B98789488E0EBE9F2E0B8
:10136000DF01C82F1D92CA95E9F7EBEAF2E02AE007
:10137000DF01C22F1D92CA95E9F791E09087E5EB56
:10138000F2E03DE0DF011D923A95E9F7A2ECB2E010
:10139000ED0119922A95E9F7908392E0968393E004
:1013A0009187E3EAF2E0DF01C82F1D92CA95E9F7C1
:1013B000E3E9F2E0DF011D928A95E9F7DF91CF9131
:1013C0000895FC019093D2028093D102908190768F
:1013D000903211F080E008958181813069F082308F
:1013E00099F08A3021F18930A9F7828193818115A2
:1013F000924091F08FEF08958BE992E09093EF0285
:101400008093EE0288E0089582E992E09093EF02E3
:101410008093EE0281E0089584819581892B51F7B4
:101420008091B20280688093B2028FEF0895838129
:101430008093920280E00895FC019091B20297FDA2
:1014400002C08FEF089580818093B20281E00895F9
:10145000683009F00895FC0120812F3F09F451C044
:10146000FC01C19A808180939302818180939402D0
:1014700082818093950283818093960284818093F8
:101480009702858180939802868180939902878153
:1014900080939A0280919302909194028E3FF1E0A2
:1014A0009F0760F4E199FECF6091950270919602DA
:1014B0000E94DF0C80919302909194029C012E5F18
:1014C0003F4F2E3F41E0340768F4E199FECF609131
:1014D000970270919802C9010E94DF0C80919302DB
:1014E0009091940204968E3FE1E09E0740F4E199CA
:1014F000FECF6091990270919A020E94DF0CC19810
:1015000008952181213F39F0223F09F0A9CF81E0E0
:101510008093B30208951092B3020895FC01938161
:10152000923079F120F1913291F09232F1F484818C
:10153000958181309105A9F1E0F10297B1F481E83C
:1015400091E09093EF028093EE0282E2089582810F
:101550008130F9F0B0F1823041F488E591E0909368
:10156000EF028093EE0289E0089580E008959130C3
:10157000E1F78FE691E09093EF028093EE0282E133
:10158000089584E191E09093EF028093EE028BE561
:1015900008958FE391E09093EF028093EE0289E04B
:1015A000089583EA91E09093EF028093EE0284E83D
:1015B000089587E292E09093EF028093EE0280E438
:1015C000089586E291E09093EF028093EE0289E025
:1015D0000895CF93C62F2091DE0224FF18C03091CA
:1015E000DF0228E823272093DF02FC01A0EEB2E00F
:1015F0008C2F91919D938150E1F76C2F80EE92E0BA
:101600000E948101CC5FC093DE02CF9108952AE54C
:101610002093DE02EACFCF93C62F20910A0324FF46
:1016200018C030910B0328E8232720930B03FC01FB
:10163000ACE0B3E08C2F91919D938150E1F76C2F3A
:101640008CE093E00E948101CC5FC0930A03CF91AC
:1016500008952AE520930A03EACFCF93DF936091A0
:10166000F002635067FD17C02091ED028CE090E01E
:10167000821B9109EC01CC50DD4F8091EC0280314E
:1016800008F48FC08D3209F490C08091EB0287FD81
:10169000E7C01092F0028091E30184FF61C0609185
:1016A000E2016F3F09F45CC0693008F466C068501D
:1016B0006093E2019091D30288E889278093D30256
:1016C000CCE068E0A091EE02B091EF028091EB02D5
:1016D00086FF89C0FD0184918093D40231968FEFFB
:1016E000860F09F42DC0E491E093D502FD013296F6
:1016F000623031F1E491E093D602FD01339663301C
:10170000F9F0E491E093D702FD0134966430C1F022
:10171000E491E093D802FD013596653089F0E491BB
:10172000E093D902FD013696663051F0E491E093E2
:10173000DA02FD013796673019F0E491E093DB029D
:1017400090E00196A80FB91FB093EF02A093EE02AC
:1017500084ED92E00E948101CC30F9F4C093E30162
:1017600094E180B38C7031F49150D9F71092F1026A
:101770001092EA02DF91CF9108951092E2019091C8
:10178000D30288E889278093D302611190C060E07A
:1017900084ED92E00E948101C4E08FEF8093E2012A
:1017A000DDCFCE010E94280A74CF683009F071CFD6
:1017B00083EC8093D3028AE58093E3011092EB02DD
:1017C0008881807609F45BC0CE010E94E1098F3FD9
:1017D00009F064C0988197FD7DC090E89093EB027A
:1017E0008093E20156CF8C918093D4028FEF860FC5
:1017F00009F4A6CF11969C9111979093D50262306F
:1018000009F49ECF12969C9112979093D602633062
:1018100009F496CF13969C9113979093D702643056
:1018200009F48ECF14969C9114979093D80265304A
:1018300009F486CF15969C9115979093D90266303E
:1018400009F47ECF16969C9116979093DA02673032
:1018500009F476CF17969C9117979093DB0270CF7F
:10186000CE010E941C0A8F3F31F0882309F411CF6A
:101870001092E2010ECF8EE18093E3010ACF9A81AC
:101880001092DC028981811115C01092DD022CEDCD
:1018900032E082E03093EF022093EE029F819111BB
:1018A0009FCF9E81981708F09BCF892F99CFC4E0D6
:1018B000C60F08CF853081F08630C1F0883091F0B6
:1018C000893021F18A3089F18B3031F12CED32E011
:1018D00080E0E0CF8E8181CF9093F1022CED32E059
:1018E00080E0D8CF23EF32E081E0D4CF8B8181300C
:1018F00071F1823041F18330E1F0813221F18232A5
:1019000011F180E090E49093EB0261CF9093F302A9
:101910002CED32E080E0BECF8BE48093DF02809339
:101920000B032CED32E080E0B5CF2CED32E081E00E
:10193000B1CF911117C085E992E09093EF028093A7
:10194000EE0284E0DFCFCE010E948E0ADBCF89B7A2
:101950008B7F89BF87E692E09093EF028093EE023F
:1019600082E1D0CF913051F0923059F689E792E080
:101970009093EF028093EE0282E1C4CF8BE892E075
:101980009093EF028093EE028AE0BCCF85B782602D
:1019900085BF8BB780648BBFAEEDB2E08BE4119650
:1019A0008C931197EAE0F3E081838AE58C9380833E
:1019B0000895EE0FFF1F0590F491E02D09940E9409
:1019C000E40C272F0C94E50C262FE199FECF9FBB4A
:1019D0008EBB2DBB0FB6F894E29AE19A0FBE01962A
:0619E0000895F894FFCF0A
:1019E6001100000022002211111111111100111114
:1019F6001111110011001111111111111100111104
:101A060011111111111111111111111111111111C0
:101A160011111111110011111111110011111111D2
:101A260011111111001111111100002200220011D3
:101A360000000000000000000000000000000000A0
:101A46000000000000000000000000000000000090
:101A56000000001100111111320000001000013EBB
:101A6600142B04291D00351E1A3916001B003A1FB7
:101A7600083C073D06003B201517090A19052221D7
:101A86005C1C590B6211235F5D305A3F62002E6069
:101A96005E405B0063004161552F563400572D545C
:101AA60000000004004000460000000000000000A6
:101AB6000000000000000000000000000000000020
:101AC60000000000000000000000005200504A4DD7
:101AD600480000001000013E142B04291D00351E8D
:101AE6001A3916001B003A1F083C073D06003B202A
:101AF6001517090A19052221181C0D0B101123248C
:101B06000C300E3F36002E2512400F0037004126BE
:101B1600132F333400382D274700000400400046B9
:101B260000000000000000000000000000000000AF
:101B3600000000000000000000000000000000009F
:101B46000000005200504A4D181C1908090A0B0CD7
:101B56000D0E0F00010203040506071716151413D0
:041B66001200FF5A10
:00000001FF
