:100000000C9444040C947C040C9461040C946104DE
:100010000C9461040C9461040C9461040C946104CC
:100020000C9461040C9461040C9461040C946104BC
:100030000C9461040C9461040C9461040C946104AC
:100040000C9461040C9461040C9461040C9461049C
:100050000C946104380A4C0A240A540A2E0A420AF3
:100060001A0A580A330A470A1F0A500A290A3D0A7F
:10007000150A100AFC09060AF2090B0AF709010A17
:10008000ED09E809DE09E309D909D409CF09CA094C
:10009000C509C1091C0B300B080B380B120B260BC2
:1000A000FE0A3C0B170B2B0B030B340B0D0B210B18
:1000B000F90AF40AE00AEA0AD60AEF0ADB0AE50AB4
:1000C000D10ACC0AC20AC70ABD0AB80AB30AAE0AE4
:1000D000A90AA50AE50BE20BDF0BDC0BD90BD60B4B
:1000E000D30BD00BCD0BCA0BC70BC40BC10BBE0B74
:1000F000BB0BB80BB50BB20BAF0BAC0BA90BA60B24
:10010000A30BA00B9D0B9A0B970B940B910B8E0BD3
:100110008B0BE80B09025B00030100A0FA09040045
:100120000001030101000921010100012240000733
:1001300005810308000A0904010001030102000906
:1001400021110100012284000705820308000A0929
:100150000402000203000000092111010001222213
:1001600000070583030800010705040308000112C6
:1001700001100100000008A032600101000102002E
:1001800001120376007500730062005F006B00656A
:100190000079000A037A00690061006E0004030917
:1001A000040631FF0974A1010975150026FF0095A9
:1001B00008750881020976150026FF009508750864
:1001C0009102C005010902A10185010901A10005F3
:1001D000091901290515002501750195058102758B
:1001E00003950181030501093009311581257F75CA
:1001F000089502810609381581257F35004500756F
:100200000895018106050C0A38021581257F7508BD
:1002100095018106C0C005010980A1018502150173
:1002200026B700190129B7751095018100C0050C8A
:100230000901A10185031501269C0219012A9C02CE
:10024000751095018100C005010906A10175019590
:1002500008050719E029E7150025018102950175B8
:100260000881039505750105081901290591029575
:10027000017503910395067508150026FF00050713
:10028000190029FF8100C0000000010101020304E0
:1002900004050708090A0C0D0F1112141617191B73
:1002A0001D1F2122242628292B2D2E3031333435B1
:1002B000363738393A3A3B3B3C3C3C3C3C3C3D3D94
:1002C0003E3E3F40414243444647494A4C4D4F51D0
:1002D00052545658595B5D5F6062646567696A6B2A
:1002E0006D6E6F70717273747475757676767676DE
:1002F000767676767676767676767676767676779D
:10030000777777777777777777777777777777777D
:10031000787878787878787878787878787878785D
:10032000787878787879797A7A7B7B7C7D7E7F7F24
:1003300080828384858687898A8B8C8E8F90919228
:100340009495969798999A9B9C9D9D9E9F9FA0A0FF
:10035000A0A1A1A1A1A1A1A2A2A3A3A4A5A6A7A96E
:10036000AAACADAFB0B2B4B6B8BABCBEC0C2C4C617
:10037000C8CACCCED0D2D4D6D8D9DBDCDEDFE0E11F
:10038000E2E3E3E4E4E5E5E5E5E4E4E3E2E0DFDD40
:10039000DBD8D6D3D0CDCAC6C2BFBBB7B3AFABA62E
:1003A000A29E9A95918D8985817D7A7673706D6A0A
:1003B000676563615F5E5C5B5B5A5A5A5A5959586C
:1003C000575655545351504E4C4A484644423F3D6F
:1003D0003A383633302E2B292724221F1D1B19179C
:1003E000151312100F0D0C0B0A090908080808084C
:1003F0000808080909090A0A0A0B0B0C0D0D0E0E54
:100400000F10101112131314151516171818191AA6
:100410001A1B1B1C1D1D1E1E1E1F1F1F20202020FF
:1004200020202020202020201F1F1F1F1F1E1E1ED7
:100430001E1D1D1D1C1C1C1B1B1A1A1A191919180C
:10044000181817171716161616151515151514144E
:100450001414141414141414141313131312121266
:10046000111110100F0F0E0E0D0D0C0B0B0A0A09B7
:100470000808070706060504040303030202010136
:10048000010100000000003939393939383838376E
:1004900037363635343433323231302F2E2D2C2B43
:1004A0002B2A2928272625242323222120201F1E0A
:1004B0001E1D1D1C1C1C1B1B1B1B1B1B1B1B1B1A83
:1004C0001A1A1919191818171616151414131211C7
:1004D00011100F0E0D0D0C0B0A0908080706060572
:1004E00004040303020201010100000000000000F7
:1004F00000000000000000000000000000000000FC
:1005000000000000000000000000000000000000EB
:1005100000000000000000000000000000000000DB
:10052000000000000101020304050607080A0B0D84
:100530000F11131517191B1D1F212426282A2C2ED5
:1005400031333537383A3C3D3F40424344454646D7
:1005500047474848484849494A4B4C4E4F515356E3
:10056000585B5D6063666A6D7074787B7F83868A92
:100570008E9195989C9FA2A5A8ABAEB0B3B5B7B924
:10058000BBBCBDBEBFC0C0C0C0C0C0C0C0C0BFBF7C
:10059000BFBFBEBEBEBEBDBDBDBCBCBBBBBBBABA91
:1005A000B9B9B8B8B8B7B7B6B6B6B5B5B4B4B4B4E7
:1005B000B3B3B3B3B3B2B2B2B2B2B2B2B2B2B2B216
:1005C000B2B2B2B3B3B3B3B3B3B4B4B4B4B4B5B5F5
:1005D000B5B5B6B6B6B6B7B7B7B7B7B8B8B8B8B9AD
:1005E000B9B9B9B9B9B9BABABABABABABABABABA71
:1005F000BABBBBBBBCBDBDBEBFC0C1C2C4C5C6C704
:10060000C9CACCCDCFD0D2D4D5D7D8DADBDDDEE0A5
:10061000E1E2E3E5E6E7E8E9EAEAEBECECECEDED54
:10062000EDEDEDEDECECEBEAE9E8E7E5E4E2E1DF46
:10063000DDDBD9D7D4D2D0CECBC9C6C4C2BFBDBBF7
:10064000B8B6B4B2B0AEACAAA9A7A6A5A3A2A1A100
:10065000A0A09F9F9F9F9F9E9D9C9B9A99979593DB
:10066000918F8D8A888582807D7A7773706D6A67B5
:1006700064615E5B585552504D4B48464442413F81
:100680003E3C3B3B3A3939F3F3F3F3F3F3F3F3F343
:10069000F2F2F2F2F2F2F2F1F1F1F1F1F0F0F0F047
:1006A000F0EFEFEFEFEFEEEEEEEEEEEDEDEDEDED68
:1006B000EDEDECECECECECECECECECECECECECEB79
:1006C000EBEBEBEAEAE9E9E8E8E7E6E6E5E4E4E3B0
:1006D000E2E1E0E0DFDEDDDCDCDBDAD9D9D8D7D758
:1006E000D6D6D5D5D4D4D3D3D3D2D2D2D2D2D2D2D5
:1006F000D1D1D0CFCECCCBC9C7C5C3C0BEBBB9B694
:10070000B3B0ADA9A6A3A09C999693908C8986833B
:10071000807E7B79767472706E6D6B6A69686867CB
:100720006767676766666565646362615F5E5D5B98
:100730005A58565553514F4D4B4947454342403EF9
:100740003C3A3837353332302F2E2D2C2B2A29289E
:10075000282727272727272726262625252423233A
:100760002221201F1E1D1C1B1A19181716141312E4
:1007700011100F0E0D0B0A090808070605040403E3
:100780000302020201010101010101010102020251
:100790000203030304040405050606070708080905
:1007A000090A0A0B0B0C0C0D0D0E0E0F0F0F10107B
:1007B000101111111112121212121212121213131D
:1007C0001415151617181A1B1C1E1F212224262863
:1007D000292B2D2F31333536383A3C3E3F414244A8
:1007E000454748494A4B4C4D4D4E4E4F4F4F4F4F4A
:1007F000505152535557595B5D606366696D717412
:10080000787C8084898D91969A9EA2A7ABAFB3B76E
:10081000BABEC2C5C8CBCED0D2D4D6D8D9DADBDCEA
:10082000DCDCDCDCDCDCDDDDDDDEDEDFDFE0E0E1EE
:10083000E2E2E3E4E4E5E6E7E8E9E9EAEBECEDED42
:10084000EEEFF0F0F1F2F2F3F4F4F5F5F5F6F6F67A
:10085000F7F7F7F7F7F7F7F7F7F7F7F7F7F7F7F728
:10086000F6F6F6F6F6F6F6F6F6F6F5F5F5F5F5F52E
:10087000F5F5F4F4F4F4F4F4F4F4F4F4F3F3F3F33A
:10088000F3F3F3F3F3F3F30011241FBECFE5D8E045
:10089000DEBFCDBF11E0A0E6B0E0E2E4F5E202C0C9
:1008A00005900D92A237B107D9F722E0A2E7B1E097
:1008B00001C01D92A833B207E1F70E947C0C0C9492
:1008C0009F120C940000A82FB92F80E090E041E027
:1008D00050EA609530E009C02D9182279795879561
:1008E00010F084279527305EC8F36F5FA8F3089552
:1008F000EADF8D939D930895CF93CFB7CF93C395A0
:10090000839BE9F7839B09C0839B07C0839B05C03A
:10091000839B03C0839B01C0A6C0DF93C0910F02DD
:10092000DD27CA5EDD4F839B02C0DF91EBCF2F93A3
:100930000F931F9300B32FEF03FB20F94F933F93C7
:1009400010B34FEF012703FB21F93BE031C04E7F8D
:10095000012F10B3216028C0102F4D7F22600000AE
:1009600000B329C04B7F2460012F000010B32BC0BF
:1009700010B3477F28602AC04F7E00B320612CC08F
:100980004F7D10B320622FC04F7B00B3206432C074
:10099000422700B349934FEF0000102713FB20F9C3
:1009A00010B31C70C9F1297F91F2012703FB21F9D3
:1009B00000B3237F89F2315058F1102713FB22F93D
:1009C00010B3277E79F2012703FB23F92F7C81F2F4
:1009D00000B3102713FB24F92F7971F200C010B374
:1009E000012703FB25F92F7359F200C000B310272C
:1009F00013FB26F9223040F200C010B3012703FB9D
:100A000027F9243028F64F77206810B30000F9CF7B
:100A100010E41ABF00271CC03B503195C31BD040C7
:100A200010E41ABF0881033C11F10B3401F120914D
:100A30000D021981110F1213EDCF4A81441F09369F
:100A400059F10D3211F0013E29F74F7009F0042FD2
:100A5000009314023F914F911F910F912F91DF91BD
:100A6000CAB7C6FD4CCFCF91CFBFCF91189520917B
:100A70001402222379F3109112021123C1F53430AC
:100A8000C2F13093120220930E0210910F023BE04C
:100A9000311B30930F022DC00091120201303CF542
:100AA0000AE54F7049F43091710134FD24C0009380
:100AB0007101C6EFD1E023C0423049F0309101020C
:100AC00034FD19C000930102C2E0D2E018C0309199
:100AD0002C0234FD10C000932C02CDE2D2E00FC0F6
:100AE0002795A8F45150A9F4220F0000F9CF4AE548
:100AF00003C042ED01C0432FC4E1D0E032E011B3A6
:100B00001C60939A11BB02B320E41CE05F930127A1
:100B100056E002BB279520F4515021F4220FF9CF63
:100B2000012756E000003B5A02BBD0F2279528F47B
:100B3000515029F4220F0000F9CF012756E02795E4
:100B400002BB20F4515021F4220FF9CF012756E0C7
:100B50002991332302BB21F6037F10911302110F59
:100B6000C651D04002BB11F010930D0210E41ABF21
:100B7000086011B3137F402F437F5F9100C000C016
:100B800002BB11BB42BB66CF8091B1019091A6011F
:100B9000981729F18093A60181E02091B601309148
:100BA000B7014091AC015091AD0142175307C9F014
:100BB0003093AD012093AC012091B8013091B9017F
:100BC0008091AF019091B00182179307C9F03093E3
:100BD000B0012093AF0183E08093BB01089580E0D2
:100BE000DCCF2091B8013091B9014091AF01509113
:100BF000B0014217530759F7882381F381E0ECCF06
:100C000082E0EACF80919801909180019817D1F10C
:100C10008093800181E090919901209182012917B0
:100C200019F09093820181E090919A0120918301C3
:100C3000291719F09093830181E090919B012091F5
:100C40008401291719F09093840181E090919C010F
:100C500020918501291719F09093850181E09091E9
:100C60009D0120918601291779F09093860190913A
:100C70009E018091870198139093870181E0809372
:100C8000A401089580E0C7CF90919E012091870133
:100C90002913F2CF8111F2CF0895CF938091BB0138
:100CA000882381F081E0809373010E947F108091FE
:100CB0002C0284FD0BC0809173018F5F80937301C0
:100CC000823398F3C0E08C2FCF910895C091BB017F
:100CD000C13089F0C230B9F0C33021F0C1E08C2FAF
:100CE000CF91089563E08EEA91E00E945D1010922A
:100CF000BB01C1E0E8CF66E085EA91E00E945D10AB
:100D00001092BB01E0CF63E08BEA91E00E945D109E
:100D10001092BB01C1E0D7CF8091A401882381F05C
:100D200081E0809372010E947F108091010284FD16
:100D300009C0809172018F5F80937201823398F3B2
:100D400080E008958091A401811102C081E008959E
:100D500068E080E891E00E943B101092A40181E0DD
:100D600008950C947F1090919901891711F12091A9
:100D70009A018217F1F030919B018317D1F04091D5
:100D80009C018417B1F050919D01851791F06091FD
:100D90009E01681771F0992371F02223A1F033238B
:100DA000A9F04423B1F05523B9F06623C1F080E0E7
:100DB000089581E0089520E030E0F901E856FE4F03
:100DC000818381E0089521E030E0F7CF22E030E038
:100DD000F4CF23E030E0F1CF24E030E0EECF25E0A7
:100DE00030E0EBCFE8E9F1E09081892B8083089532
:100DF000E1EBF1E09081892B8083089590E090935E
:100E0000B7018093B6010895982F907F9039D9F05B
:100E100038F0903C91F0903E81F0903B71F0089555
:100E2000903221F0903879F09111F9CF90E09260F2
:100E30009093B9018093B801089590E09093B9011F
:100E40008093B801089590E091609093B9018093E8
:100E5000B8010895E1EBF1E0108216821582108648
:100E60001782089586E0E9E9F1E0DF011D928A9595
:100E7000E9F7109298010895CF92DF92EF92FF92D6
:100E80000F931F93CF93DF9380E090E00E9477123F
:100E9000EC0182E090E00E9477128C0184E090E007
:100EA0000E9477127C0186E090E00E9477126C012C
:100EB00088E090E00E9477122A9749F0DF91CF9165
:100EC0001F910F91FF90EF90DF90CF9008950F301A
:100ED0001105A1F72EE1E216F10481F7E9E6CE163D
:100EE000D10461F7843B910549F78AE090E00E94C4
:100EF0006F1280938A008BE090E00E946F128093C3
:100F00008B008CE090E00E946F1280938C008DE04B
:100F100090E00E946F1280938D008EE090E00E941E
:100F20006F1280938E008FE090E00E946F1280938A
:100F30007B0080E190E00E946F1280937C0081E151
:100F400090E00E946F1280937D0082E190E00E9409
:100F50006F1280937E0083E190E00E946F12809375
:100F60007F0084E190E00E946F128093800085E111
:100F700090E00E946F128093810086E190E00E94D1
:100F80006F128093820087E190E00E946F1280933D
:100F9000830088E190E00E946F128093840089E1D1
:100FA00090E00E946F12809385008AE190E00E9499
:100FB0006F12809386008BE190E00E946F12809305
:100FC00087008CE190E00E946F12809388008DE191
:100FD00090E00E946F12809389000FE810E0C0E05B
:100FE000D0E0CE014E960E946F12F8018083CE01B0
:100FF0004F960E946F12F8018183CE0180960E9465
:101000006F12F8018283CE0181960E946F12F8015F
:101010008383CE0182960E946F12F8018483CE01F1
:1010200083960E946F12F8018583CE0184960E94F8
:101030006F12F8018683CE0185960E946F12F80127
:101040008783CE0186960E946F12F8018087CE01B9
:1010500087960E946F12F8018187CE0188960E94C0
:101060006F12F8018287CE0189960E946F12F801F3
:101070008387CE018A960E946F12F8018487CE0181
:101080008B960E946F12F8018587CE018C960E9484
:101090006F12F80186872F96015F1F4FCB34D10561
:1010A00009F09FCF0AED10E0C0E0D0E0CE018759F3
:1010B0009F4F0E946F12F8018083CE0186599F4F87
:1010C0000E946F12F8018183CE0185599F4F0E94C3
:1010D0006F12F8018283CE0184599F4F0E946F12D4
:1010E000F8018383CE0183599F4F0E946F12F8014C
:1010F0008483CE0182599F4F0E946F12F80185832D
:10110000CE0181599F4F0E946F12F8018683CE0154
:1011100080599F4F0E946F12F8018783CE018F582C
:101120009F4F0E946F12F8018087CE018E589F4F0B
:101130000E946F12F8018187CE018D589F4F0E9447
:101140006F12F8018287CE018C589F4F0E946F1258
:10115000F8018387CE018B589F4F0E946F12F801D0
:101160008487CE018A589F4F0E946F12F8018587AD
:10117000CE0189589F4F0E946F12F80186872F96E3
:10118000015F1F4FCB34D10509F090CF05E211E08C
:10119000C0E0D0E0CE018C549F4F0E946F12F80146
:1011A0008083CE018B549F4F0E946F12F801818380
:1011B000CE018A549F4F0E946F12F8018283CE01A4
:1011C00089549F4F0E946F12F8018383CE01885487
:1011D0009F4F0E946F12F8018483CE0187549F4F66
:1011E0000E946F12F8018583CE0186549F4F0E94A2
:1011F0006F12F8018683CE0185549F4F0E946F12B3
:10120000F8018783CE0184549F4F0E946F12F8012A
:101210008087CE0183549F4F0E946F12F80181870F
:10122000CE0182549F4F0E946F12F8018287CE0137
:1012300081549F4F0E946F12F8018387CE01805422
:101240009F4F0E946F12F8018487CE018F539F4FEA
:101250000E946F12F8018587CE018E539F4F0E9426
:101260006F12F80186872F96015F1F4FCB34D1058F
:1012700009F090CF23CECF93DF93683019F0DF9140
:10128000CF910895FC01A8E7B1E0ED0119926A95AC
:10129000E9F780818093780181818093790182814F
:1012A00080937A01838180937B01848180937C0188
:1012B000858180937D01868180937E0187818093E3
:1012C0007F01C0917801D0917901CF3F21EFD20702
:1012D00031F1CF3F82EFD807A1F18091A0018111B8
:1012E000CECF0E94990CCE3F21E0D20748F4E1997D
:1012F000FECF60917A0170917B01CE010E947D1238
:10130000CE0102968E3F21E0920788F4E199FECF4C
:1013100060917C0170917D010E947D1208C08091D6
:10132000A001813011F18111AACF0E94990CCE0148
:1013300004968E3FC1E09C0778F0DF91CF910C942A
:10134000AB0C8091A00181119ACF82E08093A00123
:10135000DF91CF910C94AB0CE199FECF60917E01AF
:1013600070917F010E947D12E8CF1092A00187CF7B
:1013700090E08032910540F4FC01E65DFF4F0C9453
:1013800069126111D7C08F980895662309F494C03B
:101390008E9A0895662309F491C08D9A0895662364
:1013A00009F48EC08C9A0895662309F48BC08B9A39
:1013B0000895662309F48AC08A9A0895662309F479
:1013C00083C0889A0895662309F482C0899A089593
:1013D000662309F47FC0A79A0895662309F482C0A2
:1013E000A69A0895662309F479C0A29A08956623FF
:1013F00009F47CC0A49A0895662309F46DC0A09AEC
:101400000895662309F470C0A59A0895662309F427
:1014100067C0A19A0895662309F46AC0A39A089543
:10142000662309F467C0BF9A0895662309F472C061
:10143000BE9A0895662309F465C0D69A0895662376
:1014400009F470C0BA9A0895662309F457C0D29A75
:101450000895662309F462C0BC9A0895662309F4CE
:1014600055C0D49A0895662309F460C0B89A0895C7
:10147000662309F441C0D09A0895662309F44CC04C
:10148000BD9A0895662309F43FC0D59A089566234E
:1014900009F44AC0B99A0895662391F1D19A089542
:1014A0006623F1F1BB9A0895662391F1D39A0895CA
:1014B0006623F1F1D79A08958E9808958D9808952E
:1014C0008C9808958B980895889808958A9808951F
:1014D00089980895A7980895A0980895A2980895C6
:1014E000A1980895A6980895A5980895A498089598
:1014F000A3980895BF980895D0980895D298089514
:10150000D1980895D6980895D5980895D4980895B7
:10151000D3980895BE980895BD980895BC980895ED
:10152000BB980895BA980895B9980895B898089501
:10153000D79808958F9A089590E08032910540F4ED
:10154000FC01E65BFF4F0C9469126111D7C09798BC
:101550000895662309F494C0969A0895662309F4C1
:1015600091C0959A0895662309F48EC0949A0895BF
:10157000662309F48BC0939A0895662309F48AC000
:10158000929A0895662309F483C0909A0895662379
:1015900009F482C0919A0895662309F47FC0AF9A36
:1015A0000895662309F482C0AE9A0895662309F46B
:1015B00079C0AA9A0895662309F47CC0AC9A08956C
:1015C000662309F46DC0A89A0895662309F470C0D3
:1015D000AD9A0895662309F467C0A99A0895662311
:1015E00009F46AC0AB9A0895662309F467C0C79AE4
:1015F0000895662309F472C0C69A0895662309F413
:1016000065C0DE9A0895662309F470C0C29A0895F1
:10161000662309F457C0DA9A0895662309F462C074
:10162000C49A0895662309F455C0DC9A0895662388
:1016300009F460C0C09A0895662309F441C0D89A9D
:101640000895662309F44CC0C59A0895662309F4E9
:101650003FC0DD9A0895662309F44AC0C19A0895EF
:10166000662391F1D99A08956623F1F1C39A0895FA
:10167000662391F1DB9A08956623F1F1DF9A0895CC
:101680009698089595980895949808959398089534
:10169000909808959298089591980895AF98089514
:1016A000A8980895AA980895A9980895AE980895BD
:1016B000AD980895AC980895AB980895C79808958B
:1016C000D8980895DA980895D9980895DE980895DD
:1016D000DD980895DC980895DB980895C6980895DC
:1016E000C5980895C4980895C3980895C298089518
:1016F000C1980895C0980895DF980895979A08951D
:1017000090E08032910510F080E00895FC01E659E8
:10171000FF4F0C94691280B38074089580B3807277
:10172000089580B38071089580B38870089580B360
:101730008470089580B38270089580B38170089595
:1017400083B38078089583B38074089583B38072DF
:10175000089583B38071089583B38870089583B327
:101760008470089583B38270089583B3817008955F
:1017700086B38078089586B38074089586B38072A6
:10178000089586B38071089586B38870089586B3EE
:101790008470089586B38270089586B38170089529
:1017A00089B38078089589B38074089589B380726D
:1017B000089589B38071089589B38870089589B3B5
:1017C0008470089589B38270089589B381700895F3
:1017D00080B3807808958091C8019091C9019817CD
:1017E00009F462C08093C90182FF30C081E0809318
:1017F000A40180918001827259F180918201853328
:1018000029F190918301953309F1209184012533C9
:10181000E9F0309185013533C9F0409186014533B7
:10182000A9F050918701553389F0882309F446C007
:10183000992309F449C0222309F44FC0332309F442
:1018400052C0442309F452C0552381F180E0089529
:10185000909182019932D1F3209183012932B1F321
:1018600030918401393291F340918501493271F30D
:1018700050918601593251F360918701693231F3F9
:101880009923F9F0222319F1332321F1442341F163
:10189000552379F16111DACF25E030E0F901E05804
:1018A000FE4F99E29283089581E0089585E090E0EB
:1018B000FC01E058FE4F25E32283C8CF80E090E092
:1018C000F7CF20E030E0EACF81E090E0F1CF21E0F7
:1018D00030E0E4CF22E030E0E1CF82E090E0E8CFFA
:1018E00023E030E0DBCF83E090E0E2CF84E090E0E3
:1018F000DFCF24E030E0D2CF0C94E20E1092CB0187
:10190000E0E0F0E0E558FF4F60E080810E94B80918
:10191000E091CB01F0E0E558FF4F61E080810E944B
:101920009C0AE091CB01EF5FE093CB01EF3048F3ED
:1019300008951092CB01E0E0F0E0E858FF4F61E03D
:1019400080810E949C0AE091CB01EF5FE093CB0184
:10195000E33090F308951092CB01E0E0F0E0E85816
:10196000FF4F60E080810E949C0AE091CB01EF5F15
:10197000E093CB01E33090F308950F931F93CF933F
:10198000DF931092CB0180E0C1E0D0E00BC060E0BB
:1019900080810E949C0A8091CB018F5F8093CB0154
:1019A0008330F0F4282F30E0AE0102C0440F551F01
:1019B0008A95E2F780919F0190E084239523F901B5
:1019C000E858FF4F4817590711F761E080810E94DE
:1019D0009C0A8091CB018F5F8093CB01833010F301
:1019E0008091C90180FF4DC061E08CE10E949C0A9A
:1019F0008091F2019091F301811522E0920708F4A1
:101A000045C08091C90181FF58C0C0E6D0E000E028
:101A100010E008C0998388830F5F1F4F22960C3017
:101A2000110501F128813981F901E957F94F6491D4
:101A3000F901E957FB4F4491F901E957FD4F249112
:101A4000C8010E944312888199810196811522E084
:101A5000920700F3198218820F5F1F4F22960C30F5
:101A6000110501F78091F2019091F3010197909394
:101A7000F3018093F201DF91CF911F910F910C94AC
:101A80004F1260E08CE10E949C0AB2CF009759F49B
:101A900080E092E09093F3018093F201DF91CF9187
:101AA0001F910F91089501979093F3018093F20194
:101AB000DF91CF911F910F9108950E943B12D2CFD9
:101AC000EF92FF920F931F93CF93DF9380EF80935A
:101AD000CD011092CA0180E0C1E0D0E01FE09FE09C
:101AE000F92E02E0EE24E3948D5F9E0102C0220FE6
:101AF000331F8A95E2F7C90127BB809588BB34E183
:101B00003A95F1F71092CC01E0E008C08C9187770C
:101B10008C93EF5FE093CC01EF3008F5F0E0E558EF
:101B2000FF4F80810E94800BE091CC01A091CA01FF
:101B30001A9FD0011124AB5DBE4FAE0FB11D8111B4
:101B4000E5CF8C9188688C93009375018E3E09F7E0
:101B5000F092CD01EF5FE093CC01EF30F8F217BACD
:101B6000E8BA8091CA018F5F8093CA01853008F47A
:101B7000BBCF0E9432070E942A071092CA0140E0A0
:101B8000CFE01092CC0190E01DC0803B09F4D1C0A1
:101B900008F48AC0803D09F4C0C0803F09F4B0C099
:101BA000803C59F421573F4FE20FF31F80810E9480
:101BB000FE064091CA019091CC019F5F9093CC01A9
:101BC0009F3068F5E92FF0E0C49F90011124D901FE
:101BD000AB5DBE4FAE0FBF1F5C918091CD018523E1
:101BE0008F3009F4BFC088F68B3009F46FC008F05D
:101BF00048C0893009F477C08A30F9F6A901465205
:101C00005F4FE40FF51F80810E94F2064091CA01E8
:101C10009091CC019F5F9093CC019F3098F24F5FE1
:101C20004093CA01453008F4ACCF0E9402068823D5
:101C300019F082E0809374010E94C4058111A4C050
:101C40009091C9018091C801981719F082E08093A2
:101C5000740180917501823009F49AC0813009F4D1
:101C60009FC090917401811197C0992319F09150F0
:101C700090937401DF91CF911F910F91FF90EF909E
:101C800008958C3009F461C08D3009F096CFA90118
:101C900046525F4FE40FF51F80810E940407409178
:101CA000CA019091CC0189CF803909F461C0803A92
:101CB00009F083CF21573F4FE20FF31F80810E942D
:101CC000F2064091CA019091CC0177CFA90146520A
:101CD0005F4FE40FF51F80810E94F8064091CA0112
:101CE0009091CC016ACFA90146525F4FE40FF51FD6
:101CF00080810E94B3064091CA019091CC015DCFD2
:101D000021573F4FE20FF31F9091C801808189272F
:101D10008093C8019091CC0150CF21573F4FE20FE3
:101D2000F31F80810E9404074091CA019091CC0169
:101D300044CF21573F4FE20FF31F80810E94F806E6
:101D40004091CA019091CC0138CFA90146525F4F12
:101D5000E40FF51F80810E94FE064091CA01909118
:101D6000CC012BCFC90186529F4FE80FF91FCCCF72
:101D700021573F4FE20FF31F80810E94B30640912D
:101D8000CA019091CC0119CF82E08093740158CFA1
:101D900090917401913069F081508093750165CF05
:101DA0000E94EB0B0E948C060E944D0680917501EB
:101DB00058CF0E94EB0B0E948C060E944D0680912A
:101DC00075014CCF0E94420F0E947E0C17BA81E031
:101DD00088BBC0E0D2E01092CB01E0E0F0E0E85830
:101DE000FF4F61E080810E94B809E091CB01F0E0F3
:101DF000E858FF4F61E080810E949C0AE091CB018E
:101E0000EF5FE093CB01E33048F361E08CE10E94A7
:101E1000B80961E08CE10E949C0A0E943912D093BB
:101E2000F301C093F2010E943B120E944F1281E025
:101E30008093A0010E9432070E942A070E943C075B
:101E40002FE78FE492E1215080409040E1F700C0FD
:101E500000000E948C060E94B1068091A001823091
:101E600009F4B9CF8130B9F780911502882321F0A8
:101E70008091010284FD03C00E94BD0CECCF0E9442
:101E8000600DFACF0E9426128B9A8FEFA895A7EBD0
:101E9000BBE01197F1F700C000008150B9F78B98B3
:101EA000789488E0E0E9F1E0DF01382F1D923A955F
:101EB000E9F7E0E8F1E0DF01382F1D923A95E9F704
:101EC0009DE0E8E9F1E0DF011D929A95E9F791E0E4
:101ED0009093A0012CE0ECEBF1E0DF01322F1D929A
:101EE0003A95E9F7E5EAF1E0DF011D922A95E9F775
:101EF0002BE0E1EBF1E0DF011D922A95E9F79093E9
:101F0000A50192E09093AB0193E09093AE01E8E8D5
:101F1000F1E0DF01382F1D923A95E9F7E8E7F1E0AB
:101F2000DF011D928A95E9F71092C8011092C9014C
:101F30000895FC019093F5018093F40190819076CF
:101F4000903211F080E008958181813069F0823013
:101F500099F08A3021F18930A9F782819381811526
:101F6000924091F08FEF089580E891E090931102F4
:101F70008093100288E0089586E791E09093110223
:101F80008093100281E0089584819581892B51F717
:101F900080919F01806880939F018FEF08958381D6
:101FA0008093760180E00895FC0190919F0197FD58
:101FB00002C08FEF0895808180939F0181E0089592
:101FC000FC019381923079F120F1913291F09232BB
:101FD000F1F48481958181309105A9F1E0F10297B6
:101FE000B1F481EA91E0909311028093100282E2B1
:101FF000089582818130F9F0B0F1823041F488E5B2
:1020000091E0909311028093100289E0089580E09E
:1020100008959130E1F78FE691E09093110280935B
:10202000100282E1089584E191E09093110280937F
:1020300010028BE508958FE391E090931102809355
:10204000100289E0089583EC91E09093110280934F
:10205000100284E8089587E492E09093110280933F
:10206000100280E4089586E291E09093110280933B
:10207000100289E00895CF93C62F2091010224FF1A
:1020800018C03091020228E8232720930202FC01A5
:10209000A3E0B2E08C2F91919D938150E1F76C2FDA
:1020A00083E092E00E947804CC5FC0930102CF915C
:1020B00008952AE520930102EACFCF93C62F2091FD
:1020C0002C0224FF18C030912D0228E823272093EA
:1020D0002D02FC01AEE2B2E08C2F91919D938150D4
:1020E000E1F76C2F8EE292E00E947804CC5FC093FF
:1020F0002C02CF9108952AE520932C02EACFCF93AA
:10210000DF9360911202635067FD17C020910F02A8
:102110008CE090E0821B9109EC01CA5EDD4F80915A
:102120000E02803108F48FC08D3209F490C0809186
:10213000770187FDE7C0109212028091710184FF40
:1021400061C0609170016F3F09F45CC0693008F4B0
:1021500066C06850609370019091F60188E8892705
:102160008093F601CCE068E0A0911002B0911102DA
:102170008091770186FF89C0FD0184918093F701EA
:1021800031968FEF860F09F42DC0E491E093F801AA
:10219000FD013296623031F1E491E093F901FD01E5
:1021A00033966330F9F0E491E093FA01FD0134963F
:1021B0006430C1F0E491E093FB01FD013596653098
:1021C00089F0E491E093FC01FD013696663051F010
:1021D000E491E093FD01FD013796673019F0E49139
:1021E000E093FE0190E00196A80FB91FB093110291
:1021F000A093100287EF91E00E947804CC30F9F4AC
:10220000C093710194E180B38C7031F49150D9F78F
:102210001092130210920D02DF91CF910895109247
:1022200070019091F60188E889278093F601611189
:1022300090C060E087EF91E00E947804C4E08FEFE7
:1022400080937001DDCFCE010E943B0974CF6830CE
:1022500009F071CF83EC8093F6018AE580937101D8
:10226000109277018881807609F45BC0CE010E94CC
:10227000990F8F3F09F064C0988197FD7DC090E869
:10228000909377018093700156CF8C918093F701E2
:102290008FEF860F09F4A6CF11969C91119790931A
:1022A000F801623009F49ECF12969C911297909398
:1022B000F901633009F496CF13969C91139790938C
:1022C000FA01643009F48ECF14969C911497909380
:1022D000FB01653009F486CF15969C911597909374
:1022E000FC01663009F47ECF16969C911697909368
:1022F000FD01673009F476CF17969C91179790935C
:10230000FE0170CFCE010E94D40F8F3F31F08823A1
:1023100009F411CF109270010ECF8EE180937101FC
:102320000ACF9A811092FF018981811115C0109204
:1023300000022FEF31E082E030931102209310026F
:102340009F8191119FCF9E81981708F09BCF892F75
:1023500099CFC4E0C60F08CF853081F08630C1F038
:10236000883091F0893021F18A3089F18B3031F158
:102370002FEF31E080E0E0CF8E8181CF9093130288
:102380002FEF31E080E0D8CF25E132E081E0D4CFFB
:102390008B818130F1F18230A1F1833041F18132C2
:1023A000F1F08232C1F080E090E49093770161CF48
:1023B000909315022FEF31E080E0BECF8BE4809345
:1023C000020280932D022FEF31E080E0B5CF2FEF96
:1023D00031E081E0B1CFCE010E94E00FE5CF86E28F
:1023E00091E0909311028093100289E0DDCF91116A
:1023F00018C08DE991E0909311028093100284E05F
:10240000D3CF84E191E090931102809310028BE589
:10241000CBCF8FE691E0909311028093100282E17E
:10242000C3CF913059F0923009F0BDCF81E891E0EF
:10243000909311028093100282E1B6CF83E991E07C
:1024400090931102809310028AE0AECF85B782602C
:1024500085BF8BB780648BBFA1E0B2E08BE411969F
:102460008C931197ECE2F2E081838AE58C93808370
:102470000895A19A089584E2EEECF1E0DF011D9247
:102480008A95E9F70895FC01EE0FFF1F8E0F9F1F3D
:10249000FC01E253FE4F4083618322830895F89448
:1024A00025B32D7F95B39260EEECF1E0819138E099
:1024B00095BB00C087FF25BB880F000000C000C08F
:1024C00025BB3A95A9F781E0E23FF80779F77894C0
:1024D0000895EE0FFF1F0590F491E02D0994E19906
:1024E000FECF9FBB8EBBE09A99278DB30895A8E1DC
:1024F000B0E042E050E00C9484120E949212272F28
:102500000C949312DC01CB01FC01E199FECF06C0D3
:10251000FFBBEEBBE09A31960DB20D924150504098
:10252000B8F70895262FE199FECF9FBB8EBB2DBB38
:102530000FB6F894E29AE19A0FBE01960895F894C6
:02254000FFCFCB
:1025420000002200440066008800AA00AA00880059
:10255200660044002200000018191E000102030454
:102562000506071716151413121F0B0C0D0E0F0478
:102572001E1F20212223242526272D2E352A2B1407
:102582001A0815171C180C12132F303100390416B3
:1025920007090A0B0D0E0F333400280002001D1B21
:1025A200061905111036373820524C01000400007C
:1025B20000002C00004050514F00353A3B3C3D3E5C
:1025C2003F404142434445004C2B595A5B5C5D5E9F
:1025D2005F60616256573100390104020000000059
:1025E2000000000000280002005347494601020093
:1025F200EAE9E2205200010004000000002C000081
:102602004050514F0071111111111111111111117D
:1026120011111011111111111111111111111111A9
:1026220011110011131313101010101010101000BC
:102632001100220011111111171710151515221171
:102642001022662200000000110066221111110002
:02265200FF5A2D
:00000001FF
