:100000000C943A040C9472040C9457040C94570406
:100010000C9457040C9457040C9457040C945704F4
:100020000C9457040C9457040C9457040C945704E4
:100030000C9457040C9457040C9457040C945704D4
:100040000C9457040C9457040C9457040C945704C4
:100050000C945704610A750A4D0A7D0A570A6B0A07
:10006000430A810A5C0A700A480A790A520A660A37
:100070003E0A390A250A2F0A1B0A340A200A2A0ACC
:10008000160A110A070A0C0A020AFD09F809F309FF
:10009000EE09EA09450B590B310B610B3B0B4F0B7A
:1000A000270B650B400B540B2C0B5D0B360B4A0BCF
:1000B000220B1D0B090B130BFF0A180B040B0E0B65
:1000C000FA0AF50AEB0AF00AE60AE10ADC0AD70A9C
:1000D000D20ACE0A0E0C0B0C080C050C020CFF0BFE
:1000E000FC0BF90BF60BF30BF00BED0BEA0BE70B2C
:1000F000E40BE10BDE0BDB0BD80BD50BD20BCF0BDC
:10010000CC0BC90BC60BC30BC00BBD0BBA0BB70B8B
:10011000B40B110C090254000301008032090400E1
:100120000001030101000921110100012240000723
:1001300005810308000A0904010001030102000906
:1001400021110100012284000705820308000A0929
:100150000402000103000000092111010001221521
:10016000000705030308000A12011001000000083F
:10017000A032600101000102000112037600750047
:10018000730062005F006B00650079000A037A006B
:10019000690061006E00040309040631FF0974A1BF
:1001A000010975150026FF00950875089102C00524
:1001B000010902A10185010901A10005091901290F
:1001C00005150025017501950581027503950181CD
:1001D000030501093009311581257F7508950281D4
:1001E0000609381581257F35004500750895018180
:1001F00006050C0A38021581257F750895018106D0
:10020000C0C005010980A1018502150126B70019AA
:100210000129B7751095018100C0050C0901A101E4
:1002200085031501269C0219012A9C02751095016F
:100230008100C005010906A101750195080507198E
:10024000E029E715002501810295017508810395D4
:10025000057501050819012905910295017503919C
:100260000395067508150026FF000507190029FFEC
:100270008100C00000000101010203040405070819
:10028000090A0C0D0F1112141617191B1D1F21221C
:10029000242628292B2D2E30313334353637383962
:1002A0003A3A3B3B3C3C3C3C3C3C3D3D3E3E3F4087
:1002B000414243444647494A4C4D4F515254565887
:1002C000595B5D5F6062646567696A6B6D6E6F70D4
:1002D00071727374747575767676767676767676D0
:1002E00076767676767676767676767777777777A9
:1002F000777777777777777777777777787878788A
:10030000787878787878787878787878787878786D
:100310007879797A7A7B7B7C7D7E7F7F808283840B
:10032000858687898A8B8C8E8F90919294959697EB
:1003300098999A9B9C9D9D9E9F9FA0A0A0A1A1A1E2
:10034000A1A1A1A2A2A3A3A4A5A6A7A9AAACADAF4F
:10035000B0B2B4B6B8BABCBEC0C2C4C6C8CACCCEAD
:10036000D0D2D4D6D8D9DBDCDEDFE0E1E2E3E3E4CF
:10037000E4E5E5E5E5E4E4E3E2E0DFDDDBD8D6D380
:10038000D0CDCAC6C2BFBBB7B3AFABA6A29E9A952B
:10039000918D8985817D7A7673706D6A67656361F9
:1003A0005F5E5C5B5B5A5A5A5A59595857565554B6
:1003B0005351504E4C4A484644423F3D3A383633FA
:1003C000302E2B292724221F1D1B1917151312103D
:1003D0000F0D0C0B0A090908080808080808080985
:1003E00009090A0A0A0B0B0C0D0D0E0E0F10101145
:1003F00012131314151516171818191A1A1B1B1C8B
:100400001D1D1E1E1E1F1F1F2020202020202020FB
:10041000202020201F1F1F1F1F1E1E1E1E1D1D1DF2
:100420001C1C1C1B1B1A1A1A191919181818171733
:10043000171616161615151515151414141414146C
:100440001414141414131313131212121111101084
:100450000F0F0E0E0D0D0C0B0B0A0A0908080707EB
:100460000606050404030303020201010101000062
:1004700000000039393939393838383737363635A8
:10048000343433323231302F2E2D2C2B2B2A292885
:10049000272625242323222120201F1E1E1D1D1C4C
:1004A0001C1C1B1B1B1B1B1B1B1B1B1A1A1A1919A1
:1004B00019181817161615141413121111100F0EFF
:1004C0000D0D0C0B0A0908080706060504040303B2
:1004D0000202010101000000000000000000000015
:1004E000000000000000000000000000000000000C
:1004F00000000000000000000000000000000000FC
:1005000000000000000000000000000000000000EB
:100510000101020304050607080A0B0D0F1113154C
:1005200017191B1D1F212426282A2C2E313335375D
:10053000383A3C3D3F404243444546464747484899
:10054000484849494A4B4C4E4F515356585B5D60A1
:1005500063666A6D7074787B7F83868A8E919598C6
:100560009C9FA2A5A8ABAEB0B3B5B7B9BBBCBDBE8E
:10057000BFC0C0C0C0C0C0C0C0C0BFBFBFBFBEBE84
:10058000BEBEBDBDBDBCBCBBBBBBBABAB9B9B8B8B9
:10059000B8B7B7B6B6B6B5B5B4B4B4B4B3B3B3B30D
:1005A000B3B2B2B2B2B2B2B2B2B2B2B2B2B2B2B329
:1005B000B3B3B3B3B3B4B4B4B4B4B5B5B5B5B6B6F8
:1005C000B6B6B7B7B7B7B7B8B8B8B8B9B9B9B9B9AF
:1005D000B9B9BABABABABABABABABABABABBBBBB7A
:1005E000BCBDBDBEBFC0C1C2C4C5C6C7C9CACCCDD3
:1005F000CFD0D2D4D5D7D8DADBDDDEE0E1E2E3E557
:10060000E6E7E8E9EAEAEBECECECEDEDEDEDEDED3B
:10061000ECECEBEAE9E8E7E5E4E2E1DFDDDBD9D7A2
:10062000D4D2D0CECBC9C6C4C2BFBDBBB8B6B4B29B
:10063000B0AEACAAA9A7A6A5A3A2A1A1A0A09F9F66
:100640009F9F9F9E9D9C9B9A99979593918F8D8A32
:10065000888582807D7A7773706D6A6764615E5B7E
:10066000585552504D4B48464442413F3E3C3B3B1F
:100670003A3939F3F3F3F3F3F3F3F3F3F2F2F2F27B
:10068000F2F2F2F1F1F1F1F1F0F0F0F0F0EFEFEF62
:10069000EFEFEEEEEEEEEEEDEDEDEDEDEDEDECEC83
:1006A000ECECECECECECECECECECECEBEBEBEBEA90
:1006B000EAE9E9E8E8E7E6E6E5E4E4E3E2E1E0E0E8
:1006C000DFDEDDDCDCDBDAD9D9D8D7D7D6D6D5D595
:1006D000D4D4D3D3D3D2D2D2D2D2D2D2D1D1D0CFFA
:1006E000CECCCBC9C7C5C3C0BEBBB9B6B3B0ADA92C
:1006F000A6A3A09C999693908C898683807E7B7913
:10070000767472706E6D6B6A696868676767676731
:1007100066666565646362615F5E5D5B5A585655E7
:1007200053514F4D4B4947454342403E3C3A383781
:10073000353332302F2E2D2C2B2A292828272727F6
:100740002727272726262625252423232221201F65
:100750001E1D1C1B1A1918171614131211100F0E38
:100760000D0B0A0908080706050404030302020228
:10077000010101010101010101020202020303035F
:10078000040404050506060707080809090A0A0BF8
:100790000B0C0C0D0D0E0E0F0F0F10101011111170
:1007A000111212121212121212121313141515161C
:1007B00017181A1B1C1E1F2122242628292B2D2F17
:1007C00031333536383A3C3E3F414244454748494B
:1007D0004A4B4C4D4D4E4E4F4F4F4F4F5051525331
:1007E0005557595B5D606366696D7174787C808470
:1007F000898D91969A9EA2A7ABAFB3B7BABEC2C578
:10080000C8CBCED0D2D4D6D8D9DADBDCDCDCDCDC89
:10081000DCDCDDDDDDDEDEDFDFE0E0E1E2E2E3E4E3
:10082000E4E5E6E7E8E9E9EAEBECEDEDEEEFF0F020
:10083000F1F2F2F3F4F4F5F5F5F6F6F6F7F7F7F76B
:10084000F7F7F7F7F7F7F7F7F7F7F7F7F6F6F6F63C
:10085000F6F6F6F6F6F6F5F5F5F5F5F5F5F5F4F444
:10086000F4F4F4F4F4F4F4F4F3F3F3F3F3F3F3F350
:10087000F3F3F30011241FBECFE5D8E0DEBFCDBFF8
:1008800011E0A0E6B0E0E2E6F6E202C005900D92CB
:10089000AA37B107D9F723E0AAE7B1E001C01D925A
:1008A000A135B207E1F70E94AC0C0C942F130C9405
:1008B0000000A82FB92F80E090E041E050EA609559
:1008C00030E009C02D9182279795879510F08427F5
:1008D0009527305EC8F36F5FA8F30895EADF8D9324
:1008E0009D930895CF93CFB7CF93DF93C395839B09
:1008F000E9F7839B0BC0839B09C0839B07C0839B45
:1009000005C0839B03C0839B01C08EC06F93C091C1
:100910002803DD27C15DDC4F2F9365E5839B03C072
:100920002F916F91E6CF0F931F934F9320E040E1FB
:100930005F9300B30C7003FB27F93F9350E03BE05B
:1009400039C01C7040642F77012F5F5F1EC0406864
:1009500010B31C702F7752501FC0406400B32F7724
:100960000C70D1F15F5F00C023C0406210B32F77DD
:100970001C7091F15F5F00C025C00C7010275150B2
:1009800012F45D5F0000115027952C3F10B3C8F69C
:100990001C700127015027952C3FC8F64227499328
:1009A00000B30C7010274F73115027952C3FA8F6F9
:1009B0004695469510B31C7079F001270150279594
:1009C0002C3F98F66B5A60F3315000B3B0F600C07C
:1009D00010E41ABF00271CC03B503195C31BD04008
:1009E00010E41ABF0881033C21F10B3411F120916E
:1009F00026031981110F1213EDCF4A81441F0936C6
:100A000069F10D3211F0013E29F74F7009F0042F02
:100A100000932D033F915F914F911F910F912F9163
:100A20006F91CAB7C6FD62CFDF91CF91CFBFCF9193
:100A3000189520912D03222369F310912B03112384
:100A4000E9F53430EAF130932B032093270310911A
:100A500028033BE0311B3093280332C000912B0365
:100A6000013064F50AE54F7049F43091790134FDA5
:100A700028C000937901CFE0D3E027C0423049F08D
:100A800030911A0334FD1DC000931A03CBE1D3E06B
:100A90001CC03091450334FD14C000934503C6E4E7
:100AA000D3E013C0052710E000C0000002BB1AC04D
:100AB000052710E0221F1DC010E021C04AE502C03A
:100AC00032ED432FC4E1D0E032E011B31C60939AC1
:100AD00002B311BB5CE020E865E320FF052702BB01
:100AE000279517951C3FF0F66695B8F7B1F720FFEC
:100AF000052702BB279517951C3FD0F6279517951C
:100B000017FF052700001C3F02BBB0F629913A955C
:100B100019F7037F10912C03110FC651D04002BB6F
:100B200011F01093260310E41ABF086011B3137F6D
:100B3000402F437F54E05A95F1F702BB11BB42BBF3
:100B400069CF8091AE02811102C080E008951092B9
:100B5000AE02A0917C01B0E0CD0101968F71992782
:100B600020917B01281789F0AA0FBB1FAA0FBB1F7A
:100B7000AA0FBB1FA358BE4F98E0EAE8F2E001902D
:100B80000D929A95E1F780937C010E94D810809194
:100B90002E03882321F080911A0384FD02C081E096
:100BA000089580917B0190917C019817C1F390E0AA
:100BB000880F991F880F991F880F991F68E0835825
:100BC0009E4F0E948C1080917B0190E001968F7166
:100BD000992780937B0181E008958091BB029091D9
:100BE000B002981729F18093B00281E02091C002F1
:100BF0003091C1024091B6025091B702421753079B
:100C0000C9F03093B7022093B6022091C20230910E
:100C1000C3028091B9029091BA0282179307C9F07A
:100C20003093BA022093B90283E08093C5020895FD
:100C300080E0DCCF2091C2023091C3024091B90222
:100C40005091BA024217530759F7882381F381E084
:100C5000ECCF82E0EACF8091A20290918A029817AD
:100C6000D1F180938A0281E09091A30220918C02BD
:100C7000291719F090938C0281E09091A4022091A1
:100C80008D02291719F090938D0281E09091A502B1
:100C900020918E02291719F090938E0281E0909195
:100CA000A60220918F02291719F090938F0281E0FC
:100CB0009091A70220919002291779F090939002C9
:100CC0009091A8028091910298139093910281E0F3
:100CD0008093AE02089580E0C7CF9091A802209142
:100CE00091022913F2CF8111F2CF0895CF93809111
:100CF000C502882381F081E080937A010E94D81098
:100D00008091450384FD0BC080917A018F5F8093B1
:100D10007A01823398F3C0E08C2FCF910895C0916F
:100D2000C502C13089F0C230B9F0C33021F0C1E052
:100D30008C2FCF91089563E088EB92E00E94B2106F
:100D40001092C502C1E0E8CF66E08FEA92E00E940F
:100D5000B2101092C502E0CF63E085EB92E00E94F2
:100D6000B2101092C502C1E0D7CF0E94D810809176
:100D70002E03882319F080911A0384FF089580912F
:100D80007B0190917C019817C9F390E0880F991F1F
:100D9000880F991F880F991F68E083589E4F0E9403
:100DA0008C1080917B0190E001968F719927809340
:100DB0007B0108959091A302891711F12091A4025B
:100DC0008217F1F03091A5028317D1F04091A6026D
:100DD0008417B1F05091A702851791F06091A80295
:100DE000681771F0992371F02223A1F03323A9F041
:100DF0004423B1F05523B9F06623C1F080E0089593
:100E000081E0089520E030E0F901EE55FD4F818347
:100E100081E0089521E030E0F7CF22E030E0F4CF28
:100E200023E030E0F1CF24E030E0EECF25E030E009
:100E3000EBCFE2EAF2E09081892B80830895EBEB1F
:100E4000F2E09081892B8083089590E09093C10215
:100E50008093C0020895982F907F9039D9F038F090
:100E6000903C91F0903E81F0903B71F0089590326B
:100E700021F0903879F09111F9CF90E09260909341
:100E8000C3028093C202089590E09093C3028093BE
:100E9000C202089590E091609093C3028093C202D1
:100EA0000895EBEBF2E0108216821582108617820D
:100EB000089586E0E3EAF2E0DF011D928A95E9F702
:100EC0001092A2020895CF92DF92EF92FF920F93B9
:100ED0001F93CF93DF9380E090E00E940713EC0113
:100EE00082E090E00E9407138C0184E090E00E9471
:100EF00007137C0186E090E00E9407136C0188E0F4
:100F000090E00E9407132A9749F0DF91CF911F913B
:100F10000F91FF90EF90DF90CF9008950F30110563
:100F2000A1F72EE1E216F10481F7E9E6CE16D1042D
:100F300061F7843B910549F78AE090E00E94FF1237
:100F4000809392008BE090E00E94FF1280939300C8
:100F50008CE090E00E94FF12809394008DE090E07E
:100F60000E94FF12809395008EE090E00E94FF1295
:100F7000809396008FE090E00E94FF1280938300A0
:100F800080E190E00E94FF128093840081E190E074
:100F90000E94FF128093850082E190E00E94FF1280
:100FA0008093860083E190E00E94FF128093870087
:100FB00084E190E00E94FF128093880085E190E038
:100FC0000E94FF128093890086E190E00E94FF1248
:100FD00080938A0087E190E00E94FF1280938B004B
:100FE00088E190E00E94FF1280938C0089E190E0FC
:100FF0000E94FF1280938D008AE190E00E94FF1210
:1010000080938E008BE190E00E94FF1280938F000E
:101010008CE190E00E94FF12809390008DE190E0BF
:101020000E94FF128093910007E910E0C0E0D0E039
:10103000CE014E960E94FF12F8018083CE014F969A
:101040000E94FF12F8018183CE0180960E94FF1258
:10105000F8018283CE0181960E94FF12F8018383FA
:10106000CE0182960E94FF12F8018483CE018396FE
:101070000E94FF12F8018583CE0184960E94FF1220
:10108000F8018683CE0185960E94FF12F8018783BE
:10109000CE0186960E94FF12F8018087CE018796C6
:1010A0000E94FF12F8018187CE0188960E94FF12EC
:1010B000F8018287CE0189960E94FF12F80183878A
:1010C000CE018A960E94FF12F8018487CE018B968A
:1010D0000E94FF12F8018587CE018C960E94FF12B4
:1010E000F80186872F96015F1F4FCB34D10509F099
:1010F0009FCF02EE10E0C0E0D0E0CE0187599F4FB5
:101100000E94FF12F8018083CE0186599F4F0E94F2
:10111000FF12F8018183CE0185599F4F0E94FF1273
:10112000F8018283CE0184599F4F0E94FF12F8017B
:101130008383CE0183599F4F0E94FF12F80184835D
:10114000CE0182599F4F0E94FF12F8018583CE0184
:1011500081599F4F0E94FF12F8018683CE0180596A
:101160009F4F0E94FF12F8018783CE018F589F4F37
:101170000E94FF12F8018087CE018E589F4F0E9477
:10118000FF12F8018187CE018D589F4F0E94FF12F8
:10119000F8018287CE018C589F4F0E94FF12F80100
:1011A0008387CE018B589F4F0E94FF12F8018487DE
:1011B000CE018A589F4F0E94FF12F8018587CE0109
:1011C00089589F4F0E94FF12F80186872F96015F72
:1011D0001F4FCB34D10509F090CF0DE211E0C0E0F4
:1011E000D0E0CE018C549F4F0E94FF12F801808303
:1011F000CE018B549F4F0E94FF12F8018183CE01D4
:101200008A549F4F0E94FF12F8018283CE018954B5
:101210009F4F0E94FF12F8018383CE0188549F4F95
:101220000E94FF12F8018483CE0187549F4F0E94D1
:10123000FF12F8018583CE0186549F4F0E94FF1252
:10124000F8018683CE0185549F4F0E94FF12F8015A
:101250008783CE0184549F4F0E94FF12F80180873C
:10126000CE0183549F4F0E94FF12F8018187CE0167
:1012700082549F4F0E94FF12F8018287CE01815451
:101280009F4F0E94FF12F8018387CE0180549F4F29
:101290000E94FF12F8018487CE018F539F4F0E9456
:1012A000FF12F8018587CE018E539F4F0E94FF12D7
:1012B000F80186872F96015F1F4FCB34D10509F0C7
:1012C00090CF23CECF93DF93683019F0DF91CF9189
:1012D0000895EC0128812F3F09F45AC02091AA02F9
:1012E0002111F4CFFC0188E0A2E8B2E0ED011992EF
:1012F0008A95E9F7808180938202818180938302BD
:10130000828180938402838180938502848180938B
:1013100086028581809387028681809388028781F7
:1013200080938902C0918202D09183020E94C90CED
:10133000CE3FE1E0DE0780F0CE0102968E3FF1E085
:101340009F07E8F0CE0104968E3F21E0920770F0EF
:10135000DF91CF910C94DB0CE199FECF6091840278
:1013600070918502CE010E940D13E6CFE199FECF68
:1013700060918802709189020E940D13E9CFE19972
:10138000FECF60918602709187020E940D13DACF22
:101390002981213F71F0223F09F0A0CF8091AA025C
:1013A000811194CF82E08093AA02DF91CF910C94B7
:1013B000DB0C8091AA02813009F088CF1092AA023A
:1013C00085CF90E08032910540F4FC01E65DFF4F4F
:1013D0000C94F9126111D7C08F980895662309F40F
:1013E00094C08E9A0895662309F491C08D9A089549
:1013F000662309F48EC08C9A0895662309F48BC085
:101400008B9A0895662309F48AC08A9A0895662300
:1014100009F483C0889A0895662309F482C0899AE2
:101420000895662309F47FC0A79A0895662309F4F6
:1014300082C0A69A0895662309F479C0A29A0895F5
:10144000662309F47CC0A49A0895662309F46DC04C
:10145000A09A0895662309F470C0A59A089566239A
:1014600009F467C0A19A0895662309F46AC0A39A93
:101470000895662309F467C0BF9A0895662309F4A6
:1014800072C0BE9A0895662309F465C0D69A08957D
:10149000662309F470C0BA9A0895662309F457C008
:1014A000D29A0895662309F462C0BC9A089566230F
:1014B00009F455C0D49A0895662309F460C0B89A17
:1014C0000895662309F441C0D09A0895662309F46B
:1014D0004CC0BD9A0895662309F43FC0D59A08957B
:1014E000662309F44AC0B99A0895662391F1D19A06
:1014F00008956623F1F1BB9A0895662391F1D39A7A
:1015000008956623F1F1D79A08958E9808958D98DD
:1015100008958C9808958B980895889808958A98CE
:10152000089589980895A7980895A0980895A29875
:101530000895A1980895A6980895A5980895A49847
:101540000895A3980895BF980895D0980895D298C3
:101550000895D1980895D6980895D5980895D49867
:101560000895D3980895BE980895BD980895BC989D
:101570000895BB980895BA980895B9980895B898B1
:101580000895D79808958F9A089590E08032910534
:1015900040F4FC01E65BFF4F0C94F9126111D7C0D7
:1015A00097980895662309F494C0969A089566233F
:1015B00009F491C0959A0895662309F48EC0949A0F
:1015C0000895662309F48BC0939A0895662309F45D
:1015D0008AC0929A0895662309F483C0909A089568
:1015E000662309F482C0919A0895662309F47FC0A6
:1015F000AF9A0895662309F482C0AE9A08956623CF
:1016000009F479C0AA9A0895662309F47CC0AC9ABB
:101610000895662309F46DC0A89A0895662309F415
:1016200070C0AD9A0895662309F467C0A99A089519
:10163000662309F46AC0AB9A0895662309F467C06B
:10164000C79A0895662309F472C0C69A089566235E
:1016500009F465C0DE9A0895662309F470C0C29A41
:101660000895662309F457C0DA9A0895662309F4A9
:1016700062C0C49A0895662309F455C0DC9A08959F
:10168000662309F460C0C09A0895662309F441C036
:10169000D89A0895662309F44CC0C59A0895662324
:1016A00009F43FC0DD9A0895662309F44AC0C19A3F
:1016B0000895662391F1D99A08956623F1F1C39AAA
:1016C0000895662391F1DB9A08956623F1F1DF9A7C
:1016D00008959698089595980895949808959398E4
:1016E0000895909808959298089591980895AF98C4
:1016F0000895A8980895AA980895A9980895AE986D
:101700000895AD980895AC980895AB980895C7983A
:101710000895D8980895DA980895D9980895DE988C
:101720000895DD980895DC980895DB980895C6988B
:101730000895C5980895C4980895C3980895C298C7
:101740000895C1980895C0980895DF980895979ACC
:10175000089590E08032910510F080E00895FC013A
:10176000E659FF4F0C94F91280B38074089580B34A
:101770008072089580B38071089580B38870089551
:1017800080B38470089580B38270089580B38170AF
:10179000089583B38078089583B38074089583B3E4
:1017A0008072089583B38071089583B3887008951B
:1017B00083B38470089583B38270089583B3817076
:1017C000089586B38078089586B38074089586B3AB
:1017D0008072089586B38071089586B388700895E5
:1017E00086B38470089586B38270089586B381703D
:1017F000089589B38078089589B38074089589B372
:101800008072089589B38071089589B388700895AE
:1018100089B38470089589B38270089589B3817003
:10182000089580B380780895843031F09091D20289
:10183000892B8093D202089590918A02992389F18D
:101840009091A302953391F32091A402253371F373
:101850003091A502353351F34091A602453331F35F
:101860005091A702553311F36091A8026533F1F24C
:10187000992309F447C0222309F44AC0332309F409
:1018800050C0442309F453C0552309F453C06111D7
:10189000CDCF25E030E0F901EE55FD4F95E3918382
:1018A000C5CF9091A302993209F22091A402293266
:1018B00009F4BCCF3091A502393209F4B7CF409179
:1018C000A602493209F4B2CF5091A702593209F465
:1018D000ADCF6091A802693209F4A8CF9923A9F08D
:1018E0002223C9F03323D1F04423F1F0552329F109
:1018F00061119CCF25E030E0F901EE55FD4F99E2F2
:10190000918394CF20E030E0C6CF20E030E0F4CFE8
:1019100021E030E0C0CF21E030E0EECF22E030E047
:10192000EBCF22E030E0B7CF23E030E0E5CF23E09B
:1019300030E0B1CF24E030E0AECF24E030E0DCCFC7
:101940008091D2029091D502981721F08093D50210
:1019500081E0089580E008950C94230F1092D8023E
:10196000E0E0F0E0ED57FF4F60E080810E94E10988
:10197000E091D802F0E0ED57FF4F61E080810E94D6
:10198000C50AE091D802EF5FE093D802EF3048F348
:1019900008951092D802E0E0F0E0E058FF4F61E0D7
:1019A00080810E94C50AE091D802EF5FE093D802DF
:1019B000E33090F308951092D802E0E0F0E0E058B0
:1019C000FF4F60E080810E94C50AE091D802EF5F7E
:1019D000E093D802E33090F308950F931F93CF93D1
:1019E000DF931092D80280E0C1E0D0E00BC060E04D
:1019F00080810E94C50A8091D8028F5F8093D802AF
:101A00008330F0F4282F30E0AE0102C0440F551FA0
:101A10008A95E2F78091A90290E084239523F90149
:101A2000E058FF4F4817590711F761E080810E9485
:101A3000C50A8091D8028F5F8093D802833010F35B
:101A400080917F0280FF4DC061E08CE10E94C50A59
:101A500080910B0390910C03811524E0920708F408
:101A600045C080917F0281FF58C0C0E6D0E000E011
:101A700010E008C0998388830F5F1F4F22960031C2
:101A8000110501F128813981F901ED58F94F64916F
:101A9000F901ED58FB4F4491F901ED58FD4F2491A8
:101AA000C8010E94D012888199810196811522E097
:101AB000920700F3198218820F5F1F4F22960031A0
:101AC000110501F780910B0390910C0301979093FE
:101AD0000C0380930B03DF91CF911F910F910C9416
:101AE000DC1260E08CE10E94C50AB2CF009759F485
:101AF00080E094E090930C0380930B03DF91CF91EF
:101B00001F910F910895019790930C0380930B03FD
:101B1000DF91CF911F910F9108950E94C812D2CFEB
:101B2000EF92FF920F931F93CF93DF9380EF8093F9
:101B3000DA021092D70280E0C1E0D0E01FE09FE01F
:101B4000F92E06E0EE24E3948D5F9E0102C0220F81
:101B5000331F8A95E2F7C90127BB809588BB109295
:101B6000D902E0E008C08C9187778C93EF5FE09317
:101B7000D902EF3008F5F0E0ED57FF4F80810E9469
:101B8000A90BE091D902A091D7021A9FD00111248C
:101B9000A35DBE4FAE0FB11D8111E5CF8C9188685A
:101BA0008C9300937E028E3E09F7F092DA02EF5F8B
:101BB000E093D902EF30F8F217BAE8BA8091D70271
:101BC0008F5F8093D702853008F4BECF0E945907FB
:101BD0000E9451071092D2021092D70240E0CFE04B
:101BE0001092D90290E01DC0803B09F4CEC008F4E9
:101BF00088C0803D09F4BDC0803F09F4AEC0803C80
:101C000059F429563F4FE20FF31F80810E942507A8
:101C10004091D7029091D9029F5F9093D9029F3053
:101C200068F5E92FF0E0C49F90011124D901A35D6C
:101C3000BE4FAE0FBF1F5C918091DA0285238F30BB
:101C400009F4BCC088F68B3009F46DC008F046C0BA
:101C5000893009F475C08A30F9F6A9014E515F4FF9
:101C6000E40FF51F80810E9419074091D7029091DF
:101C7000D9029F5F9093D9029F3098F24F5F4093B3
:101C8000D702453008F4ACCF0E94A00C882319F08D
:101C900083E080937D020E942B06882319F083E065
:101CA00080937D020E94ED058111A1C080917E028A
:101CB000863009F4A4C0813009F4A9C090917D0256
:101CC0008111A1C0992319F0915090937D02DF9169
:101CD000CF911F910F91FF90EF9008958C3009F4F0
:101CE00060C08D3009F098CFA9014E515F4FE40FCD
:101CF000F51F80810E942B074091D7029091D90255
:101D00008BCF803909F467C0803A09F085CF295616
:101D10003F4FE20FF31F80810E9419074091D702C5
:101D20009091D90279CFA9014E515F4FE40FF51F71
:101D300080810E941F074091D7029091D9026CCFF9
:101D4000A9014E515F4FE40FF51F80810E94DA0612
:101D50004091D7029091D9025FCF29563F4FE20FB1
:101D6000F31F80810E94140C4091D7029091D902F8
:101D700053CF29563F4FE20FF31F80810E942B075C
:101D80004091D7029091D90247CF29563F4FE20F99
:101D9000F31F80810E941F074091D7029091D902C2
:101DA0003BCFA9014E515F4FE40FF51F80810E9488
:101DB00025074091D7029091D9022ECFC9018E51AB
:101DC0009F4FE80FF91F80810E94140C4091D702A9
:101DD0009091D90221CF29563F4FE20FF31F808106
:101DE0000E94DA064091D7029091D90215CF83E084
:101DF00080937D0280917E02863009F05CCF9091C5
:101E00007D02913091F0815080937E025BCF909162
:101E10007F028091D502892780937F020E94A105CD
:101E20000E94760680917E0249CF90917F02809138
:101E3000D502892780937F020E94A1050E94760621
:101E400080917E0238CF0E94880F0E94AE0C17BA94
:101E500081E088BBC0E0D4E01092D802E0E0F0E07E
:101E6000E058FF4F61E080810E94E109E091D802D3
:101E7000F0E0E058FF4F60E080810E94C50AE091E9
:101E8000D802EF5FE093D802E33048F361E08CE1E1
:101E90000E94E10960E08CE10E94C50A10927F0275
:101EA0000E94C612D0930C03C0930B030E94C81269
:101EB0000E94DC1281E08093AA020E9459070E94CE
:101EC00051070E9463072FEF89E698E12150804077
:101ED0009040E1F700C000000E94A1050E94B506F5
:101EE0008091AA02823009F4B7CF8130B9F70E94FD
:101EF000900D80912E03882389F380911A0384FF2B
:101F0000EDCF80917D028111E9CF0E94ED0CE6CFEB
:101F100089B78E7F89BF89B78B7F89BF89B78F7B50
:101F200089BF8D98959A0E94B3128B9A8FEFA895CE
:101F3000AFE9BFE01197F1F700C000008150B9F799
:101F40008B98789488E0EAE9F2E0DF01382F1D925F
:101F50003A95E9F7EAE8F2E0DF01382F1D923A9569
:101F6000E9F79DE0E2EAF2E0DF011D929A95E9F7D8
:101F700091E09093AA022CE0E6ECF2E0DF01322F30
:101F80001D923A95E9F7EFEAF2E0DF011D922A95FA
:101F9000E9F72BE0EBEBF2E0DF011D922A95E9F780
:101FA0009093AF0292E09093B50293E09093B802C1
:101FB000E2E9F2E0DF01382F1D923A95E9F7E2E815
:101FC000F2E0DF011D928A95E9F71092D202109299
:101FD000D5020895FC0190930E0380930D03908128
:101FE0009076903211F080E008958181813069F01F
:101FF000823099F08A3021F18930A9F7828193816A
:102000008115924091F08FEF08958AE892E09093C5
:102010002A038093290388E0089580E892E0909352
:102020002A038093290381E0089584819581892B77
:1020300051F78091A90280688093A9028FEF0895DB
:1020400083818093800280E00895FC019091A90231
:1020500097FD02C08FEF089580818093A90281E0EF
:102060000895FC019381923079F120F1913291F041
:102070009232F1F48481958181309105A9F1E0F1EA
:102080000297B1F48AE991E090932A03809329039F
:1020900085E1089582818130F9F0B0F1823041F418
:1020A00088E591E090932A038093290389E00895BD
:1020B00080E008959130E1F788E691E090932A035B
:1020C0008093290382E1089584E191E090932A03AB
:1020D0008093290384E508958FE391E090932A0388
:1020E0008093290389E008958FEA91E090932A0371
:1020F0008093290384E8089583E392E090932A0370
:102100008093290380E4089586E291E090932A0366
:102110008093290389E00895CF9320911A032E31EB
:10212000C1F020911A0324FD16C02AE520931A035A
:10213000FC01ACE1B3E0862F91919D938150E1F7D2
:10214000C62F8CE193E00E946E0464E06C0F6093F4
:102150001A03CF91089530911B0328E82327209379
:102160001B03E6CFCF9320911A032E31C1F02091AB
:10217000450324FD16C02AE520934503FC01A7E48E
:10218000B3E0862F91919D938150E1F7C62F87E4AC
:1021900093E00E946E0464E06C0F60934503CF915E
:1021A00008953091460328E8232720934603E6CF7D
:1021B000CF93DF9360912B03635067FD17C020918D
:1021C00028038CE090E0821B9109EC01C15DDC4F9B
:1021D00080912703803108F494C08D3209F495C0B2
:1021E0008091810287FDEDC010922B0380917901CF
:1021F00084FF61C0609178016F3F09F45CC0693071
:1022000008F46BC068506093780190910F0388E8E0
:10221000892780930F03CCE068E0A0912903B09157
:102220002A038091810286FF8FC0FD0184918093F3
:10223000100331968FEF860F09F42DC0E491E093DF
:102240001103FD013296623031F1E491E093120303
:10225000FD0133966330F9F0E491E0931303FD013F
:1022600034966430C1F0E491E0931403FD01359697
:10227000653089F0E491E0931503FD0136966630F0
:1022800051F0E491E0931603FD013796673019F0A1
:10229000E491E093170390E00196A80FB91FB09363
:1022A0002A03A093290380E193E00E946E04CC30BE
:1022B00021F5C093790194E180B38C7059F4915069
:1022C000D9F710922C03109226038AE580931A0303
:1022D00080934503DF91CF910895109278019091FA
:1022E0000F0388E8892780930F03611196C060E08F
:1022F00080E193E00E946E04C4E08FEF8093780148
:10230000D8CFCE010E9462096FCF683009F06CCF40
:1023100083EC80930F038AE5809379011092810208
:102320009881892F807609F45BC0CE010E94EA0F64
:102330008F3F09F069C0988197FD9CC090E8909309
:1023400081028093780150CF8C91809310038FEF9E
:10235000860F09F4A0CF11969C91119790931103C9
:10236000623009F498CF12969C91129790931203C1
:10237000633009F490CF13969C91139790931303B5
:10238000643009F488CF14969C91149790931403A9
:10239000653009F480CF15969C911597909315039D
:1023A000663009F478CF16969C9116979093160391
:1023B000673009F470CF17969C9117979093170385
:1023C0006ACFCE010E9425108F3F31F0882309F497
:1023D0000BCF1092780108CF8EE18093790104CF62
:1023E0002A813C81109218038981811119C09F7143
:1023F000923009F441C01092190328E133E082E0E1
:1024000030932A03209329039F8191119ACF9E81B3
:10241000981708F096CF892F94CFC4E0C60FFDCE51
:10242000982F9D7F913099F0853009F444C0863013
:1024300009F447C08830D9F1893071F18A3041F10F
:102440008B3009F450C028E133E080E0D9CF21116E
:10245000FACF3138C1F7813009F443C08EE180935F
:102460001A038BE480931B038093460328E133E037
:1024700080E0C6CF8E8162CF313809F0BCCF909119
:102480001A0381E09E3109F080E080931803B3CFF6
:1024900028E133E081E0B4CF20932E038AE58093D6
:1024A0001A038093450328E133E080E0A9CF2EE2B0
:1024B00033E081E0A5CF20932C0328E133E080E0D6
:1024C0009FCF8B81813099F1823049F18330E9F0DF
:1024D000813299F0823269F080E090E49093810239
:1024E00027CF8AE5BCCF8BE480931B038093460300
:1024F000D5CFCE010E943110F0CF86E291E09093CB
:102500002A038093290389E0E8CF211118C086E9C6
:1025100091E090932A038093290384E0DECF84E145
:1025200091E090932A038093290384E5D6CF88E62F
:1025300091E090932A038093290382E1CECF21304A
:1025400051F0223049F68AE791E090932A03809374
:10255000290382E1C2CF8CE891E090932A03809313
:1025600029038AE0BACF85B7826085BF8BB78064C4
:102570008BBFAAE1B3E08BE411968C931197E5E44D
:10258000F3E081838AE58C9380830895A19A08956E
:1025900080E3EBEDF2E0DF011D928A95E9F7089503
:1025A000FC01EE0FFF1F8E0F9F1FFC01E552FD4F38
:1025B0004083618322830895F89425B32D7F95B3DA
:1025C0009260EBEDF2E0819138E095BB000000C035
:1025D00087FF25BB880F000000C000C000C025BBDE
:1025E00000C03A9591F783E0EB30F80761F77894F3
:1025F0000895EE0FFF1F0590F491E02D0994E199E5
:10260000FECF9FBB8EBBE09A99278DB30895A8E1BA
:10261000B0E042E050E00C9414130E942213272FE4
:102620000C942313DC01CB01FC01E199FECF06C021
:10263000FFBBEEBBE09A31960DB20D924150504077
:10264000B8F70895262FE199FECF9FBB8EBB2DBB17
:102650000FB6F894E29AE19A0FBE01960895F894A5
:02266000FFCFAA
:1026620000002200440066008800AA00AA00880038
:10267200660044002200000000000000000000008C
:1026820018191E0001020304050607171615141374
:10269200121F0B0C0D0E0F041E1F202122232425B6
:1026A20026272D2E352A2B141A0815171C180C1242
:1026B200132F30310039041607090A0B0D0E0F33A0
:1026C2003400280002001D1B061905111036373888
:1026D200205210010004000000002C004000505164
:1026E2004F00353A3B3C3D3E3F404142434445006A
:1026F2004C2B595A5B5C5D5E5F60616256573100DC
:10270200390104020000000000000000002800025D
:102712000053474946010200EAE9E2205210010053
:1027220004000000002C00400050514F00711111B4
:102732001111111111111111111110111111111188
:102742001111111111111111111100111313131083
:102752001010101010101000110022001111111190
:1027620017171015151522112222662200000000EB
:0A2772001100226611111100FF5A38
:00000001FF
