:107000000C9468380C94A0380C9485380C9485380E
:107010000C9485380C9485380C9485380C948538FC
:107020000C9485380C9485380C9485380C948538EC
:107030000C9485380C9485380C9485380C948538DC
:107040000C9485380C9485380C9485380C948538CC
:107050000C9485380403090412036F006200640075
:10706000650076002E00610074001003480049009E
:10707000440042006F006F00740012011001000014
:107080000008C016DF05000101020001090222000C
:107090000101008032090400000103000000092101
:1070A00001010001222100070581030800C8060034
:1070B000FF0901A101150026FF007508850195064D
:1070C0000900B20201850295830900B20201C000E5
:1070D00011241FBECFE5D8E0DEBFCDBF10E0A0E693
:1070E000B0E0E0EAF8E702C005900D92AA36B107D9
:1070F000D9F710E0AAE6B0E001C01D92A33AB107AB
:10710000E1F70E94EF3B0C944E3C0C940038A82F02
:10711000B92F80E090E041E050EA609530E009C08E
:107120002D9182279795879510F084279527305EBB
:10713000C8F36F5FA8F30895EADF8D939D930895D8
:10714000CF93CFB7CF93C395839BE9F7839B09C0B8
:10715000839B07C0839B05C0839B03C0839B01C0A7
:10716000A3C0DF93C0918600DD27C357DF4F839B09
:1071700002C0DF91EBCF2F930F931F9300B32FEF3C
:1071800003FB20F94F933F9310B34FEF012703FB0D
:1071900021F93BE031C04E7F012F10B3216028C0A0
:1071A000102F4D7F2260000000B329C04B7F246068
:1071B000012F000010B32BC010B3477F28602AC0F6
:1071C0004F7E00B320612CC04F7D10B320622FC0D2
:1071D0004F7B00B3206432C0422700B349934FEF86
:1071E0000000102713FB20F910B31C70C9F1297F90
:1071F00091F2012703FB21F900B3237F89F231507B
:1072000058F1102713FB22F910B3277E79F20127DA
:1072100003FB23F92F7C81F200B3102713FB24F921
:107220002F7971F200C010B3012703FB25F92F73EA
:1072300059F200C000B3102713FB26F9223040F2A8
:1072400000C010B3012703FB27F9243028F64F773D
:10725000206810B30000F9CF10E41ABF002719C04E
:107260003B503195C31BD04010E41ABF0881033C4A
:10727000F9F00B34E9F0209184001981110F1213F9
:10728000EDCF4A81441F093641F10D3211F0013E24
:1072900029F700938B003F914F911F910F912F91F0
:1072A000DF91CAB7C6FD4FCFCF91CFBFCF91189511
:1072B00020918B00222379F310918900112321F56D
:1072C000343022F13093890020938500109186009C
:1072D0003BE0311B3093860019C0009189000130DA
:1072E0009CF40AE54F7081F43091600034FD10C0C9
:1072F00000936000C8E7D0E00FC02795A8F4515074
:10730000A9F4220F0000F9CF4AE503C042ED01C005
:10731000432FC4E1D0E032E011B31C60939A11BB5B
:1073200002B320E41CE05F93012756E002BB2795DF
:1073300020F4515021F4220FF9CF012756E000002C
:107340003B5A02BBD0F2279528F4515029F4220F62
:107350000000F9CF012756E0279502BB20F45150D9
:1073600021F4220FF9CF012756E02991332302BBE4
:1073700021F6037F10918A00110FC651D04002BB45
:1073800011F01093840010E41ABF086011B3137F4A
:10739000402F437F5F9100C000C002BB11BB42BBC6
:1073A0007ACF29B3237040916D000DC089B330E0CE
:1073B00090E0837090702817390711F040E001C009
:1073C0004F5F29B323704B3088F3209371004093B3
:1073D0006D00233018F481E080936C0080916C0084
:1073E000882329F188EB9BE00197F1F780916A00EF
:1073F0008F5F80936A008F3711F081E0089580914C
:107400006B00882319F0813069F405C082B38C7A4F
:1074100082BB81E004C082B3836582BB82E080933B
:107420006B0002C010926B0010926A0081E0089518
:1074300085B7826085BF8BB780648BBF0895F89451
:1074400081E180935700E8951BBE15BE81E08BBF9C
:107450001BBEE0917600F09177000995FC018181D7
:10746000893061F48281823021F481E0809374005C
:1074700001C082E0809383008FEF0895813011F086
:1074800080E0089581E690E09093880080938700E3
:1074900087E00895CF93DF93DC01C0916F00D09116
:1074A0007000413051F410926E001196CC911197FA
:1074B0001296DC9112971496645030916E00360F3C
:1074C00030936E00AE014F7751F4F89483E0FE01E3
:1074D00080935700E895789407B600FCFDCFF894A8
:1074E000AE018D919C91119721E0FE010C0120933A
:1074F0005700E895112478942296FE01EF7751F415
:10750000F89485E0FA0180935700E895789407B6DF
:1075100000FCFDCF625011F01296D4CFD0937000D2
:10752000C0936F00832F8078DF91CF910895CF9320
:10753000DF93FC0180918300813071F480917400AD
:10754000813029F410927400CF0141E002C0CF01D4
:1075500040E00E944A3A2FC0823061F5818181303B
:1075600011F40E941F3A8F3F21F484E090E06FEF06
:1075700019C08E3F91F482B3836582BBC0E0D0E036
:10758000CE016FEF0E94413C219684E0C030D807C5
:10759000B9F782B38C7A82BB0BC08D3F31F4828104
:1075A000938164810E94413C03C081E08093750017
:1075B0001092830081E0DF91CF9108951F93CF93C4
:1075C000DF9360918900635067FDBAC080918600A7
:1075D000CCE0D0E0C81BD109C357DF4F80918500B4
:1075E0008D3209F09AC0683009F0A8C083EC80930E
:1075F00078008AE58093600010927300888180761D
:1076000041F0CE010E942E3A282F8F3F09F474C01A
:107610007AC09A81109281008981882321F4109286
:10762000820022E062C0853019F490938A005CC029
:10763000863009F04AC08B81813019F48AE790E7DF
:107640001BC0823041F48CE890E7909388008093CF
:10765000870022E236C08330F9F48A81882341F41E
:1076600084E590E7909388008093870024E029C008
:10767000813041F488E590E79093880080938700FB
:1076800022E11FC08230E1F48AE690E790938800FF
:107690008093870020E115C0813241F48EE990E7A4
:1076A000909388008093870029E00BC0823241F4D8
:1076B0008EEA90E7909388008093870021E201C0D2
:1076C00020E080E4809373001EC0883021F421E024
:1076D0008CE890E00CC0893019F490938C0004C0C1
:1076E0008A3011F421E001C020E081E890E090931D
:1076F00088008093870007C0888187FD2E8180E8FD
:107700008093730006C08F81882319F48E818217BD
:1077100008F0822F8093680011C08091730087FF6A
:107720000DC0CE010E94973A8F3F21F48EE18093E5
:10773000600004C0882311F0109268001092890044
:107740008091600084FF3DC0809168008F3FC9F147
:10775000182F893008F018E0811B80936800809111
:10776000780098E88927809378001123E1F0E09170
:107770008700F09188008091730086FF09C0912FE7
:10778000A9E7B0E084918D9331969150D9F707C065
:10779000912FA9E7B0E081918D939150E1F7F0939B
:1077A0008800E093870089E790E0612F0E949C3871
:1077B000612F6C5F6C3019F08FEF809368006093DD
:1077C000600094E180B38C7031F49150D9F710923D
:1077D0008A0010928400DF91CF911F91089581B3A8
:1077E000836581BB82B38C7A82BB8D98959A8AB36C
:1077F0008C7F8ABB8BB383608BBBB89AC09881E0C7
:1078000090E00E94393C80937200882341F481E02B
:1078100080936C0081E090E06FEF0E94413C0E94F9
:10782000D139882321F181E08BBF82E08BBF0E9498
:10783000183A8B9A20E0A89588EB9BE00197F1F726
:107840002150C9F78B9878940FEF10E0A8950E940B
:10785000DE3A80917500882331F0002319F411502D
:1078600011F405C001500E94D139882379F70E9494
:107870001F3AE199FECF9FBB8EBBE09A99278DB34B
:107880000895262FE199FECF9FBB8EBB2DBB0FB66F
:10789000F894E29AE19A0FBE01960895F894FFCF0A
:0A78A0005A01800000800000FF0084
:040000030000700089
:00000001FF
